:100000000C942B010C9461010C9461010C9461011E
:100010000C9461010C9461010C9461010C946101D8
:100020000C9461010C9461010C9461010C946101C8
:100030000C9461010C9461010C9461010C946101B8
:100040000C9461010C9461010C9461010C946101A8
:100050000C9461010C9461010C9461010C94610198
:100060000C9461010C9461010C9461010C94610188
:100070000C9461010C9461010C9461010C94610178
:100080000C9461010C9461010C9461010C94610168
:100090000C9461010C9461010C9461010C94610158
:1000A0000C9461010C9461010C9461010C94610148
:1000B0000C9461010C9461010C9461010C94610138
:1000C0000C9461010C9461010C9461010C94610128
:1000D0000C9461010C9461010C9461010C94610118
:1000E0000C9461010C9461010C9461010C94610108
:1000F0000C9461010C9461010C9461010C946101F8
:100100000C9461010C9461010C9461010C946101E7
:100110000C9461010C9461010C9461010C946101D7
:100120000C9461010C9461010C9461010C946101C7
:100130000C9461010C94CB970C9461010C946101B7
:100140000C9461010C9461010C9461010C946101A7
:100150000C9461010C9461010C9461010C94610197
:100160000C9461010C9461010C9461010C94610187
:100170000C9461010C9461010C9461010C94610177
:100180000C9461010C9461010C9461010C94610167
:100190000C9461010C9461010C9461010C94610157
:1001A0000C9461010C9461010C9461010C94610147
:1001B0000C9461010C9461010C9461010C94610137
:1001C0000C9461010C9461010C9461010C94610127
:1001D0000C9461010C9461010C9461010C94610117
:1001E0000C9461010C9461010C9461010C94610107
:1001F0000C9461010C9461010C946101A78FB78F7D
:10020000C78F4690C890D890E890F89008911891C0
:100210000C94C78F0C94A78F0C94B78F0C94FD96F9
:100220000C94F8900C9446900C944E980C94D890A2
:100230000C9408910C9418910C94358A0C94538C5E
:100240000C94C8950C94E8900C94C890358A538C03
:10025000C895FD964E9811241FBECFEFCDBFDFE3AA
:10026000DEBF00E00CBF18BE19BE1ABE1BBE10E2F6
:10027000A0E0B0E2ECEFF7E301E00BBF02C00790B3
:100280000D92AE3DB107D9F71BBE2AE3AEEDB0E249
:1002900001C01D92AC37B207E1F711E0CBE2D1E02B
:1002A00000E006C021970109802FFE010E94DB9B20
:1002B000C632D10780E00807A9F70E94FE890C9496
:1002C000FC9B0C9400002F923F924F925F926F9292
:1002D0007F928F929F92AF92BF92CF92DF92EF92D6
:1002E000FF920F931F93CF93DF9300D000D0CDB731
:1002F000DEB78D839E83FB014B835C83490118012C
:10030000309709F400C52FEFE21AF20A868197812F
:10031000E816F90614F4E682F782AD81BE811896DC
:100320007C9018971996BC902381A72C1B2D110F38
:10033000110B30E040E050E060E070E080E090E0E1
:10034000C12ED12EE12EF12E012F0E94F39B09F434
:10035000DAC4808190E0AB81BC818A179B0781F46D
:10036000818190E08815990559F4828190E0821589
:10037000930531F4AD81BE811696ED93FC931797EA
:1003800029823A8224012B803C80EB83FC83AB8161
:10039000BC8113967C92139716968D919C9117971A
:1003A0001B968D909C901C978114910409F481C038
:1003B0000196F401268137818217930714F486830E
:1003C0009783AD81BE811896EC9118971996BC90D1
:1003D000D40113962C911397AE2E1B2D110F110BD8
:1003E00030E040E050E060E070E080E090E0C12E5E
:1003F000D12EE12EF12E012F0E94F39B09F459C05A
:100400008C9190E028163906A9F411968C911197D9
:1004100090E04816590671F412968C9190E029816B
:100420003A812817390731F4AD81BE8116968D9235
:100430009C921797D4011396EC9313971696ED9010
:10044000FC9017971B966D917C911C9709811A81DE
:100450009201A1018D819E810E946301F401E680D9
:10046000F7806585768509811A819201A1018D81C8
:100470009E810E946301D4011696ED90FC9017971F
:100480001F966D917C91509709811A819201A1016B
:100490008D819E810E946301F401E680F78061896D
:1004A000728909811A819201A1018D819E810E9428
:1004B0006301AB81BC8116968D919C9117971D9617
:1004C0006D907C901E976114710409F47DC20196B1
:1004D000F301268137818217930714F4868397836B
:1004E000AD81BE811896EC9118971996BC90D301F6
:1004F00013962C911397AE2E1B2D110F110B30E07C
:1005000040E050E060E070E080E090E0C12ED12E4D
:10051000E12EF12E012F0E94F39B09F455C28C911C
:1005200090E028163906A9F411968C91119790E065
:100530004816590671F412968C9190E029813A81FF
:100540002817390731F4AD81BE8116966D927C92E1
:100550001797D3011396EC93139716968D919C9150
:1005600017971B968D909C901C978114910409F409
:1005700081C00196F401268137818217930714F414
:1005800086839783AD81BE811896EC911897199652
:10059000BC90D40113962C911397AE2E1B2D110FE6
:1005A000110B30E040E050E060E070E080E090E06F
:1005B000C12ED12EE12EF12E012F0E94F39B09F4C2
:1005C00059C08C9190E028163906A9F411968C91A7
:1005D000119790E04816590671F412968C9190E0AC
:1005E00029813A812817390731F4AD81BE811696E9
:1005F0008D929C921797D4011396EC9313971696AD
:10060000ED90FC9017971B966D917C911C9709813A
:100610001A819201A1018D819E810E946301F401E2
:10062000E680F7806585768509811A819201A101AE
:100630008D819E810E946301D4011696ED90FC90FD
:1006400017971F966D917C91509709811A8192019D
:10065000A1018D819E810E946301F401E680F780F3
:100660006189728909811A819201A1018D819E811E
:100670000E946301D30116968D919C9117971D9648
:100680008D909C901E978114910409F481C001966D
:10069000F401268137818217930714F486839783A8
:1006A000AD81BE811896EC9118971996BC90D40133
:1006B00013962C911397AE2E1B2D110F110B30E0BA
:1006C00040E050E060E070E080E090E0C12ED12E8C
:1006D000E12EF12E012F0E94F39B09F459C08C9159
:1006E00090E028163906A9F411968C91119790E0A4
:1006F0004816590671F412968C9190E029813A813E
:100700002817390731F4AD81BE8116968D929C92DF
:100710001797D4011396EC9313971696ED90FC90CF
:1007200017971B966D917C911C9709811A819201F4
:10073000A1018D819E810E946301F401E680F78012
:100740006585768509811A819201A1018D819E813D
:100750000E946301D4011696ED90FC9017971F96A6
:100760006D917C91509709811A819201A1018D812F
:100770009E810E946301F401E680F780618972899D
:1007800009811A819201A1018D819E810E946301DC
:10079000D30116968D919C9117971F968D909C90E2
:1007A00050978114910409F481C00196F4012681C7
:1007B00037818217930714F486839783AD81BE81B6
:1007C0001896EC9118971996BC90D40113962C9119
:1007D0001397AE2E1B2D110F110B30E040E050E0AF
:1007E00060E070E080E090E0C12ED12EE12EF12E8D
:1007F000012F0E94F39B09F459C08C9190E02816B8
:100800003906A9F411968C91119790E04816590673
:1008100071F412968C9190E029813A81281739075A
:1008200031F4AD81BE8116968D929C921797D401BA
:100830001396EC9313971696ED90FC9017971B96D2
:100840006D917C911C9709811A819201A1018D8182
:100850009E810E946301F401E680F78065857685BC
:1008600009811A819201A1018D819E810E946301FB
:10087000D4011696ED90FC9017971F966D917C9180
:10088000509709811A819201A1018D819E810E9458
:100890006301F401E680F7806189728909811A8118
:1008A0009201A1018D819E810E946301D301169660
:1008B0008D919C91179751968D909C905297811491
:1008C000910409F481C00196F401268137818217D1
:1008D000930714F486839783AD81BE811896EC91BB
:1008E00018971996BC90D40113962C911397AE2E9D
:1008F0001B2D110F110B30E040E050E060E070E084
:1009000080E090E0C12ED12EE12EF12E012F0E9429
:10091000F39B09F459C08C9190E028163906A9F48C
:1009200011968C91119790E04816590671F4129621
:100930008C9190E029813A812817390731F4AD81F3
:10094000BE8116968D929C921797D4011396EC93C4
:1009500013971696ED90FC9017971B966D917C91CE
:100960001C9709811A819201A1018D819E810E94AB
:100970006301F401E680F7806585768509811A8137
:100980009201A1018D819E810E946301D40116967E
:10099000ED90FC9017971F966D917C91509709816F
:1009A0001A819201A1018D819E810E946301F4014F
:1009B000E680F7806189728909811A819201A1011B
:1009C0008D819E810E946301AB81BC8116968D91C1
:1009D0009C9117971F968D909C905097811491042D
:1009E00009F481C00196F4012681378182179307AB
:1009F00014F486839783AD81BE811896EC91189785
:100A00001996BC90D40113962C911397AE2E1B2DE2
:100A1000110F110B30E040E050E060E070E080E04A
:100A200090E0C12ED12EE12EF12E012F0E94F39BDA
:100A300009F459C08C9190E028163906A9F4119652
:100A40008C91119790E04816590671F412968C918A
:100A500090E029813A812817390731F4AD81BE81B0
:100A600016968D929C921797D4011396EC93139738
:100A70001696ED90FC9017971B966D917C911C97A4
:100A800009811A819201A1018D819E810E946301D9
:100A9000F401E680F7806585768509811A819201E7
:100AA000A1018D819E810E946301D4011696ED9073
:100AB000FC9017971F966D917C91509709811A8130
:100AC0009201A1018D819E810E946301F401E68063
:100AD000F7806189728909811A819201A1018D8152
:100AE0009E810E946301AB81BC8116968D919C9181
:100AF000179751968D909C9052978114910409F408
:100B000002C10196F401268137818217930714F4FC
:100B100086839783AD81BE811896EC9118971996BC
:100B2000BC90D40113962C911397AE2E1B2D110F50
:100B3000110B30E040E050E060E070E080E090E0D9
:100B4000C12ED12EE12EF12E012F0E94F39B09F42C
:100B5000DAC08C9190E028163906A9F411968C9190
:100B6000119790E04816590671F412968C9190E016
:100B700029813A812817390731F4AD81BE81169653
:100B80008D929C921797D4011396EC931397169617
:100B90008D919C9117971B966D907C901C9761147A
:100BA000710409F481C00196F3012681378182170F
:100BB000930714F486839783AD81BE811896EC91D8
:100BC00018971996BC90D30113962C911397AE2EBB
:100BD0001B2D110F110B30E040E050E060E070E0A1
:100BE00080E090E0C12ED12EE12EF12E012F0E9447
:100BF000F39B09F459C08C9190E028163906A9F4AA
:100C000011968C91119790E04816590671F412963E
:100C10008C9190E029813A812817390731F4AD8110
:100C2000BE8116966D927C921797D3011396EC9322
:100C300013971696ED90FC9017971B966D917C91EB
:100C40001C9709811A819201A1018D819E810E94C8
:100C50006301F301E680F7806585768509811A8155
:100C60009201A1018D819E810E946301D30116969C
:100C7000ED90FC9017971F966D917C91509709818C
:100C80001A819201A1018D819E810E946301F3016D
:100C9000E680F7806189728909811A819201A10138
:100CA0008D819E810E946301D4011696ED90FC9087
:100CB00017971D966D917C911E9709811A8192015B
:100CC000A1018D819E810E946301F401E680F7807D
:100CD0006785708909811A819201A1018D819E81A8
:100CE0000E946301D4011696ED90FC9017975196DF
:100CF0006D917C91529709811A819201A1018D8198
:100D00009E810E9463012696CDBFDEBFDF91CF9109
:100D10001F910F91FF90EF90DF90CF90BF90AF9019
:100D20009F908F907F906F905F904F903F902F900B
:100D300008952F923F924F925F926F927F928F927F
:100D40009F92AF92BF92CF92DF92EF92FF920F935A
:100D50001F93CF93DF93CDB7DEB72E97CDBFDEBF06
:100D60002C016F837887DC0114968D919C911597E7
:100D7000480F591F4D5F5F4F43705078552334F42F
:100D8000415051094C6F5F6F4F5F5F4FEF81F885A6
:100D900092808180440F551F440F551FDA01A55AD8
:100DA000BF4D12962D913C91139729873A87308039
:100DB0008D919C918B879C87D20116961D921C92D7
:100DC00017971296ED91FC911397ED83FE83868120
:100DD0009781309711F40C94CF249C012F5F3F4FE3
:100DE0002817390714F426833783F201A085B184CC
:100DF000ED81FE812381AA2E1B2D110F110B30E0F6
:100E000040E050E060E070E080E090E0C12ED12E44
:100E1000E12EF12E012F0E94F39B11F40C94CF24AC
:100E2000292D30E029833A8369847A84680C711C07
:100E30008B859C85830D911D1C01808190E0281677
:100E4000390671F4818190E06816790649F482814F
:100E500090E02817390721F49F01F2012683378398
:100E6000ED81FE81A38386819781238534852B8341
:100E70003C832115310511F40C94960F0196D9018C
:100E800016962D913C9117978217930724F4169686
:100E90008D939C931797D2011896EC9118971996F9
:100EA000BC90AB81BC8113962C911397AE2E1B2D59
:100EB000110F110B30E040E050E060E070E080E0A6
:100EC00090E0C12ED12EE12EF12E012F0E94F39B36
:100ED00011F40C94960F8C9190E028163906B1F419
:100EE00011968C91119790E06816790679F4129614
:100EF0008C91129790E029813A812817390731F4B3
:100F00009D01D20116962D933C931797AB81BC811E
:100F10001396EC93139716968D919C9117971B96A9
:100F2000ED91FC911C97ED87FE87309709F470C214
:100F30000196268137818217930714F4868397835D
:100F4000D2011896EC9118971996BC90AD85BE8584
:100F500013962C911397AE2E1B2D110F110B30E011
:100F600040E050E060E070E080E090E0C12ED12EE3
:100F7000E12EF12E012F0E94F39B09F449C28C91BE
:100F800090E028163906B1F411968C91119790E0F3
:100F90006816790679F412968C91129790E029815F
:100FA0003A812817390731F49D01D20116962D9305
:100FB0003C931797AD85BE851396EC9313971696C1
:100FC0008D919C9117971B968D909C901C978114E6
:100FD000910409F47BC00196F401268137818217C0
:100FE000930714F486839783D2011896EC9118978F
:100FF0001996BC90D40113962C911397AE2E1B2DED
:10100000110F110B30E040E050E060E070E080E054
:1010100090E0C12ED12EE12EF12E012F0E94F39BE4
:1010200009F454C08C9190E028163906A1F4119669
:101030008C91119790E06816790669F412968C915C
:1010400090E029813A812817390729F4D2011696B0
:101050008D929C921797D4011396EC931397169642
:10106000ED90FC9017971B966D917C911C970981D0
:101070001A819301A101C2010E946301F401E6807B
:10108000F7806585768509811A819301A101C201E6
:101090000E946301D4011696ED90FC9017971F965D
:1010A0006D917C91509709811A819301A101C20130
:1010B0000E946301F401E680F780618972890981E9
:1010C0001A819301A101C2010E946301AD85BE8511
:1010D00016968D919C9117971D968D909C901E97BA
:1010E0008114910409F47BC00196F40126813781B3
:1010F0008217930714F486839783D2011896EC9194
:1011000018971996BC90D40113962C911397AE2E74
:101110001B2D110F110B30E040E050E060E070E05B
:1011200080E090E0C12ED12EE12EF12E012F0E9401
:10113000F39B09F454C08C9190E028163906A1F471
:1011400011968C91119790E06816790669F41296C1
:101150008C9190E029813A812817390729F4D2012E
:1011600016968D929C921797D4011396EC93139731
:101170001696ED90FC9017971B966D917C911C979D
:1011800009811A819301A101C2010E946301F40146
:10119000E680F7806585768509811A819301A10132
:1011A000C2010E946301D4011696ED90FC9017973E
:1011B0001F966D917C91509709811A819301A1012D
:1011C000C2010E946301F401E680F780618972899F
:1011D00009811A819301A101C2010E946301AD85B9
:1011E000BE8516968D919C9117971F968D909C9019
:1011F00050978114910409F47BC00196F401268173
:1012000037818217930714F486839783D201189647
:10121000EC9118971996BC90D40113962C911397C2
:10122000AE2E1B2D110F110B30E040E050E060E0BE
:1012300070E080E090E0C12ED12EE12EF12E012F42
:101240000E94F39B09F454C08C9190E02816390653
:10125000A1F411968C91119790E06816790669F4C3
:1012600012968C9190E029813A812817390729F448
:10127000D20116968D929C921797D4011396EC93F7
:1012800013971696ED90FC9017971B966D917C9195
:101290001C9709811A819301A101C2010E94630177
:1012A000F401E680F7806585768509811A819301CE
:1012B000A101C2010E946301D4011696ED90FC9039
:1012C00017971F966D917C91509709811A81930110
:1012D000A101C2010E946301F401E680F7806189E7
:1012E000728909811A819301A101C2010E946301DF
:1012F000AD85BE8516968D919C9117975196ED916F
:10130000FC915297ED87FE87309709F481C00196D2
:10131000268137818217930714F486839783D2013D
:101320001896EC9118971996BC90AD85BE851396CA
:101330002C911397AE2E1B2D110F110B30E040E0B6
:1013400050E060E070E080E090E0C12ED12EE12E10
:10135000F12E012F0E94F39B09F45AC08C9190E06A
:1013600028163906B1F411968C91119790E0681601
:10137000790679F412968C91129790E029813A813E
:101380002817390731F49D01D20116962D933C930D
:101390001797AD85BE851396EC9313971696ED902F
:1013A000FC9017971B966D917C911C9709811A816F
:1013B0009301A101C2010E946301ED85FE85E680D3
:1013C000F7806585768509811A819301A101C201A3
:1013D0000E946301AD85BE851696ED90FC9017972F
:1013E0001F966D917C91509709811A819301A101FB
:1013F000C2010E946301ED85FE85E680F780618968
:10140000728909811A819301A101C2010E946301BD
:10141000AB81BC8116968D919C9117971D96ED918D
:10142000FC911E97ED87FE87309709F470C20196F4
:10143000268137818217930714F486839783D2011C
:101440001896EC9118971996BC90AD85BE851396A9
:101450002C911397AE2E1B2D110F110B30E040E095
:1014600050E060E070E080E090E0C12ED12EE12EEF
:10147000F12E012F0E94F39B09F449C28C9190E058
:1014800028163906B1F411968C91119790E06816E0
:10149000790679F412968C91129790E029813A811D
:1014A0002817390731F49D01D20116962D933C93EC
:1014B0001797AD85BE851396EC93139716968D916D
:1014C0009C9117971B968D909C901C97811491046A
:1014D00009F47BC00196F4012681378182179307B6
:1014E00014F486839783D2011896EC911897199675
:1014F000BC90D40113962C911397AE2E1B2D110F77
:10150000110B30E040E050E060E070E080E090E0FF
:10151000C12ED12EE12EF12E012F0E94F39B09F452
:1015200054C08C9190E028163906A1F411968C9144
:10153000119790E06816790669F412968C9190E004
:1015400029813A812817390729F4D20116968D92FC
:101550009C921797D4011396EC9313971696ED90DF
:10156000FC9017971B966D917C911C9709811A81AD
:101570009301A101C2010E946301F401E680F7809A
:101580006585768509811A819301A101C2010E94B6
:101590006301D4011696ED90FC9017971F966D91FC
:1015A0007C91509709811A819301A101C2010E9487
:1015B0006301F401E680F7806189728909811A81EB
:1015C0009301A101C2010E946301AD85BE851696FB
:1015D0008D919C9117971D968D909C901E978114CC
:1015E000910409F47BC00196F401268137818217AA
:1015F000930714F486839783D2011896EC91189779
:101600001996BC90D40113962C911397AE2E1B2DD6
:10161000110F110B30E040E050E060E070E080E03E
:1016200090E0C12ED12EE12EF12E012F0E94F39BCE
:1016300009F454C08C9190E028163906A1F4119653
:101640008C91119790E06816790669F412968C9146
:1016500090E029813A812817390729F4D20116969A
:101660008D929C921797D4011396EC93139716962C
:10167000ED90FC9017971B966D917C911C970981BA
:101680001A819301A101C2010E946301F401E68065
:10169000F7806585768509811A819301A101C201D0
:1016A0000E946301D4011696ED90FC9017971F9647
:1016B0006D917C91509709811A819301A101C2011A
:1016C0000E946301F401E680F780618972890981D3
:1016D0001A819301A101C2010E946301AD85BE85FB
:1016E00016968D919C9117971F968D909C90509770
:1016F0008114910409F47BC00196F401268137819D
:101700008217930714F486839783D2011896EC917D
:1017100018971996BC90D40113962C911397AE2E5E
:101720001B2D110F110B30E040E050E060E070E045
:1017300080E090E0C12ED12EE12EF12E012F0E94EB
:10174000F39B09F454C08C9190E028163906A1F45B
:1017500011968C91119790E06816790669F41296AB
:101760008C9190E029813A812817390729F4D20118
:1017700016968D929C921797D4011396EC9313971B
:101780001696ED90FC9017971B966D917C911C9787
:1017900009811A819301A101C2010E946301F40130
:1017A000E680F7806585768509811A819301A1011C
:1017B000C2010E946301D4011696ED90FC90179728
:1017C0001F966D917C91509709811A819301A10117
:1017D000C2010E946301F401E680F7806189728989
:1017E00009811A819301A101C2010E946301AD85A3
:1017F000BE8516968D919C9117975196ED91FC910F
:101800005297ED87FE87309709F481C001962681B3
:1018100037818217930714F486839783D201189631
:10182000EC9118971996BC90AD85BE8513962C91B6
:101830001397AE2E1B2D110F110B30E040E050E03E
:1018400060E070E080E090E0C12ED12EE12EF12E1C
:10185000012F0E94F39B09F45AC08C9190E0281646
:101860003906B1F411968C91119790E068167906BB
:1018700079F412968C91129790E029813A81281779
:10188000390731F49D01D20116962D933C93179799
:10189000AD85BE851396EC9313971696ED90FC904C
:1018A00017971B966D917C911C9709811A81930162
:1018B000A101C2010E946301ED85FE85E680F780EB
:1018C0006585768509811A819301A101C2010E9473
:1018D0006301AD85BE851696ED90FC9017971F9617
:1018E0006D917C91509709811A819301A101C201E8
:1018F0000E946301ED85FE85E680F780618972892B
:1019000009811A819301A101C2010E946301AB8187
:10191000BC8116968D919C9117971F96ED91FC9125
:101920005097ED87FE87309709F481C00196268194
:1019300037818217930714F486839783D201189610
:10194000EC9118971996BC90AD85BE8513962C9195
:101950001397AE2E1B2D110F110B30E040E050E01D
:1019600060E070E080E090E0C12ED12EE12EF12EFB
:10197000012F0E94F39B09F45AC08C9190E0281625
:101980003906B1F411968C91119790E0681679069A
:1019900079F412968C91129790E029813A81281758
:1019A000390731F49D01D20116962D933C93179778
:1019B000AD85BE851396EC9313971696ED90FC902B
:1019C00017971B966D917C911C9709811A81930141
:1019D000A101C2010E946301ED85FE85E680F780CA
:1019E0006585768509811A819301A101C2010E9452
:1019F0006301AD85BE851696ED90FC9017971F96F6
:101A00006D917C91509709811A819301A101C201C6
:101A10000E946301ED85FE85E680F7806189728909
:101A200009811A819301A101C2010E946301AB8166
:101A3000BC8116968D919C9117975196ED91FC91D2
:101A40005297EB83FC83309709F470C2019626818C
:101A500037818217930714F486839783D2011896EF
:101A6000EC9118971996BC90AB81BC8113962C9180
:101A70001397AE2E1B2D110F110B30E040E050E0FC
:101A800060E070E080E090E0C12ED12EE12EF12EDA
:101A9000012F0E94F39B09F449C28C9190E0281613
:101AA0003906B1F411968C91119790E06816790679
:101AB00079F412968C91129790E029813A81281737
:101AC000390731F49D01D20116962D933C93179757
:101AD000AB81BC811396EC93139716968D919C91D4
:101AE00017971B968D909C901C978114910409F474
:101AF0007BC00196F401268137818217930714F485
:101B000086839783D2011896EC9118971996BC900A
:101B1000D40113962C911397AE2E1B2D110F110B80
:101B200030E040E050E060E070E080E090E0C12E06
:101B3000D12EE12EF12E012F0E94F39B09F454C007
:101B40008C9190E028163906A1F411968C9111978A
:101B500090E06816790669F412968C9190E02981DC
:101B60003A812817390729F4D20116968D929C9252
:101B70001797D4011396EC9313971696ED90FC905B
:101B800017971B966D917C911C9709811A8193017F
:101B9000A101C2010E946301F401E680F78065851E
:101BA000768509811A819301A101C2010E94630116
:101BB000D4011696ED90FC9017971F966D917C912D
:101BC000509709811A819301A101C2010E9463010A
:101BD000F401E680F7806189728909811A81930195
:101BE000A101C2010E946301AB81BC8116968D9157
:101BF0009C9117971D968D909C901E97811491042F
:101C000009F47BC00196F40126813781821793077E
:101C100014F486839783D2011896EC91189719963D
:101C2000BC90D40113962C911397AE2E1B2D110F3F
:101C3000110B30E040E050E060E070E080E090E0C8
:101C4000C12ED12EE12EF12E012F0E94F39B09F41B
:101C500054C08C9190E028163906A1F411968C910D
:101C6000119790E06816790669F412968C9190E0CD
:101C700029813A812817390729F4D20116968D92C5
:101C80009C921797D4011396EC9313971696ED90A8
:101C9000FC9017971B966D917C911C9709811A8176
:101CA0009301A101C2010E946301F401E680F78063
:101CB0006585768509811A819301A101C2010E947F
:101CC0006301D4011696ED90FC9017971F966D91C5
:101CD0007C91509709811A819301A101C2010E9450
:101CE0006301F401E680F7806189728909811A81B4
:101CF0009301A101C2010E946301AB81BC811696D0
:101D00008D919C9117971F968D909C905097811460
:101D1000910409F47BC00196F40126813781821772
:101D2000930714F486839783D2011896EC91189741
:101D30001996BC90D40113962C911397AE2E1B2D9F
:101D4000110F110B30E040E050E060E070E080E007
:101D500090E0C12ED12EE12EF12E012F0E94F39B97
:101D600009F454C08C9190E028163906A1F411961C
:101D70008C91119790E06816790669F412968C910F
:101D800090E029813A812817390729F4D201169663
:101D90008D929C921797D4011396EC9313971696F5
:101DA000ED90FC9017971B966D917C911C97098183
:101DB0001A819301A101C2010E946301F401E6802E
:101DC000F7806585768509811A819301A101C20199
:101DD0000E946301D4011696ED90FC9017971F9610
:101DE0006D917C91509709811A819301A101C201E3
:101DF0000E946301F401E680F7806189728909819C
:101E00001A819301A101C2010E946301AB81BC81CF
:101E100016968D919C9117975196ED91FC91529742
:101E2000EB83FC83309709F481C0019626813781CA
:101E30008217930714F486839783D2011896EC9146
:101E400018971996BC90AB81BC8113962C9113976F
:101E5000AE2E1B2D110F110B30E040E050E060E082
:101E600070E080E090E0C12ED12EE12EF12E012F06
:101E70000E94F39B09F45AC08C9190E02816390611
:101E8000B1F411968C91119790E06816790679F467
:101E900012968C91129790E029813A812817390780
:101EA00031F49D01D20116962D933C931797AB8187
:101EB000BC811396EC9313971696ED90FC901797B0
:101EC0001B966D917C911C9709811A819301A10148
:101ED000C2010E946301EB81FC81E680F780658589
:101EE000768509811A819301A101C2010E946301D3
:101EF000AB81BC811696ED90FC9017971F966D9163
:101F00007C91509709811A819301A101C2010E941D
:101F10006301EB81FC81E680F78061897289098128
:101F20001A819301A101C2010E946301AD81BE81AA
:101F300016968D919C9117971D96ED91FC911E9789
:101F4000ED87FE87309709F45AC5019626813781BF
:101F50008217930714F486839783D2011896EC9125
:101F600018971996BC90AD85BE8513962C91139742
:101F7000AE2E1B2D110F110B30E040E050E060E061
:101F800070E080E090E0C12ED12EE12EF12E012FE5
:101F90000E94F39B09F433C58C9190E02816390612
:101FA000B1F411968C91119790E06816790679F446
:101FB00012968C91129790E029813A81281739075F
:101FC00031F49D01D20116962D933C931797AD8560
:101FD000BE851396EC93139716968D919C91179747
:101FE0001B968D909C901C978114910409F47BC0E2
:101FF0000196F401268137818217930714F48683B2
:102000009783D2011896EC9118971996BC90D40139
:1020100013962C911397AE2E1B2D110F110B30E040
:1020200040E050E060E070E080E090E0C12ED12E12
:10203000E12EF12E012F0E94F39B09F454C08C91E4
:1020400090E028163906A1F411968C91119790E032
:102050006816790669F412968C9190E029813A818C
:102060002817390729F4D20116968D929C9217975A
:10207000D4011396EC9313971696ED90FC90179756
:102080001B966D917C911C9709811A819301A10186
:10209000C2010E946301F401E680F78065857685C0
:1020A00009811A819301A101C2010E946301D40137
:1020B0001696ED90FC9017971F966D917C91509716
:1020C00009811A819301A101C2010E946301F401F7
:1020D000E680F7806189728909811A819301A101E3
:1020E000C2010E946301AD85BE8516968D919C91BB
:1020F00017971D968D909C901E978114910409F45A
:1021000076C10196F401268137818217930714F472
:1021100086839783D2011896EC9118971996BC90F4
:10212000D40113962C911397AE2E1B2D110F110B6A
:1021300030E040E050E060E070E080E090E0C12EF0
:10214000D12EE12EF12E012F0E94F39B09F44FC1F5
:102150008C9190E028163906A1F411968C91119774
:1021600090E06816790669F412968C9190E02981C6
:102170003A812817390729F4D20116968D929C923C
:102180001797D4011396EC9313971696ED90FC9045
:1021900017971B966D917C911C9709811A81930169
:1021A000A101C2010E946301F401E680F780658508
:1021B000768509811A819301A101C2010E94630100
:1021C000D40116968D919C9117971F96ED91FC91D5
:1021D0005097EB83FC83309709F481C001962681E8
:1021E00037818217930714F486839783D201189658
:1021F000EC9118971996BC90AB81BC8113962C91E9
:102200001397AE2E1B2D110F110B30E040E050E064
:1022100060E070E080E090E0C12ED12EE12EF12E42
:10222000012F0E94F39B09F45AC08C9190E028166C
:102230003906B1F411968C91119790E068167906E1
:1022400079F412968C91129790E029813A8128179F
:10225000390731F49D01D20116962D933C931797BF
:10226000AB81BC811396EC9313971696ED90FC907E
:1022700017971B966D917C911C9709811A81930188
:10228000A101C2010E946301EB81FC81E680F7801D
:102290006585768509811A819301A101C2010E9499
:1022A0006301AB81BC811696ED90FC9017971F9649
:1022B0006D917C91509709811A819301A101C2010E
:1022C0000E946301EB81FC81E680F780618972895D
:1022D00009811A819301A101C2010E946301D40105
:1022E00016968D919C91179751968D909C90529730
:1022F0008114910409F47BC00196F4012681378191
:102300008217930714F486839783D2011896EC9171
:1023100018971996BC90D40113962C911397AE2E52
:102320001B2D110F110B30E040E050E060E070E039
:1023300080E090E0C12ED12EE12EF12E012F0E94DF
:10234000F39B09F454C08C9190E028163906A1F44F
:1023500011968C91119790E06816790669F412969F
:102360008C9190E029813A812817390729F4D2010C
:1023700016968D929C921797D4011396EC9313970F
:102380001696ED90FC9017971B966D917C911C977B
:1023900009811A819301A101C2010E946301F40124
:1023A000E680F7806585768509811A819301A10110
:1023B000C2010E946301D4011696ED90FC9017971C
:1023C0001F966D917C91509709811A819301A1010B
:1023D000C2010E946301F401E680F780618972897D
:1023E00009811A819301A101C2010E946301AD8597
:1023F000BE8516968D919C9117971F968D909C90F7
:1024000050978114910409F47BC00196F401268150
:1024100037818217930714F486839783D201189625
:10242000EC9118971996BC90D40113962C911397A0
:10243000AE2E1B2D110F110B30E040E050E060E09C
:1024400070E080E090E0C12ED12EE12EF12E012F20
:102450000E94F39B09F454C08C9190E02816390631
:10246000A1F411968C91119790E06816790669F4A1
:1024700012968C9190E029813A812817390729F426
:10248000D20116968D929C921797D4011396EC93D5
:1024900013971696ED90FC9017971B966D917C9173
:1024A0001C9709811A819301A101C2010E94630155
:1024B000F401E680F7806585768509811A819301AC
:1024C000A101C2010E946301D4011696ED90FC9017
:1024D00017971F966D917C91509709811A819301EE
:1024E000A101C2010E946301F401E680F7806189C5
:1024F000728909811A819301A101C2010E946301BD
:10250000AD85BE8516968D919C9117975196ED914C
:10251000FC915297EB83FC83309709F470C20196CB
:10252000268137818217930714F486839783D2011B
:102530001896EC9118971996BC90AB81BC811396B4
:102540002C911397AE2E1B2D110F110B30E040E094
:1025500050E060E070E080E090E0C12ED12EE12EEE
:10256000F12E012F0E94F39B09F449C28C9190E057
:1025700028163906B1F411968C91119790E06816DF
:10258000790679F412968C91129790E029813A811C
:102590002817390731F49D01D20116962D933C93EB
:1025A0001797AB81BC811396EC93139716968D9178
:1025B0009C9117971B968D909C901C978114910469
:1025C00009F47BC00196F4012681378182179307B5
:1025D00014F486839783D2011896EC911897199674
:1025E000BC90D40113962C911397AE2E1B2D110F76
:1025F000110B30E040E050E060E070E080E090E0FF
:10260000C12ED12EE12EF12E012F0E94F39B09F451
:1026100054C08C9190E028163906A1F411968C9143
:10262000119790E06816790669F412968C9190E003
:1026300029813A812817390729F4D20116968D92FB
:102640009C921797D4011396EC9313971696ED90DE
:10265000FC9017971B966D917C911C9709811A81AC
:102660009301A101C2010E946301F401E680F78099
:102670006585768509811A819301A101C2010E94B5
:102680006301D4011696ED90FC9017971F966D91FB
:102690007C91509709811A819301A101C2010E9486
:1026A0006301F401E680F7806189728909811A81EA
:1026B0009301A101C2010E946301AB81BC81169606
:1026C0008D919C9117971D968D909C901E978114CB
:1026D000910409F47BC00196F401268137818217A9
:1026E000930714F486839783D2011896EC91189778
:1026F0001996BC90D40113962C911397AE2E1B2DD6
:10270000110F110B30E040E050E060E070E080E03D
:1027100090E0C12ED12EE12EF12E012F0E94F39BCD
:1027200009F454C08C9190E028163906A1F4119652
:102730008C91119790E06816790669F412968C9145
:1027400090E029813A812817390729F4D201169699
:102750008D929C921797D4011396EC93139716962B
:10276000ED90FC9017971B966D917C911C970981B9
:102770001A819301A101C2010E946301F401E68064
:10278000F7806585768509811A819301A101C201CF
:102790000E946301D4011696ED90FC9017971F9646
:1027A0006D917C91509709811A819301A101C20119
:1027B0000E946301F401E680F780618972890981D2
:1027C0001A819301A101C2010E946301AB81BC8106
:1027D00016968D919C9117971F968D909C9050976F
:1027E0008114910409F47BC00196F401268137819C
:1027F0008217930714F486839783D2011896EC917D
:1028000018971996BC90D40113962C911397AE2E5D
:102810001B2D110F110B30E040E050E060E070E044
:1028200080E090E0C12ED12EE12EF12E012F0E94EA
:10283000F39B09F454C08C9190E028163906A1F45A
:1028400011968C91119790E06816790669F41296AA
:102850008C9190E029813A812817390729F4D20117
:1028600016968D929C921797D4011396EC9313971A
:102870001696ED90FC9017971B966D917C911C9786
:1028800009811A819301A101C2010E946301F4012F
:10289000E680F7806585768509811A819301A1011B
:1028A000C2010E946301D4011696ED90FC90179727
:1028B0001F966D917C91509709811A819301A10116
:1028C000C2010E946301F401E680F7806189728988
:1028D00009811A819301A101C2010E946301AB81A8
:1028E000BC8116968D919C9117975196ED91FC9114
:1028F0005297EB83FC83309709F481C001962681BF
:1029000037818217930714F486839783D201189630
:10291000EC9118971996BC90AB81BC8113962C91C1
:102920001397AE2E1B2D110F110B30E040E050E03D
:1029300060E070E080E090E0C12ED12EE12EF12E1B
:10294000012F0E94F39B09F45AC08C9190E0281645
:102950003906B1F411968C91119790E068167906BA
:1029600079F412968C91129790E029813A81281778
:10297000390731F49D01D20116962D933C93179798
:10298000AB81BC811396EC9313971696ED90FC9057
:1029900017971B966D917C911C9709811A81930161
:1029A000A101C2010E946301EB81FC81E680F780F6
:1029B0006585768509811A819301A101C2010E9472
:1029C0006301AB81BC811696ED90FC9017971F9622
:1029D0006D917C91509709811A819301A101C201E7
:1029E0000E946301EB81FC81E680F7806189728936
:1029F00009811A819301A101C2010E946301AD8185
:102A0000BE8116968D919C9117971F96ED91FC9122
:102A10005097EB83FC83309711F40C94691D019659
:102A2000268137818217930714F486839783D20116
:102A30001896EC9118971996BC90AB81BC811396AF
:102A40002C911397AE2E1B2D110F110B30E040E08F
:102A500050E060E070E080E090E0C12ED12EE12EE9
:102A6000F12E012F0E94F39B11F40C94691D8C919F
:102A700090E028163906B1F411968C91119790E0E8
:102A80006816790679F412968C91129790E0298154
:102A90003A812817390731F49D01D20116962D93FA
:102AA0003C931797AB81BC811396EC9313971696C2
:102AB0008D919C9117971B96ED91FC911C97ED873A
:102AC000FE87309709F470C20196268137818217FC
:102AD000930714F486839783D2011896EC91189784
:102AE0001996BC90AD85BE8513962C911397AE2E8A
:102AF0001B2D110F110B30E040E050E060E070E062
:102B000080E090E0C12ED12EE12EF12E012F0E9407
:102B1000F39B09F449C28C9190E028163906B1F470
:102B200011968C91119790E06816790679F41296B7
:102B30008C91129790E029813A812817390731F456
:102B40009D01D20116962D933C931797AD85BE85B6
:102B50001396EC93139716968D919C9117971B964D
:102B60008D909C901C978114910409F47BC0019670
:102B7000F401268137818217930714F486839783A3
:102B8000D2011896EC9118971996BC90D40113961F
:102B90002C911397AE2E1B2D110F110B30E040E03E
:102BA00050E060E070E080E090E0C12ED12EE12E98
:102BB000F12E012F0E94F39B09F454C08C9190E0F8
:102BC00028163906A1F411968C91119790E0681699
:102BD000790669F412968C9190E029813A81281740
:102BE000390729F4D20116968D929C921797D40139
:102BF0001396EC9313971696ED90FC9017971B96EF
:102C00006D917C911C9709811A819301A101C201E8
:102C10000E946301F401E680F7806585768509816D
:102C20001A819301A101C2010E946301D401169689
:102C3000ED90FC9017971F966D917C9150970981AC
:102C40001A819301A101C2010E946301F401E6808F
:102C5000F7806189728909811A819301A101C201FA
:102C60000E946301AD85BE8516968D919C91179744
:102C70001D968D909C901E978114910409F47BC041
:102C80000196F401268137818217930714F4868315
:102C90009783D2011896EC9118971996BC90D4019D
:102CA00013962C911397AE2E1B2D110F110B30E0A4
:102CB00040E050E060E070E080E090E0C12ED12E76
:102CC000E12EF12E012F0E94F39B09F454C08C9148
:102CD00090E028163906A1F411968C91119790E096
:102CE0006816790669F412968C9190E029813A81F0
:102CF0002817390729F4D20116968D929C921797BE
:102D0000D4011396EC9313971696ED90FC901797B9
:102D10001B966D917C911C9709811A819301A101E9
:102D2000C2010E946301F401E680F7806585768523
:102D300009811A819301A101C2010E946301D4019A
:102D40001696ED90FC9017971F966D917C91509779
:102D500009811A819301A101C2010E946301F4015A
:102D6000E680F7806189728909811A819301A10146
:102D7000C2010E946301AD85BE8516968D919C911E
:102D800017971F968D909C9050978114910409F489
:102D90007BC00196F401268137818217930714F4D2
:102DA00086839783D2011896EC9118971996BC9058
:102DB000D40113962C911397AE2E1B2D110F110BCE
:102DC00030E040E050E060E070E080E090E0C12E54
:102DD000D12EE12EF12E012F0E94F39B09F454C055
:102DE0008C9190E028163906A1F411968C911197D8
:102DF00090E06816790669F412968C9190E029812A
:102E00003A812817390729F4D20116968D929C929F
:102E10001797D4011396EC9313971696ED90FC90A8
:102E200017971B966D917C911C9709811A819301CC
:102E3000A101C2010E946301F401E680F78065856B
:102E4000768509811A819301A101C2010E94630163
:102E5000D4011696ED90FC9017971F966D917C917A
:102E6000509709811A819301A101C2010E94630157
:102E7000F401E680F7806189728909811A819301E2
:102E8000A101C2010E946301AD85BE8516968D9198
:102E90009C9117975196ED91FC915297ED87FE8783
:102EA000309709F481C001962681378182179307F4
:102EB00014F486839783D2011896EC91189719968B
:102EC000BC90AD85BE8513962C911397AE2E1B2D0D
:102ED000110F110B30E040E050E060E070E080E066
:102EE00090E0C12ED12EE12EF12E012F0E94F39BF6
:102EF00009F45AC08C9190E028163906B1F4119665
:102F00008C91119790E06816790679F412968C915D
:102F1000129790E029813A812817390731F49D01F1
:102F2000D20116962D933C931797AD85BE851396C7
:102F3000EC9313971696ED90FC9017971B966D9156
:102F40007C911C9709811A819301A101C2010E9401
:102F50006301ED85FE85E680F780658576850981CC
:102F60001A819301A101C2010E946301AD85BE8552
:102F70001696ED90FC9017971F966D917C91509747
:102F800009811A819301A101C2010E946301ED85AB
:102F9000FE85E680F7806189728909811A81930133
:102FA000A101C2010E946301AB81BC8116968D9183
:102FB0009C9117971D96ED91FC911E97ED87FE87CA
:102FC000309709F47CC101962681378182179307D7
:102FD00014F486839783D2011896EC91189719966A
:102FE000BC90AD85BE8513962C911397AE2E1B2DEC
:102FF000110F110B30E040E050E060E070E080E045
:1030000090E0C12ED12EE12EF12E012F0E94F39BD4
:1030100009F455C18C9190E028163906B1F4119647
:103020008C91119790E06816790679F412968C913C
:10303000129790E029813A812817390731F49D01D0
:10304000D20116962D933C931797AD85BE851396A6
:10305000EC9313971696ED90FC9017971B966D9135
:103060007C911C9709811A819301A101C2010E94E0
:103070006301ED85FE85E680F780658576850981AB
:103080001A819301A101C2010E946301AD85BE8531
:1030900016968D919C9117971F968D909C905097A6
:1030A0008114910409F47BC00196F40126813781D3
:1030B0008217930714F486839783D2011896EC91B4
:1030C00018971996BC90D40113962C911397AE2E95
:1030D0001B2D110F110B30E040E050E060E070E07C
:1030E00080E090E0C12ED12EE12EF12E012F0E9422
:1030F000F39B09F454C08C9190E028163906A1F492
:1031000011968C91119790E06816790669F41296E1
:103110008C9190E029813A812817390729F4D2014E
:1031200016968D929C921797D4011396EC93139751
:103130001696ED90FC9017971B966D917C911C97BD
:1031400009811A819301A101C2010E946301F40166
:10315000E680F7806585768509811A819301A10152
:10316000C2010E946301D4011696ED90FC9017975E
:103170001F966D917C91509709811A819301A1014D
:10318000C2010E946301F401E680F78061897289BF
:1031900009811A819301A101C2010E946301AD85D9
:1031A000BE8516968D919C9117975196ED91FC9145
:1031B0005297ED87FE87309709F481C001962681EA
:1031C00037818217930714F486839783D201189668
:1031D000EC9118971996BC90AD85BE8513962C91ED
:1031E0001397AE2E1B2D110F110B30E040E050E075
:1031F00060E070E080E090E0C12ED12EE12EF12E53
:10320000012F0E94F39B09F45AC08C9190E028167C
:103210003906B1F411968C91119790E068167906F1
:1032200079F412968C91129790E029813A812817AF
:10323000390731F49D01D20116962D933C931797CF
:10324000AD85BE851396EC9313971696ED90FC9082
:1032500017971B966D917C911C9709811A81930198
:10326000A101C2010E946301ED85FE85E680F78021
:103270006585768509811A819301A101C2010E94A9
:103280006301AD85BE851696ED90FC9017971F964D
:103290006D917C91509709811A819301A101C2011E
:1032A0000E946301ED85FE85E680F7806189728961
:1032B00009811A819301A101C2010E946301AB81BE
:1032C000BC8116968D919C9117971F96ED91FC915C
:1032D0005097ED87FE87309709F47CC101962681CF
:1032E00037818217930714F486839783D201189647
:1032F000EC9118971996BC90AD85BE8513962C91CC
:103300001397AE2E1B2D110F110B30E040E050E053
:1033100060E070E080E090E0C12ED12EE12EF12E31
:10332000012F0E94F39B09F455C18C9190E028165F
:103330003906B1F411968C91119790E068167906D0
:1033400079F412968C91129790E029813A8128178E
:10335000390731F49D01D20116962D933C931797AE
:10336000AD85BE851396EC9313971696ED90FC9061
:1033700017971B966D917C911C9709811A81930177
:10338000A101C2010E946301ED85FE85E680F78000
:103390006585768509811A819301A101C2010E9488
:1033A0006301AD85BE8516968D919C9117971F96EA
:1033B0008D909C9050978114910409F47BC00196E4
:1033C000F401268137818217930714F4868397834B
:1033D000D2011896EC9118971996BC90D4011396C7
:1033E0002C911397AE2E1B2D110F110B30E040E0E6
:1033F00050E060E070E080E090E0C12ED12EE12E40
:10340000F12E012F0E94F39B09F454C08C9190E09F
:1034100028163906A1F411968C91119790E0681640
:10342000790669F412968C9190E029813A812817E7
:10343000390729F4D20116968D929C921797D401E0
:103440001396EC9313971696ED90FC9017971B9696
:103450006D917C911C9709811A819301A101C20190
:103460000E946301F401E680F78065857685098115
:103470001A819301A101C2010E946301D401169631
:10348000ED90FC9017971F966D917C915097098154
:103490001A819301A101C2010E946301F401E68037
:1034A000F7806189728909811A819301A101C201A2
:1034B0000E946301AD85BE8516968D919C911797EC
:1034C0005196ED91FC915297ED87FE87309709F464
:1034D00081C00196268137818217930714F4868371
:1034E0009783D2011896EC9118971996BC90AD85E8
:1034F000BE8513962C911397AE2E1B2D110F110B19
:1035000030E040E050E060E070E080E090E0C12E0C
:10351000D12EE12EF12E012F0E94F39B09F45AC007
:103520008C9190E028163906B1F411968C91119780
:1035300090E06816790679F412968C91129790E0D3
:1035400029813A812817390731F49D01D201169655
:103550002D933C931797AD85BE851396EC931397E7
:103560001696ED90FC9017971B966D917C911C9789
:1035700009811A819301A101C2010E946301ED85B5
:10358000FE85E680F7806585768509811A8193013D
:10359000A101C2010E946301AD85BE851696ED9022
:1035A000FC9017971F966D917C91509709811A8115
:1035B0009301A101C2010E946301ED85FE85E680B1
:1035C000F7806189728909811A819301A101C20181
:1035D0000E946301AB81BC8116968D919C911797D7
:1035E0005196ED91FC915297EB83FC83309709F44F
:1035F00070C20196268137818217930714F486835F
:103600009783D2011896EC9118971996BC90AB81CC
:10361000BC8113962C911397AE2E1B2D110F110BFD
:1036200030E040E050E060E070E080E090E0C12EEB
:10363000D12EE12EF12E012F0E94F39B09F449C2F5
:103640008C9190E028163906B1F411968C9111975F
:1036500090E06816790679F412968C91129790E0B2
:1036600029813A812817390731F49D01D201169634
:103670002D933C931797AB81BC811396EC931397D2
:1036800016968D919C9117971B968D909C901C97E8
:103690008114910409F47BC00196F40126813781DD
:1036A0008217930714F486839783D2011896EC91BE
:1036B00018971996BC90D40113962C911397AE2E9F
:1036C0001B2D110F110B30E040E050E060E070E086
:1036D00080E090E0C12ED12EE12EF12E012F0E942C
:1036E000F39B09F454C08C9190E028163906A1F49C
:1036F00011968C91119790E06816790669F41296EC
:103700008C9190E029813A812817390729F4D20158
:1037100016968D929C921797D4011396EC9313975B
:103720001696ED90FC9017971B966D917C911C97C7
:1037300009811A819301A101C2010E946301F40170
:10374000E680F7806585768509811A819301A1015C
:10375000C2010E946301D4011696ED90FC90179768
:103760001F966D917C91509709811A819301A10157
:10377000C2010E946301F401E680F78061897289C9
:1037800009811A819301A101C2010E946301AB81E9
:10379000BC8116968D919C9117971D968D909C904B
:1037A0001E978114910409F47BC00196F4012681CF
:1037B00037818217930714F486839783D201189672
:1037C000EC9118971996BC90D40113962C911397ED
:1037D000AE2E1B2D110F110B30E040E050E060E0E9
:1037E00070E080E090E0C12ED12EE12EF12E012F6D
:1037F0000E94F39B09F454C08C9190E0281639067E
:10380000A1F411968C91119790E06816790669F4ED
:1038100012968C9190E029813A812817390729F472
:10382000D20116968D929C921797D4011396EC9321
:1038300013971696ED90FC9017971B966D917C91BF
:103840001C9709811A819301A101C2010E946301A1
:10385000F401E680F7806585768509811A819301F8
:10386000A101C2010E946301D4011696ED90FC9063
:1038700017971F966D917C91509709811A8193013A
:10388000A101C2010E946301F401E680F780618911
:10389000728909811A819301A101C2010E94630109
:1038A000AB81BC8116968D919C9117971F968D9038
:1038B0009C9050978114910409F47BC00196F40107
:1038C000268137818217930714F486839783D20168
:1038D0001896EC9118971996BC90D40113962C91D8
:1038E0001397AE2E1B2D110F110B30E040E050E06E
:1038F00060E070E080E090E0C12ED12EE12EF12E4C
:10390000012F0E94F39B09F454C08C9190E028167B
:103910003906A1F411968C91119790E068167906FA
:1039200069F412968C9190E029813A812817390721
:1039300029F4D20116968D929C921797D401139672
:10394000EC9313971696ED90FC9017971B966D913C
:103950007C911C9709811A819301A101C2010E94E7
:103960006301F401E680F7806585768509811A8117
:103970009301A101C2010E946301D4011696ED904A
:10398000FC9017971F966D917C91509709811A8131
:103990009301A101C2010E946301F401E680F78056
:1039A0006189728909811A819301A101C2010E9472
:1039B0006301AB81BC8116968D919C9117975196AE
:1039C000ED91FC915297EB83FC83309709F481C011
:1039D0000196268137818217930714F48683978393
:1039E000D2011896EC9118971996BC90AB81BC81C6
:1039F00013962C911397AE2E1B2D110F110B30E047
:103A000040E050E060E070E080E090E0C12ED12E18
:103A1000E12EF12E012F0E94F39B09F45AC08C91E4
:103A200090E028163906B1F411968C91119790E028
:103A30006816790679F412968C91129790E0298194
:103A40003A812817390731F49D01D20116962D933A
:103A50003C931797AB81BC811396EC931397169602
:103A6000ED90FC9017971B966D917C911C970981A6
:103A70001A819301A101C2010E946301EB81FC81C3
:103A8000E680F7806585768509811A819301A10119
:103A9000C2010E946301AB81BC811696ED90FC903F
:103AA00017971F966D917C91509709811A81930108
:103AB000A101C2010E946301EB81FC81E680F780D5
:103AC0006189728909811A819301A101C2010E9451
:103AD0006301AD81BE8116968D919C911797519689
:103AE000ED91FC915297ED83FE83309709F457C70F
:103AF0000196268137818217930714F48683978372
:103B0000D2011896EC9118971996BC90AD81BE81A0
:103B100013962C911397AE2E1B2D110F110B30E025
:103B200040E050E060E070E080E090E0C12ED12EF7
:103B3000E12EF12E012F0E94F39B09F430C78C91E6
:103B400090E028163906B1F411968C91119790E007
:103B50006816790679F412968C91129790E0298173
:103B60003A812817390731F49D01D20116962D9319
:103B70003C931797AD81BE811396EC9313971696DD
:103B80008D919C9117971B96ED91FC911C97EB835F
:103B9000FC83309709F470C2019626813781821721
:103BA000930714F486839783D2011896EC911897A3
:103BB0001996BC90AB81BC8113962C911397AE2EB5
:103BC0001B2D110F110B30E040E050E060E070E081
:103BD00080E090E0C12ED12EE12EF12E012F0E9427
:103BE000F39B09F449C28C9190E028163906B1F490
:103BF00011968C91119790E06816790679F41296D7
:103C00008C91129790E029813A812817390731F475
:103C10009D01D20116962D933C931797AB81BC81E1
:103C20001396EC93139716968D919C9117971B966C
:103C30008D909C901C978114910409F47BC001968F
:103C4000F401268137818217930714F486839783C2
:103C5000D2011896EC9118971996BC90D40113963E
:103C60002C911397AE2E1B2D110F110B30E040E05D
:103C700050E060E070E080E090E0C12ED12EE12EB7
:103C8000F12E012F0E94F39B09F454C08C9190E017
:103C900028163906A1F411968C91119790E06816B8
:103CA000790669F412968C9190E029813A8128175F
:103CB000390729F4D20116968D929C921797D40158
:103CC0001396EC9313971696ED90FC9017971B960E
:103CD0006D917C911C9709811A819301A101C20108
:103CE0000E946301F401E680F7806585768509818D
:103CF0001A819301A101C2010E946301D4011696A9
:103D0000ED90FC9017971F966D917C9150970981CB
:103D10001A819301A101C2010E946301F401E680AE
:103D2000F7806189728909811A819301A101C20119
:103D30000E946301AB81BC8116968D919C9117976F
:103D40001D968D909C901E978114910409F47BC060
:103D50000196F401268137818217930714F4868334
:103D60009783D2011896EC9118971996BC90D401BC
:103D700013962C911397AE2E1B2D110F110B30E0C3
:103D800040E050E060E070E080E090E0C12ED12E95
:103D9000E12EF12E012F0E94F39B09F454C08C9167
:103DA00090E028163906A1F411968C91119790E0B5
:103DB0006816790669F412968C9190E029813A810F
:103DC0002817390729F4D20116968D929C921797DD
:103DD000D4011396EC9313971696ED90FC901797D9
:103DE0001B966D917C911C9709811A819301A10109
:103DF000C2010E946301F401E680F7806585768543
:103E000009811A819301A101C2010E946301D401B9
:103E10001696ED90FC9017971F966D917C91509798
:103E200009811A819301A101C2010E946301F40179
:103E3000E680F7806189728909811A819301A10165
:103E4000C2010E946301AB81BC8116968D919C9149
:103E500017971F968D909C9050978114910409F4A8
:103E60007BC00196F401268137818217930714F4F1
:103E700086839783D2011896EC9118971996BC9077
:103E8000D40113962C911397AE2E1B2D110F110BED
:103E900030E040E050E060E070E080E090E0C12E73
:103EA000D12EE12EF12E012F0E94F39B09F454C074
:103EB0008C9190E028163906A1F411968C911197F7
:103EC00090E06816790669F412968C9190E0298149
:103ED0003A812817390729F4D20116968D929C92BF
:103EE0001797D4011396EC9313971696ED90FC90C8
:103EF00017971B966D917C911C9709811A819301EC
:103F0000A101C2010E946301F401E680F78065858A
:103F1000768509811A819301A101C2010E94630182
:103F2000D4011696ED90FC9017971F966D917C9199
:103F3000509709811A819301A101C2010E94630176
:103F4000F401E680F7806189728909811A81930101
:103F5000A101C2010E946301AB81BC8116968D91C3
:103F60009C9117975196ED91FC915297EB83FC83AE
:103F7000309709F481C00196268137818217930713
:103F800014F486839783D2011896EC9118971996AA
:103F9000BC90AB81BC8113962C911397AE2E1B2D38
:103FA000110F110B30E040E050E060E070E080E085
:103FB00090E0C12ED12EE12EF12E012F0E94F39B15
:103FC00009F45AC08C9190E028163906B1F4119684
:103FD0008C91119790E06816790679F412968C917D
:103FE000129790E029813A812817390731F49D0111
:103FF000D20116962D933C931797AB81BC811396F3
:10400000EC9313971696ED90FC9017971B966D9175
:104010007C911C9709811A819301A101C2010E9420
:104020006301EB81FC81E680F780658576850981F7
:104030001A819301A101C2010E946301AB81BC817D
:104040001696ED90FC9017971F966D917C91509766
:1040500009811A819301A101C2010E946301EB81D0
:10406000FC81E680F7806189728909811A81930158
:10407000A101C2010E946301AD81BE8116968D919E
:104080009C9117971D96ED91FC911E97EB83FC83F5
:10409000309709F475C101962681378182179307FD
:1040A00014F486839783D2011896EC911897199689
:1040B000BC90AB81BC8113962C911397AE2E1B2D17
:1040C000110F110B30E040E050E060E070E080E064
:1040D00090E0C12ED12EE12EF12E012F0E94F39BF4
:1040E00009F44EC18C9190E028163906B1F411966E
:1040F0008C91119790E06816790679F412968C915C
:10410000129790E029813A812817390731F49D01EF
:10411000D20116962D933C931797AB81BC811396D1
:10412000EC93139716968D919C9117971B968D90F3
:104130009C901C978114910409F47BC00196F401B2
:10414000268137818217930714F486839783D201DF
:104150001896EC9118971996BC90D40113962C914F
:104160001397AE2E1B2D110F110B30E040E050E0E5
:1041700060E070E080E090E0C12ED12EE12EF12EC3
:10418000012F0E94F39B09F454C08C9190E02816F3
:104190003906A1F411968C91119790E06816790672
:1041A00069F412968C9190E029813A812817390799
:1041B00029F4D20116968D929C921797D4011396EA
:1041C000EC9313971696ED90FC9017971B966D91B4
:1041D0007C911C9709811A819301A101C2010E945F
:1041E0006301F401E680F7806585768509811A818F
:1041F0009301A101C2010E946301D4011696ED90C2
:10420000FC9017971F966D917C91509709811A81A8
:104210009301A101C2010E946301F401E680F780CD
:104220006189728909811A819301A101C2010E94E9
:104230006301AB81BC8116968D919C9117971D9659
:104240008D909C901E978114910409F47BC0019677
:10425000F401268137818217930714F486839783AC
:10426000D2011896EC9118971996BC90D401139628
:104270002C911397AE2E1B2D110F110B30E040E047
:1042800050E060E070E080E090E0C12ED12EE12EA1
:10429000F12E012F0E94F39B09F454C08C9190E001
:1042A00028163906A1F411968C91119790E06816A2
:1042B000790669F412968C9190E029813A81281749
:1042C000390729F4D20116968D929C921797D40142
:1042D0001396EC9313971696ED90FC9017971B96F8
:1042E0006D917C911C9709811A819301A101C201F2
:1042F0000E946301F401E680F78065857685098177
:104300001A819301A101C2010E946301D401169692
:10431000ED90FC9017971F966D917C9150970981B5
:104320001A819301A101C2010E946301F401E68098
:10433000F7806189728909811A819301A101C20103
:104340000E946301AB81BC811696ED90FC9017979B
:104350001F966D917C91509709811A819301A1015B
:10436000C2010E946301EB81FC81E680F7806189D4
:10437000728909811A819301A101C2010E9463011E
:10438000AD81BE8116968D919C9117971F96ED91E8
:10439000FC915097EB83FC83309709F470C201962F
:1043A000268137818217930714F486839783D2017D
:1043B0001896EC9118971996BC90AB81BC81139616
:1043C0002C911397AE2E1B2D110F110B30E040E0F6
:1043D00050E060E070E080E090E0C12ED12EE12E50
:1043E000F12E012F0E94F39B09F449C28C9190E0B9
:1043F00028163906B1F411968C91119790E0681641
:10440000790679F412968C91129790E029813A817D
:104410002817390731F49D01D20116962D933C934C
:104420001797AB81BC811396EC93139716968D91D9
:104430009C9117971B968D909C901C9781149104CA
:1044400009F47BC00196F401268137818217930716
:1044500014F486839783D2011896EC9118971996D5
:10446000BC90D40113962C911397AE2E1B2D110FD7
:10447000110B30E040E050E060E070E080E090E060
:10448000C12ED12EE12EF12E012F0E94F39B09F4B3
:1044900054C08C9190E028163906A1F411968C91A5
:1044A000119790E06816790669F412968C9190E065
:1044B00029813A812817390729F4D20116968D925D
:1044C0009C921797D4011396EC9313971696ED9040
:1044D000FC9017971B966D917C911C9709811A810E
:1044E0009301A101C2010E946301F401E680F780FB
:1044F0006585768509811A819301A101C2010E9417
:104500006301D4011696ED90FC9017971F966D915C
:104510007C91509709811A819301A101C2010E94E7
:104520006301F401E680F7806189728909811A814B
:104530009301A101C2010E946301AB81BC81169667
:104540008D919C9117971D968D909C901E9781142C
:10455000910409F47BC00196F4012681378182170A
:10456000930714F486839783D2011896EC911897D9
:104570001996BC90D40113962C911397AE2E1B2D37
:10458000110F110B30E040E050E060E070E080E09F
:1045900090E0C12ED12EE12EF12E012F0E94F39B2F
:1045A00009F454C08C9190E028163906A1F41196B4
:1045B0008C91119790E06816790669F412968C91A7
:1045C00090E029813A812817390729F4D2011696FB
:1045D0008D929C921797D4011396EC93139716968D
:1045E000ED90FC9017971B966D917C911C9709811B
:1045F0001A819301A101C2010E946301F401E680C6
:10460000F7806585768509811A819301A101C20130
:104610000E946301D4011696ED90FC9017971F96A7
:104620006D917C91509709811A819301A101C2017A
:104630000E946301F401E680F78061897289098133
:104640001A819301A101C2010E946301AB81BC8167
:1046500016968D919C9117971F968D909C905097D0
:104660008114910409F47BC00196F40126813781FD
:104670008217930714F486839783D2011896EC91DE
:1046800018971996BC90D40113962C911397AE2EBF
:104690001B2D110F110B30E040E050E060E070E0A6
:1046A00080E090E0C12ED12EE12EF12E012F0E944C
:1046B000F39B09F454C08C9190E028163906A1F4BC
:1046C00011968C91119790E06816790669F412960C
:1046D0008C9190E029813A812817390729F4D20179
:1046E00016968D929C921797D4011396EC9313977C
:1046F0001696ED90FC9017971B966D917C911C97E8
:1047000009811A819301A101C2010E946301F40190
:10471000E680F7806585768509811A819301A1017C
:10472000C2010E946301D4011696ED90FC90179788
:104730001F966D917C91509709811A819301A10177
:10474000C2010E946301F401E680F78061897289E9
:1047500009811A819301A101C2010E946301AB8109
:10476000BC8116968D919C9117975196ED91FC9175
:104770005297EB83FC83309709F481C00196268120
:1047800037818217930714F486839783D201189692
:10479000EC9118971996BC90AB81BC8113962C9123
:1047A0001397AE2E1B2D110F110B30E040E050E09F
:1047B00060E070E080E090E0C12ED12EE12EF12E7D
:1047C000012F0E94F39B09F45AC08C9190E02816A7
:1047D0003906B1F411968C91119790E0681679061C
:1047E00079F412968C91129790E029813A812817DA
:1047F000390731F49D01D20116962D933C931797FA
:10480000AB81BC811396EC9313971696ED90FC90B8
:1048100017971B966D917C911C9709811A819301C2
:10482000A101C2010E946301EB81FC81E680F78057
:104830006585768509811A819301A101C2010E94D3
:104840006301AB81BC811696ED90FC9017971F9683
:104850006D917C91509709811A819301A101C20148
:104860000E946301EB81FC81E680F7806189728997
:1048700009811A819301A101C2010E946301AD81E6
:10488000BE8116968D919C9117975196ED91FC9152
:104890005297EB83FC83309709F481C001962681FF
:1048A00037818217930714F486839783D201189671
:1048B000EC9118971996BC90AB81BC8113962C9102
:1048C0001397AE2E1B2D110F110B30E040E050E07E
:1048D00060E070E080E090E0C12ED12EE12EF12E5C
:1048E000012F0E94F39B09F45AC08C9190E0281686
:1048F0003906B1F411968C91119790E068167906FB
:1049000079F412968C91129790E029813A812817B8
:10491000390731F49D01D20116962D933C931797D8
:10492000AB81BC811396EC9313971696ED90FC9097
:1049300017971B966D917C911C9709811A819301A1
:10494000A101C2010E946301EB81FC81E680F78036
:104950006585768509811A819301A101C2010E94B2
:104960006301AB81BC811696ED90FC9017971F9662
:104970006D917C91509709811A819301A101C20127
:104980000E946301EB81FC81E680F7806189728976
:1049900009811A819301A101C2010E946301D20120
:1049A00018968D919C911997019681709078992312
:1049B00024F401978E6F9F6F01969C01F20180870E
:1049C00091870680F781E02D309709F0A0C04091D3
:1049D000DA245091DB24493F51050CF0A3C0AF818C
:1049E000B88512966C91129711967C911197AC91A3
:1049F0004F5F5F4F4093DA245093DB2485E1849F1F
:104A0000F001859FF00D1124E852FB4D88EE93E0F4
:104A100084879587828793878B859C858A0F911DD4
:104A2000848389859A85870F911D858366832F5F8F
:104A30003F4F21703078332334F4215031092E6FE9
:104A40003F6F2F5F3F4F278385E1849FF001859F54
:104A5000F00D1124E852FB4D11861686EF81F88582
:104A6000EF2B09F45FC0849FF001859FF00D1124A6
:104A7000E452FB4DAF81B8851B968D919C911C979C
:104A8000009761F08E179F0709F447C01D9621E03B
:104A900030E08D919D91009771F402C020E030E0EC
:104AA000220F331FAF81B885A20FB31F1B96ED9362
:104AB000FC931C9732C08E179F0779F12F5F3F4FF1
:104AC0002430310531F729C02F813885281739075F
:104AD00049F1DF011D9681E090E0A9012D913D9102
:104AE0002115310561F402C080E090E0880F991F24
:104AF000E80FF91F8F8198858387948713C0421729
:104B0000530781F001968430910541F70BC0AF81C6
:104B1000B885AB2B09F0AECF05C08385948500978F
:104B200099F6E2CF2E96CDBFDEBFDF91CF911F91D8
:104B30000F91FF90EF90DF90CF90BF90AF909F903C
:104B40008F907F906F905F904F903F902F9008953F
:104B50002F923F924F925F926F927F928F929F928D
:104B6000AF92BF92CF92DF92EF92FF920F931F937B
:104B7000CF93DF93CDB7DEB72A97CDBFDEBF240F2B
:104B8000351F2D5F3F4F23703078332334F421508D
:104B900031092C6F3F6F2F5F3F4F6115710511F485
:104BA0000C94E24509871A87DB012C0112966C9060
:104BB000129711967C901197220F331F220F331FEB
:104BC000255A3F4DF90182809380BC910190F0817C
:104BD000E02DEF83F887FC01168217822281338152
:104BE0002D833E83F90186819781309711F40C94CF
:104BF000CE459C012F5F3F4F2817390714F42683B9
:104C00003783F201A085B184ED81FE812381AA2E34
:104C10001B2D110F110B30E040E050E060E070E020
:104C200080E090E0C12ED12EE12EF12E012F0E94C6
:104C3000F39B11F40C94CE45262D30E02B833C835E
:104C4000E985FA858E9EC0018F9E900D9E9E900DE7
:104C500011249C01270D311D29833A838F8198856A
:104C6000E89F1001E99F300CF89F300C11242B0EA7
:104C7000311CED81FE81808190E02816390681F497
:104C8000818190E02817390759F4828190E02B81C7
:104C90003C812817390721F49F01F20126833783CD
:104CA000ED81FE81A383868197816384748461147E
:104CB000710409F434C60196D30116962D913C91E6
:104CC00017978217930724F416968D939C93179742
:104CD000D2011896EC9118971996BC90D3011396AF
:104CE0002C911397AE2E1B2D110F110B30E040E0CD
:104CF00050E060E070E080E090E0C12ED12EE12E27
:104D0000F12E012F0E94F39B09F409C68C9190E0CB
:104D100028163906B1F411968C91119790E02981EB
:104D20003A812817390769F412968C9190E0AB818B
:104D3000BC81A817B90729F4D20116966D927C920E
:104D40001797D3011396EC93139716968D919C9118
:104D500017971B96ED91FC911C97EF83F88730977E
:104D600009F487C00196268137818217930714F4CE
:104D700086839783D2011896EC9118971996BC9068
:104D8000AF81B88513962C911397AE2E1B2D110F62
:104D9000110B30E040E050E060E070E080E090E037
:104DA000C12ED12EE12EF12E012F0E94F39B09F48A
:104DB00060C08C9190E028163906C1F411968C9150
:104DC000119790E029813A812817390779F41296D2
:104DD0008C9190E0AB81BC81A817B90739F42F8181
:104DE0003885D20116962D933C931797AF81B885DD
:104DF0001396EC9313971696ED90FC9017971B96CD
:104E00006D917C911C970B811C8129813A81A101B4
:104E1000C2010E946301EF81F885E680F780658515
:104E200076850B811C8129813A81A101C2010E94F2
:104E30006301AF81B8851696ED90FC9017971F9689
:104E40006D917C9150970B811C8129813A81A10140
:104E5000C2010E946301EF81F885E680F7806189D5
:104E600072890B811C8129813A81A101C2010E94B2
:104E70006301D30116968D919C9117971D968D9085
:104E80009C901E978114910409F499C20196F40133
:104E9000268137818217930714F486839783D20182
:104EA0001896EC9118971996BC90D40113962C91F2
:104EB0001397AE2E1B2D110F110B30E040E050E088
:104EC00060E070E080E090E0C12ED12EE12EF12E66
:104ED000012F0E94F39B09F472C28C9190E0281676
:104EE0003906B1F411968C91119790E029813A819D
:104EF0002817390769F412968C9190E0AB81BC8138
:104F0000A817B90729F4D20116968D929C9217978B
:104F1000D4011396EC93139716968D919C91179745
:104F20001B96ED91FC911C97EF83F887309709F45D
:104F300087C00196268137818217930714F48683F0
:104F40009783D2011896EC9118971996BC90AF816F
:104F5000B88513962C911397AE2E1B2D110F110BA4
:104F600030E040E050E060E070E080E090E0C12E92
:104F7000D12EE12EF12E012F0E94F39B09F460C087
:104F80008C9190E028163906C1F411968C911197F6
:104F900090E029813A812817390779F412968C918B
:104FA00090E0AB81BC81A817B90739F42F8138850F
:104FB000D20116962D933C931797AF81B88513961F
:104FC000EC9313971696ED90FC9017971B966D91A6
:104FD0007C911C970B811C8129813A81A101C2011E
:104FE0000E946301EF81F885E680F780658576850C
:104FF0000B811C8129813A81A101C2010E946301B8
:10500000AF81B8851696ED90FC9017971F966D911D
:105010007C9150970B811C8129813A81A101C201A9
:105020000E946301EF81F885E680F78061897289CB
:105030000B811C8129813A81A101C2010E94630177
:10504000D40116968D919C9117971D96ED91FC9128
:105050001E97EF83F887309709F487C00196268161
:1050600037818217930714F486839783D2011896A9
:10507000EC9118971996BC90AF81B88513962C9136
:105080001397AE2E1B2D110F110B30E040E050E0B6
:1050900060E070E080E090E0C12ED12EE12EF12E94
:1050A000012F0E94F39B09F460C08C9190E02816B8
:1050B0003906C1F411968C91119790E029813A81BB
:1050C0002817390779F412968C9190E0AB81BC8156
:1050D000A817B90739F42F813885D20116962D9378
:1050E0003C931797AF81B8851396EC931397169658
:1050F000ED90FC9017971B966D917C911C970B81FE
:105100001C8129813A81A101C2010E946301EF81C2
:10511000F885E680F780658576850B811C8129817D
:105120003A81A101C2010E946301AF81B885169640
:10513000ED90FC9017971F966D917C9150970B8185
:105140001C8129813A81A101C2010E946301EF8182
:10515000F885E680F780618972890B811C8129813D
:105160003A81A101C2010E946301D40116968D917A
:105170009C9117971F96ED91FC915097EF83F887BC
:10518000309709F487C001962681378182179307EB
:1051900014F486839783D2011896EC911897199688
:1051A000BC90AF81B88513962C911397AE2E1B2D12
:1051B000110F110B30E040E050E060E070E080E063
:1051C00090E0C12ED12EE12EF12E012F0E94F39BF3
:1051D00009F460C08C9190E028163906C1F411964C
:1051E0008C91119790E029813A812817390779F439
:1051F00012968C9190E0AB81BC81A817B90739F465
:105200002F813885D20116962D933C931797AF8145
:10521000B8851396EC9313971696ED90FC9017971C
:105220001B966D917C911C970B811C8129813A8181
:10523000A101C2010E946301EF81F885E680F78039
:10524000658576850B811C8129813A81A101C20186
:105250000E946301AF81B8851696ED90FC90179778
:105260001F966D917C9150970B811C8129813A8109
:10527000A101C2010E946301EF81F885E680F780F9
:10528000618972890B811C8129813A81A101C20146
:105290000E946301D40116968D919C9117975196A7
:1052A000ED91FC915297EF83F887309709F487C00E
:1052B0000196268137818217930714F4868397839A
:1052C000D2011896EC9118971996BC90AF81B885C9
:1052D00013962C911397AE2E1B2D110F110B30E04E
:1052E00040E050E060E070E080E090E0C12ED12E20
:1052F000E12EF12E012F0E94F39B09F460C08C91E6
:1053000090E028163906C1F411968C91119790E01F
:1053100029813A812817390779F412968C9190E007
:10532000AB81BC81A817B90739F42F813885D20128
:1053300016962D933C931797AF81B8851396EC93EF
:1053400013971696ED90FC9017971B966D917C9194
:105350001C970B811C8129813A81A101C2010E9405
:105360006301EF81F885E680F780658576850B819E
:105370001C8129813A81A101C2010E946301AF8190
:10538000B8851696ED90FC9017971F966D917C91BD
:1053900050970B811C8129813A81A101C2010E9491
:1053A0006301EF81F885E680F780618972890B815E
:1053B0001C8129813A81A101C2010E946301D301AC
:1053C00016968D919C9117971F96ED91FC91509791
:1053D000EF83F887309709F48CC1019626813781D5
:1053E0008217930714F486839783D2011896EC9161
:1053F00018971996BC90AF81B88513962C91139786
:10540000AE2E1B2D110F110B30E040E050E060E09C
:1054100070E080E090E0C12ED12EE12EF12E012F20
:105420000E94F39B09F465C18C9190E0281639061F
:10543000C1F411968C91119790E029813A81281737
:10544000390779F412968C9190E0AB81BC81A81752
:10545000B90739F42F813885D20116962D933C93E4
:105460001797AF81B8851396EC9313971696ED9026
:10547000FC9017971B966D917C911C970B811C815A
:1054800029813A81A101C2010E946301EF81F8855F
:10549000E680F780658576850B811C8129813A81BC
:1054A000A101C2010E946301AF81B88516968D915A
:1054B0009C9117971F968D909C9050978114910402
:1054C00009F481C00196F401268137818217930780
:1054D00014F486839783D2011896EC911897199645
:1054E000BC90D40113962C911397AE2E1B2D110F47
:1054F000110B30E040E050E060E070E080E090E0D0
:10550000C12ED12EE12EF12E012F0E94F39B09F422
:105510005AC08C9190E028163906B1F411968C91FE
:10552000119790E029813A812817390769F412967A
:105530008C9190E0AB81BC81A817B90729F4D20106
:1055400016968D929C921797D4011396EC9313970D
:105550001696ED90FC9017971B966D917C911C9779
:105560000B811C8129813A81A101C2010E94630142
:10557000F401E680F780658576850B811C812981A1
:105580003A81A101C2010E946301D4011696ED90F7
:10559000FC9017971F966D917C9150970B811C8101
:1055A00029813A81A101C2010E946301F401E680D0
:1055B000F780618972890B811C8129813A81A1015F
:1055C000C2010E946301AF81B88516968D919C91AE
:1055D00017975196ED91FC915297EF83F88730978A
:1055E00009F487C00196268137818217930714F446
:1055F00086839783D2011896EC9118971996BC90E0
:10560000AF81B88513962C911397AE2E1B2D110FD9
:10561000110B30E040E050E060E070E080E090E0AE
:10562000C12ED12EE12EF12E012F0E94F39B09F401
:1056300060C08C9190E028163906C1F411968C91C7
:10564000119790E029813A812817390779F4129649
:105650008C9190E0AB81BC81A817B90739F42F81F8
:105660003885D20116962D933C931797AF81B88554
:105670001396EC9313971696ED90FC9017971B9644
:105680006D917C911C970B811C8129813A81A1012C
:10569000C2010E946301EF81F885E680F78065858D
:1056A00076850B811C8129813A81A101C2010E946A
:1056B0006301AF81B8851696ED90FC9017971F9601
:1056C0006D917C9150970B811C8129813A81A101B8
:1056D000C2010E946301EF81F885E680F78061894D
:1056E00072890B811C8129813A81A101C2010E942A
:1056F0006301D30116968D919C9117975196ED9168
:10570000FC915297EF83F887309709F408C101960E
:10571000268137818217930714F486839783D201F9
:105720001896EC9118971996BC90AF81B88513968E
:105730002C911397AE2E1B2D110F110B30E040E072
:1057400050E060E070E080E090E0C12ED12EE12ECC
:10575000F12E012F0E94F39B09F4E1C08C9190E09F
:1057600028163906C1F411968C91119790E0298181
:105770003A812817390779F412968C9190E0AB8121
:10578000BC81A817B90739F42F813885D201169644
:105790002D933C931797AF81B8851396EC9313978D
:1057A00016968D919C9117971B968D909C901C97A7
:1057B0008114910409F481C00196F4012681378196
:1057C0008217930714F486839783D2011896EC917D
:1057D00018971996BC90D40113962C911397AE2E5E
:1057E0001B2D110F110B30E040E050E060E070E045
:1057F00080E090E0C12ED12EE12EF12E012F0E94EB
:10580000F39B09F45AC08C9190E028163906B1F444
:1058100011968C91119790E029813A8128173907C8
:1058200069F412968C9190E0AB81BC81A817B907FE
:1058300029F4D20116968D929C921797D401139653
:10584000EC9313971696ED90FC9017971B966D911D
:105850007C911C970B811C8129813A81A101C20195
:105860000E946301F401E680F780658576850B81EF
:105870001C8129813A81A101C2010E946301D401E6
:105880001696ED90FC9017971F966D917C9150970E
:105890000B811C8129813A81A101C2010E9463010F
:1058A000F401E680F780618972890B811C8129816E
:1058B0003A81A101C2010E946301AF81B8851696A9
:1058C000ED90FC9017971D966D917C911E970B8122
:1058D0001C8129813A81A101C2010E946301EF81EB
:1058E000F885E680F780678570890B811C812981A6
:1058F0003A81A101C2010E946301AF81B885169669
:10590000ED90FC90179751966D917C9152970B8179
:105910001C8129813A81A101C2010E946301ED81AC
:10592000FE8186819781658476846114710411F407
:105930000C9462360196D30116962D913C911797DF
:105940008217930724F416968D939C931797D20190
:105950001896EC9118971996BC90D30113962C9138
:105960001397AE2E1B2D110F110B30E040E050E0CD
:1059700060E070E080E090E0C12ED12EE12EF12EAB
:10598000012F0E94F39B11F40C9462368C9190E0ED
:1059900028163906B1F411968C91119790E029815F
:1059A0003A812817390769F412968C9190E0AB81FF
:1059B000BC81A817B90729F4D20116966D927C9282
:1059C0001797D3011396EC93139716968D919C918C
:1059D00017971B968D909C901C978114910409F445
:1059E00099C20196F401268137818217930714F436
:1059F00086839783D2011896EC9118971996BC90DC
:105A0000D40113962C911397AE2E1B2D110F110B51
:105A100030E040E050E060E070E080E090E0C12ED7
:105A2000D12EE12EF12E012F0E94F39B09F472C2B8
:105A30008C9190E028163906B1F411968C9111974B
:105A400090E029813A812817390769F412968C91E0
:105A500090E0AB81BC81A817B90729F4D201169652
:105A60008D929C921797D4011396EC9313971696E8
:105A70008D919C9117971B96ED91FC911C97EF834C
:105A8000F887309709F487C00196268137818217FD
:105A9000930714F486839783D2011896EC91189794
:105AA0001996BC90AF81B88513962C911397AE2EA2
:105AB0001B2D110F110B30E040E050E060E070E072
:105AC00080E090E0C12ED12EE12EF12E012F0E9418
:105AD000F39B09F460C08C9190E028163906C1F45C
