:100000000C940C010C9442010C9442010C9442019A
:100010000C9442010C9442010C9442010C94420154
:100020000C9442010C9442010C9442010C94420144
:100030000C9442010C9442010C9442010C94420134
:100040000C9442010C9442010C9442010C94420124
:100050000C9442010C9442010C9442010C94420114
:100060000C9442010C9442010C9442010C94420104
:100070000C9442010C9442010C9442010C944201F4
:100080000C9442010C9442010C9442010C944201E4
:100090000C9442010C9442010C9442010C944201D4
:1000A0000C9442010C9442010C9442010C944201C4
:1000B0000C9442010C9442010C9442010C944201B4
:1000C0000C9442010C9442010C9442010C944201A4
:1000D0000C9442010C9442010C9442010C94420194
:1000E0000C9442010C9442010C9442010C94420184
:1000F0000C9442010C9442010C9442010C94420174
:100100000C9442010C9442010C9442010C94420163
:100110000C9442010C9442010C9442010C94420153
:100120000C9442010C9442010C9442010C94420143
:100130000C9442010C94910A0C9442010C944201DB
:100140000C9442010C9442010C9442010C94420123
:100150000C9442010C9442010C9442010C94420113
:100160000C9442010C9442010C9442010C94420103
:100170000C9442010C9442010C9442010C944201F3
:100180000C9442010C9442010C9442010C944201E3
:100190000C9442010C9442010C9442010C944201D3
:1001A0000C9442010C9442010C9442010C944201C3
:1001B0000C9442010C9442010C9442010C944201B3
:1001C0000C9442010C9442010C9442010C944201A3
:1001D0000C9442010C9442010C9442010C94420193
:1001E0000C9442010C9442010C9442010C94420183
:1001F0000C9442010C9442010C9442010C945C0159
:100200000C94160F0C94D0080C94870A0C946F0A67
:100210005C01D0086F0A870A11241FBECFEFCDBF43
:10022000DFE3DEBF00E00CBF18BE19BE1ABE1BBE66
:1002300010E2A0E0B0E2EEECFFE100E00BBF02C094
:1002400007900D92A631B107D9F71BBE2AE3A6E1AC
:10025000B0E201C01D92A03EB207E1F711E0CCE090
:10026000D1E000E006C021970109802FFE010E9425
:10027000FF0EC830D10780E00807A9F70E944401AB
:100280000C94E50F0C9400000E940F090E94790A5B
:100290002FEF87E893E1215080409040E1F700C0C4
:1002A000000068E070E286E190E20E94A20B0E94EA
:1002B00068080E940E08FDCFCF93DF93E4E7F8E3D0
:1002C00088E592E0DF01EC011D922197E9F7109299
:1002D000CC3A1092CD3AE6E3F0E288EC90E08083ED
:1002E000918380E797E1ACE3B0E2ED019C011992C4
:1002F00021503040E1F788EE93E08487958782A310
:1003000093A3809376209093772080937E20909380
:100310007F20809394209093952080939C209093AD
:100320009D208093B2209093B3208093BA20909325
:10033000BB208093D0209093D1208093D82090939D
:10034000D9208093EE209093EF208093F620909315
:10035000F72080930C2190930D218093142190938A
:10036000152180932A2190932B2180933221909301
:100370003321809348219093492180935021909379
:100380005121809366219093672180936E219093F1
:100390006F21809384219093852180938C21909369
:1003A0008D218093A2219093A3218093AA219093E1
:1003B000AB218093C0219093C1218093C821909359
:1003C000C9218093DE219093DF218093E6219093D1
:1003D000E7218093FC219093FD2180930422909348
:1003E000052280931A2290931B22809322229093BD
:1003F0002322809338229093392280934022909335
:100400004122809356229093572280935E229093AC
:100410005F22809374229093752280937C22909324
:100420007D22809392229093932280939A2290939C
:100430009B228093B0229093B1228093B822909314
:10044000B9228093CE229093CF228093D62290938C
:10045000D7228093EC229093ED228093F422909304
:10046000F52280930A2390930B2380931223909379
:1004700013238093282390932923809330239093F0
:100480003123809346239093472380934E23909368
:100490004F23809364239093652380936C239093E0
:1004A0006D23809382239093832380938A23909358
:1004B0008B238093A0239093A1238093A8239093D0
:1004C000A9238093BE239093BF238093C623909348
:1004D000C7238093DC239093DD238093E4239093C0
:1004E000E5238093FA239093FB2380930224909337
:1004F00003248093182490931924809320249093AC
:100500002124809336249093372480933E24909323
:100510003F24809354249093552480935C2490939B
:100520005D24809372249093732480937A24909313
:100530007B2480939024909391248093982490938B
:1005400099248093AE249093AF248093B624909303
:10055000B7248093CC249093CD248093D42490937B
:10056000D5248093EA249093EB248093F2249093F3
:10057000F324809308259093092580931025909368
:100580001125809326259093272580932E259093DF
:100590002F25809344259093452580934C25909357
:1005A0004D25809362259093632580936A259093CF
:1005B0006B25809380259093812580938825909347
:1005C000892580939E2590939F258093A6259093BF
:1005D000A7258093BC259093BD258093C425909337
:1005E000C5258093DA259093DB258093E2259093AF
:1005F000E3258093F8259093F92580930026909326
:100600000126809316269093172680931E2690939A
:100610001F26809334269093352680933C26909312
:100620003D26809352269093532680935A2690938A
:100630005B26809370269093712680937826909302
:10064000792680938E2690938F268093962690937A
:1006500097268093AC269093AD268093B4269093F2
:10066000B5268093CA269093CB268093D22690936A
:10067000D3268093E8269093E9268093F0269093E2
:10068000F126809306279093072780930E27909357
:100690000F27809324279093252780932C279093CE
:1006A0002D27809342279093432780934A27909346
:1006B0004B278093602790936127809368279093BE
:1006C000692780937E2790937F2780938627909336
:1006D000872780939C2790939D278093A4279093AE
:1006E000A5278093BA279093BB278093C227909326
:1006F000C3278093D8279093D9278093E02790939E
:10070000E1278093F6279093F7278093FE27909315
:10071000FF27809314289093152880931C2890938A
:100720001D28809332289093332880933A28909301
:100730003B28809350289093512880935828909379
:10074000592880936E2890936F28809376289093F1
:10075000772880938C2890938D2880939428909369
:1007600095288093AA289093AB288093B2289093E1
:10077000B3288093C8289093C9288093D028909359
:10078000D1288093E6289093E7288093EE289093D1
:10079000EF28809304299093052980930C29909346
:1007A0000D29809322299093232980932A299093BD
:1007B0002B29809340299093412980934829909335
:1007C000492980935E2990935F29809366299093AD
:1007D000672980937C2990937D2980938429909325
:1007E000852980939A2990939B298093A22990939D
:1007F000A3298093B8299093B9298093C029909315
:10080000C1298093D6299093D7298093DE2990938C
:10081000DF298093F4299093F5298093FC29909304
:10082000FD298093122A9093132A80931A2A909379
:100830001B2A8093302A9093312A8093382A9093F0
:10084000392A80934E2A90934F2A8093562A909368
:10085000572A80936C2A90936D2A8093742A9093E0
:10086000752A80938A2A90938B2A8093922A909358
:10087000932A8093A82A9093A92A8093B02A9093D0
:10088000B12A8093C62A9093C72A8093CE2A909348
:10089000CF2A8093E42A9093E52A8093EC2A9093C0
:1008A000ED2A8093022B9093032B80930A2B909335
:1008B0000B2B8093202B9093212B8093282B9093AC
:1008C000292B80933E2B90933F2B8093462B909324
:1008D000472B80935C2B90935D2B8093642B90939C
:1008E000652B80937A2B90937B2B8093822B909314
:1008F000832B8093982B9093992B8093A02B90938C
:10090000A12B8093B62B9093B72B8093BE2B909303
:10091000BF2B8093D42B9093D52B8093DC2B90937B
:10092000DD2B8093F22B9093F32B8093FA2B9093F3
:10093000FB2B8093102C9093112C8093182C909368
:10094000192C80932E2C90932F2C8093362C9093DF
:10095000372C80934C2C90934D2C8093542C909357
:10096000552C80936A2C90936B2C8093722C9093CF
:10097000732C8093882C9093892C8093902C909347
:10098000912C8093A62C9093A72C8093AE2C9093BF
:10099000AF2C8093C42C9093C52C8093CC2C909337
:1009A000CD2C8093E22C9093E32C8093EA2C9093AF
:1009B000EB2C8093002D9093012D8093082D909324
:1009C000092D80931E2D90931F2D8093262D90939B
:1009D000272D80933C2D90933D2D8093442D909313
:1009E000452D80935A2D90935B2D8093622D90938B
:1009F000632D8093782D9093792D8093802D909303
:100A0000812D8093962D9093972D80939E2D90937A
:100A10009F2D8093B42D9093B52D8093BC2D9093F2
:100A2000BD2D8093D22D9093D32D8093DA2D90936A
:100A3000DB2D8093F02D9093F12D8093F82D9093E2
:100A4000F92D80930E2E90930F2E8093162E909357
:100A5000172E80932C2E90932D2E8093342E9093CE
:100A6000352E80934A2E90934B2E8093522E909346
:100A7000532E8093682E9093692E8093702E9093BE
:100A8000712E8093862E9093872E80938E2E909336
:100A90008F2E8093A42E9093A52E8093AC2E9093AE
:100AA000AD2E8093C22E9093C32EDF018093CA2E69
:100AB0009093CB2E8093E02E9093E12E8093E82E9E
:100AC0009093E92E8093FE2E9093FF2E8093062F15
:100AD0009093072F80931C2F90931D2F8093242F8A
:100AE0009093252F80933A2F90933B2F8093422F02
:100AF0009093432F8093582F9093592F8093602F7A
:100B00009093612F8093762F9093772F80937E2FF1
:100B100090937F2F8093942F9093952F80939C2F69
:100B200090939D2F8093B22F9093B32F8093BA2FE1
:100B30009093BB2F8093D02F9093D12F8093D82F59
:100B40009093D92F8093EE2F9093EF2F8093F62FD1
:100B50009093F72F80930C3090930D308093143046
:100B60009093153080932A3090932B3080933230BD
:100B70009093333080934830909349308093503035
:100B800090935130809366309093673080936E30AD
:100B900090936F30809384309093853080938C3025
:100BA00090938D308093A2309093A3308093AA309D
:100BB0009093AB308093C0309093C1308093C83015
:100BC0009093C9308093DE309093DF308093E6308D
:100BD0009093E7308093FC309093FD308093043104
:100BE0009093053180931A3190931B318093223179
:100BF00090932331809338319093393180934031F1
:100C000090934131809356319093573180935E3168
:100C100090935F31809374319093753180937C31E0
:100C200090937D31809392319093933180939A3158
:100C300090939B318093B0319093B1318093B831D0
:100C40009093B9318093CE319093CF318093D63148
:100C50009093D7318093EC319093ED318093F431C0
:100C60009093F53180930A3290930B328093123235
:100C700090931332809328329093293280933032AC
:100C800090933132809346329093473280934E3224
:100C900090934F32809364329093653280936C329C
:100CA00090936D32809382329093833280938A3214
:100CB00090938B328093A0329093A1328093A8328C
:100CC0009093A9328093BE329093BF328093C63204
:100CD0009093C7328093DC329093DD328093E4327C
:100CE0009093E5328093FA329093FB3280930233F3
:100CF0009093033380931833909319338093203368
:100D000090932133809336339093373380933E33DF
:100D100090933F33809354339093553380935C3357
:100D200090935D33809372339093733380937A33CF
:100D300090937B3380939033909391338093983347
:100D4000909399338093AE339093AF338093B633BF
:100D50009093B7338093CC339093CD338093D43337
:100D60009093D5338093EA339093EB338093F233AF
:100D70009093F33380930834909309348093103424
:100D800090931134809326349093273480932E349B
:100D900090932F34809344349093453480934C3413
:100DA00090934D34809362349093633480936A348B
:100DB00090936B3480938034909381348093883403
:100DC0009093893480939E3490939F348093A6347B
:100DD0009093A7348093BC349093BD348093C434F3
:100DE0009093C5348093DA349093DB348093E2346B
:100DF0009093E3348093F8349093F93480930035E2
:100E000090930135809316359093173580931E3556
:100E100090931F35809334359093353580933C35CE
:100E200090933D35809352359093533580935A3546
:100E300090935B35809370359093713580937835BE
:100E40009093793580938E3590938F358093963536
:100E5000909397358093AC359093AD358093B435AE
:100E60009093B5358093CA359093CB358093D23526
:100E70009093D3358093E8359093E9358093F0359E
:100E80009093F135809306369093073680930E3613
:100E900090930F36809324369093253680932C368A
:100EA00090932D36809342369093433680934A3602
:100EB00090934B368093603690936136809368367A
:100EC0009093693680937E3690937F3680938636F2
:100ED0009093873680939C3690939D368093A4366A
:100EE0009093A5368093BA369093BB368093C236E2
:100EF0009093C3368093D8369093D9368093E0365A
:100F00009093E1368093F6369093F7368093FE36D1
:100F10009093FF36809314379093153780931C3746
:100F200090931D37809332379093333780933A37BD
:100F300090933B3780935037909351378093583735
:100F40009093593780936E3790936F3780937637AD
:100F50009093773780938C3790938D378093943725
:100F6000909395378093AA379093AB3788ECECEA4F
:100F7000F7E3EF0119928A95E9F712961D921C92F8
:100F8000139781E090E014968D939C931597EAE176
:100F9000F0E22AE530E2208331832283338324E6A2
:100FA00030E094962D933C93959796962D933C9391
:100FB000979798968D939C9399978FEF9FEF9C9618
:100FC0008D939C939D979A961D921C929B97148249
:100FD0001582168217821086118612861386148651
:100FE0001586128E138E168A178A108E118E16860B
:100FF0001786108A118A128A138A148A158A40E485
:1010000056E060EA78E086E190E20E94760BDF919C
:10101000CF91089587E08093A10608950F931F93C1
:10102000CF93DF9340E060EA8EEC9AE30E94FA0AE5
:101030006FE370E08EEC9AE30E94280B41E060EAD7
:101040008EEC9AE30E94FA0A61E08EEC9AE30E9429
:101050004C0BC82F60E08EEC9AE30E944C0BD82F0B
:101060008EEC9AE30E94640B6C2F70E07D2B072EB0
:10107000000C880B990B0E94D40D20E030E040E07A
:1010800058E30E94480E20E030E044E353E40E941D
:10109000480E20E030E048EC52E40E94480E0E94E6
:1010A000960D022F132F242F352F462F572F682FE1
:1010B000792F86E190E20E94B70B61E170E286E150
:1010C00090E20E94A20BDF91CF911F910F910895A2
:1010D00040E060EA8EEC9AE30E94FA0A61E070E078
:1010E0008EEC9AE30E94280B63E070E08EEC9AE3AA
:1010F0000E94280B60E070E08EEC9AE30E94280BBF
:101100008EEC9AE30E94640B2FEF37EA81E62150C0
:1011100030408040E1F700C0000040E060EA8EEC23
:101120009AE30E94FA0A61E070E08EEC9AE30E9472
:10113000280B62E070E08EEC9AE30E94280B60E0DE
:1011400070E08EEC9AE30E94280B8EEC9AE30E94EA
:10115000640B9AEA26EE36E981E091502040304057
:101160008040D9F7000040E060EA8EEC9AE30E94EC
:10117000FA0A61E070E08EEC9AE30E94280B60E0CE
:1011800070E08EEC9AE30E94280B60E070E08EEC39
:101190009AE30E94280B8EEC9AE30E94640B089558
:1011A00020E834E84EE150E060E874E08EEC9AE329
:1011B0000E94B40A0895E0E5F0E0808182608083B7
:1011C000818181FFFDCF88ED84BFE0E4F0E081E024
:1011D000808384E08183E0E5F0E080818E7F8083FE
:1011E000089584E080935000E1E5F0E08081882359
:1011F000E9F381E08093430087E080930004089541
:1012000081E080930106E0ECF7E087E0818385834D
:101210008FE08093210783E08093210608950E9448
:10122000DB080E9400090E941C090E94690A0E94B2
:10123000F1080E940A080895CF93DF93CDB7DEB777
:101240002A97CDBFDEBF20E83AE146E050E060E9F2
:1012500074E0CE0101960E94B40A40E06CE7CE0132
:1012600001960E94FA0A60E070E0CE0101960E94A9
:10127000280B68E370E0CE0101960E94280BCE0196
:1012800001960E94640B2FEF81EE94E02150804084
:101290009040E1F700C0000040E06CE7CE0101960D
:1012A0000E94FA0A60E070E0CE0101960E94280BCD
:1012B00069E370E0CE0101960E94280BCE010196F1
:1012C0000E94640B2FEF81EE94E02150804090400B
:1012D000E1F700C0000040E06CE7CE0101960E94FB
:1012E000FA0A60E070E0CE0101960E94280B64E1EA
:1012F00070E0CE0101960E94280BCE0101960E945B
:10130000640B2FEF81EE94E0215080409040E1F794
:1013100000C0000040E06CE7CE0101960E94FA0A8E
:1013200060E070E0CE0101960E94280B6EE770E04D
:10133000CE0101960E94280BCE0101960E94640BFB
:101340002FEF81EE94E0215080409040E1F700C003
:10135000000040E06CE7CE0101960E94FA0A60E0CE
:1013600070E0CE0101960E94280B65E570E0CE0189
:1013700001960E94280BCE0101960E94640B2FEF6C
:1013800081EE94E0215080409040E1F700C00000E1
:1013900040E06CE7CE0101960E94FA0A60E070E03E
:1013A000CE0101960E94280B6CE670E0CE010196FA
:1013B0000E94280BCE0101960E94640B2FEF83ED53
:1013C00090E3215080409040E1F700C0000040E0F1
:1013D0006CE7CE0101960E94FA0A60E070E0CE014F
:1013E00001960E94280B68E370E0CE0101960E94EE
:1013F000280BCE0101960E94640B2FEF81EE94E042
:10140000215080409040E1F700C0000040E06CE7D0
:10141000CE0101960E94FA0A60E070E0CE010196CA
:101420000E94280B6CE070E0CE0101960E94280B10
:10143000CE0101960E94640B2FEF81EE94E02150C3
:1014400080409040E1F700C0000040E06CE7CE0132
:1014500001960E94FA0A60E070E0CE0101960E94B7
:10146000280B61E070E0CE0101960E94280BCE01AE
:1014700001960E94640B2FEF81EE94E02150804092
:101480009040E1F700C0000040E06CE7CE0101961B
:101490000E94FA0A60E070E0CE0101960E94280BDB
:1014A00066E070E0CE0101960E94280BCE01019605
:1014B0000E94640B2FEF81EE94E021508040904019
:1014C000E1F700C000002A96CDBFDEBFDF91CF91CB
:1014D0000895E0E2F6E08FE081838583089521E0BE
:1014E00040E456E060EC78E088ED9AE30E94A00AC0
:1014F0000895E0E6F6E08CE18183A0E0B7E090EEAD
:1015000012969C93129715969C938683089523E0D8
:1015100040E656E060EC79E08CED9AE30E94A00A88
:1015200008951F920F920FB60F92112408B60F92D2
:1015300018BE0F9008BE0F900FBE0F901F90189509
:10154000FC01608371834283538380E4DA01129645
:101550008C93A281B38180EB11968C930190F081E2
:10156000E02D2065208308950F931F93CF93DF9381
:10157000EC018B0168877987220F331F441F551FA9
:1015800060E078E488EE91E00E94DD0EDA01C901A6
:101590000597A109B1098C839D83AE83BF83F801B0
:1015A0008583E885F98582818283E885F985818153
:1015B00088608183E885F98581E08483DF91CF911C
:1015C0001F910F910895DC011896ED91FC911997E8
:1015D000848182FD05C09481892F887093FF09C0A2
:1015E00081E084831896ED91FC91199783E08383C1
:1015F0008FEF0895DC01442359F01896ED91FC918A
:101600001997616066831896ED91FC91199707C050
:101610001896ED91FC9119976E7F6683F4CF9481B3
:10162000907CE9F39481892F807194FF10C08481AC
:10163000806484831896ED91FC9119978481806869
:1016400084831896ED91FC91199781E08483089525
:10165000CF93DF93EC01E885F9856783E885F98509
:1016600084818C7FE9F3CE010E94E30AE885F98545
:101670009481892F807194FF0CC08481806484835D
:10168000E885F985848180688483E885F98581E02F
:101690008483DF91CF910895CF93DF93EC01E885A8
:1016A000F98584818C7FE9F3662319F082E08383D6
:1016B00002C086E08383CE010E94E30AE885F985B3
:1016C0008781DF91CF910895CF93DF93EC01E88577
:1016D000F98584818C7FE9F3CE010E94E30AE885D5
:1016E000F98583E08383DF91CF910895FC014083E6
:1016F00051836283738388E0DA0111968C93A08111
:10170000B18184E012968C93A281B38183E3169613
:101710008C93A281B38117961C92A281B38183E03E
:1017200015968C930280F381E02D88E184830895DF
:10173000DC011296ED91FC911397818185FFFDCF1D
:10174000608308950F931F93CF93DF93EB0168811C
:10175000662341F08C012196C8010E94980B699183
:101760006111FACFDF91CF911F910F9108952F92C0
:101770003F924F925F926F927F928F929F92AF9221
:10178000BF92CF92DF92EF92FF920F931F93CF936E
:10179000DF93EC01402E512E622E732E842E952E57
:1017A000262E372E202F312F462D572D682D792D9F
:1017B000822D932DA0E00E94D90FBCF464E170E269
:1017C000CE010E94A20B202F312F462D572D682DC0
:1017D000792D822D932D0E94980F422E532E642E28
:1017E000752E862E972E282E392EA12C0F2EF8EE30
:1017F000BF2EF02D0F2EF6E7CF2EF02D0F2EF8E492
:10180000DF2EF02D0F2EF7E1EF2EF02DF12C00E062
:1018100010E0242D352D462D572D682D792D822D44
:10182000932D0E940A0F60E3620FCE010E94980B75
:10183000242D352D462D572D682D792D822D932D54
:101840000E94080F222E332E442E552E662E772E00
:10185000882E992E0F2EF4EEBF2EF02D0F2EFBE0CA
:10186000CF2EF02D0F2EF4E5DF2EF02D6894EE2410
:10187000E1F80E940A0F60E3620FCE010E94980B0C
:10188000222D332D442D552D662D772D882D992D04
:101890000E94080F222E332E442E552E662E772EB0
:1018A000882E992E0F2EFAECBF2EF02D0F2EFAE96E
:1018B000CF2EF02D0F2EFBE3DF2EF02DE12C0E941A
:1018C0000A0F60E3620FCE010E94980B222D332D88
:1018D000442D552D662D772D882D992D0E94080FAA
:1018E000222E332E442E552E662E772E882E992E9C
:1018F0000F2EF1EEBF2EF02D0F2EF5EFCF2EF02D87
:101900000F2EF5E0DF2EF02D0E940A0F60E3620F2C
:10191000CE010E94980B222D332D442D552D662D7E
:10192000772D882D992D0E94080F222E332E442EBC
:10193000552E662E772E882E992E6894AA24A7F805
:101940000F2EF6E9BF2EF02D0F2EF8E9CF2EF02D39
:10195000D12C0E940A0F60E3620FCE010E94980B07
:10196000222D332D442D552D662D772D882D992D23
:101970000E94080F222E332E442E552E662E772ECF
:10198000882E992E6894AA24A6F80F2EF2E4BF2E72
:10199000F02D0F2EFFE0CF2EF02D0E940A0F60E3F6
:1019A000620FCE010E94980B222D332D442D552D10
:1019B000662D772D882D992D0E94080F222E332E0B
:1019C000442E552E662E772E882E992E0F2EF0EA55
:1019D000AF2EF02D0F2EF6E8BF2EF02DCC24C394A1
:1019E0000E940A0F60E3620FCE010E94980B222D25
:1019F000332D442D552D662D772D882D992D0E9440
:101A0000080F222E332E442E552E662E772E882E2A
:101A1000992E6894AA24A4F80F2EF7E2BF2EF02D79
:101A2000C12C0E940A0F60E3620FCE010E94980B46
:101A3000222D332D442D552D662D772D882D992D52
:101A40000E94080F222E332E442E552E662E772EFE
:101A5000882E992E0F2EF8EEAF2EF02D0F2EF3E0DC
:101A6000BF2EF02D0E940A0F60E3620FCE010E948C
:101A7000980B222D332D442D552D662D772D882D35
:101A8000992D0E94080F222E332E442E552E662E9D
:101A9000772E882E992E0F2EF4E6AF2EF02DB12C36
:101AA0000E940A0F60E3620FCE010E94980B222D64
:101AB000332D442D552D662D772D882D992D0E947F
:101AC000080F222E332E442E552E662E772E882E6A
:101AD000992E0F2EFAE0AF2EF02D0E940A0F60E330
:101AE000620FCE010E94980B222D332D442D552DCF
:101AF000662D772D882D992D0E94080F60E3620FC7
:101B0000CE010E94980BDF91CF911F910F91FF9012
:101B1000EF90DF90CF90BF90AF909F908F907F908D
:101B20006F905F904F903F902F900895BEE304D048
:101B300008F490E80895BFE322273327A9010E9403
:101B4000270E60F19F5748F1B91740F1BFE3B91B69
:101B50009927B8503AF4660F771F881F991FB395DD
:101B6000D2F316C0B8504AF0232F342F452F562FEA
:101B7000672F782F8827B850BAF7B85F49F0869555
:101B8000779567955795479537952795BA95B9F7FE
:101B900016F40E940F0E88940895889460E070E017
:101BA000CB010895E89409C097FB3EF49095809589
:101BB000709561957F4F8F4F9F4F9923A9F0F92F13
:101BC00096E9BB279395F695879577956795B79591
:101BD000F111F8CFFAF4BB0F11F460FF1BC06F5F77
:101BE0007F4F8F4F9F4F16C0882311F096E911C089
:101BF000772321F09EE8872F762F05C0662371F0AA
:101C000096E8862F70E060E02AF09A95660F771FBD
:101C1000881FDAF7880F9695879597F9089590951C
:101C200080957095609550954095309521953F4FE2
:101C30004F4F5F4F6F4F7F4F8F4F9F4F089557FD0F
:101C40009058440F551F59F05F3F71F04795880F2A
:101C500097FB991F61F09F3F79F0879508951216C1
:101C600013061406551FF2CF4695F1DF08C016166D
:101C700017061806991FF1CF86957105610508941E
:101C80000895E894BB2766277727CB0197F9089535
:101C90000E945B0E0C94CC0E0E94BE0E38F00E9487
:101CA000C50E20F0952311F00C94B50E0C94BB0ECC
:101CB00011240C94420E0E941F0E70F3959FC1F3E5
:101CC000950F50E0551F629FF001729FBB27F00DEA
:101CD000B11D639FAA27F00DB11DAA1F649F66273F
:101CE000B00DA11D661F829F2227B00DA11D621F8E
:101CF000739FB00DA11D621F839FA00D611D221F48
:101D0000749F3327A00D611D231F849F600D211D2B
:101D1000822F762F6A2F11249F5750409AF0F1F0AE
:101D200088234AF0EE0FFF1FBB1F661F771F881F17
:101D300091505040A9F79E3F510580F00C94B50E8C
:101D40000C94420E5F3FE4F3983ED4F3869577956A
:101D50006795B795F795E7959F5FC1F7FE2B880FBD
:101D6000911D9695879597F9089597F99F6780E853
:101D700070E060E008959FEF80EC089500240A94DD
:101D80001616170618060906089500240A94121656
:101D90001306140605060895092E0394000C11F489
:101DA000882352F0BB0F40F4BF2B11F460FF04C036
:101DB0006F5F7F4F8F4F9F4F0895A1E21A2EAA1B8E
:101DC000BB1BFD010DC0AA1FBB1FEE1FFF1FA217EB
:101DD000B307E407F50720F0A21BB30BE40BF50BE8
:101DE000661F771F881F991F1A9469F76095709571
:101DF000809590959B01AC01BD01CF010895EE0F38
:101E0000FF1F881F8BBF0790F691E02D1BBE199412
:101E1000689401C0E894F92FF12B12F00C943C0F58
:101E2000A0E0B0E0E6E1FFE00C94AE0F092E0594CF
:101E300022F40E94980F112392F4F0E80F26FFEF8E
:101E4000E094F09400951095B094C094D094A1942F
:101E5000BF0ACF0ADF0AEF0AFF0A0F0B1F0B0E940F
:101E6000470F07FC0E94980FCDB7DEB7ECE00C944B
:101E7000C70F689401C0E8948F929F92CF93DF932D
:101E80000E94470FDF91CF919F908F9008958824F3
:101E90009924F401E401B0E49F93AA279A158B04D6
:101EA0009C04ED05FE05CF05D007A10798F4AD2FE2
:101EB000DC2FCF2FFE2FE92D982C892E982F872FDE
:101EC000762F652F542F432F322F2227B85031F70A
:101ED000BF9127C01B2EBF91BB27220F331F441F6A
:101EE000551F661F771F881F991F881C991CEE1F9E
:101EF000FF1FCC1FDD1FAA1FBB1F8A149B04EC050C
:101F0000FD05CE05DF05A007B10748F08A189B083C
:101F1000EC09FD09CE09DF09A00BB10B21601A9471
:101F2000E1F62EF49401AF01BE01CD01000C08953D
:101F30006095709580959095309540955095219538
:101F40003F4F4F4F5F4F6F4F7F4F8F4F9F4F0895C2
:101F50002F923F924F925F926F927F928F929F92B9
:101F6000AF92BF92CF92DF92EF92FF920F931F93A7
:101F7000CF93DF93CDB7DEB7CA1BDB0BCDBFDEBF80
:101F800019942A88398848885F846E847D848C847B
:101F90009B84AA84B984C884DF80EE80FD800C8194
:101FA0001B81AA81B981CE0FD11DCDBFDEBFED014E
:101FB00008950024A7FD00942A1730054005500518
:0E1FC00060057005800590050895F894FFCF28
:101FCE006261636B00676F0077616B655F75700AA6
:061FDE00000A0D002D00B9
:00000001FF
