S00E0000417175696C612E73726563B9
S11300000C9426010C945C010C945C010C945C012E
S11300100C945C010C945C010C945C010C945C01E8
S11300200C945C010C945C010C945C010C945C01D8
S11300300C945C010C945C010C945C010C945C01C8
S11300400C945C010C945C010C945C010C945C01B8
S11300500C945C010C945C010C945C010C945C01A8
S11300600C945C010C945C010C945C010C945C0198
S11300700C945C010C945C010C945C010C945C0188
S11300800C945C010C945C010C945C010C945C0178
S11300900C945C010C945C010C945C010C945C0168
S11300A00C945C010C945C010C945C010C945C0158
S11300B00C945C010C945C010C945C010C945C0148
S11300C00C945C010C945C010C945C010C945C0138
S11300D00C945C010C945C010C945C010C945C0128
S11300E00C945C010C945C010C945C010C945C0118
S11300F00C945C010C945C010C945C010C945C0108
S11301000C945C010C945C010C945C010C945C01F7
S11301100C945C010C945C010C945C010C945C01E7
S11301200C945C010C945C010C945C010C945C01D7
S11301300C945C010C9460610C945C010C945C0163
S11301400C945C010C945C010C945C010C945C01B7
S11301500C945C010C945C010C945C010C945C01A7
S11301600C945C010C945C010C945C010C945C0197
S11301700C945C010C945C010C945C010C945C0187
S11301800C945C010C945C010C945C010C945C0177
S11301900C945C010C945C010C945C010C945C0167
S11301A00C945C010C945C010C945C010C945C0157
S11301B00C945C010C945C010C945C010C945C0147
S11301C00C945C010C945C010C945C010C945C0137
S11301D00C945C010C945C010C945C010C945C0127
S11301E00C945C010C945C010C945C010C945C0117
S11301F00C945C010C945C010C945C01BD5CCD5CC2
S11302003D5D3D5DDD5CED5CFD5C0D5D1D5D2D5D6D
S11302100C9493600C94DD5C0C94CB580C942D5D81
S11302200C943D5D0C940D5D0C94ED5C0C94BD5CE4
S11302300C94FD5C0C94575F0C94CD5C0C941D5D88
S11302400C9413511351CB58575F936011241FBE64
S1130250CFEFCDBFDFE3DEBF00E00CBF18BE19BE99
S11302601ABE1BBE10E2A0E0B0E2E2E2F7EC00E04E
S11302700BBF02C007900D92A639B107D9F71BBE78
S11302802CE3A6E9B0E201C01D92AB32B207E1F75C
S113029011E0C6E2D1E000E006C021970109802FF9
S11302A0FE010E947763C232D10780E00807A9F7F4
S11302B00E94C3500C948F630C9400006F927F9241
S11302C08F929F92AF92BF92CF92DF92EF92FF9262
S11302D00F931F93CF93DF93EC01FB01309709F445
S11302E04EC08FEFE81AF80A86819781E816F9065E
S11302F014F4E682F7826E85808D861709F43FC078
S11303008B899C8901968B8B9C8B8081918184172E
S1130310950761F4828193818217930739F484816C
S113032095818017910711F4EF87F88B59016A01C1
S11303303F01608FE680F78062857385CE010E945D
S11303405E01F301E680F780648575859501A60159
S1130350CE010E945E01F301E680F7806685778511
S11303609501A601CE010E945E01F301E680F780AB
S1130370608971899501A601CE010E945E01DF9119
S1130380CF911F910F91FF90EF90DF90CF90BF908E
S1130390AF909F908F907F906F900895AF92BF928F
S11303A0CF92DF92EF92FF920F931F93CF93DF933D
S11303B06115710509F447C3FC012685FB01308DE5
S11303C0321709F440C38B01EC01208F88EE93E0CF
S11303D0828F938FE284F384E114F10409F42CC135
S11303E08E85F701908D981709F426C1808F88EEC9
S11303F093E0828F938FC284D384C114D10409F112
S11304008E85F601908D9817E1F0808F88EE93E049
S1130410828F938F62857385CE010E94CE01F6018F
S113042064857585CE010E94CE01F60166857785C7
S1130430CE010E94CE01F60160897189CE010E942D
S1130440CE01F701C484D584C114D10409F18E8589
S1130450F601908D9817E1F0808F88EE93E0828FFB
S1130460938F62857385CE010E94CE01F601648567
S11304707585CE010E94CE01F60166857785CE0191
S11304800E94CE01F60160897189CE010E94CE01DD
S1130490F701C684D784C114D10409F4A6C08E859B
S11304A0F601908D981709F4A0C0808F88EE93E030
S11304B0828F938FA284B384A114B10409F18E8531
S11304C0F501908D9817E1F0808F88EE93E0828F8C
S11304D0938F62857385CE010E94CE01F5016485F8
S11304E07585CE010E94CE01F50166857785CE0122
S11304F00E94CE01F50160897189CE010E94CE016E
S1130500F601A484B584A114B10409F18E85F50122
S1130510908D9817E1F0808F88EE93E0828F938F0F
S113052062857385CE010E94CE01F50164857585CF
S1130530CE010E94CE01F50166857785CE010E9429
S1130540CE01F50160897189CE010E94CE01F601C8
S1130550A684B784A114B10409F18E85F501908DA8
S11305609817E1F0808F88EE93E0828F938F6285F5
S11305707385CE010E94CE01F50164857585CE0197
S11305800E94CE01F50166857785CE010E94CE01D9
S1130590F50160897189CE010E94CE01F601C088FF
S11305A0D188C114D10409F18E85F601908D981774
S11305B0E1F0808F88EE93E0828F938F628573855C
S11305C0CE010E94CE01F60164857585CE010E949C
S11305D0CE01F60166857785CE010E94CE01F60133
S11305E060897189CE010E94CE01F701E088F1880B
S11305F0E114F10409F18E85F701908D9817E1F06B
S1130600808F88EE93E0828F938F62857385CE010D
S11306100E94CE01F70164857585CE010E94CE014A
S1130620F70166857785CE010E94CE01F7016089C6
S11306307189CE010E94CE01F801E484F584E114AD
S1130640F10409F4A6C08E85F701908D981709F47A
S1130650A0C0808F88EE93E0828F938FC284D3846E
S1130660C114D10409F18E85F601908D9817E1F03B
S1130670808F88EE93E0828F938F62857385CE019D
S11306800E94CE01F60164857585CE010E94CE01DB
S1130690F60166857785CE010E94CE01F601608958
S11306A07189CE010E94CE01F701C484D584C1149E
S11306B0D10409F18E85F601908D9817E1F0808FB1
S11306C088EE93E0828F938F62857385CE010E94BA
S11306D0CE01F60164857585CE010E94CE01F60136
S11306E066857785CE010E94CE01F6016089718905
S11306F0CE010E94CE01F701C684D784C114D1046F
S113070009F18E85F601908D9817E1F0808F88EEBF
S113071093E0828F938F62857385CE010E94CE0110
S1130720F60164857585CE010E94CE01F6016685C9
S11307307785CE010E94CE01F60160897189CE01D0
S11307400E94CE01F701E088F188E114F10409F177
S11307508E85F701908D9817E1F0808F88EE93E0F5
S1130760828F938F62857385CE010E94CE01F7013B
S113077064857585CE010E94CE01F7016685778573
S1130780CE010E94CE01F70160897189CE010E94D9
S1130790CE01F801E684F784E114F10409F4A6C05B
S11307A08E85F701908D981709F4A0C0808F88EE8C
S11307B093E0828F938FC284D384C114D10409F14E
S11307C08E85F601908D9817E1F0808F88EE93E086
S11307D0828F938F62857385CE010E94CE01F601CC
S11307E064857585CE010E94CE01F6016685778504
S11307F0CE010E94CE01F60160897189CE010E946A
S1130800CE01F701C484D584C114D10409F18E85C5
S1130810F601908D9817E1F0808F88EE93E0828F37
S1130820938F62857385CE010E94CE01F6016485A3
S11308307585CE010E94CE01F60166857785CE01CD
S11308400E94CE01F60160897189CE010E94CE0119
S1130850F701C684D784C114D10409F18E85F60149
S1130860908D9817E1F0808F88EE93E0828F938FBC
S113087062857385CE010E94CE01F601648575857B
S1130880CE010E94CE01F60166857785CE010E94D5
S1130890CE01F60160897189CE010E94CE01F70173
S11308A0E088F188E114F10409F18E85F701908D57
S11308B09817E1F0808F88EE93E0828F938F6285A2
S11308C07385CE010E94CE01F70164857585CE0142
S11308D00E94CE01F70166857785CE010E94CE0184
S11308E0F70160897189CE010E94CE01F801008967
S11308F011890115110509F4A6C08E85F801908DA2
S1130900981709F4A0C0808F88EE93E0828F938FAC
S1130910E284F384E114F10409F18E85F701908DEA
S11309209817E1F0808F88EE93E0828F938F628531
S11309307385CE010E94CE01F70164857585CE01D1
S11309400E94CE01F70166857785CE010E94CE0113
S1130950F70160897189CE010E94CE01F801E48417
S1130960F584E114F10409F18E85F701908D98174F
S1130970E1F0808F88EE93E0828F938F6285738598
S1130980CE010E94CE01F70164857585CE010E94D7
S1130990CE01F70166857785CE010E94CE01F7016D
S11309A060897189CE010E94CE01F801E684F78442
S11309B0E114F10409F18E85F701908D9817E1F0A7
S11309C0808F88EE93E0828F938F62857385CE014A
S11309D00E94CE01F70164857585CE010E94CE0187
S11309E0F70166857785CE010E94CE01F701608903
S11309F07189CE010E94CE01F80100891189011587
S1130A00110509F18E85F801908D9817E1F0808F1A
S1130A1088EE93E0828F938F62857385CE010E9466
S1130A20CE01F80164857585CE010E94CE01F801DE
S1130A3066857785CE010E94CE01F80160897189AF
S1130A40CE010E94CE01DF91CF911F910F91FF90B3
S1130A50EF90DF90CF90BF90AF9008952F923F9288
S1130A604F925F926F927F928F929F92AF92BF92BA
S1130A70CF92DF92EF92FF920F931F93CF93DF9366
S1130A8000D01F92CDB7DEB78B839C83FC014080DE
S1130A905180F201C080D180A280B380848095808F
S1130AA0FC01848195818130910571F01CF4892BBE
S1130AB039F015C08230910559F0039769F00FC0E1
S1130AC0F1E0CF1AD1080BC02FEFA21AB20A07C067
S1130AD03FEFC31AD30A03C081E0A81AB108EB811F
S1130AE0FC81138A148A1786108A62807380F3014A
S1130AF0868197816114710409F4CDC69C012F5F2E
S1130B003F4F2817390714F426833783EB81FC8180
S1130B102685F301808D821709F4BDC6EB81FC8123
S1130B20838994890196838B948BF30180819181CD
S1130B30C816D90671F482819381A816B90649F4BE
S1130B40848195818816990621F4EB81FC8167865E
S1130B50708AF301208F8681978122843384211443
S1130B60310409F41CC10196F101268137818217F1
S1130B70930714F486839783EB81FC812685F10126
S1130B80808D821709F40BC1EB81FC8183899489E0
S1130B900196838B948BF10180819181C816D906CB
S1130BA071F482819381A816B90649F484819581F0
S1130BB08816990621F4EB81FC812786308AF1019D
S1130BC0208F868197812285338529833A83211555
S1130BD0310509F461C00196F90126813781821734
S1130BE0930714F486839783EB81FC812685E9813E
S1130BF0FA81808D821709F44FC0EB81FC818389CF
S1130C0094890196838B948BE981FA818081918107
S1130C10C816D90679F482819381A816B90651F4CD
S1130C20848195818816990629F4CF01EB81FC8192
S1130C308787908BE981FA81208FE680F78062852F
S1130C40738584019501A6018B819C810E945E01BC
S1130C50E981FA81E680F780648575859501A601AE
S1130C608B819C810E945E01E981FA81E680F78094
S1130C70668577859501A6018B819C810E945E0122
S1130C80E981FA81E680F780608971899501A6017E
S1130C908B819C810E945E01F1018681978124856C
S1130CA0358529833A832115310509F461C00196FC
S1130CB0F901268137818217930714F48683978379
S1130CC0EB81FC812685E981FA81808D821709F404
S1130CD04FC0EB81FC81838994890196838B948B2B
S1130CE0E981FA8180819181C816D90679F48281DB
S1130CF09381A816B90651F48481958188169906C2
S1130D0029F4CF01EB81FC818787908BE981FA81FB
S1130D10208FE680F7806285738584019501A601A2
S1130D208B819C810E945E01E981FA81E680F780D3
S1130D30648575859501A6018B819C810E945E0165
S1130D40E981FA81E680F780668577859501A601B9
S1130D508B819C810E945E01E981FA81E680F780A3
S1130D60608971899501A6018B819C810E945E0135
S1130D70F101E680F7806685778584019501A601F7
S1130D808B819C810E945E01F101E680F78060897D
S1130D9071899501A6018B819C810E945E01F301FA
S1130DA086819781248435842114310409F4D4C1C3
S1130DB00196F101268137818217930714F4868303
S1130DC09783EB81FC812685F101808D821709F4DC
S1130DD0C3C1EB81FC81838994890196838B948BB5
S1130DE0F10180819181C816D90671F482819381C1
S1130DF0A816B90649F4848195818816990621F4C8
S1130E00EB81FC812786308AF101208F86819781CE
S1130E102285338529833A832115310509F461C07C
S1130E200196F901268137818217930714F486838A
S1130E309783EB81FC812685E981FA81808D821775
S1130E4009F44FC0EB81FC81838994890196838BDB
S1130E50948BE981FA8180819181C816D90679F44D
S1130E6082819381A816B90651F4848195818816EC
S1130E70990629F4CF01EB81FC818787908BE98166
S1130E80FA81208FE680F78062857385840195015D
S1130E90A6018B819C810E945E01E981FA81E68032
S1130EA0F780648575859501A6018B819C810E94DC
S1130EB05E01E981FA81E680F78066857785950190
S1130EC0A6018B819C810E945E01E981FA81E68002
S1130ED0F780608971899501A6018B819C810E94AC
S1130EE05E01F101868197812485358529833A83C2
S1130EF02115310509F461C00196F9012681378174
S1130F008217930714F486839783EB81FC812685EB
S1130F10E981FA81808D821709F44FC0EB81FC814D
S1130F20838994890196838B948BE981FA818081EA
S1130F309181C816D90679F482819381A816B906DD
S1130F4051F4848195818816990629F4CF01EB81A7
S1130F50FC818787908BE981FA81208FE680F78076
S1130F606285738584019501A6018B819C810E9411
S1130F705E01E981FA81E680F780648575859501D3
S1130F80A6018B819C810E945E01E981FA81E68041
S1130F90F780668577859501A6018B819C810E94E7
S1130FA05E01E981FA81E680F780608971899501A3
S1130FB0A6018B819C810E945E01F101868197814B
S1130FC02685378529833A832115310509F461C0C3
S1130FD00196F901268137818217930714F48683D9
S1130FE09783EB81FC812685E981FA81808D8217C4
S1130FF009F44FC0EB81FC81838994890196838B2A
S1131000948BE981FA8180819181C816D90679F49B
S113101082819381A816B90651F48481958188163A
S1131020990629F4CF01EB81FC818787908BE981B4
S1131030FA81208FE680F7806285738584019501AB
S1131040A6018B819C810E945E01E981FA81E68080
S1131050F780648575859501A6018B819C810E942A
S11310605E01E981FA81E680F780668577859501DE
S1131070A6018B819C810E945E01E981FA81E68050
S1131080F780608971899501A6018B819C810E94FA
S11310905E01F10186819781208831882114310411
S11310A009F45AC00196F10126813781821793070A
S11310B014F486839783EB81FC812685F101808D6E
S11310C0821709F449C0EB81FC81838994890196D4
S11310D0838B948BF10180819181C816D90671F4B8
S11310E082819381A816B90649F484819581881672
S11310F0990621F4EB81FC812786308AF101208F47
S1131100E680F7806285738584019501A6018B8151
S11311109C810E945E01F101E680F78064857585FB
S11311209501A6018B819C810E945E01F101E680FC
S1131130F780668577859501A6018B819C810E9445
S11311405E01F101E680F780608971899501A6014D
S11311508B819C810E945E01F301868197812684A4
S113116037842114310409F4D4C10196F101268194
S113117037818217930714F486839783EB81FC816C
S11311802685F101808D821709F4C3C1EB81FC81AE
S1131190838994890196838B948BF1018081918159
S11311A0C816D90671F482819381A816B90649F448
S11311B0848195818816990621F4EB81FC81278628
S11311C0308AF101208F8681978122853385298396
S11311D03A832115310509F461C00196F90126818C
S11311E037818217930714F486839783EB81FC81FC
S11311F02685E981FA81808D821709F44FC0EB813D
S1131200FC81838994890196838B948BE981FA818B
S113121080819181C816D90679F482819381A816B8
S1131220B90651F4848195818816990629F4CF0171
S1131230EB81FC818787908BE981FA81208FE6809E
S1131240F7806285738584019501A6018B819C8159
S11312500E945E01E981FA81E680F78064857585E4
S11312609501A6018B819C810E945E01E981FA812E
S1131270E680F780668577859501A6018B819C8140
S11312800E945E01E981FA81E680F78060897189B4
S11312909501A6018B819C810E945E01F1018681EA
S11312A097812485358529833A832115310509F4ED
S11312B061C00196F901268137818217930714F4DE
S11312C086839783EB81FC812685E981FA81808D71
S11312D0821709F44FC0EB81FC81838994890196BC
S11312E0838B948BE981FA8180819181C816D90618
S11312F079F482819381A816B90651F48481958189
S11313008816990629F4CF01EB81FC818787908B9D
S1131310E981FA81208FE680F780628573858401F4
S11313209501A6018B819C810E945E01E981FA816D
S1131330E680F780648575859501A6018B819C8183
S11313400E945E01E981FA81E680F78066857785EF
S11313509501A6018B819C810E945E01E981FA813D
S1131360E680F780608971899501A6018B819C8153
S11313700E945E01F1018681978126853785298344
S11313803A832115310509F461C00196F9012681DA
S113139037818217930714F486839783EB81FC814A
S11313A02685E981FA81808D821709F44FC0EB818B
S11313B0FC81838994890196838B948BE981FA81DA
S11313C080819181C816D90679F482819381A81607
S11313D0B90651F4848195818816990629F4CF01C0
S11313E0EB81FC818787908BE981FA81208FE680ED
S11313F0F7806285738584019501A6018B819C81A8
S11314000E945E01E981FA81E680F7806485758532
S11314109501A6018B819C810E945E01E981FA817C
S1131420E680F780668577859501A6018B819C818E
S11314300E945E01E981FA81E680F7806089718902
S11314409501A6018B819C810E945E01F101868138
S11314509781208831882114310409F45AC00196F7
S1131460F101268137818217930714F486839783C9
S1131470EB81FC812685F101808D821709F449C036
S1131480EB81FC81838994890196838B948BF10190
S113149080819181C816D90671F482819381A8163E
S11314A0B90649F4848195818816990621F4EB8163
S11314B0FC812786308AF101208FE680F7806285DF
S11314C0738584019501A6018B819C810E945E0134
S11314D0F101E680F780648575859501A6018B810D
S11314E09C810E945E01F101E680F7806685778524
S11314F09501A6018B819C810E945E01F101E68029
S1131500F780608971899501A6018B819C810E9475
S11315105E01F3018681978160887188611471048A
S113152009F4B9C10196F301268137818217930723
S113153014F486839783EB81FC812685F301808DE7
S1131540821709F4A8C1EB81FC81838994890196EF
S1131550838B948BF30180819181C816D90671F431
S113156082819381A816B90649F4848195818816ED
S1131570990621F4EB81FC816786708AF301208F40
S113158086819781228433842114310409F45AC05A
S11315900196F101268137818217930714F486831B
S11315A09783EB81FC812685F101808D821709F4F4
S11315B049C0EB81FC81838994890196838B948B48
S11315C0F10180819181C816D90671F482819381D9
S11315D0A816B90649F4848195818816990621F4E0
S11315E0EB81FC812786308AF101208FE680F78029
S11315F06285738584019501A6018B819C810E947B
S11316005E01F101E680F780648575859501A60188
S11316108B819C810E945E01F101E680F7806685E2
S113162077859501A6018B819C810E945E01F10161
S1131630E680F780608971899501A6018B819C8180
S11316400E945E01F30186819781248435842114EC
S1131650310409F45AC00196F101268137818217B9
S1131660930714F486839783EB81FC812685F1012B
S1131670808D821709F449C0EB81FC8183899489A8
S11316800196838B948BF10180819181C816D906D0
S113169071F482819381A816B90649F484819581F5
S11316A08816990621F4EB81FC812786308AF101A2
S11316B0208FE680F7806285738584019501A601F9
S11316C08B819C810E945E01F101E680F780648534
S11316D075859501A6018B819C810E945E01F101B3
S11316E0E680F780668577859501A6018B819C81CC
S11316F00E945E01F101E680F7806089718995019D
S1131700A6018B819C810E945E01F30186819781F1
S1131710268437842114310409F45AC00196F10156
S1131720268137818217930714F486839783EB818C
S1131730FC812685F101808D821709F449C0EB8173
S1131740FC81838994890196838B948BF101808138
S11317509181C816D90671F482819381A816B906BD
S113176049F4848195818816990621F4EB81FC81E2
S11317702786308AF101208FE680F78062857385A1
S113178084019501A6018B819C810E945E01F10177
S1131790E680F780648575859501A6018B819C811F
S11317A00E945E01F101E680F780668577859501E8
S11317B0A6018B819C810E945E01F101E680F78085
S11317C0608971899501A6018B819C810E945E01CB
S11317D0F30186819781608871886114710409F42A
S11317E05AC00196F301268137818217930714F4B6
S11317F086839783EB81FC812685F301808D821794
S113180009F449C0EB81FC81838994890196838B17
S1131810948BF30180819181C816D90671F4828179
S11318209381A816B90649F484819581881699068E
S113183021F4EB81FC816786708AF301208FE680B6
S1131840F7806285738584019501A6018B819C8153
S11318500E945E01F301E680F78064857585950139
S1131860A6018B819C810E945E01F301E680F780D2
S1131870668577859501A6018B819C810E945E0116
S1131880F301E680F780608971899501A6018B8157
S11318909C810E945E01EB81FC81868590E001962B
S11318A081709078992324F401978E6F9F6F01962D
S11318B0EB81FC818687678470886114710409F068
S11318C056C0E9E0F3E2248135818081918101975A
S11318D028173907B4F42F5F3F4F20930D2330931B
S11318E00E234CE1429FC001439F900D1124FC0143
S11318F0E75FFC4D108E118E178E9C01215F3C4DCD
S11319003901F301C082D182A282B382848295829A
S1131910F20182859385892BA9F084859585892B8D
S113192059F086859785892B51F080899189892B77
S113193091F4E3E0F0E008C0E1E0F0E005C0E2E0AB
S1131940F0E002C0E0E0F0E03596EE0FFF1FE40D9A
S1131950F51D60827182F201868197810196F301FF
S113196086839783428A538A4286538697C0F201BC
S1131970828593856816790609F489C0248535859E
S11319806216730609F483C02685378562167306CA
S113199009F47DC0208931896216730609F477C081
S11319A0892BA1F084859585892B51F086859785AF
S11319B0892B49F0C901892B99F483E090E008C090
S11319C081E090E005C082E090E002C080E090E019
S11319D0FC013596EE0FFF1FE40DF51D6082718248
S11319E0F301828593854816590679F12485358556
S11319F04216530651F1268537854216530629F1BE
S1131A00208931894216530601F1892BA1F084857E
S1131A109585892B51F086859785892B49F0C901D5
S1131A20892B99F483E090E008C081E090E005C040
S1131A3082E090E002C080E090E0FC013596EE0F79
S1131A40FF1FE60DF71D40825182EB81FC81138A52
S1131A50148A1786108A62817381FB01E680F780FD
S1131A6084019501A6018B819C810E945E01EB811A
S1131A70FC81868590E0019681709078992324F406
S1131A8001978E6F9F6F0196EB81FC818687F3012E
S1131A9082899389892B11F4428A538AEB81FC81D0
S1131AA0138A148A1786108A62807380F3018681F0
S1131AB097816114710409F434C79C012F5F3F4F6F
S1131AC02817390714F426833783EB81FC81268594
S1131AD0F301808D821709F424C7EB81FC8183898B
S1131AE094890196838B948BF30180819181C8162C
S1131AF0D90671F482819381A816B90649F48481C8
S1131B0095818816990621F4EB81FC816786708A99
S1131B10F301208F868197814284538441145104B8
S1131B2009F4B9C10196F20126813781821793071E
S1131B3014F486839783EB81FC812685F201808DE2
S1131B40821709F4A8C1EB81FC81838994890196E9
S1131B50838B948BF20180819181C816D90671F42C
S1131B6082819381A816B90649F4848195818816E7
S1131B70990621F4EB81FC814786508AF201208F7B
S1131B8086819781228433842114310409F45AC054
S1131B900196F101268137818217930714F4868315
S1131BA09783EB81FC812685F101808D821709F4EE
S1131BB049C0EB81FC81838994890196838B948B42
S1131BC0F10180819181C816D90671F482819381D3
S1131BD0A816B90649F4848195818816990621F4DA
S1131BE0EB81FC812786308AF101208FE680F78023
S1131BF06285738584019501A6018B819C810E9475
S1131C005E01F101E680F780648575859501A60182
S1131C108B819C810E945E01F101E680F7806685DC
S1131C2077859501A6018B819C810E945E01F1015B
S1131C30E680F780608971899501A6018B819C817A
S1131C400E945E01F20186819781248435842114E7
S1131C50310409F45AC00196F101268137818217B3
S1131C60930714F486839783EB81FC812685F10125
S1131C70808D821709F449C0EB81FC8183899489A2
S1131C800196838B948BF10180819181C816D906CA
S1131C9071F482819381A816B90649F484819581EF
S1131CA08816990621F4EB81FC812786308AF1019C
S1131CB0208FE680F7806285738584019501A601F3
S1131CC08B819C810E945E01F101E680F78064852E
S1131CD075859501A6018B819C810E945E01F101AD
S1131CE0E680F780668577859501A6018B819C81C6
S1131CF00E945E01F101E680F78060897189950197
S1131D00A6018B819C810E945E01F20186819781EC
S1131D10268437842114310409F45AC00196F10150
S1131D20268137818217930714F486839783EB8186
S1131D30FC812685F101808D821709F449C0EB816D
S1131D40FC81838994890196838B948BF101808132
S1131D509181C816D90671F482819381A816B906B7
S1131D6049F4848195818816990621F4EB81FC81DC
S1131D702786308AF101208FE680F780628573859B
S1131D8084019501A6018B819C810E945E01F10171
S1131D90E680F780648575859501A6018B819C8119
S1131DA00E945E01F101E680F780668577859501E2
S1131DB0A6018B819C810E945E01F101E680F7807F
S1131DC0608971899501A6018B819C810E945E01C5
S1131DD0F20186819781408851884114510409F4A5
S1131DE05AC00196F201268137818217930714F4B1
S1131DF086839783EB81FC812685F201808D82178F
S1131E0009F449C0EB81FC81838994890196838B11
S1131E10948BF20180819181C816D90671F4828174
S1131E209381A816B90649F4848195818816990688
S1131E3021F4EB81FC814786508AF201208FE680F1
S1131E40F7806285738584019501A6018B819C814D
S1131E500E945E01F201E680F78064857585950134
S1131E60A6018B819C810E945E01F201E680F780CD
S1131E70668577859501A6018B819C810E945E0110
S1131E80F201E680F780608971899501A6018B8152
S1131E909C810E945E01F30186819781448455846C
S1131EA04114510409F4B9C10196F2012681378124
S1131EB08217930714F486839783EB81FC8126852C
S1131EC0F201808D821709F4A8C1EB81FC8183891A
S1131ED094890196838B948BF20180819181C81639
S1131EE0D90671F482819381A816B90649F48481D4
S1131EF095818816990621F4EB81FC814786508AE6
S1131F00F201208F86819781228433842114310445
S1131F1009F45AC00196F10126813781821793078B
S1131F2014F486839783EB81FC812685F101808DEF
S1131F30821709F449C0EB81FC8183899489019655
S1131F40838B948BF10180819181C816D90671F439
S1131F5082819381A816B90649F4848195818816F3
S1131F60990621F4EB81FC812786308AF101208FC8
S1131F70E680F7806285738584019501A6018B81D3
S1131F809C810E945E01F101E680F780648575857D
S1131F909501A6018B819C810E945E01F101E6807E
S1131FA0F780668577859501A6018B819C810E94C7
S1131FB05E01F101E680F780608971899501A601CF
S1131FC08B819C810E945E01F20186819781248429
S1131FD035842114310409F45AC00196F101268193
S1131FE037818217930714F486839783EB81FC81EE
S1131FF02685F101808D821709F449C0EB81FC81AB
S1132000838994890196838B948BF10180819181DA
S1132010C816D90671F482819381A816B90649F4C9
S1132020848195818816990621F4EB81FC812786A9
S1132030308AF101208FE680F78062857385840100
S11320409501A6018B819C810E945E01F101E680CD
S1132050F780648575859501A6018B819C810E941A
S11320605E01F101E680F780668577859501A6011A
S11320708B819C810E945E01F101E680F78060897A
S113208071899501A6018B819C810E945E01F201F8
S113209086819781268437842114310409F45AC037
S11320A00196F101268137818217930714F4868300
S11320B09783EB81FC812685F101808D821709F4D9
S11320C049C0EB81FC81838994890196838B948B2D
S11320D0F10180819181C816D90671F482819381BE
S11320E0A816B90649F4848195818816990621F4C5
S11320F0EB81FC812786308AF101208FE680F7800E
S11321006285738584019501A6018B819C810E945F
S11321105E01F101E680F780648575859501A6016D
S11321208B819C810E945E01F101E680F7806685C7
S113213077859501A6018B819C810E945E01F10146
S1132140E680F780608971899501A6018B819C8165
S11321500E945E01F2018681978140885188411472
S1132160510409F45AC00196F2012681378182177D
S1132170930714F486839783EB81FC812685F2010F
S1132180808D821709F449C0EB81FC81838994898D
S11321900196838B948BF20180819181C816D906B4
S11321A071F482819381A816B90649F484819581DA
S11321B08816990621F4EB81FC814786508AF20146
S11321C0208FE680F7806285738584019501A601DE
S11321D08B819C810E945E01F201E680F780648518
S11321E075859501A6018B819C810E945E01F20197
S11321F0E680F780668577859501A6018B819C81B1
S11322000E945E01F201E680F78060897189950180
S1132210A6018B819C810E945E01F30186819781D6
S1132220468457844114510409F4B9C10196F2015A
S1132230268137818217930714F486839783EB8171
S1132240FC812685F201808D821709F4A8C1EB81F7
S1132250FC81838994890196838B948BF20180811C
S11322609181C816D90671F482819381A816B906A2
S113227049F4848195818816990621F4EB81FC81C7
S11322804786508AF201208F868197812284338485
S11322902114310409F45AC00196F10126813781D1
S11322A08217930714F486839783EB81FC81268538
S11322B0F101808D821709F449C0EB81FC81838987
S11322C094890196838B948BF10180819181C81646
S11322D0D90671F482819381A816B90649F48481E0
S11322E095818816990621F4EB81FC812786308A32
S11322F0F101208FE680F780628573858401950162
S1132300A6018B819C810E945E01F101E680F78029
S1132310648575859501A6018B819C810E945E016F
S1132320F101E680F780668577859501A6018B81AA
S11323309C810E945E01F101E680F78060897189C9
S11323409501A6018B819C810E945E01F201868128
S11323509781248435842114310409F45AC00196E8
S1132360F101268137818217930714F486839783BA
S1132370EB81FC812685F101808D821709F449C027
S1132380EB81FC81838994890196838B948BF10181
S113239080819181C816D90671F482819381A8162F
S11323A0B90649F4848195818816990621F4EB8154
S11323B0FC812786308AF101208FE680F7806285D0
S11323C0738584019501A6018B819C810E945E0125
S11323D0F101E680F780648575859501A6018B81FE
S11323E09C810E945E01F101E680F7806685778515
S11323F09501A6018B819C810E945E01F101E6801A
S1132400F780608971899501A6018B819C810E9466
S11324105E01F20186819781268437842114310478
S113242009F45AC00196F101268137818217930776
S113243014F486839783EB81FC812685F101808DDA
S1132440821709F449C0EB81FC8183899489019640
S1132450838B948BF10180819181C816D90671F424
S113246082819381A816B90649F4848195818816DE
S1132470990621F4EB81FC812786308AF101208FB3
S1132480E680F7806285738584019501A6018B81BE
S11324909C810E945E01F101E680F7806485758568
S11324A09501A6018B819C810E945E01F101E68069
S11324B0F780668577859501A6018B819C810E94B2
S11324C05E01F101E680F780608971899501A601BA
S11324D08B819C810E945E01F201868197814088F4
S11324E051884114510409F45AC00196F20126811D
S11324F037818217930714F486839783EB81FC81D9
S11325002685F201808D821709F449C0EB81FC8194
S1132510838994890196838B948BF20180819181C4
S1132520C816D90671F482819381A816B90649F4B4
S1132530848195818816990621F4EB81FC81478674
S1132540508AF201208FE680F780628573858401CA
S11325509501A6018B819C810E945E01F201E680B7
S1132560F780648575859501A6018B819C810E9405
S11325705E01F201E680F780668577859501A60104
S11325808B819C810E945E01F201E680F780608964
S113259071899501A6018B819C810E945E01F301E2
S11325A086819781608871886114710409F4B9C1C6
S11325B00196F301268137818217930714F48683E9
S11325C09783EB81FC812685F301808D821709F4C2
S11325D0A8C1EB81FC81838994890196838B948BB8
S11325E0F30180819181C816D90671F482819381A7
S11325F0A816B90649F4848195818816990621F4B0
S1132600EB81FC816786708AF301208F8681978134
S1132610428453844114510409F45AC00196F201CE
S1132620268137818217930714F486839783EB817D
S1132630FC812685F201808D821709F449C0EB8163
S1132640FC81838994890196838B948BF201808128
S11326509181C816D90671F482819381A816B906AE
S113266049F4848195818816990621F4EB81FC81D3
S11326704786508AF201208FE680F7806285738551
S113268084019501A6018B819C810E945E01F20167
S1132690E680F780648575859501A6018B819C8110
S11326A00E945E01F201E680F780668577859501D8
S11326B0A6018B819C810E945E01F201E680F78075
S11326C0608971899501A6018B819C810E945E01BC
S11326D0F30186819781448455844114510409F49B
S11326E05AC00196F201268137818217930714F4A8
S11326F086839783EB81FC812685F201808D821786
S113270009F449C0EB81FC81838994890196838B08
S1132710948BF20180819181C816D90671F482816B
S11327209381A816B90649F484819581881699067F
S113273021F4EB81FC814786508AF201208FE680E8
S1132740F7806285738584019501A6018B819C8144
S11327500E945E01F201E680F7806485758595012B
S1132760A6018B819C810E945E01F201E680F780C4
S1132770668577859501A6018B819C810E945E0107
S1132780F201E680F780608971899501A6018B8149
S11327909C810E945E01F30186819781468457845F
S11327A04114510409F45AC00196F201268137817B
S11327B08217930714F486839783EB81FC81268523
S11327C0F201808D821709F449C0EB81FC81838971
S11327D094890196838B948BF20180819181C81630
S11327E0D90671F482819381A816B90649F48481CB
S11327F095818816990621F4EB81FC814786508ADD
S1132800F201208FE680F78062857385840195014B
S1132810A6018B819C810E945E01F201E680F78013
S1132820648575859501A6018B819C810E945E015A
S1132830F201E680F780668577859501A6018B8194
S11328409C810E945E01F201E680F78060897189B3
S11328509501A6018B819C810E945E01F301868112
S11328609781608871886114710409F45AC00196D3
S1132870F301268137818217930714F486839783A3
S1132880EB81FC812685F301808D821709F449C010
S1132890EB81FC81838994890196838B948BF3016A
S11328A080819181C816D90671F482819381A8161A
S11328B0B90649F4848195818816990621F4EB813F
S11328C0FC816786708AF301208FE680F780628539
S11328D0738584019501A6018B819C810E945E0110
S11328E0F301E680F780648575859501A6018B81E7
S11328F09C810E945E01F301E680F78066857785FE
S11329009501A6018B819C810E945E01F301E68002
S1132910F780608971899501A6018B819C810E9451
S11329205E01EB81FC81868590E001968170907850
S1132930992324F401978E6F9F6F0196EB81FC819C
S1132940868787859089808391832496CDBFDEBF57
S1132950DF91CF911F910F91FF90EF90DF90CF9077
S1132960BF90AF909F908F907F906F905F904F90AB
S11329703F902F900895EF92FF920F931F93CF9360
S1132980DF93EC01FB01CA01820F931F039683704E
S11329909078992324F401978C6F9F6F019681306E
S11329A0910581F11CF4892B49F098C0823091057E
S11329B009F44CC0039709F46DC090C084819581DB
S11329C02281338140815181401B510B1B8A1C8A17
S11329D01F86188A6A817B81FB01E680F7808C015F
S11329E0CE010E945E018E8590E001968170907800
S11329F0992324F401978E6F9F6F01968E878F859C
S1132A0098896EC08481958122813381200F311F82
S1132A10408151811B8A1C8A1F86188A6A817B81A6
S1132A20FB01E680F7808C01CE010E945E018E8559
S1132A3090E0019681709078992324F401978E6F29
S1132A409F6F01968E878F8598894AC0848195816E
S1132A502281338140815181400F511F1B8A1C8A7E
S1132A601F86188A6A817B81FB01E680F7808C01CE
S1132A70CE010E945E018E8590E00196817090786F
S1132A80992324F401978E6F9F6F01968E878F850B
S1132A90988926C08481958122813381201B310B42
S1132AA0408151811B8A1C8A1F86188A6A817B8116
S1132AB0FB01E680F7808C01CE010E945E018E85C9
S1132AC090E0019681709078992324F401978E6F99
S1132AD09F6F01968E878F85988902C080E090E071
S1132AE0DF91CF911F910F91FF90EF9008954F9236
S1132AF05F926F927F928F929F92AF92BF92CF928A
S1132B00DF92EF92FF920F931F93CF93DF93EC0129
S1132B103B015A01490128011B8A1C8A1F86188A15
S1132B20CA80DB80D60116968D919C911797C114AB
S1132B30D10409F4FCC09C012F5F3F4F28173907CB
S1132B4024F416962D933C9317972E85F601808DC9
S1132B50821709F4ECC08B899C8901968B8B9C8B22
S1132B6080819181A816B90661F4828193818816C7
S1132B70990639F4848195814816590611F4CF8653
S1132B80D88AD60158962C9358971696ED90FC90B7
S1132B9017971A966D917C911B9782019401A50158
S1132BA0CE010E945E01F601E680F780648575859A
S1132BB09401A501CE010E945E01D6011696ED9006
S1132BC0FC9017971E966D917C911F979401A50117
S1132BD0CE010E945E01F601E680F780608971896A
S1132BE09401A501CE010E945E01A1C0A9E0B3E257
S1132BF014962D913C9115978D919C9101972817CE
S1132C003907BCF42F5F3F4F20930D2330930E23DD
S1132C108CE1829FF001839FF00D1124DF01A75FF7
S1132C20BC4D58961D921C9259975F961C92E15F79
S1132C30FC4DA082B1828282938244825582D30168
S1132C401A968D919C911B97892BD9F01C968D9186
S1132C509C911D97892B79F01E968D919C911F97BD
S1132C60892B61F050968D919C915197892B91F409
S1132C70A3E0B0E008C0A1E0B0E005C0A2E0B0E08D
S1132C8002C0A0E0B0E01596AA0FBB1FA60DB71DA9
S1132C90ED93FC93628673865BC0892B61F0D3014C
S1132CA01C9681E090E02D913D912E173F0791F005
S1132CB0232B61F402C080E090E0DC011596AA0F9A
S1132CC0BB1FA60DB71DED93FC9304C00196843081
S1132CD0910549F78285938568167906C9F1892B90
S1132CE061F0DF011C9681E090E02D913D91621628
S1132CF0730671F1232B61F402C080E090E0DC01E3
S1132D001596AA0FBB1FAE0FBF1FED93FC9320C0F7
S1132D1001968430910549F71BC0D3011A968D9111
S1132D209C911B978E179F0709F0B7CFD3CF8E8541
S1132D3090E0019681709078992324F401978E6F26
S1132D409F6F01968E87EF85F889309731F74ECFC4
S1132D50DF91CF911F910F91FF90EF90DF90CF9073
S1132D60BF90AF909F908F907F906F905F904F90A7
S1132D7008950F931F93CF93DF936115710509F4A1
S1132D8056C0FA01E20FF31F3396E370F078FF2385
S1132D9024F43197EC6FFF6F3196E801DB01E130E9
S1132DA0F105C9F01CF4EF2B39F041C0E230F10514
S1132DB009F1339771F13BC014960D911C9115974D
S1132DC012962D913C9113974D915C914C1B5D0B88
S1132DD00E9477152CC014960D911C91159712968C
S1132DE02D913C9113972C0F3D1F4D915C910E94A6
S1132DF077151DC014960D911C91159712962D915F
S1132E003C9113974D915C914C0F5D1F0E94771577
S1132E100EC014960D911C91159712962D913C910C
S1132E2013972C1B3D0B4D915C910E947715DF91FC
S1132E30CF911F910F910895CF92DF92EF92FF925D
S1132E400F931F93CF93DF93EC010E942261823092
S1132E5029F130F4882309F46AC0813041F09DC01F
S1132E60833009F442C0863008F097C060C0EAE9B4
S1132E70F0E220813181848195818C0F9D1F03961E
S1132E80EC01C370D078DD2324F42197CC6FDF6F7D
S1132E902196C20FD31F81E08C8B7FC00F2EFAE9DD
S1132EA0EF2EF0E2FF2EF02DF701248135816081B1
S1132EB0718101E010E0AE01C7010E94B916F7016B
S1132EC020813181848195818C0F9D1F0396EC01B3
S1132ED0C370D078DD2324F42197CC6FDF6F219663
S1132EE0C20FD31F8FEF8C8B58C00F2EFAE9EF2E31
S1132EF0F0E2FF2EF02DF70124813581608171818C
S1132F0001E010E0AE01C7010E94B916F701C480C8
S1132F10D580608171819601AE01C7010E94BB1406
S1132F209601AE01BC01C7010E94B91636C00F2E2E
S1132F30FAE9EF2EF0E2FF2EF02DF701248135811E
S1132F406081718101E010E0AE01C7010E94B916F1
S1132F50F701C480D580608171819601AE01C701FB
S1132F600E94BB149601AE01BC01C7010E94B916B0
S1132F70F70120813181848195818C0F9D1F0396F7
S1132F80EC01C370D078DD2324F42197CC6FDF6F7C
S1132F902196C20FD31F8FEF8C8BDF91CF911F919E
S1132FA00F91FF90EF90DF90CF90089580E090E034
S1132FB00E941C1781E090E00E941C1782E090E0C0
S1132FC00E941C1783E090E00E941C1708950F9341
S1132FD01F93CF93DF938230910509F49FC02CF4A3
S1132FE0009751F0019751F102C18330910509F422
S1132FF0B9C00497B9F1FBC061E081E00E94765F3B
S113300061E082E00E94765F61E083E00E94765F87
S113301089E00E94AB5C80919E2090919F209C014E
S1133020215031092AF020939E2030939F20DFC045
S1133030039680939E2090939F20D9C061E081E005
S11330400E94765F61E082E00E94765F61E083E047
S11330500E94765F80E00E94AB5C8AE990E20E9465
S11330602E05C5C061E081E00E94765F61E082E0E8
S11330700E94765F61E083E00E94765F84E00E94B4
S1133080AB5C80919E2090919F209C01215031093E
S11330902AF020939E2030939F2005C003968093AE
S11330A09E2090939F2080919E2090919F209C0130
S11330B0215031092AF020939E2030939F2005C08F
S11330C0039680939E2090939F208AE990E20E9429
S11330D02E0580919E2090919F209C0121503109C2
S11330E02AF020939E2030939F2005C0039680935E
S11330F09E2090939F2080919E2090919F209C01E0
S1133100215031092AF020939E2030939F206FC0D4
S1133110039680939E2090939F2069C061E081E094
S11331200E94765F61E082E00E94765F61E083E066
S11331300E94765F88E00E94AB5C80919E20909113
S11331409F209C012F5F3F4F243031052CF42093A6
S11331509E2030939F204BC0039780939E20909392
S11331609F2045C061E081E00E94765F61E082E0DB
S11331700E94765F61E083E00E94765F89E00E94AE
S1133180AB5C0E944A5F89E00E94AB5C0E944A5F8C
S113319080E00E94AB5C80919E2090919F209C01D6
S11331A02F5F3F4F243031052CF420939E20309321
S11331B09F2005C0039780939E2090939F20809129
S11331C09E2090919F209C012F5F3F4F243031051A
S11331D02CF420939E2030939F2005C00397809366
S11331E09E2090939F208AE990E20E942E050E94DF
S11331F0D617E0919A20F0919B20808591850097C5
S113320029F481E090E0808791870EC0069761F4ED
S113321060E081E00E94765F60E082E00E94765F79
S113322060E083E00E94765F0E94615F069761F42C
S1133230E0919A20F0919B2080859185019721F45B
S113324086E090E08087918780E090E00E94655F4F
S1133250CAE9D0E2E881F9816081718180EB94E070
S11332600E94C65A2FEF83ED90E321508040904096
S1133270E1F700C00000E881F9816281738180EB8D
S113328094E00E94C65A0E94B258813009F084C06A
S1133290E881F98182E090E0808791870E94D617C7
S11332A02C813D816881798101E010E041E050E0AA
S11332B0CE010E94BB1468817981FB012289338984
S11332C02817390739F480E00E94AB5CCE010E94D4
S11332D02E0562C0CAE9D0E22C813D8101E010E0F4
S11332E043E050E0CE010E94BB14E881F9812289B9
S11332F033892817390709F04FC084E00E94AB5C7A
S113330020919E2030919F20C90101972AF080933B
S11333109E2090939F2006C02D5F3F4F20939E20B8
S113332030939F2020919E2030919F20C9010197C6
S11333302AF080939E2090939F2006C02D5F3F4FDC
S113334020939E2030939F208AE990E20E942E05CC
S113335020919E2030919F20C90101972AF08093EB
S11333609E2090939F2006C02D5F3F4F20939E2068
S113337030939F2080919E2090919F209C0121500A
S113338031092AF020939E2030939F2005C0039694
S113339080939E2090939F2061E081E00E9485614C
S11333A00E944A5F61E084E00E9485610E94765B2E
S11333B0DF91CF911F910F910895AF92BF92CF9259
S11333C0DF92EF92FF920F931F93CF93DF93EC0161
S11333D00E94765B60E070E280EB94E00E94645AA5
S11333E02FEF83EC99E0215080409040E1F700C03A
S11333F000000F2EFAE9AF2EF0E2BF2EF02D05C02B
S1133400EF0103C0ED0101C0EC01888599850196A7
S113341009F453C0FE013A966E0122E1C20ED11C9A
S1133420A191B191109739F018968D919C911997AB
S1133430892B09F454C0EC15FD0591F78A899B8901
S1133440009711F7F501138A148A1786108A62818E
S11334507381FB01E680F78004E610E021E030E0B0
S113346041E050E0C5010E945E01F501868590E0CF
S1133470019681709078992324F401978E6F9F6F41
S11334800196F5018687EA85FB852E813F81868139
S11334909781821793070CF4B3CFFE013C96A19158
S11334A0B19116968D919C911797821793070CF4FE
S11334B0A9CFEC15FD0599F7A8CF63E070E286E982
S11334C090E20E94B462BE0186E990E20E94C96261
S11334D069E070E286E990E20E94B462DE01CD0107
S11334E0DF91CF911F910F91FF90EF90DF90CF90DC
S11334F0BF90AF9008950F931F93CF93DF930097DE
S113350009F4C7C0EC01EAE9F0E224813581608165
S1133510718101E010E040E050E0CF010E94BB1453
S1133520C817D90729F5EAE9F0E2408151812481DD
S113353035812D5F3F4FC90183709078992324F41E
S113354001978C6F9F6F0196FA01E80FF91F848928
S1133550813071F00E94765B80E090E00E94E71772
S113356081E090E00E94E7170E94765B81E096C0BC
S1133570EAE9F0E2248135816081718101E010E0A3
S113358041E050E0CF010E94BB14C817D907F9F4F9
S1133590EAE9F0E240815181248135812C5F3F4F7B
S11335A0C90183709078992324F401978C6F9F6FDD
S11335B00196FA01E80FF91F8489813041F081E016
S11335C090E00E94E7170E94765B81E067C0EAE919
S11335D0F0E2248135816081718101E010E042E0F4
S11335E050E0CF010E94BB14C817D90719F5EAE9C6
S11335F0F0E240815181248135812B5F3F4FC90125
S113360083709078992324F401978C6F9F6F0196AF
S1133610FA01E80FF91F8489813061F082E090E0BB
S11336200E94E71781E090E00E94E7170E94765B12
S113363081E034C0EAE9F0E224813581608171815E
S113364001E010E043E050E0CF010E94BB14C81732
S1133650D90709F5EAE9F0E24081518124813581F5
S11336602A5F3F4FC90183709078992324F401970E
S11336708C6F9F6F0196FA01E80FF91F84898130DE
S113368061F084E090E00E94E7170E94765B81E09D
S113369005C080E003C080E001C080E0DF91CF91ED
S11336A01F910F9108954F925F926F927F928F9224
S11336B09F92AF92BF92CF92DF92EF92FF920F93BD
S11336C01F93CF93DF938C010E94765BC0919C2063
S11336D0D0919D20209711F40C94A4358091A820BA
S11336E0988D981711F40C94A435888F28EE33E044
S11336F02A8F3B8FEA84FB84E114F10411F40C94C7
S1133700EB23D70158969C915897891711F40C9480
S1133710EB2358968C9358975A962D933C935B972A
S11337201A96CD90DC901B97C114D10409F4D5C02E
S1133730F601908D891709F4D0C0808F228F338FC2
S1133740A284B384A114B10471F1D50158969C915B
S11337505897891741F158968C93589788EE93E0BF
S11337605A968D939C935B971A966D917C911B97B7
S11337708AE990E20E94CE01F501648575858AE9A3
S113378090E20E94CE01D5011E966D917C911F9707
S11337908AE990E20E94CE01F501608971898AE983
S11337A090E20E94CE01D6011C96AD90BC901D976C
S11337B0A114B10451F18091A820F501908D9817BE
S11337C021F1808F88EE93E0828F938F62857385D9
S11337D08AE990E20E94CE01D5011C966D917C91FC
S11337E01D978AE990E20E94CE01F50166857785EE
S11337F08AE990E20E94CE01D50150966D917C91A8
S113380051978AE990E20E94CE01F601A684B7841A
S1133810A114B10481F18091A820D50158969C91FE
S11338205897981741F158968C93589788EE93E0DF
S11338305A968D939C935B971A966D917C911B97E6
S11338408AE990E20E94CE01F501648575858AE9D2
S113385090E20E94CE01D5011E966D917C911F9736
S11338608AE990E20E94CE01F501608971898AE9B2
S113387090E20E94CE01D6015096CD90DC905197F3
S1133880C114D10451F18091A820F601908D9817AC
S113389021F1808F88EE93E0828F938F6285738508
S11338A08AE990E20E94CE01D6011C966D917C912A
S11338B01D978AE990E20E94CE01F601668577851C
S11338C08AE990E20E94CE01D60150966D917C91D6
S11338D051978AE990E20E94CE01F701C484D5840D
S11338E0C114D10409F48FC18091A820D60158963F
S11338F09C915897981709F486C158968C935897B9
S113390028EE33E05A962D933C935B971A96AD902C
S1133910BC901B97A114B10441F1F501908D891756
S113392021F1808F88EE93E0828F938F6285738577
S11339308AE990E20E94CE01D5011C966D917C919A
S11339401D978AE990E20E94CE01F501668577858C
S11339508AE990E20E94CE01D50150966D917C9146
S113396051978AE990E20E94CE01F601A484B584BD
S1133970A114B10481F18091A820D50158969C919D
S11339805897981741F158968C93589788EE93E07E
S11339905A968D939C935B971A966D917C911B9785
S11339A08AE990E20E94CE01F501648575858AE971
S11339B090E20E94CE01D5011E966D917C911F97D5
S11339C08AE990E20E94CE01F501608971898AE951
S11339D090E20E94CE01D6011E96AD90BC901F9736
S11339E0A114B10451F18091A820F501908D98178C
S11339F021F1808F88EE93E0828F938F62857385A7
S1133A008AE990E20E94CE01D5011C966D917C91C9
S1133A101D978AE990E20E94CE01F50166857785BB
S1133A208AE990E20E94CE01D50150966D917C9175
S1133A3051978AE990E20E94CE01F601C088D188AC
S1133A40C114D10409F4DFC08091A820D60158968E
S1133A509C915897981709F4D6C058968C93589708
S1133A6028EE33E05A962D933C935B971A96AD90CB
S1133A70BC901B97A114B10441F1F501908D8917F5
S1133A8021F1808F88EE93E0828F938F6285738516
S1133A908AE990E20E94CE01D5011C966D917C9139
S1133AA01D978AE990E20E94CE01F501668577852B
S1133AB08AE990E20E94CE01D50150966D917C91E5
S1133AC051978AE990E20E94CE01F601A484B5845C
S1133AD0A114B10481F18091A820D50158969C913C
S1133AE05897981741F158968C93589788EE93E01D
S1133AF05A968D939C935B971A966D917C911B9724
S1133B008AE990E20E94CE01F501648575858AE90F
S1133B1090E20E94CE01D5011E966D917C911F9773
S1133B208AE990E20E94CE01F501608971898AE9EF
S1133B3090E20E94CE01D6011E96AD90BC901F97D4
S1133B40A114B10451F18091A820F501908D98172A
S1133B5021F1808F88EE93E0828F938F6285738545
S1133B608AE990E20E94CE01D5011C966D917C9168
S1133B701D978AE990E20E94CE01F501668577855A
S1133B808AE990E20E94CE01D50150966D917C9114
S1133B9051978AE990E20E94CE01F601C088D1884B
S1133BA0C114D10481F18091A820D60158969C912A
S1133BB05897981741F158968C93589788EE93E04C
S1133BC05A968D939C935B971A966D917C911B9753
S1133BD08AE990E20E94CE01F601648575858AE93E
S1133BE090E20E94CE01D6011E966D917C911F97A2
S1133BF08AE990E20E94CE01F601608971898AE91E
S1133C0090E20E94CE01D7011E96CD90DC901F97C2
S1133C10C114D10409F4E9C28091A820F601908D61
S1133C20981709F4E2C2808F28EE33E0228F338F95
S1133C30A284B384A114B10471F1D50158969C9166
S1133C405897891741F158968C93589788EE93E0CA
S1133C505A968D939C935B971A966D917C911B97C2
S1133C608AE990E20E94CE01F501648575858AE9AE
S1133C7090E20E94CE01D5011E966D917C911F9712
S1133C808AE990E20E94CE01F501608971898AE98E
S1133C9090E20E94CE01D6011C96AD90BC901D9777
S1133CA0A114B10409F4D9C08091A820F501908D24
S1133CB0981709F4D2C0808F28EE33E0228F338F17
S1133CC0828493848114910471F1D40158969C9157
S1133CD05897891741F158968C93589788EE93E03A
S1133CE05A968D939C935B971A966D917C911B9732
S1133CF08AE990E20E94CE01F401648575858AE91F
S1133D0090E20E94CE01D4011E966D917C911F9782
S1133D108AE990E20E94CE01F401608971898AE9FE
S1133D2090E20E94CE01D5011C968D909C901D9727
S1133D308114910451F18091A820F401908D981779
S1133D4021F1808F88EE93E0828F938F6285738553
S1133D508AE990E20E94CE01D4011C966D917C9177
S1133D601D978AE990E20E94CE01F4016685778569
S1133D708AE990E20E94CE01D40150966D917C9123
S1133D8051978AE990E20E94CE01F50186849784D6
S1133D908114910481F18091A820D40158969C91BA
S1133DA05897981741F158968C93589788EE93E05A
S1133DB05A968D939C935B971A966D917C911B9761
S1133DC08AE990E20E94CE01F401648575858AE94E
S1133DD090E20E94CE01D4011E966D917C911F97B2
S1133DE08AE990E20E94CE01F401608971898AE92E
S1133DF090E20E94CE01D5015096AD90BC905197AF
S1133E00A114B10451F18091A820F501908D981767
S1133E1021F1808F88EE93E0828F938F6285738582
S1133E208AE990E20E94CE01D5011C966D917C91A5
S1133E301D978AE990E20E94CE01F5016685778597
S1133E408AE990E20E94CE01D50150966D917C9151
S1133E5051978AE990E20E94CE01F601A684B784C4
S1133E60A114B10409F4DFC08091A820D5015896AB
S1133E709C915897981709F4D6C058968C935897E4
S1133E8028EE33E05A962D933C935B971A968D90C7
S1133E909C901B978114910441F1F401908D891732
S1133EA021F1808F88EE93E0828F938F62857385F2
S1133EB08AE990E20E94CE01D4011C966D917C9116
S1133EC01D978AE990E20E94CE01F4016685778508
S1133ED08AE990E20E94CE01D40150966D917C91C2
S1133EE051978AE990E20E94CE01F5018484958479
S1133EF08114910481F18091A820D40158969C9159
S1133F005897981741F158968C93589788EE93E0F8
S1133F105A968D939C935B971A966D917C911B97FF
S1133F208AE990E20E94CE01F401648575858AE9EC
S1133F3090E20E94CE01D4011E966D917C911F9750
S1133F408AE990E20E94CE01F401608971898AE9CC
S1133F5090E20E94CE01D5011E968D909C901F97F1
S1133F608114910451F18091A820F401908D981747
S1133F7021F1808F88EE93E0828F938F6285738521
S1133F808AE990E20E94CE01D4011C966D917C9145
S1133F901D978AE990E20E94CE01F4016685778537
S1133FA08AE990E20E94CE01D40150966D917C91F1
S1133FB051978AE990E20E94CE01F501A088B18868
S1133FC0A114B10481F18091A820D50158969C9147
S1133FD05897981741F158968C93589788EE93E028
S1133FE05A968D939C935B971A966D917C911B972F
S1133FF08AE990E20E94CE01F501648575858AE91B
S113400090E20E94CE01D5011E966D917C911F977E
S11340108AE990E20E94CE01F501608971898AE9FA
S113402090E20E94CE01D6015096CD90DC9051973B
S1134030C114D10409F4D9C08091A820F601908D4F
S1134040981709F4D2C0808F28EE33E0228F338F83
S1134050A284B384A114B10471F1D50158969C9142
S11340605897891741F158968C93589788EE93E0A6
S11340705A968D939C935B971A966D917C911B979E
S11340808AE990E20E94CE01F501648575858AE98A
S113409090E20E94CE01D5011E966D917C911F97EE
S11340A08AE990E20E94CE01F501608971898AE96A
S11340B090E20E94CE01D6011C96AD90BC901D9753
S11340C0A114B10451F18091A820F501908D9817A5
S11340D021F1808F88EE93E0828F938F62857385C0
S11340E08AE990E20E94CE01D5011C966D917C91E3
S11340F01D978AE990E20E94CE01F50166857785D5
S11341008AE990E20E94CE01D50150966D917C918E
S113411051978AE990E20E94CE01F601A684B78401
S1134120A114B10481F18091A820D50158969C91E5
S11341305897981741F158968C93589788EE93E0C6
S11341405A968D939C935B971A966D917C911B97CD
S11341508AE990E20E94CE01F501648575858AE9B9
S113416090E20E94CE01D5011E966D917C911F971D
S11341708AE990E20E94CE01F501608971898AE999
S113418090E20E94CE01D6015096CD90DC905197DA
S1134190C114D10451F18091A820F601908D981793
S11341A021F1808F88EE93E0828F938F62857385EF
S11341B08AE990E20E94CE01D6011C966D917C9111
S11341C01D978AE990E20E94CE01F6016685778503
S11341D08AE990E20E94CE01D60150966D917C91BD
S11341E051978AE990E20E94CE01F701E088F188B4
S11341F0E114F10409F4EFC28091A820D701589684
S11342009C915897981709F4E6C258968C9358973E
S113421028EE33E05A962D933C935B971A96CD90F3
S1134220DC901B97C114D10441F1F601908D8917DC
S113423021F1808F88EE93E0828F938F628573855E
S11342408AE990E20E94CE01D6011C966D917C9180
S11342501D978AE990E20E94CE01F6016685778572
S11342608AE990E20E94CE01D60150966D917C912C
S113427051978AE990E20E94CE01F701C484D58463
S1134280C114D10409F4DFC08091A820D601589646
S11342909C915897981709F4D6C058968C935897C0
S11342A028EE33E05A962D933C935B971A96AD9083
S11342B0BC901B97A114B10441F1F501908D8917AD
S11342C021F1808F88EE93E0828F938F62857385CE
S11342D08AE990E20E94CE01D5011C966D917C91F1
S11342E01D978AE990E20E94CE01F50166857785E3
S11342F08AE990E20E94CE01D50150966D917C919D
S113430051978AE990E20E94CE01F601A484B58413
S1134310A114B10481F18091A820D50158969C91F3
S11343205897981741F158968C93589788EE93E0D4
S11343305A968D939C935B971A966D917C911B97DB
S11343408AE990E20E94CE01F501648575858AE9C7
S113435090E20E94CE01D5011E966D917C911F972B
S11343608AE990E20E94CE01F501608971898AE9A7
S113437090E20E94CE01D6011E96AD90BC901F978C
S1134380A114B10451F18091A820F501908D9817E2
S113439021F1808F88EE93E0828F938F62857385FD
S11343A08AE990E20E94CE01D5011C966D917C9120
S11343B01D978AE990E20E94CE01F5016685778512
S11343C08AE990E20E94CE01D50150966D917C91CC
S11343D051978AE990E20E94CE01F601C088D18803
S11343E0C114D10481F18091A820D60158969C91E2
S11343F05897981741F158968C93589788EE93E004
S11344005A968D939C935B971A966D917C911B970A
S11344108AE990E20E94CE01F601648575858AE9F5
S113442090E20E94CE01D6011E966D917C911F9759
S11344308AE990E20E94CE01F601608971898AE9D5
S113444090E20E94CE01D7011E96CD90DC901F977A
S1134450C114D10409F4D9C08091A820F601908D2B
S1134460981709F4D2C0808F28EE33E0228F338F5F
S1134470A284B384A114B10471F1D50158969C911E
S11344805897891741F158968C93589788EE93E082
S11344905A968D939C935B971A966D917C911B977A
S11344A08AE990E20E94CE01F501648575858AE966
S11344B090E20E94CE01D5011E966D917C911F97CA
S11344C08AE990E20E94CE01F501608971898AE946
S11344D090E20E94CE01D6011C96AD90BC901D972F
S11344E0A114B10451F18091A820F501908D981781
S11344F021F1808F88EE93E0828F938F628573859C
S11345008AE990E20E94CE01D5011C966D917C91BE
S11345101D978AE990E20E94CE01F50166857785B0
S11345208AE990E20E94CE01D50150966D917C916A
S113453051978AE990E20E94CE01F601A684B784DD
S1134540A114B10481F18091A820D50158969C91C1
S11345505897981741F158968C93589788EE93E0A2
S11345605A968D939C935B971A966D917C911B97A9
S11345708AE990E20E94CE01F501648575858AE995
S113458090E20E94CE01D5011E966D917C911F97F9
S11345908AE990E20E94CE01F501608971898AE975
S11345A090E20E94CE01D6015096CD90DC905197B6
S11345B0C114D10451F18091A820F601908D98176F
S11345C021F1808F88EE93E0828F938F62857385CB
S11345D08AE990E20E94CE01D6011C966D917C91ED
S11345E01D978AE990E20E94CE01F60166857785DF
S11345F08AE990E20E94CE01D60150966D917C9199
S113460051978AE990E20E94CE01F701E088F1888F
S1134610E114F10409F4DFC08091A820D701589671
S11346209C915897981709F4D6C058968C9358972C
S113463028EE33E05A962D933C935B971A96CD90CF
S1134640DC901B97C114D10441F1F601908D8917B8
S113465021F1808F88EE93E0828F938F628573853A
S11346608AE990E20E94CE01D6011C966D917C915C
S11346701D978AE990E20E94CE01F601668577854E
S11346808AE990E20E94CE01D60150966D917C9108
S113469051978AE990E20E94CE01F701C484D5843F
S11346A0C114D10481F18091A820D60158969C911F
S11346B05897981741F158968C93589788EE93E041
S11346C05A968D939C935B971A966D917C911B9748
S11346D08AE990E20E94CE01F601648575858AE933
S11346E090E20E94CE01D6011E966D917C911F9797
S11346F08AE990E20E94CE01F601608971898AE913
S113470090E20E94CE01D7011E96CD90DC901F97B7
S1134710C114D10451F18091A820F601908D98170D
S113472021F1808F88EE93E0828F938F6285738569
S11347308AE990E20E94CE01D6011C966D917C918B
S11347401D978AE990E20E94CE01F601668577857D
S11347508AE990E20E94CE01D60150966D917C9137
S113476051978AE990E20E94CE01F701E088F1882E
S1134770E114F10481F18091A820D70158969C910D
S11347805897981741F158968C93589788EE93E070
S11347905A968D939C935B971A966D917C911B9777
S11347A08AE990E20E94CE01F701648575858AE961
S11347B090E20E94CE01D7011E966D917C911F97C5
S11347C08AE990E20E94CE01F701608971898AE941
S11347D090E20E94CE01EC84FD84E114F10409F41A
S11347E0BBC78091A820D70158969C9158979817D9
S11347F009F4B2C758968C93589728EE33E05A962A
S11348002D933C935B971A96CD90DC901B97C11423
S1134810D10409F4D5C0F601908D891709F4D0C0EC
S1134820808F228F338FA284B384A114B10471F1D9
S1134830D50158969C915897891741F158968C93B5
S1134840589788EE93E05A968D939C935B971A96AB
S11348506D917C911B978AE990E20E94CE01F5014B
S1134860648575858AE990E20E94CE01D5011E9681
S11348706D917C911F978AE990E20E94CE01F50127
S1134880608971898AE990E20E94CE01D6011C9662
S1134890AD90BC901D97A114B10451F18091A82052
S11348A0F501908D981721F1808F88EE93E0828F27
S11348B0938F628573858AE990E20E94CE01D501C7
S11348C01C966D917C911D978AE990E20E94CE011D
S11348D0F501668577858AE990E20E94CE01D501CB
S11348E050966D917C9151978AE990E20E94CE0195
S11348F0F601A684B784A114B10481F18091A820A3
S1134900D50158969C915897981741F158968C93D5
S1134910589788EE93E05A968D939C935B971A96DA
S11349206D917C911B978AE990E20E94CE01F5017A
S1134930648575858AE990E20E94CE01D5011E96B0
S11349406D917C911F978AE990E20E94CE01F50156
S1134950608971898AE990E20E94CE01D60150965D
S1134960CD90DC905197C114D10451F18091A820CD
S1134970F601908D981721F1808F88EE93E0828F55
S1134980938F628573858AE990E20E94CE01D601F5
S11349901C966D917C911D978AE990E20E94CE014C
S11349A0F601668577858AE990E20E94CE01D601F8
S11349B050966D917C9151978AE990E20E94CE01C4
S11349C0F701C484D584C114D10409F48FC1809142
S11349D0A820D60158969C915897981709F486C137
S11349E058968C93589728EE33E05A962D933C931F
S11349F05B971A96AD90BC901B97A114B10441F13A
S1134A00F501908D891721F1808F88EE93E0828FD4
S1134A10938F628573858AE990E20E94CE01D50165
S1134A201C966D917C911D978AE990E20E94CE01BB
S1134A30F501668577858AE990E20E94CE01D50169
S1134A4050966D917C9151978AE990E20E94CE0133
S1134A50F601A484B584A114B10481F18091A82045
S1134A60D50158969C915897981741F158968C9374
S1134A70589788EE93E05A968D939C935B971A9679
S1134A806D917C911B978AE990E20E94CE01F50119
S1134A90648575858AE990E20E94CE01D5011E964F
S1134AA06D917C911F978AE990E20E94CE01F501F5
S1134AB0608971898AE990E20E94CE01D6011E962E
S1134AC0AD90BC901F97A114B10409F4D9C0809192
S1134AD0A820F501908D981709F4D2C0808F28EE94
S1134AE033E0228F338F828493848114910471F193
S1134AF0D40158969C915897891741F158968C93F4
S1134B00589788EE93E05A968D939C935B971A96E8
S1134B106D917C911B978AE990E20E94CE01F40189
S1134B20648575858AE990E20E94CE01D4011E96BF
S1134B306D917C911F978AE990E20E94CE01F40165
S1134B40608971898AE990E20E94CE01D5011C96A0
S1134B508D909C901D978114910451F18091A8200F
S1134B60F401908D981721F1808F88EE93E0828F65
S1134B70938F628573858AE990E20E94CE01D40105
S1134B801C966D917C911D978AE990E20E94CE015A
S1134B90F401668577858AE990E20E94CE01D4010A
S1134BA050966D917C9151978AE990E20E94CE01D2
S1134BB0F501868497848114910481F18091A82061
S1134BC0D40158969C915897981741F158968C9314
S1134BD0589788EE93E05A968D939C935B971A9618
S1134BE06D917C911B978AE990E20E94CE01F401B9
S1134BF0648575858AE990E20E94CE01D4011E96EF
S1134C006D917C911F978AE990E20E94CE01F40194
S1134C10608971898AE990E20E94CE01D50150969B
S1134C20AD90BC905197A114B10451F18091A8208A
S1134C30F501908D981721F1808F88EE93E0828F93
S1134C40938F628573858AE990E20E94CE01D50133
S1134C501C966D917C911D978AE990E20E94CE0189
S1134C60F501668577858AE990E20E94CE01D50137
S1134C7050966D917C9151978AE990E20E94CE0101
S1134C80F601C088D188C114D10481F18091A82093
S1134C90D60158969C915897981741F158968C9341
S1134CA0589788EE93E05A968D939C935B971A9647
S1134CB06D917C911B978AE990E20E94CE01F601E6
S1134CC0648575858AE990E20E94CE01D6011E961C
S1134CD06D917C911F978AE990E20E94CE01F601C2
S1134CE0608971898AE990E20E94CE01D7011E96FB
S1134CF0CD90DC901F97C114D10409F497C380911F
S1134D00A820F601908D981709F490C3808F28EE9F
S1134D1033E0228F338FA284B384A114B10409F445
S1134D20DBC0D50158969C915897891709F4D4C0D3
S1134D3058968C9358975A962D933C935B971A9652
S1134D408D909C901B978114910441F1F401908DF6
S1134D50891721F1808F88EE93E0828F938F62858B
S1134D6073858AE990E20E94CE01D4011C966D916C
S1134D707C911D978AE990E20E94CE01F401668538
S1134D8077858AE990E20E94CE01D40150966D9114
S1134D907C9151978AE990E20E94CE01F5018484C6
S1134DA095848114910481F18091A820D4015896AE
S1134DB09C915897981741F158968C93589788EE80
S1134DC093E05A968D939C935B971A966D917C9180
S1134DD01B978AE990E20E94CE01F40164857585EF
S1134DE08AE990E20E94CE01D4011E966D917C91D5
S1134DF01F978AE990E20E94CE01F40160897189CB
S1134E008AE990E20E94CE01D5011E968D909C9075
S1134E101F978114910451F18091A820F401908D81
S1134E20981721F1808F88EE93E0828F938F6285AB
S1134E3073858AE990E20E94CE01D4011C966D919B
S1134E407C911D978AE990E20E94CE01F401668567
S1134E5077858AE990E20E94CE01D40150966D9143
S1134E607C9151978AE990E20E94CE01F501A088D5
S1134E70B188A114B10481F18091A820D50158967C
S1134E809C915897981741F158968C93589788EEAF
S1134E9093E05A968D939C935B971A966D917C91AF
S1134EA01B978AE990E20E94CE01F501648575851D
S1134EB08AE990E20E94CE01D5011E966D917C9103
S1134EC01F978AE990E20E94CE01F50160897189F9
S1134ED08AE990E20E94CE01D6011C96AD90BC9066
S1134EE01D97A114B10409F4D9C08091A820F5013B
S1134EF0908D981709F4D2C0808F28EE33E0228F6A
S1134F00338F828493848114910471F1D40158966F
S1134F109C915897891741F158968C93589788EE2D
S1134F2093E05A968D939C935B971A966D917C911E
S1134F301B978AE990E20E94CE01F401648575858D
S1134F408AE990E20E94CE01D4011E966D917C9173
S1134F501F978AE990E20E94CE01F4016089718969
S1134F608AE990E20E94CE01D5011C968D909C9016
S1134F701D978114910451F18091A820F401908D22
S1134F80981721F1808F88EE93E0828F938F62854A
S1134F9073858AE990E20E94CE01D4011C966D913A
S1134FA07C911D978AE990E20E94CE01F401668506
S1134FB077858AE990E20E94CE01D40150966D91E2
S1134FC07C9151978AE990E20E94CE01F501868492
S1134FD097848114910481F18091A820D40158967A
S1134FE09C915897981741F158968C93589788EE4E
S1134FF093E05A968D939C935B971A966D917C914E
S11350001B978AE990E20E94CE01F40164857585BC
S11350108AE990E20E94CE01D4011E966D917C91A2
S11350201F978AE990E20E94CE01F4016089718998
S11350308AE990E20E94CE01D5015096AD90BC90D1
S11350405197A114B10451F18091A820F501908DDC
S1135050981721F1808F88EE93E0828F938F628579
S113506073858AE990E20E94CE01D5011C966D9168
S11350707C911D978AE990E20E94CE01F501668534
S113508077858AE990E20E94CE01D50150966D9110
S11350907C9151978AE990E20E94CE01F601A684A0
S11350A0B784A114B10409F4DFC08091A820D5010C
S11350B058969C915897981709F4D6C058968C9393
S11350C0589728EE33E05A962D933C935B971A96A3
S11350D08D909C901B978114910441F1F401908D63
S11350E0891721F1808F88EE93E0828F938F6285F8
S11350F073858AE990E20E94CE01D4011C966D91D9
S11351007C911D978AE990E20E94CE01F4016685A4
S113511077858AE990E20E94CE01D40150966D9180
S11351207C9151978AE990E20E94CE01F501848432
S113513095848114910481F18091A820D40158961A
S11351409C915897981741F158968C93589788EEEC
S113515093E05A968D939C935B971A966D917C91EC
S11351601B978AE990E20E94CE01F401648575855B
S11351708AE990E20E94CE01D4011E966D917C9141
S11351801F978AE990E20E94CE01F4016089718937
S11351908AE990E20E94CE01D5011E968D909C90E2
S11351A01F978114910451F18091A820F401908DEE
S11351B0981721F1808F88EE93E0828F938F628518
S11351C073858AE990E20E94CE01D4011C966D9108
S11351D07C911D978AE990E20E94CE01F4016685D4
S11351E077858AE990E20E94CE01D40150966D91B0
S11351F07C9151978AE990E20E94CE01F501A08842
S1135200B188A114B10481F18091A820D5015896E8
S11352109C915897981741F158968C93589788EE1B
S113522093E05A968D939C935B971A966D917C911B
S11352301B978AE990E20E94CE01F5016485758589
S11352408AE990E20E94CE01D5011E966D917C916F
S11352501F978AE990E20E94CE01F5016089718965
S11352608AE990E20E94CE01D6015096CD90DC905E
S11352705197C114D10409F4D9C08091A820F60132
S1135280908D981709F4D2C0808F28EE33E0228FD6
S1135290338FA284B384A114B10471F1D50158965B
S11352A09C915897891741F158968C93589788EE9A
S11352B093E05A968D939C935B971A966D917C918B
S11352C01B978AE990E20E94CE01F50164857585F9
S11352D08AE990E20E94CE01D5011E966D917C91DF
S11352E01F978AE990E20E94CE01F50160897189D5
S11352F08AE990E20E94CE01D6011C96AD90BC9042
S11353001D97A114B10451F18091A820F501908D4D
S1135310981721F1808F88EE93E0828F938F6285B6
S113532073858AE990E20E94CE01D5011C966D91A5
S11353307C911D978AE990E20E94CE01F501668571
S113534077858AE990E20E94CE01D50150966D914D
S11353507C9151978AE990E20E94CE01F601A684DD
S1135360B784A114B10481F18091A820D501589685
S11353709C915897981741F158968C93589788EEBA
S113538093E05A968D939C935B971A966D917C91BA
S11353901B978AE990E20E94CE01F5016485758528
S11353A08AE990E20E94CE01D5011E966D917C910E
S11353B01F978AE990E20E94CE01F5016089718904
S11353C08AE990E20E94CE01D6015096CD90DC90FD
S11353D05197C114D10451F18091A820F601908D08
S11353E0981721F1808F88EE93E0828F938F6285E6
S11353F073858AE990E20E94CE01D6011C966D91D4
S11354007C911D978AE990E20E94CE01F60166859F
S113541077858AE990E20E94CE01D60150966D917B
S11354207C9151978AE990E20E94CE01F701E088CD
S1135430F188E114F10409F48FC18091A820D70107
S113544058969C915897981709F486C158968C934E
S1135450589728EE33E05A962D933C935B971A960F
S1135460CD90DC901B97C114D10441F1F601908DCD
S1135470891721F1808F88EE93E0828F938F628564
S113548073858AE990E20E94CE01D6011C966D9143
S11354907C911D978AE990E20E94CE01F60166850F
S11354A077858AE990E20E94CE01D60150966D91EB
S11354B07C9151978AE990E20E94CE01F701C4845D
S11354C0D584C114D10409F4DFC08091A820D60189
S11354D058969C915897981709F4D6C058968C936F
S11354E0589728EE33E05A962D933C935B971A967F
S11354F0AD90BC901B97A114B10441F1F501908DBE
S1135500891721F1808F88EE93E0828F938F6285D3
S113551073858AE990E20E94CE01D5011C966D91B3
S11355207C911D978AE990E20E94CE01F50166857F
S113553077858AE990E20E94CE01D50150966D915B
S11355407C9151978AE990E20E94CE01F601A484ED
S1135550B584A114B10481F18091A820D501589695
S11355609C915897981741F158968C93589788EEC8
S113557093E05A968D939C935B971A966D917C91C8
S11355801B978AE990E20E94CE01F5016485758536
S11355908AE990E20E94CE01D5011E966D917C911C
S11355A01F978AE990E20E94CE01F5016089718912
S11355B08AE990E20E94CE01D6011E96AD90BC907D
S11355C01F97A114B10451F18091A820F501908D89
S11355D0981721F1808F88EE93E0828F938F6285F4
S11355E073858AE990E20E94CE01D5011C966D91E3
S11355F07C911D978AE990E20E94CE01F5016685AF
S113560077858AE990E20E94CE01D50150966D918A
S11356107C9151978AE990E20E94CE01F601C088FC
S1135620D188C114D10481F18091A820D601589663
S11356309C915897981741F158968C93589788EEF7
S113564093E05A968D939C935B971A966D917C91F7
S11356501B978AE990E20E94CE01F6016485758564
S11356608AE990E20E94CE01D6011E966D917C914A
S11356701F978AE990E20E94CE01F6016089718940
S11356808AE990E20E94CE01D7011E96CD90DC906B
S11356901F97C114D10451F18091A820F601908D77
S11356A0981721F1808F88EE93E0828F938F628523
S11356B073858AE990E20E94CE01D6011C966D9111
S11356C07C911D978AE990E20E94CE01F6016685DD
S11356D077858AE990E20E94CE01D60150966D91B9
S11356E07C9151978AE990E20E94CE01F701E0880B
S11356F0F188E114F10481F18091A820D701589632
S11357009C915897981741F158968C93589788EE26
S113571093E05A968D939C935B971A966D917C9126
S11357201B978AE990E20E94CE01F7016485758592
S11357308AE990E20E94CE01D7011E966D917C9178
S11357401F978AE990E20E94CE01F701608971896E
S11357508AE990E20E94CE01EE84FF84E114F10410
S113576009F451C48091A820D70158969C91589768
S1135770981709F448C458968C93589728EE33E048
S11357805A962D933C935B971A96CD90DC901B9779
S1135790C114D10409F42FC1F601908D891709F4BD
S11357A02AC1808F228F338FA284B384A114B104C1
S11357B071F1D50158969C915897891741F15896E3
S11357C08C93589788EE93E05A968D939C935B97AD
S11357D01A966D917C911B978AE990E20E94CE0102
S11357E0F501648575858AE990E20E94CE01D501B0
S11357F01E966D917C911F978AE990E20E94CE01DA
S1135800F501608971898AE990E20E94CE01D6018E
S11358101C96AD90BC901D97A114B10451F18091D8
S1135820A820F501908D981721F1808F88EE93E0E0
S1135830828F938F628573858AE990E20E94CE01FC
S1135840D5011C966D917C911D978AE990E20E9486
S1135850CE01F501668577858AE990E20E94CE0142
S1135860D50150966D917C9151978AE990E20E94FE
S1135870CE01F601A684B784A114B10481F180910C
S1135880A820D50158969C915897981741F158969D
S11358908C93589788EE93E05A968D939C935B97DC
S11358A01A966D917C911B978AE990E20E94CE0131
S11358B0F501648575858AE990E20E94CE01D501DF
S11358C01E966D917C911F978AE990E20E94CE0109
S11358D0F501608971898AE990E20E94CE01D601BE
S11358E05096CD90DC905197C114D10409F483C033
S11358F08091A820F601908D981709F47CC0808FC0
S113590088EE93E0828F938F628573858AE990E2B3
S11359100E94CE01D6011C966D917C911D978AE957
S113592090E20E94CE01F601A684B784A114B104CA
S113593081F18091A820D50158969C915897981789
S113594041F158968C93589788EE93E05A968D932C
S11359509C935B971A966D917C911B978AE990E2D0
S11359600E94CE01F501648575858AE990E20E9462
S1135970CE01D5011E966D917C911F978AE990E224
S11359800E94CE01F501608971898AE990E20E9442
S1135990CE01D6015096CD90DC905197C114D1041C
S11359A051F18091A820F601908D981721F1808FF4
S11359B088EE93E0828F938F628573858AE990E203
S11359C00E94CE01D6011C966D917C911D978AE9A7
S11359D090E20E94CE01F601668577858AE990E21D
S11359E00E94CE01D60150966D917C9151978AE91F
S11359F090E20E94CE01F701C484D584C114D1047D
S1135A0009F4DFC08091A820D60158969C9158973C
S1135A10981709F4D6C058968C93589728EE33E01B
S1135A205A962D933C935B971A96AD90BC901B9716
S1135A30A114B10441F1F501908D891721F1808FF2
S1135A4088EE93E0828F938F628573858AE990E272
S1135A500E94CE01D5011C966D917C911D978AE917
S1135A6090E20E94CE01F501668577858AE990E28D
S1135A700E94CE01D50150966D917C9151978AE98F
S1135A8090E20E94CE01F601A484B584A114B1046D
S1135A9081F18091A820D50158969C915897981728
S1135AA041F158968C93589788EE93E05A968D93CB
S1135AB09C935B971A966D917C911B978AE990E26F
S1135AC00E94CE01F501648575858AE990E20E9401
S1135AD0CE01D5011E966D917C911F978AE990E2C3
S1135AE00E94CE01F501608971898AE990E20E94E1
S1135AF0CE01D6011E96AD90BC901F97A114B1049F
S1135B0051F18091A820F501908D981721F1808F93
S1135B1088EE93E0828F938F628573858AE990E2A1
S1135B200E94CE01D5011C966D917C911D978AE946
S1135B3090E20E94CE01F501668577858AE990E2BC
S1135B400E94CE01D50150966D917C9151978AE9BE
S1135B5090E20E94CE01F601C088D188C114D1041C
S1135B6081F18091A820D60158969C915897981756
S1135B7041F158968C93589788EE93E05A968D93FA
S1135B809C935B971A966D917C911B978AE990E29E
S1135B900E94CE01F601648575858AE990E20E942F
S1135BA0CE01D6011E966D917C911F978AE990E2F1
S1135BB00E94CE01F601608971898AE990E20E940F
S1135BC0CE01D7011E96CD90DC901F97C114D1044D
S1135BD009F433C18091A820F601908D981709F437
S1135BE02CC1808F28EE33E0228F338FA284B384BC
S1135BF0A114B10471F1D50158969C915897891755
S1135C0041F158968C93589788EE93E05A968D9369
S1135C109C935B971A966D917C911B978AE990E20D
S1135C200E94CE01F501648575858AE990E20E949F
S1135C30CE01D5011E966D917C911F978AE990E261
S1135C400E94CE01F501608971898AE990E20E947F
S1135C50CE01D6011C96AD90BC901D97A114B10441
S1135C6009F483C08091A820F501908D981709F458
S1135C707CC0808F88EE93E0828F938F62857385DA
S1135C808AE990E20E94CE01D5011C966D917C9127
S1135C901D978AE990E20E94CE01F50186849784DB
S1135CA08114910481F18091A820D40158969C918B
S1135CB05897981741F158968C93589788EE93E02B
S1135CC05A968D939C935B971A966D917C911B9732
S1135CD08AE990E20E94CE01F401648575858AE91F
S1135CE090E20E94CE01D4011E966D917C911F9783
