S00E0000417175696C612E73726563B9
S11300000C9420010C9456010C9456010C94560146
S11300100C9456010C9456010C9456010C94560100
S11300200C9456010C9456010C9456010C945601F0
S11300300C9456010C9456010C9456010C945601E0
S11300400C9456010C9456010C9456010C945601D0
S11300500C9456010C9456010C9456010C945601C0
S11300600C9456010C9456010C9456010C945601B0
S11300700C9456010C9456010C9456010C945601A0
S11300800C9456010C9456010C9456010C94560190
S11300900C9456010C9456010C9456010C94560180
S11300A00C9456010C9456010C9456010C94560170
S11300B00C9456010C9456010C9456010C94560160
S11300C00C9456010C9456010C9456010C94560150
S11300D00C9456010C9456010C9456010C94560140
S11300E00C9456010C9456010C9456010C94560130
S11300F00C9456010C9456010C9456010C94560120
S11301000C9456010C9456010C9456010C9456010F
S11301100C9456010C9456010C9456010C945601FF
S11301200C9456010C9456010C9456010C945601EF
S11301300C9456010C945E0A0C9456010C945601CE
S11301400C9456010C9456010C9456010C945601CF
S11301500C9456010C9456010C9456010C945601BF
S11301600C9456010C9456010C9456010C945601AF
S11301700C9456010C9456010C9456010C9456019F
S11301800C9456010C9456010C9456010C9456018F
S11301900C9456010C9456010C9456010C9456017F
S11301A00C9456010C9456010C9456010C9456016F
S11301B00C9456010C9456010C9456010C9456015F
S11301C00C9456010C9456010C9456010C9456014F
S11301D00C9456010C9456010C9456010C9456013F
S11301E00C9456010C9456010C9456010C9456012F
S11301F00C9456010C9456010C9456019D07AC07BF
S113020015081508BB07CA07D907E8070608F70742
S11302100C94D9070C94AC070C949D070C948101A1
S11302200C9415080C94F7090C94F7070C94060821
S11302300C94BB070C94CA070C94E8078101F709D6
S113024011241FBECFEFCDBFDFE3DEBF00E00CBF44
S113025018BE19BE1ABE1BBE10E2A0E0B0E2EEE664
S1130260F7E100E00BBF02C007900D92A235B10781
S1130270D9F71BBE28E3A2E5B0E201C01D92A93A5A
S1130280B207E1F711E0C0E2D1E000E006C0219737
S11302900109802FFE010E94AC0BCE31D10780E012
S11302A00807A9F70E9458010C94B50B0C940000A0
S11302B00E942F052FEF87E893E121508040904062
S11302C0E1F700C0000064E070E280EB94E00E947B
S11302D089060E9476070E94EB066AE070E280EBD2
S11302E094E00E94890661E170E282E590E20E9456
S11302F0750BC0EED6E0888580FFFDCF0E943009E3
S1130300FACFCF93DF93A6E6B0E288EC90E08D932A
S11303109C93119780E797E1ECE6F0E2EF019C01F2
S1130320199221503040E1F788EE93E01C968D93AA
S11303309C931D978093AE209093AF208093CC2004
S11303409093CD208093EA209093EB208093082112
S1130350909309218093262190932721809344210F
S1130360909345218093622190936321809380210F
S11303709093812180939E2190939F218093BC210F
S11303809093BD218093DA219093DB218093F8210F
S11303909093F9218093162290931722809334220C
S11303A0909335228093522290935322809370220B
S11303B09093712280938E2290938F228093AC220B
S11303C09093AD228093CA229093CB228093E8220B
S11303D09093E92280930623909307238093242308
S11303E09093252380934223909343238093602307
S11303F09093612380937E2390937F2380939C2307
S113040090939D238093BA239093BB238093D82306
S11304109093D9238093F6239093F7238093142405
S11304209093152480933224909333248093502402
S11304309093512480936E2490936F2480938C2402
S113044090938D248093AA249093AB248093C82402
S11304509093C9248093E6249093E7248093042501
S113046090930525809322259093232580934025FE
S11304709093412580935E2590935F2580937C25FE
S113048090937D2580939A2590939B258093B825FE
S11304909093B9258093D6259093D7258093F425FE
S11304A09093F525809312269093132680933026FB
S11304B09093312680934E2690934F2680936C26FA
S11304C090936D2680938A2690938B268093A826FA
S11304D09093A9268093C6269093C7268093E426FA
S11304E09093E526809302279093032780932027F7
S11304F09093212780933E2790933F2780935C27F6
S113050090935D2780937A2790937B2780939827F5
S1130510909399278093B6279093B7278093D427F5
S11305209093D5278093F2279093F32780931028F4
S11305309093112880932E2890932F2880934C28F1
S113054090934D2880936A2890936B2880938828F1
S1130550909389288093A6289093A7288093C428F1
S11305609093C5288093E2289093E32880930029F0
S11305709093012980931E2990931F2980933C29ED
S113058090933D2980935A2990935B2980937829ED
S11305909093792980939629909397298093B429ED
S11305A09093B5298093D2299093D3298093F029ED
S11305B09093F12980930E2A90930F2A80932C2AEA
S11305C090932D2A80934A2A90934B2A8093682AE9
S11305D09093692A8093862A9093872A8093A42AE9
S11305E09093A52A8093C22A9093C32A8093E02AE9
S11305F09093E12A8093FE2A9093FF2A80931C2BE8
S113060090931D2B80933A2B90933B2B8093582BE4
S11306109093592B8093762B9093772B8093942BE4
S11306209093952B8093B22B9093B32B8093D02BE4
S11306309093D12B8093EE2B9093EF2B80930C2CE3
S113064090930D2C80932A2C90932B2C8093482CE0
S11306509093492C8093662C9093672C8093842CE0
S11306609093852C8093A22C9093A32C8093C02CE0
S11306709093C12C8093DE2C9093DF2C8093FC2CE0
S11306809093FD2C80931A2D90931B2D8093382DDD
S11306909093392D8093562D9093572D8093742DDC
S11306A09093752D8093922D9093932D8093B02DDC
S11306B09093B12D8093CE2D9093CF2D8093EC2DDC
S11306C09093ED2D80930A2E90930B2E8093282ED9
S11306D09093292E8093462E9093472E8093642ED8
S11306E09093652E8093822E9093832E8093A02ED8
S11306F09093A12E8093BE2E9093BF2E8093DC2ED8
S11307009093DD2E8093FA2E9093FB2E8093182FD6
S11307109093192F8093362F9093372F8093542FD3
S11307209093552F8093722F9093732F8093902FD3
S11307309093912F8093AE2F9093AF2F8093CC2FD3
S11307409093CD2F8093EA2F9093EB2F80930830D2
S113075090930930809326309093273080934430CF
S113076090934530809362309093633080938030CF
S11307709093813080939E3090939F308093BC30CF
S11307809093BD308093DA309093DB308093F830CF
S11307909093F930809316319093173180933431CC
S11307A090933531809352319093533180937031CB
S11307B09093713180938E3190938F318093AC31CB
S11307C09093AD318093CA319093CB318093E831CB
S11307D09093E931809306329093073280932432C8
S11307E090932532809342329093433280936032C7
S11307F09093613280937E3290937F3280939C32C7
S113080090939D328093BA329093BB328093D832C6
S11308109093D9328093F6329093F73280931433C5
S113082090931533809332339093333380935033C2
S11308309093513380936E3390936F3380938C33C2
S113084090938D338093AA339093AB338093C833C2
S11308509093C9338093E6339093E73380930434C1
S113086090930534809322349093233480934034BE
S11308709093413480935E3490935F3480937C34BE
S113088090937D3480939A3490939B348093B834BE
S11308909093B9348093D6349093D7348093F434BE
S11308A09093F534809312359093133580933035BB
S11308B09093313580934E3590934F3580936C35BA
S11308C090936D3580938A3590938B358093A835BA
S11308D09093A9358093C6359093C7358093E435BA
S11308E09093E535809302369093033680932036B7
S11308F09093213680933E3690933F3680935C36B6
S113090090935D3680937A3690937B3680939836B5
S1130910909399368093B6369093B7368093D436B5
S11309209093D5368093F2369093F33680931037B4
S11309309093113780932E3790932F3780934C37B1
S113094090934D3780936A3790936B3780938837B1
S1130950909389378093A6379093A7378093C437B1
S11309609093C53788ECECEDF7E3EF0119928A9583
S1130970E9F712961D921C92139781E090E0149669
S11309808D939C931597E6E5F0E22AE830E2208304
S113099031832283338324E630E094962D933C9371
S11309A0959796962D933C93979798968D939C93B1
S11309B099978FEF9FEF9C968D939C939D979A9612
S11309C01D921C929B9714821582168217821086A0
S11309D0118612861386148615861686178640E4B9
S11309E056E060EA78E082E590E20E94490BDF91EC
S11309F0CF91089587E08093A1060895E0E5F0E0A3
S1130A00808182608083818181FFFDCF88ED84BFF6
S1130A10E0E4F0E081E0808384E08183E0E5F0E0DD
S1130A2080818E7F8083089584E080935000E1E587
S1130A30F0E080818823E9F381E08093430087E03C
S1130A4080930004089581E080930106E0ECF7E0D0
S1130A5087E0818385838FE08093210708950E9436
S1130A60FE040E9423050E943C050E941E070E946A
S1130A7014050E94FA040895CF93DF93CDB7DEB72F
S1130A802A97CDBFDEBF20E83AE146E050E060E9B6
S1130A9074E0CE0101960E949F0A40E06CE7CE010B
S1130AA001960E94E50A60E070E0CE0101960E9482
S1130AB0130B68E370E0CE0101960E94130BCE0184
S1130AC001960E94370B2FEF81EE94E02150804075
S1130AD09040E1F700C0000040E06CE7CE010196D1
S1130AE00E94E50A60E070E0CE0101960E94130BBB
S1130AF069E370E0CE0101960E94130BCE010196CA
S1130B000E94370B2FEF81EE94E0215080409040FB
S1130B10E1F700C0000040E06CE7CE0101960E94BE
S1130B20E50A60E070E0CE0101960E94130B64E1D7
S1130B3070E0CE0101960E94130BCE0101960E9433
S1130B40370B2FEF81EE94E0215080409040E1F785
S1130B5000C0000040E06CE7CE0101960E94E50A67
S1130B6060E070E0CE0101960E94130B6EE770E026
S1130B70CE0101960E94130BCE0101960E94370B01
S1130B802FEF81EE94E0215080409040E1F700C0C7
S1130B90000040E06CE7CE0101960E94E50A60E0A7
S1130BA070E0CE0101960E94130B65E570E0CE0162
S1130BB001960E94130BCE0101960E94370B2FEF72
S1130BC081EE94E0215080409040E1F700C00000A5
S1130BD040E06CE7CE0101960E94E50A60E070E017
S1130BE0CE0101960E94130B6CE670E0CE010196D3
S1130BF00E94130BCE0101960E94370B2FEF83ED59
S1130C0090E3215080409040E1F700C0000040E0B4
S1130C106CE7CE0101960E94E50A60E070E0CE0127
S1130C2001960E94130B68E370E0CE0101960E94C6
S1130C30130BCE0101960E94370B2FEF81EE94E047
S1130C40215080409040E1F700C0000040E06CE794
S1130C50CE0101960E94E50A60E070E0CE010196A3
S1130C600E94130B6CE070E0CE0101960E94130BFE
S1130C70CE0101960E94370B2FEF81EE94E02150B4
S1130C8080409040E1F700C0000040E06CE7CE01F6
S1130C9001960E94E50A60E070E0CE0101960E9490
S1130CA0130B61E070E0CE0101960E94130BCE019C
S1130CB001960E94370B2FEF81EE94E02150804083
S1130CC09040E1F700C0000040E06CE7CE010196DF
S1130CD00E94E50A60E070E0CE0101960E94130BC9
S1130CE066E070E0CE0101960E94130BCE010196DE
S1130CF00E94370B2FEF81EE94E02150804090400A
S1130D00E1F700C000002A96CDBFDEBFDF91CF918E
S1130D100895AF92BF92CF92DF92EF92FF921F930A
S1130D20CF93DF93CDB7DEB72A97CDBFDEBF7B016C
S1130D3020E83AE146E050E060E974E0CE01019633
S1130D400E949F0A40E06CE7CE0101960E94E50AEA
S1130D50F70101900020E9F731976F01CE18DF0801
S1130D6049F180E090E010E0560121E0A21AB108B8
S1130D70A816B90639F460E470E0CE0101960E9429
S1130D80130B06C060EC70E0CE0101960E94130BB9
S1130D90F70161917F0170E0CE0101960E94130B6F
S1130DA0FAE6FA95F1F700C01F5F812F90E08C15E9
S1130DB09D05F0F2CE0101960E94370B2A96CDBF15
S1130DC0DEBFDF91CF911F91FF90EF90DF90CF9026
S1130DD0BF90AF900895CF93DF93CDB7DEB72A9736
S1130DE0CDBFDEBF20E83AE146E050E060E974E0C0
S1130DF0CE0101960E949F0A40E06CE7CE01019665
S1130E000E94E50A60E070E0CE0101960E94130B97
S1130E1061E070E0CE0101960E94130BCE010196B1
S1130E200E94370B8FEB92E10197F1F700C00000AD
S1130E302A96CDBFDEBFDF91CF910895E0E2F6E0C0
S1130E408CE0818385830895623021F498E0909347
S1130E50260605C0613079F494E090932606682F45
S1130E608FE39CE90197F1F700C0000085EA98E35D
S1130E700E948F0A089580E00895483008F047E002
S1130E8050E0440F551F440F551F440F551F283081
S1130E9008F027E0422B643008F063E090E4699F97
S1130EA0B0011124462B4093A438813021F484E00E
S1130EB08093260605C0823091F488E0809326064C
S1130EC08FE39CE90197F1F700C000006091A4381A
S1130ED085EA98E30E948F0A8CE0809325060895A2
S1130EE020E040E063E00E943D07089561E080E077
S1130EF00E9424078130D1F762E080E00E94240739
S1130F008130D1F70895CF93C82F2FEF89EF90E068
S1130F10215080409040E1F700C000000E94760715
S1130F208C2F90E08A30910508F07FC0FC0188275F
S1130F30E250FF4F8F4F0C94AC0B21E047E062E08E
S1130F4082E00E943D0721E047E062E081E00E94E8
S1130F503D070E94760771C022E047E062E081E02D
S1130F600E943D0722E047E062E082E00E943D07E4
S1130F700E94760762C021E047E061E081E00E94C0
S1130F803D0721E047E061E082E00E943D070E94C6
S1130F90760753C022E047E061E081E00E943D070C
S1130FA022E047E061E082E00E943D070E9476076C
S1130FB044C024E047E062E081E00E943D0724E071
S1130FC047E062E082E00E943D070E94760735C058
S1130FD024E047E061E081E00E943D0724E047E02F
S1130FE061E082E00E943D070E94760726C023E06C
S1130FF045E062E081E00E943D0723E045E061E0D6
S113100082E00E943D070E94760717C023E045E076
S113101061E081E00E943D0723E045E062E082E078
S11310200E943D070E94760708C081E00E94700775
S113103082E00E9470070E9476072FEF8BE49DE107
S1131040215080409040E1F700C00000CF91089506
S1131050EF92FF920F931F93CF93DF93811127C0D9
S113106083E090E00E94260AD82FC92F82E090E006
S11310700E94260A2D2F3C2F821793070CF49C0103
S113108028353240A4F086E090E00E94260AD82F4A
S1131090C92F85E090E00E94260A2D2F3C2F82174D
S11310A093070CF49C01283532400CF0CEC083E049
S11310B090E00E94260AD82FC92F82E090E00E9477
S11310C0260A2D2F3C2F821793070CF49C012935F7
S11310D0324084F482E090E00E94260A89359240EE
S11310E008F0B3C083E090E00E94260A893592405C
S11310F008F0ABC086E090E00E94260AD82FC92FE2
S113110085E090E00E94260A2D2F3C2F821793073A
S11311100CF49C012935324084F485E090E00E946F
S1131120260A8935924008F090C086E090E00E943B
S1131130260A8935924008F088C082E090E00E9437
S1131140260A8C0183E090E00E94260A800F911FFA
S11311508C011695079585E090E00E94260AEC0123
S113116086E090E00E94260A8C0F9D1FEC01D69524
S1131170C7950E94EB066AE170E280EB94E00E945E
S113118089060C171D074CF0C017D10764F40F2E05
S1131190F6E0EF2EF02D05E008C00F2EF3E0EF2E61
S11311A0F02D02E002C0E12C00E010E0C8010E9432
S11311B0260AEC01F12CC7010E94260A9E01281B75
S11311C0390BC9018A3F3FEF9307C4F422E041E0A1
S11311D061E081E00E943D0722E041E062E082E0BC
S11311E00E943D07C8010E94260AEC01C7010E9423
S11311F0260AC81BD90B2697ACF31DC00797C4F069
S113120022E041E062E081E00E943D0722E041E00B
S113121061E082E00E943D07C8010E94260AEC01B9
S1131220C7010E94260AC81BD90B2797ACF703C035
S11312300E94EB060AC081E00E94700782E00E94CF
S113124070070E9476070E94EB06DF91CF911F91F1
S11312500F91FF90EF90089580E00E942808089570
S1131260EF92FF920F931F93CF93DF9383E090E06D
S11312700E94260A843991410CF4B1C061E084E0F3
S11312800E946D0A0E94EB0664E470E280EB94E035
S11312900E94890661E084E00E946D0A80E00E9459
S11312A028080E94EB0664E470E280EB94E00E945C
S11312B08906E0E0F7E08085808580E00E9483076E
S11312C080E00E9428080E94EB0664E470E280EB50
S11312D094E00E94890680E00E94830780E00E94D7
S11312E028080E94EB0664E470E280EB94E00E941C
S11312F0890680E00E94830780E00E9428080E94FB
S1131300EB0664E470E280EB94E00E94890683E0DB
S113131090E00E94260A893B91050CF445C061E0E7
S113132082E00E946D0A21E047E062E081E00E94D1
S11313303D0721E047E062E082E00E943D0783E050
S113134090E00E94260A7C0183E090E00E94260A35
S1131350082F192F82E090E00E94260AC02FD12F77
S11313608C179D070CF4EC0186E090E00E94260A9D
S1131370082F192F85E090E00E94260A202F312F94
S1131380821793070CF49C01293532403CF4C9358B
S1131390D24024F489EBE816F1042CF681E00E9493
S11313A0700782E00E94700786E00E94830760E075
S11313B084E00E946D0A60E082E00E946D0A6CE4A1
S11313C070E282E590E20E94750B61E470E282E5CE
S11313D090E20E94750B0E942C0981E001C080E01C
S11313E0DF91CF911F910F91FF90EF90089522E02C
S11313F040E456E060EC78E085EA98E30E947B0ADA
S11314000895FC01618364838AE28A95F1F700C040
S11314106683628390859623E9F3A0E0B8E0909612
S11314201D921C929197F89485E08C939085962355
S1131430E9F7E0E0F8E0108278948FE39CE9019703
S1131440F1F700C0000080A191A1089583309105B7
S1131450D1F034F48130910551F0029771F02BC032
S113146085309105E1F0ACF00697F9F024C061E015
S113147080E896E00E94010A089562E080E896E020
S11314800E94010A089564E080E896E00E94010A3F
S1131490089568E080E896E00E94010A089560E1FA
S11314A080E896E00E94010A089560E280E896E0F0
S11314B00E94010A089580E090E008951F920F921F
S11314C00FB60F92112408B60F9218BE0F9008BEE3
S11314D00F900FBE0F901F901895613019F48093F0
S11314E0C6070895611103C08093C50708958CE170
S11314F08093C5070895FC016083718342835383FD
S113150080E4DA0112968C93A281B38180EB119668
S11315108C930190F081E02D206520830895DC01F7
S1131520ED91FC9111976383ED91FC911197928158
S11315309923ECF71282ED91FC91838108950F9326
S11315401F93CF93DF93EC018B0168877987220F78
S1131550331F441F551F60E078E488EE91E00E9439
S11315608A0BDA01C9010597A109B1098C839D830E
S1131570AE83BF83F8018583E885F9858281828300
S1131580E885F985818188608183E885F98581E032
S11315908483DF91CF911F910F910895DC011896F8
S11315A0ED91FC911997848182FD05C09481892F66
S11315B0887093FF09C081E084831896ED91FC91B3
S11315C0199783E083838FEF0895DC01442359F056
S11315D01896ED91FC911997616066831896ED91C8
S11315E0FC91199707C01896ED91FC9119976E7F9D
S11315F06683F4CF9481907CE9F39481892F807180
S113160094FF10C08481806484831896ED91FC91CA
S113161019978481806884831896ED91FC911997B9
S113162081E084830895CF93DF93EC01E885F98505
S11316306783E885F98584818C7FE9F3CE010E9474
S1131640CE0AE885F9859481892F807194FF0CC0B6
S1131650848180648483E885F985848180688483B7
S1131660E885F98581E08483DF91CF910895CF9354
S1131670DF93EC01E885F98584818C7FE9F3CE0161
S11316800E94CE0AE885F98583E08383DF91CF91B8
S11316900895FC01408351836283738388E0DA01F7
S11316A011968C93A081B18184E012968C93A281CF
S11316B0B38183E316968C93A281B38117961C920F
S11316C0A281B38183E015968C930280F381E02D8F
S11316D088E184830895DC011296ED91FC911397BF
S11316E0818185FFFDCF608308950F931F93CF936E
S11316F0DF93EB016881662341F08C012196C801D8
S11317000E946B0B69916111FACFDF91CF911F9108
S11317100F910895A1E21A2EAA1BBB1BFD010DC057
S1131720AA1FBB1FEE1FFF1FA217B307E407F5078D
S113173020F0A21BB30BE40BF50B661F771F881F69
S1131740991F1A9469F760957095809590959B01FF
S1131750AC01BD01CF010895EE0FFF1F881F8BBFA1
S11117600790F691E02D1BBE1994F894FFCF6C
S113176E202C200048656C6C6F00526561647921F1
S113177E0077616B655F75700A00466978696E67FC
S113178E5475726E004E6F7469667950004E6F74A4
S113179E6966794841004E6F7469667948616C6672
S11317AE000A0D004E6F746966794C0073616B61AB
S10517BE210004
S9030000FC
