:100000000C9423010C9459010C9459010C9459013E
:100010000C9459010C9459010C9459010C945901F8
:100020000C9459010C9459010C9459010C945901E8
:100030000C9459010C9459010C9459010C945901D8
:100040000C9459010C9459010C9459010C945901C8
:100050000C9459010C9459010C9459010C945901B8
:100060000C9459010C9459010C9459010C945901A8
:100070000C9459010C9459010C9459010C94590198
:100080000C9459010C9459010C9459010C94590188
:100090000C9459010C9459010C9459010C94590178
:1000A0000C9459010C9459010C9459010C94590168
:1000B0000C9459010C9459010C9459010C94590158
:1000C0000C9459010C9459010C9459010C94590148
:1000D0000C9459010C9459010C9459010C94590138
:1000E0000C9459010C9459010C9459010C94590128
:1000F0000C9459010C9459010C9459010C94590118
:100100000C9459010C9459010C9459010C94590107
:100110000C9459010C9459010C9459010C945901F7
:100120000C9459010C9459010C9459010C945901E7
:100130000C9459010C94A6AC0C9459010C945901DF
:100140000C9459010C9459010C9459010C945901C7
:100150000C9459010C9459010C9459010C945901B7
:100160000C9459010C9459010C9459010C945901A7
:100170000C9459010C9459010C9459010C94590197
:100180000C9459010C9459010C9459010C94590187
:100190000C9459010C9459010C9459010C94590177
:1001A0000C9459010C9459010C9459010C94590167
:1001B0000C9459010C9459010C9459010C94590157
:1001C0000C9459010C9459010C9459010C94590147
:1001D0000C9459010C9459010C9459010C94590137
:1001E0000C9459010C9459010C9459010C94590127
:1001F0000C9459010C9459010C94590129A838A860
:10020000A1A8A1A847A856A865A874A883A892A8E1
:100210000C9456A80C9438A80C9470AA0C9492A82C
:100220000C9429A80C94269D0C9483A80C9474A873
:100230000C94A1A80C947AAA0C9465A80C9447A8D5
:10024000269D70AA7AAA11241FBECFEFCDBFDFE38F
:10025000DEBF00E00CBF18BE19BE1ABE1BBE10E206
:10026000A0E0B0E2EEEDFDE501E00BBF02C00790BB
:100270000D92AC35B107D9F71BBE2BE3ACE5B0E26C
:1002800001C01D92AB33B207E1F711E0C3E2D1E048
:1002900000E006C021970109802FFE010E94C0AE38
:1002A000C032D10780E00807A9F70E94E39C0C94B4
:1002B000EDAE0C9400002F923F924F925F926F929E
:1002C0007F928F929F92AF92BF92CF92DF92EF92E6
:1002D000FF920F931F93CF93DF93CDB7DEB72E9787
:1002E000CDBFDEBFFC01DB014D875E8749011801F0
:1002F000109709F432C52FEFE21AF20A16968D9183
:100300009C911797E816F90624F41696ED92FC9244
:1003100017973681398387818A8320852B8331859E
:100320003C8382858D8323852E8334853F83858519
:1003300088875896CD90DD90ED90FC905B972601D4
:100340003701770C4408542C32012C2D3D2D4E2DB5
:100350005F2D642D742D842D942DA980BA80CB80BF
:10036000DC80ED80FE800F8118850E94E4AE11F0E4
:1003700008F0F3C4828D938D0196828F938F8D91B7
:100380009C9111972D853E858217930781F41296D3
:100390008D919C9113978815990549F414968D9128
:1003A0009C9115978215930511F4A68BB78B2B861C
:1003B0003C8689869A864D845E841D01ED87FE8782
:1003C00089819A81AB81BC810196A11DB11DF1018A
:1003D000808F918FA28FB38F86819781828493843F
:1003E0008114910409F4ABC00196F4012681378190
:1003F0008217930714F486839783ED85FE85F68133
:10040000F983ED85FE85F781FA83ED85FE85F0851C
:10041000FB83ED85FE85F185FC83ED85FE85F28508
:10042000FD83ED85FE85F385FE83ED85FE85F485F0
:10043000FF83ED85FE85F585F887F401808D918D2C
:10044000A28DB38D6C017D01FF0CCC08DC2C7601F4
:10045000282F392F4A2F5B2F6C2D7C2D8C2D9C2D16
:10046000A980BA80CB80DC80ED80FE800F8118856A
:100470000E94E4AE11F008F062C0ED85FE85828D29
:10048000938D0196828F938FF4018081918148161C
:10049000590691F48281938129853A852817390775
:1004A00059F484819581EB85FC85E817F90721F4DF
:1004B000ED85FE85868A978A89819A81AB81BC8188
:1004C0000196A11DB11DF401808F918FA28FB38F72
:1004D000E680F780628573850B851C8529853A85C2
:1004E000A2018D859E850E945B01F401E680F78064
:1004F000648575850B851C8529853A85A2018D85C6
:100500009E850E945B01F401E680F7806685778511
:100510000B851C8529853A85A2018D859E850E94C3
:100520005B01F401E680F780608971890B851C8589
:1005300029853A85A2018D859E850E945B01F10186
:1005400086819781848495848114910409F49DC2E5
:100550000196F401268137818217930714F486836C
:100560009783ED85FE85F681F983ED85FE85F7811C
:10057000FA83ED85FE85F085FB83ED85FE85F185AB
:10058000FC83ED85FE85F285FD83ED85FE85F38593
:10059000FE83ED85FE85F485FF83ED85FE85F5857B
:1005A000F887F401808D918DA28DB38D6C017D0152
:1005B000FF0CCC08DC2C7601282F392F4A2F5B2F1B
:1005C0006C2D7C2D8C2D9C2DA980BA80CB80DC805D
:1005D000ED80FE800F8118850E94E4AE11F008F0D6
:1005E00054C2ED85FE85828D938D0196828F938F07
:1005F000F401808191814816590691F4828193819A
:1006000029853A852817390759F484819581EB8526
:10061000FC85E817F90721F4ED85FE85868A978A1F
:1006200089819A81AB81BC810196A11DB11DF40124
:10063000808F918FA28FB38F86819781628473841C
:100640006114710409F4ABC00196F301268137816E
:100650008217930714F486839783ED85FE85F681D0
:10066000F983ED85FE85F781FA83ED85FE85F085BA
:10067000FB83ED85FE85F185FC83ED85FE85F285A6
:10068000FD83ED85FE85F385FE83ED85FE85F4858E
:10069000FF83ED85FE85F585F887F301808D918DCB
:1006A000A28DB38D6C017D01FF0CCC08DC2C760192
:1006B000282F392F4A2F5B2F6C2D7C2D8C2D9C2DB4
:1006C000A980BA80CB80DC80ED80FE800F81188508
:1006D0000E94E4AE11F008F062C0ED85FE85828DC7
:1006E000938D0196828F938FF301808191814816BB
:1006F000590691F48281938129853A852817390713
:1007000059F484819581EB85FC85E817F90721F47C
:10071000ED85FE85668A778A89819A81AB81BC8165
:100720000196A11DB11DF301808F918FA28FB38F10
:10073000E680F780628573850B851C8529853A855F
:10074000A2018D859E850E945B01F301E680F78002
:10075000648575850B851C8529853A85A2018D8563
:100760009E850E945B01F301E680F78066857785B0
:100770000B851C8529853A85A2018D859E850E9461
:100780005B01F301E680F780608971890B851C8528
:1007900029853A85A2018D859E850E945B01F40121
:1007A00086819781648475846114710409F4ABC0F7
:1007B0000196F301268137818217930714F486830B
:1007C0009783ED85FE85F681F983ED85FE85F781BA
:1007D000FA83ED85FE85F085FB83ED85FE85F18549
:1007E000FC83ED85FE85F285FD83ED85FE85F38531
:1007F000FE83ED85FE85F485FF83ED85FE85F58519
:10080000F887F301808D918DA28DB38D6C017D01F0
:10081000FF0CCC08DC2C7601282F392F4A2F5B2FB8
:100820006C2D7C2D8C2D9C2DA980BA80CB80DC80FA
:10083000ED80FE800F8118850E94E4AE11F008F073
:1008400062C0ED85FE85828D938D0196828F938F98
:10085000F301808191814816590691F48281938138
:1008600029853A852817390759F484819581EB85C4
:10087000FC85E817F90721F4ED85FE85668A778AFD
:1008800089819A81AB81BC810196A11DB11DF301C3
:10089000808F918FA28FB38FE680F78062857385FA
:1008A0000B851C8529853A85A2018D859E850E9430
:1008B0005B01F301E680F780648575850B851C85F7
:1008C00029853A85A2018D859E850E945B01F301F1
:1008D000E680F780668577850B851C8529853A85B6
:1008E000A2018D859E850E945B01F301E680F78061
:1008F000608971890B851C8529853A85A2018D85C2
:100900009E850E945B01F4018681978166847784CD
:100910006114710409F4ABC00196F301268137819B
:100920008217930714F486839783ED85FE85F681FD
:10093000F983ED85FE85F781FA83ED85FE85F085E7
:10094000FB83ED85FE85F185FC83ED85FE85F285D3
:10095000FD83ED85FE85F385FE83ED85FE85F485BB
:10096000FF83ED85FE85F585F887F301808D918DF8
:10097000A28DB38D6C017D01FF0CCC08DC2C7601BF
:10098000282F392F4A2F5B2F6C2D7C2D8C2D9C2DE1
:10099000A980BA80CB80DC80ED80FE800F81188535
:1009A0000E94E4AE11F008F062C0ED85FE85828DF4
:1009B000938D0196828F938FF301808191814816E8
:1009C000590691F48281938129853A852817390740
:1009D00059F484819581EB85FC85E817F90721F4AA
:1009E000ED85FE85668A778A89819A81AB81BC8193
:1009F0000196A11DB11DF301808F918FA28FB38F3E
:100A0000E680F780628573850B851C8529853A858C
:100A1000A2018D859E850E945B01F301E680F7802F
:100A2000648575850B851C8529853A85A2018D8590
:100A30009E850E945B01F301E680F78066857785DD
:100A40000B851C8529853A85A2018D859E850E948E
:100A50005B01F301E680F780608971890B851C8555
:100A600029853A85A2018D859E850E945B01F4014E
:100A7000E680F780608971890B851C8529853A8518
:100A8000A2018D859E850E945B01F101868197817F
:100A9000868497848114910409F4ABC00196F40113
:100AA000268137818217930714F486839783ED8517
:100AB000FE85F681F983ED85FE85F781FA83ED8564
:100AC000FE85F085FB83ED85FE85F185FC83ED8554
:100AD000FE85F285FD83ED85FE85F385FE83ED853C
:100AE000FE85F485FF83ED85FE85F585F887F401A5
:100AF000808D918DA28DB38D6C017D01FF0CCC0892
:100B0000DC2C7601282F392F4A2F5B2F6C2D7C2D62
:100B10008C2D9C2DA980BA80CB80DC80ED80FE805E
:100B20000F8118850E94E4AE11F008F062C0ED85D7
:100B3000FE85828D938D0196828F938FF401808143
:100B400091814816590691F48281938129853A85CD
:100B50002817390759F484819581EB85FC85E817BE
:100B6000F90721F4ED85FE85868A978A89819A8125
:100B7000AB81BC810196A11DB11DF401808F918FC5
:100B8000A28FB38FE680F780628573850B851C8505
:100B900029853A85A2018D859E850E945B01F4011D
:100BA000E680F780648575850B851C8529853A85E7
:100BB000A2018D859E850E945B01F401E680F7808D
:100BC000668577850B851C8529853A85A2018D85EB
:100BD0009E850E945B01F401E680F780608971893F
:100BE0000B851C8529853A85A2018D859E850E94ED
:100BF0005B01F1018681978180889188811491043D
:100C000009F4ABC00196F40126813781821793075E
:100C100014F486839783ED85FE85F681F983ED854F
:100C2000FE85F781FA83ED85FE85F085FB83ED85F2
:100C3000FE85F185FC83ED85FE85F285FD83ED85DE
:100C4000FE85F385FE83ED85FE85F485FF83ED85C6
:100C5000FE85F585F887F401808D918DA28DB38D89
:100C60006C017D01FF0CCC08DC2C7601282F392F7C
:100C70004A2F5B2F6C2D7C2D8C2D9C2DA980BA804A
:100C8000CB80DC80ED80FE800F8118850E94E4AE71
:100C900011F008F062C0ED85FE85828D938D01967E
:100CA000828F938FF401808191814816590691F4C7
:100CB0008281938129853A852817390759F48481DF
:100CC0009581EB85FC85E817F90721F4ED85FE8514
:100CD000868A978A89819A81AB81BC810196A11D00
:100CE000B11DF401808F918FA28FB38FE680F780C2
:100CF000628573850B851C8529853A85A2018D85C2
:100D00009E850E945B01F401E680F780648575850D
:100D10000B851C8529853A85A2018D859E850E94BB
:100D20005B01F401E680F780668577850B851C857D
:100D300029853A85A2018D859E850E945B01F4017B
:100D4000E680F780608971890B851C8529853A8545
:100D5000A2018D859E850E945B012E96CDBFDEBFD0
:100D6000DF91CF911F910F91FF90EF90DF90CF9087
:100D7000BF90AF909F908F907F906F905F904F90BB
:100D80003F902F9008952F923F924F925F926F92D3
:100D90007F928F929F92AF92BF92CF92DF92EF920B
:100DA000FF920F931F93CF93DF93CDB7DEB7629778
:100DB000CDBFDEBF898B9A8B6F87788B1A0129870D
:100DC0003A870B871C87FC01168A178A2281338198
:100DD0002D873E87F90186819781309711F40C9415
:100DE000C5269C012F5F3F4F2817390714F426832F
:100DF0003783E989FA89F681F983E989FA89F781E4
:100E0000FA83E989FA89F085FB83E989FA89F18512
:100E1000FC83E989FA89F285FD83E989FA89F385FA
:100E2000FE83E989FA89F485FF83E989FA89F585E2
:100E3000F887ED85FE85808D918DA28DB38D6C0137
:100E40007D01FF0CCC08DC2C7601282F392F4A2F8E
:100E50005B2F6C2D7C2D8C2D9C2DA980BA80CB8096
:100E6000DC80ED80FE800F8118850E94E4AE19F0D1
:100E700010F00C94C526E989FA89828D938D01962C
:100E8000828F938FED85FE858081918128163906AA
:100E900099F48281938129853A852817390761F46D
:100EA000848195814B855C854817590729F49F01FA
:100EB000E989FA89268B378B89819A81AB81BC813C
:100EC0000196A11DB11DED85FE85808F918FA28FAA
:100ED000B38F86819781428453844114510409F46D
:100EE00081C60196F201268137818217930714F497
:100EF00086839783E989FA89F681F983E989FA89F2
:100F0000F781FA83E989FA89F085FB83E989FA890F
:100F1000F185FC83E989FA89F285FD83E989FA89FB
:100F2000F385FE83E989FA89F485FF83E989FA89E3
:100F3000F585F887F201808D918DA28DB38D6C01BE
:100F40007D01FF0CCC08DC2C7601282F392F4A2F8D
:100F50005B2F6C2D7C2D8C2D9C2DA980BA80CB8095
:100F6000DC80ED80FE800F8118850E94E4AE11F0D8
:100F700008F038C6E989FA89828D938D0196828FAF
:100F8000938FF201808191812816390691F4828134
:100F9000938129853A852817390759F484819581E9
:100FA0004B855C854817590721F4E989FA89468AF7
:100FB000578A89819A81AB81BC810196A11DB11D9F
:100FC000F201808F918FA28FB38F86819781828467
:100FD00093848114910409F4ABC00196F401268135
:100FE00037818217930714F486839783E989FA89F6
:100FF000F681F983E989FA89F781FA83E989FA891F
:10100000F085FB83E989FA89F185FC83E989FA890E
:10101000F285FD83E989FA89F385FE83E989FA89F6
:10102000F485FF83E989FA89F585F887F401808DD5
:10103000918DA28DB38D6C017D01FF0CCC08DC2C51
:101040007601282F392F4A2F5B2F6C2D7C2D8C2D6C
:101050009C2DA980BA80CB80DC80ED80FE800F8142
:1010600018850E94E4AE11F008F062C0E989FA899F
:10107000828D938D0196828F938FF401808191816F
:101080002816390691F48281938129853A8528179B
:10109000390759F4848195814B855C854817590738
:1010A00021F4E989FA89868A978A89819A81AB81B4
:1010B000BC810196A11DB11DF401808F918FA28F7B
:1010C000B38FE680F780628573850B851C85298543
:1010D0003A85A10189899A890E945B01F401E68021
:1010E000F780648575850B851C8529853A85A10166
:1010F00089899A890E945B01F401E680F780668500
:1011000077850B851C8529853A85A10189899A896E
:101110000E945B01F401E680F780608971890B858C
:101120001C8529853A85A10189899A890E945B01DC
:10113000F20186819781848495848114910409F455
:1011400043C30196F401268137818217930714F473
:1011500086839783E989FA89F681F983E989FA898F
:10116000F781FA83E989FA89F085FB83E989FA89AD
:10117000F185FC83E989FA89F285FD83E989FA8999
:10118000F385FE83E989FA89F485FF83E989FA8981
:10119000F585F887F401808D918DA28DB38D6C015A
:1011A0007D01FF0CCC08DC2C7601282F392F4A2F2B
:1011B0005B2F6C2D7C2D8C2D9C2DA980BA80CB8033
:1011C000DC80ED80FE800F8118850E94E4AE11F076
:1011D00008F0FAC2E989FA89828D938D0196828F8F
:1011E000938FF401808191812816390691F48281D0
:1011F000938129853A852817390759F48481958187
:101200004B855C854817590721F4E989FA89868A54
:10121000978A89819A81AB81BC810196A11DB11DFC
:10122000F401808F918FA28FB38F86819781628422
:1012300073846114710409F4ABC00196F301268133
:1012400037818217930714F486839783E989FA8993
:10125000F681F983E989FA89F781FA83E989FA89BC
:10126000F085FB83E989FA89F185FC83E989FA89AC
:10127000F285FD83E989FA89F385FE83E989FA8994
:10128000F485FF83E989FA89F585F887F301808D74
:10129000918DA28DB38D6C017D01FF0CCC08DC2CEF
:1012A0007601282F392F4A2F5B2F6C2D7C2D8C2D0A
:1012B0009C2DA980BA80CB80DC80ED80FE800F81E0
:1012C00018850E94E4AE11F008F062C0E989FA893D
:1012D000828D938D0196828F938FF301808191810E
:1012E0002816390691F48281938129853A85281739
:1012F000390759F4848195814B855C8548175907D6
:1013000021F4E989FA89668A778A89819A81AB8191
:10131000BC810196A11DB11DF301808F918FA28F19
:10132000B38FE680F780628573850B851C852985E0
:101330003A85A10189899A890E945B01F301E680BF
:10134000F780648575850B851C8529853A85A10103
:1013500089899A890E945B01F301E680F78066859E
:1013600077850B851C8529853A85A10189899A890C
:101370000E945B01F301E680F780608971890B852B
:101380001C8529853A85A10189899A890E945B017A
:10139000F40186819781648475846114710409F471
:1013A000ABC00196F301268137818217930714F4AD
:1013B00086839783E989FA89F681F983E989FA892D
:1013C000F781FA83E989FA89F085FB83E989FA894B
:1013D000F185FC83E989FA89F285FD83E989FA8937
:1013E000F385FE83E989FA89F485FF83E989FA891F
:1013F000F585F887F301808D918DA28DB38D6C01F9
:101400007D01FF0CCC08DC2C7601282F392F4A2FC8
:101410005B2F6C2D7C2D8C2D9C2DA980BA80CB80D0
:10142000DC80ED80FE800F8118850E94E4AE11F013
:1014300008F062C0E989FA89828D938D0196828FC6
:10144000938FF301808191812816390691F482816E
:10145000938129853A852817390759F48481958124
:101460004B855C854817590721F4E989FA89668A12
:10147000778A89819A81AB81BC810196A11DB11DBA
:10148000F301808F918FA28FB38FE680F780628502
:1014900073850B851C8529853A85A10189899A89DF
:1014A0000E945B01F301E680F780648575850B85FA
:1014B0001C8529853A85A10189899A890E945B0149
:1014C000F301E680F780668577850B851C85298585
:1014D0003A85A10189899A890E945B01F301E6801E
:1014E000F780608971890B851C8529853A85A10162
:1014F00089899A890E945B01F401868197816684BB
:1015000077846114710409F4ABC00196F30126815C
:1015100037818217930714F486839783E989FA89C0
:10152000F681F983E989FA89F781FA83E989FA89E9
:10153000F085FB83E989FA89F185FC83E989FA89D9
:10154000F285FD83E989FA89F385FE83E989FA89C1
:10155000F485FF83E989FA89F585F887F301808DA1
:10156000918DA28DB38D6C017D01FF0CCC08DC2C1C
:101570007601282F392F4A2F5B2F6C2D7C2D8C2D37
:101580009C2DA980BA80CB80DC80ED80FE800F810D
:1015900018850E94E4AE11F008F062C0E989FA896A
:1015A000828D938D0196828F938FF301808191813B
:1015B0002816390691F48281938129853A85281766
:1015C000390759F4848195814B855C854817590703
:1015D00021F4E989FA89668A778A89819A81AB81BF
:1015E000BC810196A11DB11DF301808F918FA28F47
:1015F000B38FE680F780628573850B851C8529850E
:101600003A85A10189899A890E945B01F301E680EC
:10161000F780648575850B851C8529853A85A10130
:1016200089899A890E945B01F301E680F7806685CB
:1016300077850B851C8529853A85A10189899A8939
:101640000E945B01F301E680F780608971890B8558
:101650001C8529853A85A10189899A890E945B01A7
:10166000F40186819781808891888114910409F41E
:10167000ABC00196F401268137818217930714F4D9
:1016800086839783E989FA89F681F983E989FA895A
:10169000F781FA83E989FA89F085FB83E989FA8978
:1016A000F185FC83E989FA89F285FD83E989FA8964
:1016B000F385FE83E989FA89F485FF83E989FA894C
:1016C000F585F887F401808D918DA28DB38D6C0125
:1016D0007D01FF0CCC08DC2C7601282F392F4A2FF6
:1016E0005B2F6C2D7C2D8C2D9C2DA980BA80CB80FE
:1016F000DC80ED80FE800F8118850E94E4AE11F041
:1017000008F062C0E989FA89828D938D0196828FF3
:10171000938FF401808191812816390691F482819A
:10172000938129853A852817390759F48481958151
:101730004B855C854817590721F4E989FA89868A1F
:10174000978A89819A81AB81BC810196A11DB11DC7
:10175000F401808F918FA28FB38FE680F78062852E
:1017600073850B851C8529853A85A10189899A890C
:101770000E945B01F401E680F780648575850B8526
:101780001C8529853A85A10189899A890E945B0176
:10179000F401E680F780668577850B851C852985B1
:1017A0003A85A10189899A890E945B01F401E6804A
:1017B000F780608971890B851C8529853A85A1018F
:1017C00089899A890E945B01F201868197818684CA
:1017D00097848114910409F451C10196F401268182
:1017E00037818217930714F486839783E989FA89EE
:1017F000F681F983E989FA89F781FA83E989FA8917
:10180000F085FB83E989FA89F185FC83E989FA8906
:10181000F285FD83E989FA89F385FE83E989FA89EE
:10182000F485FF83E989FA89F585F887F401808DCD
:10183000918DA28DB38D6C017D01FF0CCC08DC2C49
:101840007601282F392F4A2F5B2F6C2D7C2D8C2D64
:101850009C2DA980BA80CB80DC80ED80FE800F813A
:1018600018850E94E4AE11F008F008C1E989FA89F0
:10187000828D938D0196828F938FF4018081918167
:101880002816390691F48281938129853A85281793
:10189000390759F4848195814B855C854817590730
:1018A00021F4E989FA89868A978A89819A81AB81AC
:1018B000BC810196A11DB11DF401808F918FA28F73
:1018C000B38FE680F780628573850B851C8529853B
:1018D0003A85A10189899A890E945B01F401E68019
:1018E000F780648575850B851C8529853A85A1015E
:1018F00089899A890E945B01F401868197816684B7
:1019000077846114710409F4ABC00196F301268158
:1019100037818217930714F486839783E989FA89BC
:10192000F681F983E989FA89F781FA83E989FA89E5
:10193000F085FB83E989FA89F185FC83E989FA89D5
:10194000F285FD83E989FA89F385FE83E989FA89BD
:10195000F485FF83E989FA89F585F887F301808D9D
:10196000918DA28DB38D6C017D01FF0CCC08DC2C18
:101970007601282F392F4A2F5B2F6C2D7C2D8C2D33
:101980009C2DA980BA80CB80DC80ED80FE800F8109
:1019900018850E94E4AE11F008F062C0E989FA8966
:1019A000828D938D0196828F938FF3018081918137
:1019B0002816390691F48281938129853A85281762
:1019C000390759F4848195814B855C8548175907FF
:1019D00021F4E989FA89668A778A89819A81AB81BB
:1019E000BC810196A11DB11DF301808F918FA28F43
:1019F000B38FE680F780628573850B851C8529850A
:101A00003A85A10189899A890E945B01F301E680E8
:101A1000F780648575850B851C8529853A85A1012C
:101A200089899A890E945B01F301E680F7806685C7
:101A300077850B851C8529853A85A10189899A8935
:101A40000E945B01F301E680F780608971890B8554
:101A50001C8529853A85A10189899A890E945B01A3
:101A6000F401E680F780608971890B851C852985E2
:101A70003A85A10189899A890E945B01F2018681D8
:101A80009781808891888114910409F4ABC00196F4
:101A9000F401268137818217930714F48683978394
:101AA000E989FA89F681F983E989FA89F781FA8364
:101AB000E989FA89F085FB83E989FA89F185FC8354
:101AC000E989FA89F285FD83E989FA89F385FE833C
:101AD000E989FA89F485FF83E989FA89F585F88728
:101AE000F401808D918DA28DB38D6C017D01FF0C71
:101AF000CC08DC2C7601282F392F4A2F5B2F6C2D38
:101B00007C2D8C2D9C2DA980BA80CB80DC80ED8033
:101B1000FE800F8118850E94E4AE11F008F062C0CB
:101B2000E989FA89828D938D0196828F938FF401D2
:101B3000808191812816390691F4828193812985CB
:101B40003A852817390759F4848195814B855C853E
:101B50004817590721F4E989FA89868A978A898181
:101B60009A81AB81BC810196A11DB11DF401808FCA
:101B7000918FA28FB38FE680F780628573850B8586
:101B80001C8529853A85A10189899A890E945B0172
:101B9000F401E680F780648575850B851C852985B1
:101BA0003A85A10189899A890E945B01F401E68046
:101BB000F780668577850B851C8529853A85A10187
:101BC00089899A890E945B01F401E680F780608927
:101BD00071890B851C8529853A85A10189899A8996
:101BE0000E945B01ED85FE85868197814484558442
:101BF0004114510409F481C60196F201268137810E
:101C00008217930714F486839783E989FA89F6810A
:101C1000F983E989FA89F781FA83E989FA89F085F4
:101C2000FB83E989FA89F185FC83E989FA89F285E0
:101C3000FD83E989FA89F385FE83E989FA89F485C8
:101C4000FF83E989FA89F585F887F201808D918D06
:101C5000A28DB38D6C017D01FF0CCC08DC2C7601CC
:101C6000282F392F4A2F5B2F6C2D7C2D8C2D9C2DEE
:101C7000A980BA80CB80DC80ED80FE800F81188542
:101C80000E94E4AE11F008F038C6E989FA89828D25
:101C9000938D0196828F938FF20180819181281616
:101CA000390691F48281938129853A85281739076D
:101CB00059F4848195814B855C854817590721F437
:101CC000E989FA89468A578A89819A81AB81BC81E0
:101CD0000196A11DB11DF201808F918FA28FB38F4C
:101CE00086819781828493848114910409F4ABC026
:101CF0000196F401268137818217930714F48683B5
:101D00009783E989FA89F681F983E989FA89F78164
:101D1000FA83E989FA89F085FB83E989FA89F185F3
:101D2000FC83E989FA89F285FD83E989FA89F385DB
:101D3000FE83E989FA89F485FF83E989FA89F585C3
:101D4000F887F401808D918DA28DB38D6C017D019A
:101D5000FF0CCC08DC2C7601282F392F4A2F5B2F63
:101D60006C2D7C2D8C2D9C2DA980BA80CB80DC80A5
:101D7000ED80FE800F8118850E94E4AE11F008F01E
:101D800062C0E989FA89828D938D0196828F938F43
:101D9000F401808191812816390691F48281938122
:101DA00029853A852817390759F4848195814B850F
:101DB0005C854817590721F4E989FA89868A978A48
:101DC00089819A81AB81BC810196A11DB11DF4016D
:101DD000808F918FA28FB38FE680F78062857385A5
:101DE0000B851C8529853A85A10189899A890E94DC
:101DF0005B01F401E680F780648575850B851C85A1
:101E000029853A85A10189899A890E945B01F4019B
:101E1000E680F780668577850B851C8529853A8560
:101E2000A10189899A890E945B01F401E680F7800B
:101E3000608971890B851C8529853A85A10189896D
:101E40009A890E945B01F20186819781848495843E
:101E50008114910409F4F7C10196F40126813781B8
:101E60008217930714F486839783E989FA89F681A8
:101E7000F983E989FA89F781FA83E989FA89F08592
:101E8000FB83E989FA89F185FC83E989FA89F2857E
:101E9000FD83E989FA89F385FE83E989FA89F48566
:101EA000FF83E989FA89F585F887F401808D918DA2
:101EB000A28DB38D6C017D01FF0CCC08DC2C76016A
:101EC000282F392F4A2F5B2F6C2D7C2D8C2D9C2D8C
:101ED000A980BA80CB80DC80ED80FE800F811885E0
:101EE0000E94E4AE11F008F0AEC1E989FA89828D52
:101EF000938D0196828F938FF401808191812816B2
:101F0000390691F48281938129853A85281739070A
:101F100059F4848195814B855C854817590721F4D4
:101F2000E989FA89868A978A89819A81AB81BC81FD
:101F30000196A11DB11DF401808F918FA28FB38FE7
:101F4000E680F780628573850B851C8529853A8537
:101F5000A10189899A890E945B01F401E680F780DA
:101F6000648575850B851C8529853A85A10189893C
:101F70009A890E945B01F401868197816684778447
:101F80006114710409F4ABC00196F3012681378115
:101F90008217930714F486839783E989FA89F68177
:101FA000F983E989FA89F781FA83E989FA89F08561
:101FB000FB83E989FA89F185FC83E989FA89F2854D
:101FC000FD83E989FA89F385FE83E989FA89F48535
:101FD000FF83E989FA89F585F887F301808D918D72
:101FE000A28DB38D6C017D01FF0CCC08DC2C760139
:101FF000282F392F4A2F5B2F6C2D7C2D8C2D9C2D5B
:10200000A980BA80CB80DC80ED80FE800F811885AE
:102010000E94E4AE11F008F062C0E989FA89828D6D
:10202000938D0196828F938FF30180819181281681
:10203000390691F48281938129853A8528173907D9
:1020400059F4848195814B855C854817590721F4A3
:10205000E989FA89668A778A89819A81AB81BC810C
:102060000196A11DB11DF301808F918FA28FB38FB7
:10207000E680F780628573850B851C8529853A8506
:10208000A10189899A890E945B01F301E680F780AA
:10209000648575850B851C8529853A85A10189890B
:1020A0009A890E945B01F301E680F7806685778557
:1020B0000B851C8529853A85A10189899A890E9409
:1020C0005B01F301E680F780608971890B851C85CF
:1020D00029853A85A10189899A890E945B01F401C9
:1020E00086819781808891888114910409F4ABC01E
:1020F0000196F401268137818217930714F48683B1
:102100009783E989FA89F681F983E989FA89F78160
:10211000FA83E989FA89F085FB83E989FA89F185EF
:10212000FC83E989FA89F285FD83E989FA89F385D7
:10213000FE83E989FA89F485FF83E989FA89F585BF
:10214000F887F401808D918DA28DB38D6C017D0196
:10215000FF0CCC08DC2C7601282F392F4A2F5B2F5F
:102160006C2D7C2D8C2D9C2DA980BA80CB80DC80A1
:10217000ED80FE800F8118850E94E4AE11F008F01A
:1021800062C0E989FA89828D938D0196828F938F3F
:10219000F401808191812816390691F4828193811E
:1021A00029853A852817390759F4848195814B850B
:1021B0005C854817590721F4E989FA89868A978A44
:1021C00089819A81AB81BC810196A11DB11DF40169
:1021D000808F918FA28FB38FE680F78062857385A1
:1021E0000B851C8529853A85A10189899A890E94D8
:1021F0005B01F401E680F780648575850B851C859D
:1022000029853A85A10189899A890E945B01F40197
:10221000E680F780668577850B851C8529853A855C
:10222000A10189899A890E945B01F401E680F78007
:10223000608971890B851C8529853A85A101898969
:102240009A890E945B01F201868197818684978436
:102250008114910409F4ABC00196F4012681378101
:102260008217930714F486839783E989FA89F681A4
:10227000F983E989FA89F781FA83E989FA89F0858E
:10228000FB83E989FA89F185FC83E989FA89F2857A
:10229000FD83E989FA89F385FE83E989FA89F48562
:1022A000FF83E989FA89F585F887F401808D918D9E
:1022B000A28DB38D6C017D01FF0CCC08DC2C760166
:1022C000282F392F4A2F5B2F6C2D7C2D8C2D9C2D88
:1022D000A980BA80CB80DC80ED80FE800F811885DC
:1022E0000E94E4AE11F008F062C0E989FA89828D9B
:1022F000938D0196828F938FF401808191812816AE
:10230000390691F48281938129853A852817390706
:1023100059F4848195814B855C854817590721F4D0
:10232000E989FA89868A978A89819A81AB81BC81F9
:102330000196A11DB11DF401808F918FA28FB38FE3
:10234000E680F780628573850B851C8529853A8533
:10235000A10189899A890E945B01F401E680F780D6
:10236000648575850B851C8529853A85A101898938
:102370009A890E945B01F401E680F7806685778583
:102380000B851C8529853A85A10189899A890E9436
:102390005B01F401E680F780608971890B851C85FB
:1023A00029853A85A10189899A890E945B01F201F8
:1023B00086819781808891888114910409F49DC257
:1023C0000196F401268137818217930714F48683DE
:1023D0009783E989FA89F681F983E989FA89F7818E
:1023E000FA83E989FA89F085FB83E989FA89F1851D
:1023F000FC83E989FA89F285FD83E989FA89F38505
:10240000FE83E989FA89F485FF83E989FA89F585EC
:10241000F887F401808D918DA28DB38D6C017D01C3
:10242000FF0CCC08DC2C7601282F392F4A2F5B2F8C
:102430006C2D7C2D8C2D9C2DA980BA80CB80DC80CE
:10244000ED80FE800F8118850E94E4AE11F008F047
:1024500054C2E989FA89828D938D0196828F938F78
:10246000F401808191812816390691F4828193814B
:1024700029853A852817390759F4848195814B8538
:102480005C854817590721F4E989FA89868A978A71
:1024900089819A81AB81BC810196A11DB11DF40196
:1024A000808F918FA28FB38F86819781628473848E
:1024B0006114710409F4ABC00196F30126813781E0
:1024C0008217930714F486839783E989FA89F68142
:1024D000F983E989FA89F781FA83E989FA89F0852C
:1024E000FB83E989FA89F185FC83E989FA89F28518
:1024F000FD83E989FA89F385FE83E989FA89F48500
:10250000FF83E989FA89F585F887F301808D918D3C
:10251000A28DB38D6C017D01FF0CCC08DC2C760103
:10252000282F392F4A2F5B2F6C2D7C2D8C2D9C2D25
:10253000A980BA80CB80DC80ED80FE800F81188579
:102540000E94E4AE11F008F062C0E989FA89828D38
:10255000938D0196828F938FF3018081918128164C
:10256000390691F48281938129853A8528173907A4
:1025700059F4848195814B855C854817590721F46E
:10258000E989FA89668A778A89819A81AB81BC81D7
:102590000196A11DB11DF301808F918FA28FB38F82
:1025A000E680F780628573850B851C8529853A85D1
:1025B000A10189899A890E945B01F301E680F78075
:1025C000648575850B851C8529853A85A1018989D6
:1025D0009A890E945B01F301E680F7806685778522
:1025E0000B851C8529853A85A10189899A890E94D4
:1025F0005B01F301E680F780608971890B851C859A
:1026000029853A85A10189899A890E945B01F40193
:1026100086819781648475846114710409F4ABC068
:102620000196F301268137818217930714F486837C
:102630009783E989FA89F681F983E989FA89F7812B
:10264000FA83E989FA89F085FB83E989FA89F185BA
:10265000FC83E989FA89F285FD83E989FA89F385A2
:10266000FE83E989FA89F485FF83E989FA89F5858A
:10267000F887F301808D918DA28DB38D6C017D0162
:10268000FF0CCC08DC2C7601282F392F4A2F5B2F2A
:102690006C2D7C2D8C2D9C2DA980BA80CB80DC806C
:1026A000ED80FE800F8118850E94E4AE11F008F0E5
:1026B00062C0E989FA89828D938D0196828F938F0A
:1026C000F301808191812816390691F482819381EA
:1026D00029853A852817390759F4848195814B85D6
:1026E0005C854817590721F4E989FA89668A778A4F
:1026F00089819A81AB81BC810196A11DB11DF30135
:10270000808F918FA28FB38FE680F780628573856B
:102710000B851C8529853A85A10189899A890E94A2
:102720005B01F301E680F780648575850B851C8568
:1027300029853A85A10189899A890E945B01F30163
:10274000E680F780668577850B851C8529853A8527
:10275000A10189899A890E945B01F301E680F780D3
:10276000608971890B851C8529853A85A101898934
:102770009A890E945B01F40186819781668477843F
:102780006114710409F4ABC00196F301268137810D
:102790008217930714F486839783E989FA89F6816F
:1027A000F983E989FA89F781FA83E989FA89F08559
:1027B000FB83E989FA89F185FC83E989FA89F28545
:1027C000FD83E989FA89F385FE83E989FA89F4852D
:1027D000FF83E989FA89F585F887F301808D918D6A
:1027E000A28DB38D6C017D01FF0CCC08DC2C760131
:1027F000282F392F4A2F5B2F6C2D7C2D8C2D9C2D53
:10280000A980BA80CB80DC80ED80FE800F811885A6
:102810000E94E4AE11F008F062C0E989FA89828D65
:10282000938D0196828F938FF30180819181281679
:10283000390691F48281938129853A8528173907D1
:1028400059F4848195814B855C854817590721F49B
:10285000E989FA89668A778A89819A81AB81BC8104
:102860000196A11DB11DF301808F918FA28FB38FAF
:10287000E680F780628573850B851C8529853A85FE
:10288000A10189899A890E945B01F301E680F780A2
:10289000648575850B851C8529853A85A101898903
:1028A0009A890E945B01F301E680F780668577854F
:1028B0000B851C8529853A85A10189899A890E9401
:1028C0005B01F301E680F780608971890B851C85C7
:1028D00029853A85A10189899A890E945B01F401C1
:1028E000E680F780608971890B851C8529853A858A
:1028F000A10189899A890E945B01ED85FE85868107
:102900009781468457844114510411F40C943A2061
:102910000196F201268137818217930714F486838A
:102920009783E989FA89F681F983E989FA89F78138
:10293000FA83E989FA89F085FB83E989FA89F185C7
:10294000FC83E989FA89F285FD83E989FA89F385AF
:10295000FE83E989FA89F485FF83E989FA89F58597
:10296000F887F201808D918DA28DB38D6C017D0170
:10297000FF0CCC08DC2C7601282F392F4A2F5B2F37
:102980006C2D7C2D8C2D9C2DA980BA80CB80DC8079
:10299000ED80FE800F8118850E94E4AE19F010F0E2
:1029A0000C943A20E989FA89828D938D0196828F61
:1029B000938FF201808191812816390691F48281EA
:1029C000938129853A852817390759F4848195819F
:1029D0004B855C854817590721F4E989FA89468AAD
:1029E000578A89819A81AB81BC810196A11DB11D55
:1029F000F201808F918FA28FB38F8681978182841D
:102A000093848114910409F443C30196F40126814F
:102A100037818217930714F486839783E989FA89AB
:102A2000F681F983E989FA89F781FA83E989FA89D4
:102A3000F085FB83E989FA89F185FC83E989FA89C4
:102A4000F285FD83E989FA89F385FE83E989FA89AC
:102A5000F485FF83E989FA89F585F887F401808D8B
:102A6000918DA28DB38D6C017D01FF0CCC08DC2C07
:102A70007601282F392F4A2F5B2F6C2D7C2D8C2D22
:102A80009C2DA980BA80CB80DC80ED80FE800F81F8
:102A900018850E94E4AE11F008F0FAC2E989FA89BB
:102AA000828D938D0196828F938FF4018081918125
:102AB0002816390691F48281938129853A85281751
:102AC000390759F4848195814B855C8548175907EE
:102AD00021F4E989FA89868A978A89819A81AB816A
:102AE000BC810196A11DB11DF401808F918FA28F31
:102AF000B38F86819781628473846114710409F4B1
:102B0000ABC00196F301268137818217930714F435
:102B100086839783E989FA89F681F983E989FA89B5
:102B2000F781FA83E989FA89F085FB83E989FA89D3
:102B3000F185FC83E989FA89F285FD83E989FA89BF
:102B4000F385FE83E989FA89F485FF83E989FA89A7
:102B5000F585F887F301808D918DA28DB38D6C0181
:102B60007D01FF0CCC08DC2C7601282F392F4A2F51
:102B70005B2F6C2D7C2D8C2D9C2DA980BA80CB8059
:102B8000DC80ED80FE800F8118850E94E4AE11F09C
:102B900008F062C0E989FA89828D938D0196828F4F
:102BA000938FF301808191812816390691F48281F7
:102BB000938129853A852817390759F484819581AD
:102BC0004B855C854817590721F4E989FA89668A9B
:102BD000778A89819A81AB81BC810196A11DB11D43
:102BE000F301808F918FA28FB38FE680F78062858B
:102BF00073850B851C8529853A85A10189899A8968
:102C00000E945B01F301E680F780648575850B8582
:102C10001C8529853A85A10189899A890E945B01D1
:102C2000F301E680F780668577850B851C8529850D
:102C30003A85A10189899A890E945B01F301E680A6
:102C4000F780608971890B851C8529853A85A101EA
:102C500089899A890E945B01F40186819781648445
:102C600075846114710409F4ABC00196F3012681E7
:102C700037818217930714F486839783E989FA8949
:102C8000F681F983E989FA89F781FA83E989FA8972
:102C9000F085FB83E989FA89F185FC83E989FA8962
:102CA000F285FD83E989FA89F385FE83E989FA894A
:102CB000F485FF83E989FA89F585F887F301808D2A
:102CC000918DA28DB38D6C017D01FF0CCC08DC2CA5
:102CD0007601282F392F4A2F5B2F6C2D7C2D8C2DC0
:102CE0009C2DA980BA80CB80DC80ED80FE800F8196
:102CF00018850E94E4AE11F008F062C0E989FA89F3
:102D0000828D938D0196828F938FF30180819181C3
:102D10002816390691F48281938129853A852817EE
:102D2000390759F4848195814B855C85481759078B
:102D300021F4E989FA89668A778A89819A81AB8147
:102D4000BC810196A11DB11DF301808F918FA28FCF
:102D5000B38FE680F780628573850B851C85298596
:102D60003A85A10189899A890E945B01F301E68075
:102D7000F780648575850B851C8529853A85A101B9
:102D800089899A890E945B01F301E680F780668554
:102D900077850B851C8529853A85A10189899A89C2
:102DA0000E945B01F301E680F780608971890B85E1
:102DB0001C8529853A85A10189899A890E945B0130
:102DC000F40186819781668477846114710409F423
:102DD000ABC00196F301268137818217930714F463
:102DE00086839783E989FA89F681F983E989FA89E3
:102DF000F781FA83E989FA89F085FB83E989FA8901
:102E0000F185FC83E989FA89F285FD83E989FA89EC
:102E1000F385FE83E989FA89F485FF83E989FA89D4
:102E2000F585F887F301808D918DA28DB38D6C01AE
:102E30007D01FF0CCC08DC2C7601282F392F4A2F7E
:102E40005B2F6C2D7C2D8C2D9C2DA980BA80CB8086
:102E5000DC80ED80FE800F8118850E94E4AE11F0C9
:102E600008F062C0E989FA89828D938D0196828F7C
:102E7000938FF301808191812816390691F4828124
:102E8000938129853A852817390759F484819581DA
:102E90004B855C854817590721F4E989FA89668AC8
:102EA000778A89819A81AB81BC810196A11DB11D70
:102EB000F301808F918FA28FB38FE680F7806285B8
:102EC00073850B851C8529853A85A10189899A8995
:102ED0000E945B01F301E680F780648575850B85B0
:102EE0001C8529853A85A10189899A890E945B01FF
:102EF000F301E680F780668577850B851C8529853B
:102F00003A85A10189899A890E945B01F301E680D3
:102F1000F780608971890B851C8529853A85A10117
:102F200089899A890E945B01F40186819781808852
:102F300091888114910409F4ABC00196F4012681B3
:102F400037818217930714F486839783E989FA8976
:102F5000F681F983E989FA89F781FA83E989FA899F
:102F6000F085FB83E989FA89F185FC83E989FA898F
:102F7000F285FD83E989FA89F385FE83E989FA8977
:102F8000F485FF83E989FA89F585F887F401808D56
:102F9000918DA28DB38D6C017D01FF0CCC08DC2CD2
:102FA0007601282F392F4A2F5B2F6C2D7C2D8C2DED
:102FB0009C2DA980BA80CB80DC80ED80FE800F81C3
:102FC00018850E94E4AE11F008F062C0E989FA8920
:102FD000828D938D0196828F938FF40180819181F0
:102FE0002816390691F48281938129853A8528171C
:102FF000390759F4848195814B855C8548175907B9
:1030000021F4E989FA89868A978A89819A81AB8134
:10301000BC810196A11DB11DF401808F918FA28FFB
:10302000B38FE680F780628573850B851C852985C3
:103030003A85A10189899A890E945B01F401E680A1
:10304000F780648575850B851C8529853A85A101E6
:1030500089899A890E945B01F401E680F780668580
:1030600077850B851C8529853A85A10189899A89EF
:103070000E945B01F401E680F780608971890B850D
:103080001C8529853A85A10189899A890E945B015D
:10309000F20186819781848495848114910409F4D6
:1030A00043C30196F401268137818217930714F4F4
:1030B00086839783E989FA89F681F983E989FA8910
:1030C000F781FA83E989FA89F085FB83E989FA892E
:1030D000F185FC83E989FA89F285FD83E989FA891A
:1030E000F385FE83E989FA89F485FF83E989FA8902
:1030F000F585F887F401808D918DA28DB38D6C01DB
:103100007D01FF0CCC08DC2C7601282F392F4A2FAB
:103110005B2F6C2D7C2D8C2D9C2DA980BA80CB80B3
:10312000DC80ED80FE800F8118850E94E4AE11F0F6
:1031300008F0FAC2E989FA89828D938D0196828F0F
:10314000938FF401808191812816390691F4828150
:10315000938129853A852817390759F48481958107
:103160004B855C854817590721F4E989FA89868AD5
:10317000978A89819A81AB81BC810196A11DB11D7D
:10318000F401808F918FA28FB38F868197816284A3
:1031900073846114710409F4ABC00196F3012681B4
:1031A00037818217930714F486839783E989FA8914
:1031B000F681F983E989FA89F781FA83E989FA893D
:1031C000F085FB83E989FA89F185FC83E989FA892D
:1031D000F285FD83E989FA89F385FE83E989FA8915
:1031E000F485FF83E989FA89F585F887F301808DF5
:1031F000918DA28DB38D6C017D01FF0CCC08DC2C70
:103200007601282F392F4A2F5B2F6C2D7C2D8C2D8A
:103210009C2DA980BA80CB80DC80ED80FE800F8160
:1032200018850E94E4AE11F008F062C0E989FA89BD
:10323000828D938D0196828F938FF301808191818E
:103240002816390691F48281938129853A852817B9
:10325000390759F4848195814B855C854817590756
:1032600021F4E989FA89668A778A89819A81AB8112
:10327000BC810196A11DB11DF301808F918FA28F9A
:10328000B38FE680F780628573850B851C85298561
:103290003A85A10189899A890E945B01F301E68040
:1032A000F780648575850B851C8529853A85A10184
:1032B00089899A890E945B01F301E680F78066851F
:1032C00077850B851C8529853A85A10189899A898D
:1032D0000E945B01F301E680F780608971890B85AC
:1032E0001C8529853A85A10189899A890E945B01FB
:1032F000F40186819781648475846114710409F4F2
:10330000ABC00196F301268137818217930714F42D
:1033100086839783E989FA89F681F983E989FA89AD
:10332000F781FA83E989FA89F085FB83E989FA89CB
:10333000F185FC83E989FA89F285FD83E989FA89B7
:10334000F385FE83E989FA89F485FF83E989FA899F
:10335000F585F887F301808D918DA28DB38D6C0179
:103360007D01FF0CCC08DC2C7601282F392F4A2F49
:103370005B2F6C2D7C2D8C2D9C2DA980BA80CB8051
:10338000DC80ED80FE800F8118850E94E4AE11F094
:1033900008F062C0E989FA89828D938D0196828F47
:1033A000938FF301808191812816390691F48281EF
:1033B000938129853A852817390759F484819581A5
:1033C0004B855C854817590721F4E989FA89668A93
:1033D000778A89819A81AB81BC810196A11DB11D3B
:1033E000F301808F918FA28FB38FE680F780628583
:1033F00073850B851C8529853A85A10189899A8960
:103400000E945B01F301E680F780648575850B857A
:103410001C8529853A85A10189899A890E945B01C9
:10342000F301E680F780668577850B851C85298505
:103430003A85A10189899A890E945B01F301E6809E
:10344000F780608971890B851C8529853A85A101E2
:1034500089899A890E945B01F4018681978166843B
:1034600077846114710409F4ABC00196F3012681DD
:1034700037818217930714F486839783E989FA8941
:10348000F681F983E989FA89F781FA83E989FA896A
:10349000F085FB83E989FA89F185FC83E989FA895A
:1034A000F285FD83E989FA89F385FE83E989FA8942
:1034B000F485FF83E989FA89F585F887F301808D22
:1034C000918DA28DB38D6C017D01FF0CCC08DC2C9D
:1034D0007601282F392F4A2F5B2F6C2D7C2D8C2DB8
:1034E0009C2DA980BA80CB80DC80ED80FE800F818E
:1034F00018850E94E4AE11F008F062C0E989FA89EB
:10350000828D938D0196828F938FF30180819181BB
:103510002816390691F48281938129853A852817E6
:10352000390759F4848195814B855C854817590783
:1035300021F4E989FA89668A778A89819A81AB813F
:10354000BC810196A11DB11DF301808F918FA28FC7
:10355000B38FE680F780628573850B851C8529858E
:103560003A85A10189899A890E945B01F301E6806D
:10357000F780648575850B851C8529853A85A101B1
:1035800089899A890E945B01F301E680F78066854C
:1035900077850B851C8529853A85A10189899A89BA
:1035A0000E945B01F301E680F780608971890B85D9
:1035B0001C8529853A85A10189899A890E945B0128
:1035C000F40186819781808891888114910409F49F
:1035D000ABC00196F401268137818217930714F45A
:1035E00086839783E989FA89F681F983E989FA89DB
:1035F000F781FA83E989FA89F085FB83E989FA89F9
:10360000F185FC83E989FA89F285FD83E989FA89E4
:10361000F385FE83E989FA89F485FF83E989FA89CC
:10362000F585F887F401808D918DA28DB38D6C01A5
:103630007D01FF0CCC08DC2C7601282F392F4A2F76
:103640005B2F6C2D7C2D8C2D9C2DA980BA80CB807E
:10365000DC80ED80FE800F8118850E94E4AE11F0C1
:1036600008F062C0E989FA89828D938D0196828F74
:10367000938FF401808191812816390691F482811B
:10368000938129853A852817390759F484819581D2
:103690004B855C854817590721F4E989FA89868AA0
:1036A000978A89819A81AB81BC810196A11DB11D48
:1036B000F401808F918FA28FB38FE680F7806285AF
:1036C00073850B851C8529853A85A10189899A898D
:1036D0000E945B01F401E680F780648575850B85A7
:1036E0001C8529853A85A10189899A890E945B01F7
:1036F000F401E680F780668577850B851C85298532
:103700003A85A10189899A890E945B01F401E680CA
:10371000F780608971890B851C8529853A85A1010F
:1037200089899A890E945B01F2018681978186844A
:1037300097848114910409F451C10196F401268102
:1037400037818217930714F486839783E989FA896E
:10375000F681F983E989FA89F781FA83E989FA8997
:10376000F085FB83E989FA89F185FC83E989FA8987
:10377000F285FD83E989FA89F385FE83E989FA896F
:10378000F485FF83E989FA89F585F887F401808D4E
:10379000918DA28DB38D6C017D01FF0CCC08DC2CCA
:1037A0007601282F392F4A2F5B2F6C2D7C2D8C2DE5
:1037B0009C2DA980BA80CB80DC80ED80FE800F81BB
:1037C00018850E94E4AE11F008F008C1E989FA8971
:1037D000828D938D0196828F938FF40180819181E8
:1037E0002816390691F48281938129853A85281714
:1037F000390759F4848195814B855C8548175907B1
:1038000021F4E989FA89868A978A89819A81AB812C
:10381000BC810196A11DB11DF401808F918FA28FF3
:10382000B38F86819781628473846114710409F473
:10383000ABC00196F301268137818217930714F4F8
:1038400086839783E989FA89F681F983E989FA8978
:10385000F781FA83E989FA89F085FB83E989FA8996
:10386000F185FC83E989FA89F285FD83E989FA8982
:10387000F385FE83E989FA89F485FF83E989FA896A
:10388000F585F887F301808D918DA28DB38D6C0144
:103890007D01FF0CCC08DC2C7601282F392F4A2F14
:1038A0005B2F6C2D7C2D8C2D9C2DA980BA80CB801C
:1038B000DC80ED80FE800F8118850E94E4AE11F05F
:1038C00008F062C0E989FA89828D938D0196828F12
:1038D000938FF301808191812816390691F48281BA
:1038E000938129853A852817390759F48481958170
:1038F0004B855C854817590721F4E989FA89668A5E
:10390000778A89819A81AB81BC810196A11DB11D05
:10391000F301808F918FA28FB38FE680F78062854D
:1039200073850B851C8529853A85A10189899A892A
:103930000E945B01F301E680F780648575850B8545
:103940001C8529853A85A10189899A890E945B0194
:10395000F301E680F780668577850B851C852985D0
:103960003A85A10189899A890E945B01F301E68069
:10397000F780608971890B851C8529853A85A101AD
:1039800089899A890E945B01F401E680F780648549
:1039900075850B851C8529853A85A10189899A89B8
:1039A0000E945B01F401E680F780668577850B85D0
:1039B0001C8529853A85A10189899A890E945B0124
:1039C000F401E680F780608971890B851C85298563
:1039D0003A85A10189899A890E945B01F201868159
:1039E0009781808891888114910409F443C30196DA
:1039F000F401268137818217930714F48683978315
:103A0000E989FA89F681F983E989FA89F781FA83E4
:103A1000E989FA89F085FB83E989FA89F185FC83D4
:103A2000E989FA89F285FD83E989FA89F385FE83BC
:103A3000E989FA89F485FF83E989FA89F585F887A8
:103A4000F401808D918DA28DB38D6C017D01FF0CF1
:103A5000CC08DC2C7601282F392F4A2F5B2F6C2DB8
:103A60007C2D8C2D9C2DA980BA80CB80DC80ED80B4
:103A7000FE800F8118850E94E4AE11F008F0FAC2B2
:103A8000E989FA89828D938D0196828F938FF40153
:103A9000808191812816390691F48281938129854C
:103AA0003A852817390759F4848195814B855C85BF
:103AB0004817590721F4E989FA89868A978A898102
:103AC0009A81AB81BC810196A11DB11DF401808F4B
:103AD000918FA28FB38F86819781628473846114E2
:103AE000710409F4ABC00196F30126813781821776
:103AF000930714F486839783E989FA89F681F98319
:103B0000E989FA89F781FA83E989FA89F085FB83E3
:103B1000E989FA89F185FC83E989FA89F285FD83CF
:103B2000E989FA89F385FE83E989FA89F485FF83B7
:103B3000E989FA89F585F887F301808D918DA28D49
:103B4000B38D6C017D01FF0CCC08DC2C7601282F95
:103B5000392F4A2F5B2F6C2D7C2D8C2D9C2DA9800D
:103B6000BA80CB80DC80ED80FE800F8118850E94BA
:103B7000E4AE11F008F062C0E989FA89828D938D74
:103B80000196828F938FF3018081918128163906E7
:103B900091F48281938129853A852817390759F450
:103BA000848195814B855C854817590721F4E98903
:103BB000FA89668A778A89819A81AB81BC8101966C
:103BC000A11DB11DF301808F918FA28FB38FE6806D
:103BD000F780628573850B851C8529853A85A1014F
:103BE00089899A890E945B01F301E680F7806485E8
:103BF00075850B851C8529853A85A10189899A8956
:103C00000E945B01F301E680F780668577850B856E
:103C10001C8529853A85A10189899A890E945B01C1
:103C2000F301E680F780608971890B851C85298501
:103C30003A85A10189899A890E945B01F4018681F4
:103C40009781648475846114710409F4ABC0019692
:103C5000F301268137818217930714F486839783B3
:103C6000E989FA89F681F983E989FA89F781FA8382
:103C7000E989FA89F085FB83E989FA89F185FC8372
:103C8000E989FA89F285FD83E989FA89F385FE835A
:103C9000E989FA89F485FF83E989FA89F585F88746
:103CA000F301808D918DA28DB38D6C017D01FF0C90
:103CB000CC08DC2C7601282F392F4A2F5B2F6C2D56
:103CC0007C2D8C2D9C2DA980BA80CB80DC80ED8052
:103CD000FE800F8118850E94E4AE11F008F062C0EA
:103CE000E989FA89828D938D0196828F938FF301F2
:103CF000808191812816390691F4828193812985EA
:103D00003A852817390759F4848195814B855C855C
:103D10004817590721F4E989FA89668A778A8981DF
:103D20009A81AB81BC810196A11DB11DF301808FE9
:103D3000918FA28FB38FE680F780628573850B85A4
:103D40001C8529853A85A10189899A890E945B0190
:103D5000F301E680F780648575850B851C852985D0
:103D60003A85A10189899A890E945B01F301E68065
:103D7000F780668577850B851C8529853A85A101A5
:103D800089899A890E945B01F301E680F780608946
:103D900071890B851C8529853A85A10189899A89B4
:103DA0000E945B01F40186819781668477846114A7
:103DB000710409F4ABC00196F301268137818217A3
:103DC000930714F486839783E989FA89F681F98346
:103DD000E989FA89F781FA83E989FA89F085FB8311
:103DE000E989FA89F185FC83E989FA89F285FD83FD
:103DF000E989FA89F385FE83E989FA89F485FF83E5
:103E0000E989FA89F585F887F301808D918DA28D76
:103E1000B38D6C017D01FF0CCC08DC2C7601282FC2
:103E2000392F4A2F5B2F6C2D7C2D8C2D9C2DA9803A
:103E3000BA80CB80DC80ED80FE800F8118850E94E7
:103E4000E4AE11F008F062C0E989FA89828D938DA1
:103E50000196828F938FF301808191812816390614
:103E600091F48281938129853A852817390759F47D
:103E7000848195814B855C854817590721F4E98930
:103E8000FA89668A778A89819A81AB81BC81019699
:103E9000A11DB11DF301808F918FA28FB38FE6809A
:103EA000F780628573850B851C8529853A85A1017C
:103EB00089899A890E945B01F301E680F780648515
:103EC00075850B851C8529853A85A10189899A8983
:103ED0000E945B01F301E680F780668577850B859C
:103EE0001C8529853A85A10189899A890E945B01EF
:103EF000F301E680F780608971890B851C8529852F
:103F00003A85A10189899A890E945B01F401868121
:103F10009781808891888114910409F4ABC001963F
:103F2000F401268137818217930714F486839783DF
:103F3000E989FA89F681F983E989FA89F781FA83AF
:103F4000E989FA89F085FB83E989FA89F185FC839F
:103F5000E989FA89F285FD83E989FA89F385FE8387
:103F6000E989FA89F485FF83E989FA89F585F88773
:103F7000F401808D918DA28DB38D6C017D01FF0CBC
:103F8000CC08DC2C7601282F392F4A2F5B2F6C2D83
:103F90007C2D8C2D9C2DA980BA80CB80DC80ED807F
:103FA000FE800F8118850E94E4AE11F008F062C017
:103FB000E989FA89828D938D0196828F938FF4011E
:103FC000808191812816390691F482819381298517
:103FD0003A852817390759F4848195814B855C858A
:103FE0004817590721F4E989FA89868A978A8981CD
:103FF0009A81AB81BC810196A11DB11DF401808F16
:10400000918FA28FB38FE680F780628573850B85D1
:104010001C8529853A85A10189899A890E945B01BD
:10402000F401E680F780648575850B851C852985FC
:104030003A85A10189899A890E945B01F401E68091
:10404000F780668577850B851C8529853A85A101D2
:1040500089899A890E945B01F401E680F780608972
:1040600071890B851C8529853A85A10189899A89E1
:104070000E945B01ED85FE8586819781408851888D
:104080004114510409F481C60196F2012681378159
:104090008217930714F486839783E989FA89F68156
:1040A000F983E989FA89F781FA83E989FA89F08540
:1040B000FB83E989FA89F185FC83E989FA89F2852C
:1040C000FD83E989FA89F385FE83E989FA89F48514
:1040D000FF83E989FA89F585F887F201808D918D52
:1040E000A28DB38D6C017D01FF0CCC08DC2C760118
:1040F000282F392F4A2F5B2F6C2D7C2D8C2D9C2D3A
:10410000A980BA80CB80DC80ED80FE800F8118858D
:104110000E94E4AE11F008F038C6E989FA89828D70
:10412000938D0196828F938FF20180819181281661
:10413000390691F48281938129853A8528173907B8
:1041400059F4848195814B855C854817590721F482
:10415000E989FA89468A578A89819A81AB81BC812B
:104160000196A11DB11DF201808F918FA28FB38F97
:1041700086819781828493848114910409F4ABC071
:104180000196F401268137818217930714F4868300
:104190009783E989FA89F681F983E989FA89F781B0
:1041A000FA83E989FA89F085FB83E989FA89F1853F
:1041B000FC83E989FA89F285FD83E989FA89F38527
:1041C000FE83E989FA89F485FF83E989FA89F5850F
:1041D000F887F401808D918DA28DB38D6C017D01E6
:1041E000FF0CCC08DC2C7601282F392F4A2F5B2FAF
:1041F0006C2D7C2D8C2D9C2DA980BA80CB80DC80F1
:10420000ED80FE800F8118850E94E4AE11F008F069
:1042100062C0E989FA89828D938D0196828F938F8E
:10422000F401808191812816390691F4828193816D
:1042300029853A852817390759F4848195814B855A
:104240005C854817590721F4E989FA89868A978A93
:1042500089819A81AB81BC810196A11DB11DF401B8
:10426000808F918FA28FB38FE680F78062857385F0
:104270000B851C8529853A85A10189899A890E9427
:104280005B01F401E680F780648575850B851C85EC
:1042900029853A85A10189899A890E945B01F401E7
:1042A000E680F780668577850B851C8529853A85AC
:1042B000A10189899A890E945B01F401E680F78057
:1042C000608971890B851C8529853A85A1018989B9
:1042D0009A890E945B01F20186819781848495848A
:1042E0008114910409F4ABC00196F4012681378151
:1042F0008217930714F486839783E989FA89F681F4
:10430000F983E989FA89F781FA83E989FA89F085DD
:10431000FB83E989FA89F185FC83E989FA89F285C9
:10432000FD83E989FA89F385FE83E989FA89F485B1
:10433000FF83E989FA89F585F887F401808D918DED
:10434000A28DB38D6C017D01FF0CCC08DC2C7601B5
:10435000282F392F4A2F5B2F6C2D7C2D8C2D9C2DD7
:10436000A980BA80CB80DC80ED80FE800F8118852B
:104370000E94E4AE11F008F062C0E989FA89828DEA
:10438000938D0196828F938FF401808191812816FD
:10439000390691F48281938129853A852817390756
:1043A00059F4848195814B855C854817590721F420
:1043B000E989FA89868A978A89819A81AB81BC8149
:1043C0000196A11DB11DF401808F918FA28FB38F33
:1043D000E680F780628573850B851C8529853A8583
:1043E000A10189899A890E945B01F401E680F78026
:1043F000648575850B851C8529853A85A101898988
:104400009A890E945B01F401E680F78066857785D2
:104410000B851C8529853A85A10189899A890E9485
:104420005B01F401E680F780608971890B851C854A
:1044300029853A85A10189899A890E945B01F20147
:1044400086819781868497848114910409F4F7C149
:104450000196F401268137818217930714F486832D
:104460009783E989FA89F681F983E989FA89F781DD
:10447000FA83E989FA89F085FB83E989FA89F1856C
:10448000FC83E989FA89F285FD83E989FA89F38554
:10449000FE83E989FA89F485FF83E989FA89F5853C
:1044A000F887F401808D918DA28DB38D6C017D0113
:1044B000FF0CCC08DC2C7601282F392F4A2F5B2FDC
:1044C0006C2D7C2D8C2D9C2DA980BA80CB80DC801E
:1044D000ED80FE800F8118850E94E4AE11F008F097
:1044E000AEC1E989FA89828D938D0196828F938F6F
:1044F000F401808191812816390691F4828193819B
:1045000029853A852817390759F4848195814B8587
:104510005C854817590721F4E989FA89868A978AC0
:1045200089819A81AB81BC810196A11DB11DF401E5
:10453000808F918FA28FB38FE680F780628573851D
:104540000B851C8529853A85A10189899A890E9454
:104550005B01F401E680F780648575850B851C8519
:1045600029853A85A10189899A890E945B01F40114
:1045700086819781668477846114710409F4ABC0E5
:104580000196F301268137818217930714F48683FD
:104590009783E989FA89F681F983E989FA89F781AC
:1045A000FA83E989FA89F085FB83E989FA89F1853B
:1045B000FC83E989FA89F285FD83E989FA89F38523
:1045C000FE83E989FA89F485FF83E989FA89F5850B
:1045D000F887F301808D918DA28DB38D6C017D01E3
:1045E000FF0CCC08DC2C7601282F392F4A2F5B2FAB
:1045F0006C2D7C2D8C2D9C2DA980BA80CB80DC80ED
:10460000ED80FE800F8118850E94E4AE11F008F065
:1046100062C0E989FA89828D938D0196828F938F8A
:10462000F301808191812816390691F4828193816A
:1046300029853A852817390759F4848195814B8556
:104640005C854817590721F4E989FA89668A778ACF
:1046500089819A81AB81BC810196A11DB11DF301B5
:10466000808F918FA28FB38FE680F78062857385EC
:104670000B851C8529853A85A10189899A890E9423
:104680005B01F301E680F780648575850B851C85E9
:1046900029853A85A10189899A890E945B01F301E4
:1046A000E680F780668577850B851C8529853A85A8
:1046B000A10189899A890E945B01F301E680F78054
:1046C000608971890B851C8529853A85A1018989B5
:1046D0009A890E945B01F401868197818088918884
:1046E0008114910409F4ABC00196F401268137814D
:1046F0008217930714F486839783E989FA89F681F0
:10470000F983E989FA89F781FA83E989FA89F085D9
:10471000FB83E989FA89F185FC83E989FA89F285C5
:10472000FD83E989FA89F385FE83E989FA89F485AD
:10473000FF83E989FA89F585F887F401808D918DE9
:10474000A28DB38D6C017D01FF0CCC08DC2C7601B1
:10475000282F392F4A2F5B2F6C2D7C2D8C2D9C2DD3
:10476000A980BA80CB80DC80ED80FE800F81188527
:104770000E94E4AE11F008F062C0E989FA89828DE6
:10478000938D0196828F938FF401808191812816F9
:10479000390691F48281938129853A852817390752
:1047A00059F4848195814B855C854817590721F41C
:1047B000E989FA89868A978A89819A81AB81BC8145
:1047C0000196A11DB11DF401808F918FA28FB38F2F
:1047D000E680F780628573850B851C8529853A857F
:1047E000A10189899A890E945B01F401E680F78022
:1047F000648575850B851C8529853A85A101898984
:104800009A890E945B01F401E680F78066857785CE
:104810000B851C8529853A85A10189899A890E9481
:104820005B01F401E680F780608971890B851C8546
:1048300029853A85A10189899A890E945B01F20143
:1048400086819781808891888114910409F49DC2A2
:104850000196F401268137818217930714F4868329
:104860009783E989FA89F681F983E989FA89F781D9
:10487000FA83E989FA89F085FB83E989FA89F18568
:10488000FC83E989FA89F285FD83E989FA89F38550
:10489000FE83E989FA89F485FF83E989FA89F58538
:1048A000F887F401808D918DA28DB38D6C017D010F
:1048B000FF0CCC08DC2C7601282F392F4A2F5B2FD8
:1048C0006C2D7C2D8C2D9C2DA980BA80CB80DC801A
:1048D000ED80FE800F8118850E94E4AE11F008F093
:1048E00054C2E989FA89828D938D0196828F938FC4
:1048F000F401808191812816390691F48281938197
:1049000029853A852817390759F4848195814B8583
:104910005C854817590721F4E989FA89868A978ABC
:1049200089819A81AB81BC810196A11DB11DF401E1
:10493000808F918FA28FB38FE680F7806285738519
:104940000B851C8529853A85A10189899A890E9450
:104950005B01F4018681978164847584611471041C
:1049600009F4ABC00196F3012681378182179307C2
:1049700014F486839783E989FA89F681F983E989B2
:10498000FA89F781FA83E989FA89F085FB83E98955
:10499000FA89F185FC83E989FA89F285FD83E98941
:1049A000FA89F385FE83E989FA89F485FF83E98929
:1049B000FA89F585F887F301808D918DA28DB38DED
:1049C0006C017D01FF0CCC08DC2C7601282F392FDF
:1049D0004A2F5B2F6C2D7C2D8C2D9C2DA980BA80AD
:1049E000CB80DC80ED80FE800F8118850E94E4AED4
:1049F00011F008F062C0E989FA89828D938D0196E1
:104A0000828F938FF301808191812816390691F46A
:104A10008281938129853A852817390759F4848141
:104A200095814B855C854817590721F4E989FA89F6
:104A3000668A778A89819A81AB81BC810196A11DA2
:104A4000B11DF301808F918FA28FB38FE680F78025
:104A5000628573850B851C8529853A85A101898925
:104A60009A890E945B01F301E680F7806485758571
:104A70000B851C8529853A85A10189899A890E941F
:104A80005B01F301E680F780668577850B851C85E1
:104A900029853A85A10189899A890E945B01F301E0
:104AA000E680F780608971890B851C8529853A85A8
:104AB000A10189899A890E945B01F401868197810D
:104AC000668477846114710409F4ABC00196F30124
:104AD000268137818217930714F486839783E989A7
:104AE000FA89F681F983E989FA89F781FA83E989F4
:104AF000FA89F085FB83E989FA89F185FC83E989E4
:104B0000FA89F285FD83E989FA89F385FE83E989CB
:104B1000FA89F485FF83E989FA89F585F887F30135
:104B2000808D918DA28DB38D6C017D01FF0CCC0821
:104B3000DC2C7601282F392F4A2F5B2F6C2D7C2DF2
:104B40008C2D9C2DA980BA80CB80DC80ED80FE80EE
:104B50000F8118850E94E4AE11F008F062C0E98967
:104B6000FA89828D938D0196828F938FF3018081D4
:104B700091812816390691F48281938129853A859D
:104B80002817390759F4848195814B855C8548172E
:104B9000590721F4E989FA89668A778A89819A8195
:104BA000AB81BC810196A11DB11DF301808F918F56
:104BB000A28FB38FE680F780628573850B851C8595
:104BC00029853A85A10189899A890E945B01F301AF
:104BD000E680F780648575850B851C8529853A8577
:104BE000A10189899A890E945B01F301E680F7801F
:104BF000668577850B851C8529853A85A10189897C
:104C00009A890E945B01F301E680F78060897189CF
:104C10000B851C8529853A85A10189899A890E947D
:104C20005B01F401868197818088918881149104C9
:104C300009F4ABC00196F4012681378182179307EE
:104C400014F486839783E989FA89F681F983E989DF
:104C5000FA89F781FA83E989FA89F085FB83E98982
:104C6000FA89F185FC83E989FA89F285FD83E9896E
:104C7000FA89F385FE83E989FA89F485FF83E98956
:104C8000FA89F585F887F401808D918DA28DB38D19
:104C90006C017D01FF0CCC08DC2C7601282F392F0C
:104CA0004A2F5B2F6C2D7C2D8C2D9C2DA980BA80DA
:104CB000CB80DC80ED80FE800F8118850E94E4AE01
:104CC00011F008F062C0E989FA89828D938D01960E
:104CD000828F938FF401808191812816390691F497
:104CE0008281938129853A852817390759F484816F
:104CF00095814B855C854817590721F4E989FA8924
:104D0000868A978A89819A81AB81BC810196A11D8F
:104D1000B11DF401808F918FA28FB38FE680F78051
:104D2000628573850B851C8529853A85A101898952
:104D30009A890E945B01F401E680F780648575859D
:104D40000B851C8529853A85A10189899A890E944C
:104D50005B01F401E680F780668577850B851C850D
:104D600029853A85A10189899A890E945B01F4010C
:104D7000E680F780608971890B851C8529853A85D5
:104D8000A10189899A890E945B01E989FA892681B2
:104D90003781408551856285738584859585A1E03D
:104DA0000E94D8AE268337834087518762877387F6
:104DB00084879587868897888114910409F05AC062
:104DC000ECE7F0E2248135818081918101972817F9
:104DD000390784F42F5F3F4F209380203093812048
:104DE0004EE1429FC001439F900D11249C012E571C
:104DF0003F4D4901F4012082318229853A85228381
:104E000033834B855C8544835583EF85F8898285A0
:104E10009385892BA9F084859585892B59F0868502
:104E20009785892B51F080899189892BA1F4E3E042
:104E3000F0E008C0E1E0F0E005C0E2E0F0E002C030
:104E4000E0E0F0E03596EE0FFF1F2F853889E20F86
:104E5000F31F80829182EF85F88986819781019680
:104E6000F401868397832F853889228B338B2287A1
:104E70003387E6C3EF85F889828593858815990580
:104E800009F4D5C3248535852815390509F4CFC320
:104E9000268537852815390509F4C9C32089318944
:104EA0002815390509F4C3C3892BA1F0848595859C
:104EB000892B51F086859785892B49F0C901892B6B
:104EC000A9F483E090E008C081E090E005C082E0B2
:104ED00090E002C080E090E0FC013596EE0FFF1FED
:104EE0002F853889E20FF31F80829182F401828539
:104EF00093852F8538892817390799F124853585B9
:104F00004F8558894217530761F126853785421727
:104F1000530739F1208931894217530711F1892B41
:104F2000A1F084859585892B51F086859785892BFD
:104F300049F0C901892BA9F483E090E008C081E021
:104F400090E005C082E090E002C080E090E0FC01CB
:104F50003596EE0FFF1FE80DF91D8F859889808328
:104F60009183E989FA89128E138E168A178A4280F4
:104F70005380F201868197814114510409F442C3A0
:104F80009C012F5F3F4F2817390714F4268337837E
:104F9000E989FA89F681F983E989FA89F781FA833F
:104FA000E989FA89F085FB83E989FA89F185FC832F
:104FB000E989FA89F285FD83E989FA89F385FE8317
:104FC000E989FA89F485FF83E989FA89F585F88703
:104FD000F201808D918DA28DB38D6C017D01FF0C4E
:104FE000CC08DC2C7601282F392F4A2F5B2F6C2D13
:104FF0007C2D8C2D9C2DA980BA80CB80DC80ED800F
:10500000FE800F8118850E94E4AE11F008F0FAC20C
:10501000E989FA89828D938D0196828F938FF201AF
:10502000808191812816390691F4828193812985A6
:105030003A852817390759F4848195814B855C8519
:105040004817590721F4E989FA89468A578A8981DC
:105050009A81AB81BC810196A11DB11DF201808FA7
:10506000918FA28FB38F868197816284738461143C
:10507000710409F4ABC00196F301268137818217D0
:10508000930714F486839783E989FA89F681F98373
:10509000E989FA89F781FA83E989FA89F085FB833E
:1050A000E989FA89F185FC83E989FA89F285FD832A
:1050B000E989FA89F385FE83E989FA89F485FF8312
:1050C000E989FA89F585F887F301808D918DA28DA4
:1050D000B38D6C017D01FF0CCC08DC2C7601282FF0
:1050E000392F4A2F5B2F6C2D7C2D8C2D9C2DA98068
:1050F000BA80CB80DC80ED80FE800F8118850E9415
:10510000E4AE11F008F062C0E989FA89828D938DCE
:105110000196828F938FF301808191812816390641
:1051200091F48281938129853A852817390759F4AA
:10513000848195814B855C854817590721F4E9895D
:10514000FA89668A778A89819A81AB81BC810196C6
:10515000A11DB11DF301808F918FA28FB38FE680C7
:10516000F780628573850B851C8529853A85A101A9
:1051700089899A890E945B01F301E680F780648542
:1051800075850B851C8529853A85A10189899A89B0
:105190000E945B01F301E680F780668577850B85C9
:1051A0001C8529853A85A10189899A890E945B011C
:1051B000F301E680F780608971890B851C8529855C
:1051C0003A85A10189899A890E945B01F201868151
:1051D0009781648475846114710409F4ABC00196ED
:1051E000F301268137818217930714F4868397830E
:1051F000E989FA89F681F983E989FA89F781FA83DD
:10520000E989FA89F085FB83E989FA89F185FC83CC
:10521000E989FA89F285FD83E989FA89F385FE83B4
:10522000E989FA89F485FF83E989FA89F585F887A0
:10523000F301808D918DA28DB38D6C017D01FF0CEA
:10524000CC08DC2C7601282F392F4A2F5B2F6C2DB0
:105250007C2D8C2D9C2DA980BA80CB80DC80ED80AC
:10526000FE800F8118850E94E4AE11F008F062C044
:10527000E989FA89828D938D0196828F938FF3014C
:10528000808191812816390691F482819381298544
:105290003A852817390759F4848195814B855C85B7
:1052A0004817590721F4E989FA89668A778A89813A
:1052B0009A81AB81BC810196A11DB11DF301808F44
:1052C000918FA28FB38FE680F780628573850B85FF
:1052D0001C8529853A85A10189899A890E945B01EB
:1052E000F301E680F780648575850B851C8529852B
:1052F0003A85A10189899A890E945B01F301E680C0
:10530000F780668577850B851C8529853A85A101FF
:1053100089899A890E945B01F301E680F7806089A0
:1053200071890B851C8529853A85A10189899A890E
:105330000E945B01F2018681978166847784611403
:10534000710409F4ABC00196F301268137818217FD
:10535000930714F486839783E989FA89F681F983A0
:10536000E989FA89F781FA83E989FA89F085FB836B
:10537000E989FA89F185FC83E989FA89F285FD8357
:10538000E989FA89F385FE83E989FA89F485FF833F
:10539000E989FA89F585F887F301808D918DA28DD1
:1053A000B38D6C017D01FF0CCC08DC2C7601282F1D
:1053B000392F4A2F5B2F6C2D7C2D8C2D9C2DA98095
:1053C000BA80CB80DC80ED80FE800F8118850E9442
:1053D000E4AE11F008F062C0E989FA89828D938DFC
:1053E0000196828F938FF30180819181281639066F
:1053F00091F48281938129853A852817390759F4D8
:10540000848195814B855C854817590721F4E9898A
:10541000FA89668A778A89819A81AB81BC810196F3
:10542000A11DB11DF301808F918FA28FB38FE680F4
:10543000F780628573850B851C8529853A85A101D6
:1054400089899A890E945B01F301E680F78064856F
:1054500075850B851C8529853A85A10189899A89DD
:105460000E945B01F301E680F780668577850B85F6
:105470001C8529853A85A10189899A890E945B0149
:10548000F301E680F780608971890B851C85298589
:105490003A85A10189899A890E945B01F20186817E
:1054A0009781608871886114710409F4ABC001961A
:1054B000F301268137818217930714F4868397833B
:1054C000E989FA89F681F983E989FA89F781FA830A
:1054D000E989FA89F085FB83E989FA89F185FC83FA
:1054E000E989FA89F285FD83E989FA89F385FE83E2
:1054F000E989FA89F485FF83E989FA89F585F887CE
:10550000F301808D918DA28DB38D6C017D01FF0C17
:10551000CC08DC2C7601282F392F4A2F5B2F6C2DDD
:105520007C2D8C2D9C2DA980BA80CB80DC80ED80D9
:10553000FE800F8118850E94E4AE11F008F062C071
:10554000E989FA89828D938D0196828F938FF30179
:10555000808191812816390691F482819381298571
:105560003A852817390759F4848195814B855C85E4
:105570004817590721F4E989FA89668A778A898167
:105580009A81AB81BC810196A11DB11DF301808F71
:10559000918FA28FB38FE680F780628573850B852C
:1055A0001C8529853A85A10189899A890E945B0118
:1055B000F301E680F780648575850B851C85298558
:1055C0003A85A10189899A890E945B01F301E680ED
:1055D000F780668577850B851C8529853A85A1012D
:1055E00089899A890E945B01F301E680F7806089CE
:1055F00071890B851C8529853A85A10189899A893C
:105600000E945B01E989FA892681378140855185AD
:105610006285738584859585A1E00E94D8AE268336
:105620003783408751876287738784879587F40122
:1056300082899389892B21F42F853889228B338B9A
:105640006296CDBFDEBFDF91CF911F910F91FF908A
:10565000EF90DF90CF90BF90AF909F908F907F9012
:105660006F905F904F903F902F9008952F923F92B0
:105670004F925F926F927F928F929F92AF92BF9262
:10568000CF92DF92EF92FF920F931F93CF93DF930E
:10569000CDB7DEB76097CDBFDEBF8F87988BDC01BB
:1056A000ED91FC91119720803180228133812987EF
:1056B0003A87848195818B879C8714968D919C91E4
:1056C00015978130910571F01CF4892B39F01AC0BF
:1056D0008230910569F0039779F014C091E0291A9E
:1056E000310810C0A985BA851196A987BA870AC062
:1056F000BFEF2B1A3B0A06C029853A852150310994
:1057000029873A870B851C8529853A85A101BF0128
:105710008F8598890E94C306AF85B88956961D92D9
:105720001C9257971296ED91FC911397ED87FE8787
:1057300086819781309711F40C9405549C012F5F5A
:105740003F4F2817390714F426833783AF85B8896C
:105750001696BC91B983EF85F889F781FA83AF85F6
:10576000B8891896BC91BB83EF85F889F185FC83D5
:10577000AF85B8891A96BC91BD83EF85F889F3850A
:10578000FE83AF85B8891C96BC91BF83EF85F889ED
:10579000F585F887ED85FE85808D918DA28DB38D81
:1057A0006C017D01FF0CCC08DC2C7601282F392FF1
:1057B0004A2F5B2F6C2D7C2D8C2D9C2DA980BA80BF
:1057C000CB80DC80ED80FE800F8118850E94E4AEE6
:1057D00019F010F00C940554AF85B8895A968D9144
:1057E0009C915B9701965A968D939C935B978081D1
:1057F000918128163906B1F482819381E985FA8571
:10580000E817F90779F4AD85BE8514968D919C91C2
:105810001597EB85FC85E817F90721F4EF85F889E2
:10582000A68BB78B89819A81AB81BC810196A11D22
:10583000B11DED85FE85808F918FA28FB38F8681FC
:105840009781428453844114510409F459C7019645
:10585000D20116962D913C9117978217930724F445
:1058600016968D939C931797EF85F889F681F983A7
:10587000AF85B8891796BC91BA83EF85F889F08512
:10588000FB83AF85B8891996BC91BC83EF85F889F5
:10589000F285FD83AF85B8891B96BC91BE83EF85E9
:1058A000F889F485FF83AF85B8891D96BC91B887C8
:1058B000F201808D918DA28DB38D6C017D01FF0C65
:1058C000CC08DC2C7601282F392F4A2F5B2F6C2D2A
:1058D0007C2D8C2D9C2DA980BA80CB80DC80ED8026
:1058E000FE800F8118850E94E4AE11F008F008C711
:1058F000AF85B8895A968D919C915B9701965A967F
:105900008D939C935B978081918128163906B9F419
:1059100082819381E985FA85E817F90781F4D2013C
:1059200014968D919C911597EB85FC85E817F907E6
:1059300031F4AF85B88956964D925C92579789811C
:105940009A81AB81BC810196A11DB11DF201808FAE
:10595000918FA28FB38F86819781828493848114E3
:10596000910409F437C20196D40116962D913C9109
:1059700017978217930724F416968D939C93179785
:10598000EF85F889F681F983AF85B8891796BC91C0
:10599000BA83EF85F889F085FB83AF85B8891996BE
:1059A000BC91BC83EF85F889F285FD83AF85B8890A
:1059B0001B96BC91BE83EF85F889F485FF83AF8584
:1059C000B8891D96BC91B887F401808D918DA28D08
:1059D000B38D6C017D01FF0CCC08DC2C7601282FE7
:1059E000392F4A2F5B2F6C2D7C2D8C2D9C2DA9805F
:1059F000BA80CB80DC80ED80FE800F8118850E940C
:105A0000E4AE11F008F0E6C1AF85B8895A968D91E1
:105A10009C915B9701965A968D939C935B9780819E
:105A2000918128163906B9F482819381E985FA8536
:105A3000E817F90781F4D40114968D919C9115977C
:105A4000EB85FC85E817F90731F4AF85B8895696E0
:105A50008D929C92579789819A81AB81BC810196E6
:105A6000A11DB11DF401808F918FA28FB38FE680AD
:105A7000F780628573850B851C8529853A85A10190
:105A80008F8598890E945B01D40116968D919C9117
:105A900017971C966D907C901D976114710409F402
:105AA000BFC00196F301268137818217930714F452
:105AB00086839783AF85B8891696BC91B983EF85A5
:105AC000F889F781FA83AF85B8891896BC91BB83B2
:105AD000EF85F889F185FC83AF85B8891A96BC916A
