S00E0000417175696C612E73726563B9
S2140000000C942B010C9461010C9461010C94610119
S2140000100C9461010C9461010C9461010C946101D3
S2140000200C9461010C9461010C9461010C946101C3
S2140000300C9461010C9461010C9461010C946101B3
S2140000400C9461010C9461010C9461010C946101A3
S2140000500C9461010C9461010C9461010C94610193
S2140000600C9461010C9461010C9461010C94610183
S2140000700C9461010C9461010C9461010C94610173
S2140000800C9461010C9461010C9461010C94610163
S2140000900C9461010C9461010C9461010C94610153
S2140000A00C9461010C9461010C9461010C94610143
S2140000B00C9461010C9461010C9461010C94610133
S2140000C00C9461010C9461010C9461010C94610123
S2140000D00C9461010C9461010C9461010C94610113
S2140000E00C9461010C9461010C9461010C94610103
S2140000F00C9461010C9461010C9461010C946101F3
S2140001000C9461010C9461010C9461010C946101E2
S2140001100C9461010C9461010C9461010C946101D2
S2140001200C9461010C9461010C9461010C946101C2
S2140001300C9461010C942A990C9461010C94610151
S2140001400C9461010C9461010C9461010C946101A2
S2140001500C9461010C9461010C9461010C94610192
S2140001600C9461010C9461010C9461010C94610182
S2140001700C9461010C9461010C9461010C94610172
S2140001800C9461010C9461010C9461010C94610162
S2140001900C9461010C9461010C9461010C94610152
S2140001A00C9461010C9461010C9461010C94610142
S2140001B00C9461010C9461010C9461010C94610132
S2140001C00C9461010C9461010C9461010C94610122
S2140001D00C9461010C9461010C9461010C94610112
S2140001E00C9461010C9461010C9461010C94610102
S2140001F00C9461010C9461010C94610106911691B6
S2140002002691A591279237924792579267927792B6
S2140002100C9426910C9406910C9416910C945C9870
S2140002200C9457920C94A5910C94AD990C9437921B
S2140002300C9467920C9477920C94948B0C94B28DD9
S2140002400C9427970C9447920C942792948BB28D1B
S21400025027975C98AD9911241FBECFEFCDBFDFE383
S214000260DEBF00E00CBF18BE19BE1ABE1BBE10E2F1
S214000270A0E0B0E2EAEBFAE301E00BBF02C00790B1
S2140002800D92AE3DB107D9F71BBE2AE3AEEDB0E244
S21400029001C01D92AC37B207E1F711E0CBE2D1E026
S2140002A000E006C021970109802FFE010E943A9DBA
S2140002B0C632D10780E00807A9F70E945D8B0C9430
S2140002C05B9D0C9400002F923F924F925F926F922C
S2140002D07F928F929F92AF92BF92CF92DF92EF92D1
S2140002E0FF920F931F93CF93DF9300D000D0CDB72C
S2140002F0DEB78D839E83FB014B835C834901180127
S214000300309709F400C52FEFE21AF20A868197812A
S214000310E816F90614F4E682F782AD81BE811896D7
S2140003207C9018971996BC902381A72C1B2D110F33
S214000330110B30E040E050E060E070E080E090E0DC
S214000340C12ED12EE12EF12E012F0E94529D09F4CE
S214000350DAC4808190E0AB81BC818A179B0781F468
S214000360818190E08815990559F4828190E0821584
S214000370930531F4AD81BE811696ED93FC931797E5
S21400038029823A8224012B803C80EB83FC83AB815C
S214000390BC8113967C92139716968D919C91179715
S2140003A01B968D909C901C978114910409F481C033
S2140003B00196F401268137818217930714F4868309
S2140003C09783AD81BE811896EC9118971996BC90CC
S2140003D0D40113962C911397AE2E1B2D110F110BD3
S2140003E030E040E050E060E070E080E090E0C12E59
S2140003F0D12EE12EF12E012F0E94529D09F459C0F4
S2140004008C9190E028163906A9F411968C911197D4
S21400041090E04816590671F412968C9190E0298166
S2140004203A812817390731F4AD81BE8116968D9230
S2140004309C921797D4011396EC9313971696ED900B
S214000440FC9017971B966D917C911C9709811A81D9
S2140004509201A1018D819E810E946301F401E680D4
S214000460F7806585768509811A819201A1018D81C3
S2140004709E810E946301D4011696ED90FC9017971A
S2140004801F966D917C91509709811A819201A10166
S2140004908D819E810E946301F401E680F780618968
S2140004A0728909811A819201A1018D819E810E9423
S2140004B06301AB81BC8116968D919C9117971D9612
S2140004C06D907C901E976114710409F47DC20196AC
S2140004D0F301268137818217930714F48683978366
S2140004E0AD81BE811896EC9118971996BC90D301F1
S2140004F013962C911397AE2E1B2D110F110B30E077
S21400050040E050E060E070E080E090E0C12ED12E48
S214000510E12EF12E012F0E94529D09F455C28C91B6
S21400052090E028163906A9F411968C91119790E060
S2140005304816590671F412968C9190E029813A81FA
S2140005402817390731F4AD81BE8116966D927C92DC
S2140005501797D3011396EC93139716968D919C914B
S21400056017971B968D909C901C978114910409F404
S21400057081C00196F401268137818217930714F40F
S21400058086839783AD81BE811896EC91189719964D
S214000590BC90D40113962C911397AE2E1B2D110FE1
S2140005A0110B30E040E050E060E070E080E090E06A
S2140005B0C12ED12EE12EF12E012F0E94529D09F45C
S2140005C059C08C9190E028163906A9F411968C91A2
S2140005D0119790E04816590671F412968C9190E0A7
S2140005E029813A812817390731F4AD81BE811696E4
S2140005F08D929C921797D4011396EC9313971696A8
S214000600ED90FC9017971B966D917C911C97098135
S2140006101A819201A1018D819E810E946301F401DD
S214000620E680F7806585768509811A819201A101A9
S2140006308D819E810E946301D4011696ED90FC90F8
S21400064017971F966D917C91509709811A81920198
S214000650A1018D819E810E946301F401E680F780EE
S2140006606189728909811A819201A1018D819E8119
S2140006700E946301D30116968D919C9117971D9643
S2140006808D909C901E978114910409F481C0019668
S214000690F401268137818217930714F486839783A3
S2140006A0AD81BE811896EC9118971996BC90D4012E
S2140006B013962C911397AE2E1B2D110F110B30E0B5
S2140006C040E050E060E070E080E090E0C12ED12E87
S2140006D0E12EF12E012F0E94529D09F459C08C91F3
S2140006E090E028163906A9F411968C91119790E09F
S2140006F04816590671F412968C9190E029813A8139
S2140007002817390731F4AD81BE8116968D929C92DA
S2140007101797D4011396EC9313971696ED90FC90CA
S21400072017971B966D917C911C9709811A819201EF
S214000730A1018D819E810E946301F401E680F7800D
S2140007406585768509811A819201A1018D819E8138
S2140007500E946301D4011696ED90FC9017971F96A1
S2140007606D917C91509709811A819201A1018D812A
S2140007709E810E946301F401E680F7806189728998
S21400078009811A819201A1018D819E810E946301D7
S214000790D30116968D919C9117971F968D909C90DD
S2140007A050978114910409F481C00196F4012681C2
S2140007B037818217930714F486839783AD81BE81B1
S2140007C01896EC9118971996BC90D40113962C9114
S2140007D01397AE2E1B2D110F110B30E040E050E0AA
S2140007E060E070E080E090E0C12ED12EE12EF12E88
S2140007F0012F0E94529D09F459C08C9190E0281652
S2140008003906A9F411968C91119790E0481659066E
S21400081071F412968C9190E029813A812817390755
S21400082031F4AD81BE8116968D929C921797D401B5
S2140008301396EC9313971696ED90FC9017971B96CD
S2140008406D917C911C9709811A819201A1018D817D
S2140008509E810E946301F401E680F78065857685B7
S21400086009811A819201A1018D819E810E946301F6
S214000870D4011696ED90FC9017971F966D917C917B
S214000880509709811A819201A1018D819E810E9453
S2140008906301F401E680F7806189728909811A8113
S2140008A09201A1018D819E810E946301D30116965B
S2140008B08D919C91179751968D909C90529781148C
S2140008C0910409F481C00196F401268137818217CC
S2140008D0930714F486839783AD81BE811896EC91B6
S2140008E018971996BC90D40113962C911397AE2E98
S2140008F01B2D110F110B30E040E050E060E070E07F
S21400090080E090E0C12ED12EE12EF12E012F0E9424
S214000910529D09F459C08C9190E028163906A9F426
S21400092011968C91119790E04816590671F412961C
S2140009308C9190E029813A812817390731F4AD81EE
S214000940BE8116968D929C921797D4011396EC93BF
S21400095013971696ED90FC9017971B966D917C91C9
S2140009601C9709811A819201A1018D819E810E94A6
S2140009706301F401E680F7806585768509811A8132
S2140009809201A1018D819E810E946301D401169679
S214000990ED90FC9017971F966D917C91509709816A
S2140009A01A819201A1018D819E810E946301F4014A
S2140009B0E680F7806189728909811A819201A10116
S2140009C08D819E810E946301AB81BC8116968D91BC
S2140009D09C9117971F968D909C9050978114910428
S2140009E009F481C00196F4012681378182179307A6
S2140009F014F486839783AD81BE811896EC91189780
S214000A001996BC90D40113962C911397AE2E1B2DDD
S214000A10110F110B30E040E050E060E070E080E045
S214000A2090E0C12ED12EE12EF12E012F0E94529D74
S214000A3009F459C08C9190E028163906A9F411964D
S214000A408C91119790E04816590671F412968C9185
S214000A5090E029813A812817390731F4AD81BE81AB
S214000A6016968D929C921797D4011396EC93139733
S214000A701696ED90FC9017971B966D917C911C979F
S214000A8009811A819201A1018D819E810E946301D4
S214000A90F401E680F7806585768509811A819201E2
S214000AA0A1018D819E810E946301D4011696ED906E
S214000AB0FC9017971F966D917C91509709811A812B
S214000AC09201A1018D819E810E946301F401E6805E
S214000AD0F7806189728909811A819201A1018D814D
S214000AE09E810E946301AB81BC8116968D919C917C
S214000AF0179751968D909C9052978114910409F403
S214000B0002C10196F401268137818217930714F4F7
S214000B1086839783AD81BE811896EC9118971996B7
S214000B20BC90D40113962C911397AE2E1B2D110F4B
S214000B30110B30E040E050E060E070E080E090E0D4
S214000B40C12ED12EE12EF12E012F0E94529D09F4C6
S214000B50DAC08C9190E028163906A9F411968C918B
S214000B60119790E04816590671F412968C9190E011
S214000B7029813A812817390731F4AD81BE8116964E
S214000B808D929C921797D4011396EC931397169612
S214000B908D919C9117971B966D907C901C97611475
S214000BA0710409F481C00196F3012681378182170A
S214000BB0930714F486839783AD81BE811896EC91D3
S214000BC018971996BC90D30113962C911397AE2EB6
S214000BD01B2D110F110B30E040E050E060E070E09C
S214000BE080E090E0C12ED12EE12EF12E012F0E9442
S214000BF0529D09F459C08C9190E028163906A9F444
S214000C0011968C91119790E04816590671F4129639
S214000C108C9190E029813A812817390731F4AD810B
S214000C20BE8116966D927C921797D3011396EC931D
S214000C3013971696ED90FC9017971B966D917C91E6
S214000C401C9709811A819201A1018D819E810E94C3
S214000C506301F301E680F7806585768509811A8150
S214000C609201A1018D819E810E946301D301169697
S214000C70ED90FC9017971F966D917C915097098187
S214000C801A819201A1018D819E810E946301F30168
S214000C90E680F7806189728909811A819201A10133
S214000CA08D819E810E946301D4011696ED90FC9082
S214000CB017971D966D917C911E9709811A81920156
S214000CC0A1018D819E810E946301F401E680F78078
S214000CD06785708909811A819201A1018D819E81A3
S214000CE00E946301D4011696ED90FC9017975196DA
S214000CF06D917C91529709811A819201A1018D8193
S214000D009E810E9463012696CDBFDEBFDF91CF9104
S214000D101F910F91FF90EF90DF90CF90BF90AF9014
S214000D209F908F907F906F905F904F903F902F9006
S214000D3008952F923F924F925F926F927F928F927A
S214000D409F92AF92BF92CF92DF92EF92FF920F9355
S214000D501F93CF93DF93CDB7DEB72F97CDBFDEBF00
S214000D602C016F837887DC0114968D919C911597E2
S214000D70480F591F4D5F5F4F43705078552334F42A
S214000D80415051094C6F5F6F4F5F5F4FEF81F885A1
S214000D9092808180440F551F440F551FDA01A55AD3
S214000DA0BF4D12962D913C91139729873A877080F4
S214000DB08D919C918B879C87D20116961D921C92D2
S214000DC017971296ED91FC911397ED83FE8386811B
S214000DD09781309711F40C94DF259C012F5F3F4FCD
S214000DE02817390714F426833783F201A085B184C7
S214000DF0ED81FE812381AA2E1B2D110F110B30E0F1
S214000E0040E050E060E070E080E090E0C12ED12E3F
S214000E10E12EF12E012F0E94529D11F40C94DF2535
S214000E20292D30E02B833C8389859A85880D911D7A
S214000E3089839A832B843C84270C311C808190E024
S214000E402816390691F4818190E0E981FA81E81745
S214000E50F90759F4ED81FE81828190E02817390761
S214000E6021F49F01F20126833783ED81FE81A3835F
S214000E7086819781638474846114710411F40C94E0
S214000E80E80F0196D30116962D913C91179782177D
S214000E90930724F416968D939C931797D201189671
S214000EA0EC9118971996BC90D30113962C91139732
S214000EB0AE2E1B2D110F110B30E040E050E060E02D
S214000EC070E080E090E0C12ED12EE12EF12E012FB1
S214000ED00E94529D11F40C94E80F8C9190E0281615
S214000EE03906B1F411968C91119790E029813A81D8
S214000EF02817390769F412968C9190E0AB81BC8173
S214000F00A817B90729F4D20116966D927C92179706
S214000F10D3011396EC93139716968D919C91179781
S214000F201B96ED91FC911C97EE87FF87309709F48E
S214000F308AC20196268137818217930714F4868326
S214000F409783D2011896EC9118971996BC90AE85A7
S214000F50BF8513962C911397AE2E1B2D110F110BD8
S214000F6030E040E050E060E070E080E090E0C12ECD
S214000F70D12EE12EF12E012F0E94529D09F463C25C
S214000F808C9190E028163906C1F411968C91119731
S214000F9090E029813A812817390779F412968C91C6
S214000FA090E0AB81BC81A817B90739F42E853F8540
S214000FB0D20116962D933C931797AE85BF85139650
S214000FC0EC93139716968D919C9117971B968D9080
S214000FD09C901C978114910409F481C00196F40139
S214000FE0268137818217930714F486839783D2016C
S214000FF01896EC9118971996BC90D40113962C91DC
S2140010001397AE2E1B2D110F110B30E040E050E071
S21400101060E070E080E090E0C12ED12EE12EF12E4F
S214001020012F0E94529D09F45AC08C9190E0281618
S2140010303906B1F411968C91119790E029813A8186
S2140010402817390769F412968C9190E0AB81BC8121
S214001050A817B90729F4D20116968D929C92179775
S214001060D4011396EC9313971696ED90FC90179771
S2140010701B966D917C911C970B811C8129813A816E
S214001080A101C2010E946301F401E680F780658534
S21400109076850B811C8129813A81A101C2010E94BB
S2140010A06301D4011696ED90FC9017971F966D91EC
S2140010B07C9150970B811C8129813A81A101C20144
S2140010C00E946301F401E680F780618972890B81D2
S2140010D01C8129813A81A101C2010E946301AE856B
S2140010E0BF8516968D919C9117971D968D909C9016
S2140010F01E978114910409F481C00196F40126819B
S21400110037818217930714F486839783D201189643
S214001110EC9118971996BC90D40113962C911397BE
S214001120AE2E1B2D110F110B30E040E050E060E0BA
S21400113070E080E090E0C12ED12EE12EF12E012F3E
S2140011400E94529D09F45AC08C9190E028163906E8
S214001150B1F411968C91119790E029813A81281765
S214001160390769F412968C9190E0AB81BC81A81780
S214001170B90729F4D20116968D929C921797D4013E
S2140011801396EC9313971696ED90FC9017971B9674
S2140011906D917C911C970B811C8129813A81A1015C
S2140011A0C2010E946301F401E680F78065857685BA
S2140011B00B811C8129813A81A101C2010E94630131
S2140011C0D4011696ED90FC9017971F966D917C9122
S2140011D050970B811C8129813A81A101C2010E948E
S2140011E06301F401E680F780618972890B811C81B6
S2140011F029813A81A101C2010E946301AE85BF85A3
S21400120016968D919C9117971F968D909C9050974F
S2140012108114910409F481C00196F4012681378176
S2140012208217930714F486839783D2011896EC915D
S21400123018971996BC90D40113962C911397AE2E3E
S2140012401B2D110F110B30E040E050E060E070E025
S21400125080E090E0C12ED12EE12EF12E012F0E94CB
S214001260529D09F45AC08C9190E028163906B1F4C4
S21400127011968C91119790E029813A8128173907A9
S21400128069F412968C9190E0AB81BC81A817B907DF
S21400129029F4D20116968D929C921797D401139634
S2140012A0EC9313971696ED90FC9017971B966D91FE
S2140012B07C911C970B811C8129813A81A101C20176
S2140012C00E946301F401E680F780658576850B81D0
S2140012D01C8129813A81A101C2010E946301D401C7
S2140012E01696ED90FC9017971F966D917C915097EF
S2140012F00B811C8129813A81A101C2010E946301F0
S214001300F401E680F780618972890B811C8129814E
S2140013103A81A101C2010E946301AE85BF8516967F
S2140013208D919C9117975196ED91FC915297EE876F
S214001330FF87309709F487C0019626813781821788
S214001340930714F486839783D2011896EC91189726
S2140013501996BC90AE85BF8513962C911397AE2E2A
S2140013601B2D110F110B30E040E050E060E070E004
S21400137080E090E0C12ED12EE12EF12E012F0E94AA
S214001380529D09F460C08C9190E028163906C1F48D
S21400139011968C91119790E029813A812817390788
S2140013A079F412968C9190E0AB81BC81A817B907AE
S2140013B039F42E853F85D20116962D933C931797C8
S2140013C0AE85BF851396EC9313971696ED90FC901A
S2140013D017971B966D917C911C970B811C81298118
S2140013E03A81A101C2010E946301EE85FF85E68075
S2140013F0F780658576850B811C8129813A81A1015C
S214001400C2010E946301AE85BF851696ED90FC90E2
S21400141017971F966D917C9150970B811C8129819F
S2140014203A81A101C2010E946301EE85FF85E68034
S214001430F780618972890B811C8129813A81A1011B
S214001440C2010E946301D30116968D919C91179755
S2140014501D96ED91FC911E97EE87FF87309709F455
S2140014608AC20196268137818217930714F48683F1
S2140014709783D2011896EC9118971996BC90AE8572
S214001480BF8513962C911397AE2E1B2D110F110BA3
S21400149030E040E050E060E070E080E090E0C12E98
S2140014A0D12EE12EF12E012F0E94529D09F463C227
S2140014B08C9190E028163906C1F411968C911197FC
S2140014C090E029813A812817390779F412968C9191
S2140014D090E0AB81BC81A817B90739F42E853F850B
S2140014E0D20116962D933C931797AE85BF8513961B
S2140014F0EC93139716968D919C9117971B968D904B
S2140015009C901C978114910409F481C00196F40103
S214001510268137818217930714F486839783D20136
S2140015201896EC9118971996BC90D40113962C91A6
S2140015301397AE2E1B2D110F110B30E040E050E03C
S21400154060E070E080E090E0C12ED12EE12EF12E1A
S214001550012F0E94529D09F45AC08C9190E02816E3
S2140015603906B1F411968C91119790E029813A8151
S2140015702817390769F412968C9190E0AB81BC81EC
S214001580A817B90729F4D20116968D929C92179740
S214001590D4011396EC9313971696ED90FC9017973C
S2140015A01B966D917C911C970B811C8129813A8139
S2140015B0A101C2010E946301F401E680F7806585FF
S2140015C076850B811C8129813A81A101C2010E9486
S2140015D06301D4011696ED90FC9017971F966D91B7
S2140015E07C9150970B811C8129813A81A101C2010F
S2140015F00E946301F401E680F780618972890B819D
S2140016001C8129813A81A101C2010E946301AE8535
S214001610BF8516968D919C9117971D968D909C90E0
S2140016201E978114910409F481C00196F401268165
S21400163037818217930714F486839783D20118960E
S214001640EC9118971996BC90D40113962C91139789
S214001650AE2E1B2D110F110B30E040E050E060E085
S21400166070E080E090E0C12ED12EE12EF12E012F09
S2140016700E94529D09F45AC08C9190E028163906B3
S214001680B1F411968C91119790E029813A81281730
S214001690390769F412968C9190E0AB81BC81A8174B
S2140016A0B90729F4D20116968D929C921797D40109
S2140016B01396EC9313971696ED90FC9017971B963F
S2140016C06D917C911C970B811C8129813A81A10127
S2140016D0C2010E946301F401E680F7806585768585
S2140016E00B811C8129813A81A101C2010E946301FC
S2140016F0D4011696ED90FC9017971F966D917C91ED
S21400170050970B811C8129813A81A101C2010E9458
S2140017106301F401E680F780618972890B811C8180
S21400172029813A81A101C2010E946301AE85BF856D
S21400173016968D919C9117971F968D909C9050971A
S2140017408114910409F481C00196F4012681378141
S2140017508217930714F486839783D2011896EC9128
S21400176018971996BC90D40113962C911397AE2E09
S2140017701B2D110F110B30E040E050E060E070E0F0
S21400178080E090E0C12ED12EE12EF12E012F0E9496
S214001790529D09F45AC08C9190E028163906B1F48F
S2140017A011968C91119790E029813A812817390774
S2140017B069F412968C9190E0AB81BC81A817B907AA
S2140017C029F4D20116968D929C921797D4011396FF
S2140017D0EC9313971696ED90FC9017971B966D91C9
S2140017E07C911C970B811C8129813A81A101C20141
S2140017F00E946301F401E680F780658576850B819B
S2140018001C8129813A81A101C2010E946301D40191
S2140018101696ED90FC9017971F966D917C915097B9
S2140018200B811C8129813A81A101C2010E946301BA
S214001830F401E680F780618972890B811C81298119
S2140018403A81A101C2010E946301AE85BF8516964A
S2140018508D919C9117975196ED91FC915297EE873A
S214001860FF87309709F487C0019626813781821753
S214001870930714F486839783D2011896EC911897F1
S2140018801996BC90AE85BF8513962C911397AE2EF5
S2140018901B2D110F110B30E040E050E060E070E0CF
S2140018A080E090E0C12ED12EE12EF12E012F0E9475
S2140018B0529D09F460C08C9190E028163906C1F458
S2140018C011968C91119790E029813A812817390753
S2140018D079F412968C9190E0AB81BC81A817B90779
S2140018E039F42E853F85D20116962D933C93179793
S2140018F0AE85BF851396EC9313971696ED90FC90E5
S21400190017971B966D917C911C970B811C812981E2
S2140019103A81A101C2010E946301EE85FF85E6803F
S214001920F780658576850B811C8129813A81A10126
S214001930C2010E946301AE85BF851696ED90FC90AD
S21400194017971F966D917C9150970B811C8129816A
S2140019503A81A101C2010E946301EE85FF85E680FF
S214001960F780618972890B811C8129813A81A101E6
S214001970C2010E946301D30116968D919C91179720
S2140019801F96ED91FC915097EE87FF87309709F4EC
S21400199087C00196268137818217930714F48683C1
S2140019A09783D2011896EC9118971996BC90AE853D
S2140019B0BF8513962C911397AE2E1B2D110F110B6E
S2140019C030E040E050E060E070E080E090E0C12E63
S2140019D0D12EE12EF12E012F0E94529D09F460C0F7
S2140019E08C9190E028163906C1F411968C911197C7
S2140019F090E029813A812817390779F412968C915C
S214001A0090E0AB81BC81A817B90739F42E853F85D5
S214001A10D20116962D933C931797AE85BF851396E5
S214001A20EC9313971696ED90FC9017971B966D9176
S214001A307C911C970B811C8129813A81A101C201EE
S214001A400E946301EE85FF85E680F78065857685D2
S214001A500B811C8129813A81A101C2010E94630188
S214001A60AE85BF851696ED90FC9017971F966D91E4
S214001A707C9150970B811C8129813A81A101C2017A
S214001A800E946301EE85FF85E680F7806189728992
S214001A900B811C8129813A81A101C2010E94630148
S214001AA0D30116968D919C9117975196ED91FC91C6
S214001AB05297EE87FF87309709F48AC201962681EF
S214001AC037818217930714F486839783D20118967A
S214001AD0EC9118971996BC90AE85BF8513962C91FD
S214001AE01397AE2E1B2D110F110B30E040E050E087
S214001AF060E070E080E090E0C12ED12EE12EF12E65
S214001B00012F0E94529D09F463C28C9190E0281622
S214001B103906C1F411968C91119790E029813A818B
S214001B202817390779F412968C9190E0AB81BC8126
S214001B30A817B90739F42E853F85D20116962D933E
S214001B403C931797AE85BF851396EC93139716961E
S214001B508D919C9117971B968D909C901C97811445
S214001B60910409F481C00196F40126813781821719
S214001B70930714F486839783D2011896EC911897EE
S214001B801996BC90D40113962C911397AE2E1B2D4C
S214001B90110F110B30E040E050E060E070E080E0B4
S214001BA090E0C12ED12EE12EF12E012F0E94529DE3
S214001BB009F45AC08C9190E028163906B1F41196B3
S214001BC08C91119790E029813A812817390769F49A
S214001BD012968C9190E0AB81BC81A817B90729F4C6
S214001BE0D20116968D929C921797D4011396EC9379
S214001BF013971696ED90FC9017971B966D917C9117
S214001C001C970B811C8129813A81A101C2010E9487
S214001C106301F401E680F780658576850B811C817B
S214001C2029813A81A101C2010E946301D40116965E
S214001C30ED90FC9017971F966D917C9150970B81B5
S214001C401C8129813A81A101C2010E946301F4012D
S214001C50E680F780618972890B811C8129813A812F
S214001C60A101C2010E946301AE85BF8516968D91C3
S214001C709C9117971D968D909C901E9781149104A9
S214001C8009F481C00196F4012681378182179307F3
S214001C9014F486839783D2011896EC9118971996B8
S214001CA0BC90D40113962C911397AE2E1B2D110FBA
S214001CB0110B30E040E050E060E070E080E090E043
S214001CC0C12ED12EE12EF12E012F0E94529D09F435
S214001CD05AC08C9190E028163906B1F411968C9172
S214001CE0119790E029813A812817390769F41296EE
S214001CF08C9190E0AB81BC81A817B90729F4D2017A
S214001D0016968D929C921797D4011396EC93139780
S214001D101696ED90FC9017971B966D917C911C97EC
S214001D200B811C8129813A81A101C2010E946301B5
S214001D30F401E680F780658576850B811C81298114
S214001D403A81A101C2010E946301D4011696ED906A
S214001D50FC9017971F966D917C9150970B811C8174
S214001D6029813A81A101C2010E946301F401E68043
S214001D70F780618972890B811C8129813A81A101D2
S214001D80C2010E946301AE85BF8516968D919C9117
S214001D9017971F968D909C9050978114910409F484
S214001DA081C00196F401268137818217930714F4C7
S214001DB086839783D2011896EC9118971996BC9053
S214001DC0D40113962C911397AE2E1B2D110F110BC9
S214001DD030E040E050E060E070E080E090E0C12E4F
S214001DE0D12EE12EF12E012F0E94529D09F45AC0E9
S214001DF08C9190E028163906B1F411968C911197C3
S214001E0090E029813A812817390769F412968C9157
S214001E1090E0AB81BC81A817B90729F4D2011696C9
S214001E208D929C921797D4011396EC93139716965F
S214001E30ED90FC9017971B966D917C911C970B81EB
S214001E401C8129813A81A101C2010E946301F4012B
S214001E50E680F780658576850B811C8129813A812D
S214001E60A101C2010E946301D4011696ED90FC9078
S214001E7017971F966D917C9150970B811C81298135
S214001E803A81A101C2010E946301F401E680F78055
S214001E90618972890B811C8129813A81A101C20165
S214001EA00E946301AE85BF8516968D919C9117970B
S214001EB05196ED91FC915297EE87FF87309709F483
S214001EC087C00196268137818217930714F486838C
S214001ED09783D2011896EC9118971996BC90AE8508
S214001EE0BF8513962C911397AE2E1B2D110F110B39
S214001EF030E040E050E060E070E080E090E0C12E2E
S214001F00D12EE12EF12E012F0E94529D09F460C0C1
S214001F108C9190E028163906C1F411968C91119791
S214001F2090E029813A812817390779F412968C9126
S214001F3090E0AB81BC81A817B90739F42E853F85A0
S214001F40D20116962D933C931797AE85BF851396B0
S214001F50EC9313971696ED90FC9017971B966D9141
S214001F607C911C970B811C8129813A81A101C201B9
S214001F700E946301EE85FF85E680F780658576859D
S214001F800B811C8129813A81A101C2010E94630153
S214001F90AE85BF851696ED90FC9017971F966D91AF
S214001FA07C9150970B811C8129813A81A101C20145
S214001FB00E946301EE85FF85E680F780618972895D
S214001FC00B811C8129813A81A101C2010E94630113
S214001FD0AD81BE8116968D919C9117971D966D903A
S214001FE07C901E976114710409F49AC50196F3015A
S214001FF0268137818217930714F486839783D2014C
S2140020001896EC9118971996BC90D30113962C91BC
S2140020101397AE2E1B2D110F110B30E040E050E051
S21400202060E070E080E090E0C12ED12EE12EF12E2F
S214002030012F0E94529D09F473C58C9190E02816DA
S2140020403906B1F411968C91119790E029813A8166
S2140020502817390769F412968C9190E0AB81BC8101
S214002060A817B90729F4D20116966D927C92179795
S214002070D3011396EC93139716968D919C91179710
S2140020801B96ED91FC911C97EE87FF87309709F41D
S21400209087C00196268137818217930714F48683BA
S2140020A09783D2011896EC9118971996BC90AE8536
S2140020B0BF8513962C911397AE2E1B2D110F110B67
S2140020C030E040E050E060E070E080E090E0C12E5C
S2140020D0D12EE12EF12E012F0E94529D09F460C0F0
S2140020E08C9190E028163906C1F411968C911197C0
S2140020F090E029813A812817390779F412968C9155
S21400210090E0AB81BC81A817B90739F42E853F85CE
S214002110D20116962D933C931797AE85BF851396DE
S214002120EC9313971696ED90FC9017971B966D916F
S2140021307C911C970B811C8129813A81A101C201E7
S2140021400E946301EE85FF85E680F78065857685CB
S2140021500B811C8129813A81A101C2010E94630181
S214002160AE85BF851696ED90FC9017971F966D91DD
S2140021707C9150970B811C8129813A81A101C20173
S2140021800E946301EE85FF85E680F780618972898B
S2140021900B811C8129813A81A101C2010E94630141
S2140021A0D30116968D919C9117971D96ED91FC91F3
S2140021B01E97EE87FF87309709F485C10196268122
S2140021C037818217930714F486839783D201189673
S2140021D0EC9118971996BC90AE85BF8513962C91F6
S2140021E01397AE2E1B2D110F110B30E040E050E080
S2140021F060E070E080E090E0C12ED12EE12EF12E5E
S214002200012F0E94529D09F45EC18C9190E0281621
S2140022103906C1F411968C91119790E029813A8184
S2140022202817390779F412968C9190E0AB81BC811F
S214002230A817B90739F42E853F85D20116962D9337
S2140022403C931797AE85BF851396EC931397169617
S2140022508D919C9117971B968D909C901C9781143E
S214002260910409F481C00196F40126813781821712
S214002270930714F486839783D2011896EC911897E7
S2140022801996BC90D40113962C911397AE2E1B2D45
S214002290110F110B30E040E050E060E070E080E0AD
S2140022A090E0C12ED12EE12EF12E012F0E94529DDC
S2140022B009F45AC08C9190E028163906B1F41196AC
S2140022C08C91119790E029813A812817390769F493
S2140022D012968C9190E0AB81BC81A817B90729F4BF
S2140022E0D20116968D929C921797D4011396EC9372
S2140022F013971696ED90FC9017971B966D917C9110
S2140023001C970B811C8129813A81A101C2010E9480
S2140023106301F401E680F780658576850B811C8174
S21400232029813A81A101C2010E946301D401169657
S214002330ED90FC9017971F966D917C9150970B81AE
S2140023401C8129813A81A101C2010E946301F40126
S214002350E680F780618972890B811C8129813A8128
S214002360A101C2010E946301AE85BF8516968D91BC
S2140023709C9117971D968D909C901E9781149104A2
S21400238009F481C00196F4012681378182179307EC
S21400239014F486839783D2011896EC9118971996B1
S2140023A0BC90D40113962C911397AE2E1B2D110FB3
S2140023B0110B30E040E050E060E070E080E090E03C
S2140023C0C12ED12EE12EF12E012F0E94529D09F42E
S2140023D05AC08C9190E028163906B1F411968C916B
S2140023E0119790E029813A812817390769F41296E7
S2140023F08C9190E0AB81BC81A817B90729F4D20173
S21400240016968D929C921797D4011396EC93139779
S2140024101696ED90FC9017971B966D917C911C97E5
S2140024200B811C8129813A81A101C2010E946301AE
S214002430F401E680F780658576850B811C8129810D
S2140024403A81A101C2010E946301D4011696ED9063
S214002450FC9017971F966D917C9150970B811C816D
S21400246029813A81A101C2010E946301F401E6803C
S214002470F780618972890B811C8129813A81A101CB
S214002480C2010E946301AE85BF851696ED90FC9052
S21400249017971F966D917C9150970B811C8129810F
S2140024A03A81A101C2010E946301EE85FF85E680A4
S2140024B0F780618972890B811C8129813A81A1018B
S2140024C0C2010E946301D30116968D919C911797C5
S2140024D01F96ED91FC915097EE87FF87309709F491
S2140024E08AC20196268137818217930714F4868361
S2140024F09783D2011896EC9118971996BC90AE85E2
S214002500BF8513962C911397AE2E1B2D110F110B12
S21400251030E040E050E060E070E080E090E0C12E07
S214002520D12EE12EF12E012F0E94529D09F463C296
S2140025308C9190E028163906C1F411968C9111976B
S21400254090E029813A812817390779F412968C9100
S21400255090E0AB81BC81A817B90739F42E853F857A
S214002560D20116962D933C931797AE85BF8513968A
S214002570EC93139716968D919C9117971B968D90BA
S2140025809C901C978114910409F481C00196F40173
S214002590268137818217930714F486839783D201A6
S2140025A01896EC9118971996BC90D40113962C9116
S2140025B01397AE2E1B2D110F110B30E040E050E0AC
S2140025C060E070E080E090E0C12ED12EE12EF12E8A
S2140025D0012F0E94529D09F45AC08C9190E0281653
S2140025E03906B1F411968C91119790E029813A81C1
S2140025F02817390769F412968C9190E0AB81BC815C
S214002600A817B90729F4D20116968D929C921797AF
S214002610D4011396EC9313971696ED90FC901797AB
S2140026201B966D917C911C970B811C8129813A81A8
S214002630A101C2010E946301F401E680F78065856E
S21400264076850B811C8129813A81A101C2010E94F5
S2140026506301D4011696ED90FC9017971F966D9126
S2140026607C9150970B811C8129813A81A101C2017E
S2140026700E946301F401E680F780618972890B810C
S2140026801C8129813A81A101C2010E946301AE85A5
S214002690BF8516968D919C9117971D968D909C9050
S2140026A01E978114910409F481C00196F4012681D5
S2140026B037818217930714F486839783D20118967E
S2140026C0EC9118971996BC90D40113962C911397F9
S2140026D0AE2E1B2D110F110B30E040E050E060E0F5
S2140026E070E080E090E0C12ED12EE12EF12E012F79
S2140026F00E94529D09F45AC08C9190E02816390623
S214002700B1F411968C91119790E029813A8128179F
S214002710390769F412968C9190E0AB81BC81A817BA
S214002720B90729F4D20116968D929C921797D40178
S2140027301396EC9313971696ED90FC9017971B96AE
S2140027406D917C911C970B811C8129813A81A10196
S214002750C2010E946301F401E680F78065857685F4
S2140027600B811C8129813A81A101C2010E9463016B
S214002770D4011696ED90FC9017971F966D917C915C
S21400278050970B811C8129813A81A101C2010E94C8
S2140027906301F401E680F780618972890B811C81F0
S2140027A029813A81A101C2010E946301AE85BF85DD
S2140027B016968D919C9117971F968D909C9050978A
S2140027C08114910409F481C00196F40126813781B1
S2140027D08217930714F486839783D2011896EC9198
S2140027E018971996BC90D40113962C911397AE2E79
S2140027F01B2D110F110B30E040E050E060E070E060
S21400280080E090E0C12ED12EE12EF12E012F0E9405
S214002810529D09F45AC08C9190E028163906B1F4FE
S21400282011968C91119790E029813A8128173907E3
S21400283069F412968C9190E0AB81BC81A817B90719
S21400284029F4D20116968D929C921797D40113966E
S214002850EC9313971696ED90FC9017971B966D9138
S2140028607C911C970B811C8129813A81A101C201B0
S2140028700E946301F401E680F780658576850B810A
S2140028801C8129813A81A101C2010E946301D40101
S2140028901696ED90FC9017971F966D917C91509729
S2140028A00B811C8129813A81A101C2010E9463012A
S2140028B0F401E680F780618972890B811C81298189
S2140028C03A81A101C2010E946301AE85BF851696BA
S2140028D08D919C9117975196ED91FC915297EE87AA
S2140028E0FF87309709F487C00196268137818217C3
S2140028F0930714F486839783D2011896EC91189761
S2140029001996BC90AE85BF8513962C911397AE2E64
S2140029101B2D110F110B30E040E050E060E070E03E
S21400292080E090E0C12ED12EE12EF12E012F0E94E4
S214002930529D09F460C08C9190E028163906C1F4C7
S21400294011968C91119790E029813A8128173907C2
S21400295079F412968C9190E0AB81BC81A817B907E8
S21400296039F42E853F85D20116962D933C93179702
S214002970AE85BF851396EC9313971696ED90FC9054
S21400298017971B966D917C911C970B811C81298152
S2140029903A81A101C2010E946301EE85FF85E680AF
S2140029A0F780658576850B811C8129813A81A10196
S2140029B0C2010E946301AE85BF851696ED90FC901D
S2140029C017971F966D917C9150970B811C812981DA
S2140029D03A81A101C2010E946301EE85FF85E6806F
S2140029E0F780618972890B811C8129813A81A10156
S2140029F0C2010E946301D30116968D919C91179790
S214002A005196ED91FC915297EE87FF87309709F427
S214002A1087C00196268137818217930714F4868330
S214002A209783D2011896EC9118971996BC90AE85AC
S214002A30BF8513962C911397AE2E1B2D110F110BDD
S214002A4030E040E050E060E070E080E090E0C12ED2
S214002A50D12EE12EF12E012F0E94529D09F460C066
S214002A608C9190E028163906C1F411968C91119736
S214002A7090E029813A812817390779F412968C91CB
S214002A8090E0AB81BC81A817B90739F42E853F8545
S214002A90D20116962D933C931797AE85BF85139655
S214002AA0EC9313971696ED90FC9017971B966D91E6
S214002AB07C911C970B811C8129813A81A101C2015E
S214002AC00E946301EE85FF85E680F7806585768542
S214002AD00B811C8129813A81A101C2010E946301F8
S214002AE0AE85BF851696ED90FC9017971F966D9154
S214002AF07C9150970B811C8129813A81A101C201EA
S214002B000E946301EE85FF85E680F7806189728901
S214002B100B811C8129813A81A101C2010E946301B7
S214002B20AD81BE8116968D919C9117971F966D90DC
S214002B307C9050976114710411F40C94471F019611
S214002B40F301268137818217930714F486839783CF
S214002B50D2011896EC9118971996BC90D30113964B
S214002B602C911397AE2E1B2D110F110B30E040E069
S214002B7050E060E070E080E090E0C12ED12EE12EC3
S214002B80F12E012F0E94529D11F40C94471F8C9138
S214002B9090E028163906B1F411968C91119790E0C2
S214002BA029813A812817390769F412968C9190E0AA
S214002BB0AB81BC81A817B90729F4D20116966D928D
S214002BC07C921797D3011396EC93139716968D91D4
S214002BD09C9117971B96ED91FC911C97EE87FF87AB
S214002BE0309709F48AC201962681378182179307A7
S214002BF014F486839783D2011896EC911897199649
S214002C00BC90AE85BF8513962C911397AE2E1B2DC8
S214002C10110F110B30E040E050E060E070E080E023
S214002C2090E0C12ED12EE12EF12E012F0E94529D52
S214002C3009F463C28C9190E028163906C1F4119607
S214002C408C91119790E029813A812817390779F4F9
S214002C5012968C9190E0AB81BC81A817B90739F425
S214002C602E853F85D20116962D933C931797AE85F9
S214002C70BF851396EC93139716968D919C91179794
S214002C801B968D909C901C978114910409F481C02A
S214002C900196F401268137818217930714F4868300
S214002CA09783D2011896EC9118971996BC90D40188
S214002CB013962C911397AE2E1B2D110F110B30E08F
S214002CC040E050E060E070E080E090E0C12ED12E61
S214002CD0E12EF12E012F0E94529D09F45AC08C91CC
S214002CE090E028163906B1F411968C91119790E071
S214002CF029813A812817390769F412968C9190E059
S214002D00AB81BC81A817B90729F4D20116968D921B
S214002D109C921797D4011396EC9313971696ED9002
S214002D20FC9017971B966D917C911C970B811C81CC
S214002D3029813A81A101C2010E946301F401E68063
S214002D40F780658576850B811C8129813A81A101F2
S214002D50C2010E946301D4011696ED90FC9017976D
S214002D601F966D917C9150970B811C8129813A8129
S214002D70A101C2010E946301F401E680F780618927
S214002D8072890B811C8129813A81A101C2010E94AE
S214002D906301AE85BF8516968D919C9117971D96FB
S214002DA08D909C901E978114910409F481C0019621
S214002DB0F401268137818217930714F4868397835C
S214002DC0D2011896EC9118971996BC90D4011396D8
S214002DD02C911397AE2E1B2D110F110B30E040E0F7
S214002DE050E060E070E080E090E0C12ED12EE12E51
S214002DF0F12E012F0E94529D09F45AC08C9190E04A
S214002E0028163906B1F411968C91119790E0298115
S214002E103A812817390769F412968C9190E0AB81B5
S214002E20BC81A817B90729F4D20116968D929C92F8
S214002E301797D4011396EC9313971696ED90FC9083
S214002E4017971B966D917C911C970B811C8129818D
S214002E503A81A101C2010E946301F401E680F78075
S214002E60658576850B811C8129813A81A101C20185
S214002E700E946301D4011696ED90FC9017971F965A
S214002E806D917C9150970B811C8129813A81A1011B
S214002E90C2010E946301F401E680F78061897289AD
S214002EA00B811C8129813A81A101C2010E94630124
S214002EB0AE85BF8516968D919C9117971F968D901F
S214002EC09C9050978114910409F481C00196F401F6
S214002ED0268137818217930714F486839783D2015D
S214002EE01896EC9118971996BC90D40113962C91CD
S214002EF01397AE2E1B2D110F110B30E040E050E063
S214002F0060E070E080E090E0C12ED12EE12EF12E40
S214002F10012F0E94529D09F45AC08C9190E0281609
S214002F203906B1F411968C91119790E029813A8177
S214002F302817390769F412968C9190E0AB81BC8112
S214002F40A817B90729F4D20116968D929C92179766
S214002F50D4011396EC9313971696ED90FC90179762
S214002F601B966D917C911C970B811C8129813A815F
S214002F70A101C2010E946301F401E680F780658525
S214002F8076850B811C8129813A81A101C2010E94AC
S214002F906301D4011696ED90FC9017971F966D91DD
S214002FA07C9150970B811C8129813A81A101C20135
S214002FB00E946301F401E680F780618972890B81C3
S214002FC01C8129813A81A101C2010E946301AE855C
S214002FD0BF8516968D919C9117975196ED91FC9111
S214002FE05297EE87FF87309709F487C001962681AF
S214002FF037818217930714F486839783D201189635
S214003000EC9118971996BC90AE85BF8513962C91B7
S2140030101397AE2E1B2D110F110B30E040E050E041
S21400302060E070E080E090E0C12ED12EE12EF12E1F
S214003030012F0E94529D09F460C08C9190E02816E2
S2140030403906C1F411968C91119790E029813A8146
S2140030502817390779F412968C9190E0AB81BC81E1
S214003060A817B90739F42E853F85D20116962D93F9
S2140030703C931797AE85BF851396EC9313971696D9
S214003080ED90FC9017971B966D917C911C970B8189
S2140030901C8129813A81A101C2010E946301EE854B
S2140030A0FF85E680F780658576850B811C81298102
S2140030B03A81A101C2010E946301AE85BF851696C2
S2140030C0ED90FC9017971F966D917C9150970B8111
S2140030D01C8129813A81A101C2010E946301EE850B
S2140030E0FF85E680F780618972890B811C812981C2
S2140030F03A81A101C2010E946301D30116968D9107
S2140031009C9117971D96ED91FC911E97EE87FF8771
S214003110309709F48CC10196268137818217930770
S21400312014F486839783D2011896EC911897199613
S214003130BC90AE85BF8513962C911397AE2E1B2D93
S214003140110F110B30E040E050E060E070E080E0EE
S21400315090E0C12ED12EE12EF12E012F0E94529D1D
S21400316009F465C18C9190E028163906C1F41196D1
S2140031708C91119790E029813A812817390779F4C4
S21400318012968C9190E0AB81BC81A817B90739F4F0
S2140031902E853F85D20116962D933C931797AE85C4
S2140031A0BF851396EC9313971696ED90FC901797A1
S2140031B01B966D917C911C970B811C8129813A810D
S2140031C0A101C2010E946301EE85FF85E680F780BB
S2140031D0658576850B811C8129813A81A101C20112
S2140031E00E946301AE85BF8516968D919C911797B8
S2140031F01F968D909C9050978114910409F481C07D
S2140032000196F401268137818217930714F486838A
S2140032109783D2011896EC9118971996BC90D40112
S21400322013962C911397AE2E1B2D110F110B30E019
S21400323040E050E060E070E080E090E0C12ED12EEB
S214003240E12EF12E012F0E94529D09F45AC08C9156
S21400325090E028163906B1F411968C91119790E0FB
S21400326029813A812817390769F412968C9190E0E3
S214003270AB81BC81A817B90729F4D20116968D92A6
S2140032809C921797D4011396EC9313971696ED908D
S214003290FC9017971B966D917C911C970B811C8157
S2140032A029813A81A101C2010E946301F401E680EE
S2140032B0F780658576850B811C8129813A81A1017D
S2140032C0C2010E946301D4011696ED90FC901797F8
S2140032D01F966D917C9150970B811C8129813A81B4
S2140032E0A101C2010E946301F401E680F7806189B2
S2140032F072890B811C8129813A81A101C2010E9439
S2140033006301AE85BF8516968D919C911797519651
S214003310ED91FC915297EE87FF87309709F487C0AE
S2140033200196268137818217930714F48683978344
S214003330D2011896EC9118971996BC90AE85BF8569
S21400334013962C911397AE2E1B2D110F110B30E0F8
S21400335040E050E060E070E080E090E0C12ED12ECA
S214003360E12EF12E012F0E94529D09F460C08C912F
S21400337090E028163906C1F411968C91119790E0CA
S21400338029813A812817390779F412968C9190E0B2
S214003390AB81BC81A817B90739F42E853F85D201C9
S2140033A016962D933C931797AE85BF851396EC9390
S2140033B013971696ED90FC9017971B966D917C913F
S2140033C01C970B811C8129813A81A101C2010E94B0
S2140033D06301EE85FF85E680F780658576850B813F
S2140033E01C8129813A81A101C2010E946301AE8538
S2140033F0BF851696ED90FC9017971F966D917C9161
S21400340050970B811C8129813A81A101C2010E943B
S2140034106301EE85FF85E680F780618972890B81FE
S2140034201C8129813A81A101C2010E946301D30156
S21400343016968D919C9117971F96ED91FC9150973B
S214003440EE87FF87309709F48AC201962681378176
S2140034508217930714F486839783D2011896EC910B
S21400346018971996BC90AE85BF8513962C91139726
S214003470AE2E1B2D110F110B30E040E050E060E047
S21400348070E080E090E0C12ED12EE12EF12E012FCB
S2140034900E94529D09F463C28C9190E0281639066A
S2140034A0C1F411968C91119790E029813A812817E2
S2140034B0390779F412968C9190E0AB81BC81A817FD
S2140034C0B90739F42E853F85D20116962D933C9385
S2140034D01797AE85BF851396EC93139716968D9126
S2140034E09C9117971B968D909C901C978114910425
S2140034F009F481C00196F40126813781821793076B
S21400350014F486839783D2011896EC91189719962F
S214003510BC90D40113962C911397AE2E1B2D110F31
S214003520110B30E040E050E060E070E080E090E0BA
S214003530C12ED12EE12EF12E012F0E94529D09F4AC
S2140035405AC08C9190E028163906B1F411968C91E9
S214003550119790E029813A812817390769F4129665
S2140035608C9190E0AB81BC81A817B90729F4D201F1
S21400357016968D929C921797D4011396EC931397F8
S2140035801696ED90FC9017971B966D917C911C9764
S2140035900B811C8129813A81A101C2010E9463012D
S2140035A0F401E680F780658576850B811C8129818C
S2140035B03A81A101C2010E946301D4011696ED90E2
S2140035C0FC9017971F966D917C9150970B811C81EC
S2140035D029813A81A101C2010E946301F401E680BB
S2140035E0F780618972890B811C8129813A81A1014A
S2140035F0C2010E946301AE85BF8516968D919C918F
S21400360017971D968D909C901E978114910409F42F
S21400361081C00196F401268137818217930714F43E
S21400362086839783D2011896EC9118971996BC90CA
S214003630D40113962C911397AE2E1B2D110F110B40
S21400364030E040E050E060E070E080E090E0C12EC6
S214003650D12EE12EF12E012F0E94529D09F45AC060
S2140036608C9190E028163906B1F411968C9111973A
S21400367090E029813A812817390769F412968C91CF
S21400368090E0AB81BC81A817B90729F4D201169641
S2140036908D929C921797D4011396EC9313971696D7
S2140036A0ED90FC9017971B966D917C911C970B8163
S2140036B01C8129813A81A101C2010E946301F401A3
S2140036C0E680F780658576850B811C8129813A81A5
S2140036D0A101C2010E946301D4011696ED90FC90F0
S2140036E017971F966D917C9150970B811C812981AD
S2140036F03A81A101C2010E946301F401E680F780CD
S214003700618972890B811C8129813A81A101C201DC
S2140037100E946301AE85BF8516968D919C91179782
S2140037201F968D909C9050978114910409F481C047
S2140037300196F401268137818217930714F4868355
S2140037409783D2011896EC9118971996BC90D401DD
S21400375013962C911397AE2E1B2D110F110B30E0E4
S21400376040E050E060E070E080E090E0C12ED12EB6
S214003770E12EF12E012F0E94529D09F45AC08C9121
S21400378090E028163906B1F411968C91119790E0C6
S21400379029813A812817390769F412968C9190E0AE
S2140037A0AB81BC81A817B90729F4D20116968D9271
S2140037B09C921797D4011396EC9313971696ED9058
S2140037C0FC9017971B966D917C911C970B811C8122
S2140037D029813A81A101C2010E946301F401E680B9
S2140037E0F780658576850B811C8129813A81A10148
S2140037F0C2010E946301D4011696ED90FC901797C3
S2140038001F966D917C9150970B811C8129813A817E
S214003810A101C2010E946301F401E680F78061897C
S21400382072890B811C8129813A81A101C2010E9403
S2140038306301AE85BF8516968D919C91179751961C
S214003840ED91FC915297EE87FF87309709F487C079
S2140038500196268137818217930714F4868397830F
S214003860D2011896EC9118971996BC90AE85BF8534
S21400387013962C911397AE2E1B2D110F110B30E0C3
S21400388040E050E060E070E080E090E0C12ED12E95
S214003890E12EF12E012F0E94529D09F460C08C91FA
S2140038A090E028163906C1F411968C91119790E095
S2140038B029813A812817390779F412968C9190E07D
S2140038C0AB81BC81A817B90739F42E853F85D20194
S2140038D016962D933C931797AE85BF851396EC935B
S2140038E013971696ED90FC9017971B966D917C910A
S2140038F01C970B811C8129813A81A101C2010E947B
S2140039006301EE85FF85E680F780658576850B8109
S2140039101C8129813A81A101C2010E946301AE8502
S214003920BF851696ED90FC9017971F966D917C912B
S21400393050970B811C8129813A81A101C2010E9406
S2140039406301EE85FF85E680F780618972890B81C9
S2140039501C8129813A81A101C2010E946301D30121
S21400396016968D919C9117975196ED91FC915297D2
S214003970EE87FF87309709F48AC201962681378141
S2140039808217930714F486839783D2011896EC91D6
S21400399018971996BC90AE85BF8513962C911397F1
S2140039A0AE2E1B2D110F110B30E040E050E060E012
S2140039B070E080E090E0C12ED12EE12EF12E012F96
S2140039C00E94529D09F463C28C9190E02816390635
S2140039D0C1F411968C91119790E029813A812817AD
S2140039E0390779F412968C9190E0AB81BC81A817C8
S2140039F0B90739F42E853F85D20116962D933C9350
S214003A001797AE85BF851396EC93139716968D91F0
S214003A109C9117971B968D909C901C9781149104EF
S214003A2009F481C00196F401268137818217930735
S214003A3014F486839783D2011896EC9118971996FA
S214003A40BC90D40113962C911397AE2E1B2D110FFC
S214003A50110B30E040E050E060E070E080E090E085
S214003A60C12ED12EE12EF12E012F0E94529D09F477
S214003A705AC08C9190E028163906B1F411968C91B4
S214003A80119790E029813A812817390769F4129630
S214003A908C9190E0AB81BC81A817B90729F4D201BC
S214003AA016968D929C921797D4011396EC931397C3
S214003AB01696ED90FC9017971B966D917C911C972F
S214003AC00B811C8129813A81A101C2010E946301F8
S214003AD0F401E680F780658576850B811C81298157
S214003AE03A81A101C2010E946301D4011696ED90AD
S214003AF0FC9017971F966D917C9150970B811C81B7
S214003B0029813A81A101C2010E946301F401E68085
S214003B10F780618972890B811C8129813A81A10114
S214003B20C2010E946301AE85BF8516968D919C9159
S214003B3017971D968D909C901E978114910409F4FA
S214003B4081C00196F401268137818217930714F409
S214003B5086839783D2011896EC9118971996BC9095
S214003B60D40113962C911397AE2E1B2D110F110B0B
S214003B7030E040E050E060E070E080E090E0C12E91
S214003B80D12EE12EF12E012F0E94529D09F45AC02B
S214003B908C9190E028163906B1F411968C91119705
S214003BA090E029813A812817390769F412968C919A
S214003BB090E0AB81BC81A817B90729F4D20116960C
S214003BC08D929C921797D4011396EC9313971696A2
S214003BD0ED90FC9017971B966D917C911C970B812E
S214003BE01C8129813A81A101C2010E946301F4016E
S214003BF0E680F780658576850B811C8129813A8170
S214003C00A101C2010E946301D4011696ED90FC90BA
S214003C1017971F966D917C9150970B811C81298177
S214003C203A81A101C2010E946301F401E680F78097
S214003C30618972890B811C8129813A81A101C201A7
S214003C400E946301AE85BF8516968D919C9117974D
S214003C501F968D909C9050978114910409F481C012
S214003C600196F401268137818217930714F4868320
S214003C709783D2011896EC9118971996BC90D401A8
S214003C8013962C911397AE2E1B2D110F110B30E0AF
S214003C9040E050E060E070E080E090E0C12ED12E81
S214003CA0E12EF12E012F0E94529D09F45AC08C91EC
S214003CB090E028163906B1F411968C91119790E091
S214003CC029813A812817390769F412968C9190E079
S214003CD0AB81BC81A817B90729F4D20116968D923C
S214003CE09C921797D4011396EC9313971696ED9023
S214003CF0FC9017971B966D917C911C970B811C81ED
S214003D0029813A81A101C2010E946301F401E68083
S214003D10F780658576850B811C8129813A81A10112
S214003D20C2010E946301D4011696ED90FC9017978D
S214003D301F966D917C9150970B811C8129813A8149
S214003D40A101C2010E946301F401E680F780618947
S214003D5072890B811C8129813A81A101C2010E94CE
S214003D606301AE85BF8516968D919C9117975196E7
S214003D70ED91FC915297EE87FF87309709F487C044
S214003D800196268137818217930714F486839783DA
S214003D90D2011896EC9118971996BC90AE85BF85FF
S214003DA013962C911397AE2E1B2D110F110B30E08E
S214003DB040E050E060E070E080E090E0C12ED12E60
S214003DC0E12EF12E012F0E94529D09F460C08C91C5
S214003DD090E028163906C1F411968C91119790E060
S214003DE029813A812817390779F412968C9190E048
S214003DF0AB81BC81A817B90739F42E853F85D2015F
S214003E0016962D933C931797AE85BF851396EC9325
S214003E1013971696ED90FC9017971B966D917C91D4
S214003E201C970B811C8129813A81A101C2010E9445
S214003E306301EE85FF85E680F780658576850B81D4
S214003E401C8129813A81A101C2010E946301AE85CD
S214003E50BF851696ED90FC9017971F966D917C91F6
S214003E6050970B811C8129813A81A101C2010E94D1
S214003E706301EE85FF85E680F780618972890B8194
S214003E801C8129813A81A101C2010E946301AD8192
S214003E90BE8116968D919C9117975196ED91FC9147
S214003EA05297ED83FE83309709F489C601962681E2
S214003EB037818217930714F486839783D201189666
S214003EC0EC9118971996BC90AD81BE8113962C91F3
S214003ED01397AE2E1B2D110F110B30E040E050E073
S214003EE060E070E080E090E0C12ED12EE12EF12E51
S214003EF0012F0E94529D09F462C68C9190E028160C
S214003F003906C1F411968C91119790E029813A8177
S214003F102817390779F412968C9190E0AB81BC8112
S214003F20A817B90739F42D813E81D20116962D9334
S214003F303C931797AD81BE811396EC931397169614
S214003F408D919C9117971B968D909C901C97811431
S214003F50910409F481C00196F40126813781821705
S214003F60930714F486839783D2011896EC911897DA
S214003F701996BC90D40113962C911397AE2E1B2D38
S214003F80110F110B30E040E050E060E070E080E0A0
S214003F9090E0C12ED12EE12EF12E012F0E94529DCF
S214003FA009F45AC08C9190E028163906B1F411969F
S214003FB08C91119790E029813A812817390769F486
S214003FC012968C9190E0AB81BC81A817B90729F4B2
S214003FD0D20116968D929C921797D4011396EC9365
S214003FE013971696ED90FC9017971B966D917C9103
S214003FF01C970B811C8129813A81A101C2010E9474
S2140040006301F401E680F780658576850B811C8167
S21400401029813A81A101C2010E946301D40116964A
S214004020ED90FC9017971F966D917C9150970B81A1
S2140040301C8129813A81A101C2010E946301F40119
S214004040E680F780618972890B811C8129813A811B
S214004050A101C2010E946301AD81BE8116968D91B9
S2140040609C9117971D968D909C901E978114910495
S21400407009F47DC20196F4012681378182179307E1
S21400408014F486839783D2011896EC9118971996A4
S214004090BC90D40113962C911397AE2E1B2D110FA6
S2140040A0110B30E040E050E060E070E080E090E02F
S2140040B0C12ED12EE12EF12E012F0E94529D09F421
S2140040C056C28C9190E028163906B1F411968C9160
S2140040D0119790E029813A812817390769F41296DA
S2140040E08C9190E0AB81BC81A817B90729F4D20166
S2140040F016968D929C921797D4011396EC9313976D
S21400410016968D919C9117971B966D907C901C9798
S2140041106114710409F481C00196F3012681378188
S2140041208217930714F486839783D2011896EC912E
S21400413018971996BC90D30113962C911397AE2E10
S2140041401B2D110F110B30E040E050E060E070E0F6
S21400415080E090E0C12ED12EE12EF12E012F0E949C
S214004160529D09F45AC08C9190E028163906B1F495
S21400417011968C91119790E029813A81281739077A
S21400418069F412968C9190E0AB81BC81A817B907B0
S21400419029F4D20116966D927C921797D301139646
S2140041A0EC9313971696ED90FC9017971B966D91CF
S2140041B07C911C970B811C8129813A81A101C20147
S2140041C00E946301F301E680F780658576850B81A2
S2140041D01C8129813A81A101C2010E946301D30199
S2140041E01696ED90FC9017971F966D917C915097C0
S2140041F00B811C8129813A81A101C2010E946301C1
S214004200F301E680F780618972890B811C81298120
S2140042103A81A101C2010E946301D40116968D91D4
S2140042209C9117971D966D907C901E976114710453
S21400423009F481C00196F30126813781821793071E
S21400424014F486839783D2011896EC9118971996E2
S214004250BC90D30113962C911397AE2E1B2D110FE5
S214004260110B30E040E050E060E070E080E090E06D
S214004270C12ED12EE12EF12E012F0E94529D09F45F
S2140042805AC08C9190E028163906B1F411968C919C
S214004290119790E029813A812817390769F4129618
S2140042A08C9190E0AB81BC81A817B90729F4D201A4
S2140042B016966D927C921797D3011396EC931397EC
S2140042C01696ED90FC9017971B966D917C911C9717
S2140042D00B811C8129813A81A101C2010E946301E0
S2140042E0F301E680F780658576850B811C81298140
S2140042F03A81A101C2010E946301D3011696ED9096
S214004300FC9017971F966D917C9150970B811C819E
S21400431029813A81A101C2010E946301F301E6806E
S214004320F780618972890B811C8129813A81A101FC
S214004330C2010E946301D40116968D919C91179735
S2140043401F966D907C9050976114710409F481C09B
S2140043500196F301268137818217930714F486832A
S2140043609783D2011896EC9118971996BC90D301B2
S21400437013962C911397AE2E1B2D110F110B30E0B8
S21400438040E050E060E070E080E090E0C12ED12E8A
S214004390E12EF12E012F0E94529D09F45AC08C91F5
S2140043A090E028163906B1F411968C91119790E09A
S2140043B029813A812817390769F412968C9190E082
S2140043C0AB81BC81A817B90729F4D20116966D9265
S2140043D07C921797D3011396EC9313971696ED904D
S2140043E0FC9017971B966D917C911C970B811C81F6
S2140043F029813A81A101C2010E946301F301E6808E
S214004400F780658576850B811C8129813A81A1011B
S214004410C2010E946301D3011696ED90FC90179797
S2140044201F966D917C9150970B811C8129813A8152
S214004430A101C2010E946301F301E680F780618951
S21400444072890B811C8129813A81A101C2010E94D7
S2140044506301D40116968D919C91179751968D9075
S2140044609C9052978114910409F481C00196F4013E
S214004470268137818217930714F486839783D201A7
S2140044801896EC9118971996BC90D40113962C9117
S2140044901397AE2E1B2D110F110B30E040E050E0AD
S2140044A060E070E080E090E0C12ED12EE12EF12E8B
S2140044B0012F0E94529D09F45AC08C9190E0281654
S2140044C03906B1F411968C91119790E029813A81C2
S2140044D02817390769F412968C9190E0AB81BC815D
S2140044E0A817B90729F4D20116968D929C921797B1
S2140044F0D4011396EC9313971696ED90FC901797AD
S2140045001B966D917C911C970B811C8129813A81A9
S214004510A101C2010E946301F401E680F78065856F
S21400452076850B811C8129813A81A101C2010E94F6
S2140045306301D4011696ED90FC9017971F966D9127
S2140045407C9150970B811C8129813A81A101C2017F
S2140045500E946301F401E680F780618972890B810D
S2140045601C8129813A81A101C2010E946301AD81AB
S214004570BE8116968D919C9117971F968D909C9054
S21400458050978114910409F481C00196F4012681A4
S21400459037818217930714F486839783D20118967F
S2140045A0EC9118971996BC90D40113962C911397FA
S2140045B0AE2E1B2D110F110B30E040E050E060E0F6
S2140045C070E080E090E0C12ED12EE12EF12E012F7A
S2140045D00E94529D09F45AC08C9190E02816390624
S2140045E0B1F411968C91119790E029813A812817A1
S2140045F0390769F412968C9190E0AB81BC81A817BC
S214004600B90729F4D20116968D929C921797D40179
S2140046101396EC9313971696ED90FC9017971B96AF
S2140046206D917C911C970B811C8129813A81A10197
S214004630C2010E946301F401E680F78065857685F5
S2140046400B811C8129813A81A101C2010E9463016C
S214004650D4011696ED90FC9017971F966D917C915D
S21400466050970B811C8129813A81A101C2010E94C9
S2140046706301F401E680F780618972890B811C81F1
S21400468029813A81A101C2010E946301AD81BE81E8
S21400469016968D919C9117975196ED91FC91529795
S2140046A0ED83FE83309709F48AC20196268137810E
S2140046B08217930714F486839783D2011896EC9199
S2140046C018971996BC90AD81BE8113962C911397BE
S2140046D0AE2E1B2D110F110B30E040E050E060E0D5
S2140046E070E080E090E0C12ED12EE12EF12E012F59
S2140046F00E94529D09F463C28C9190E028163906F8
S214004700C1F411968C91119790E029813A8128176F
S214004710390779F412968C9190E0AB81BC81A8178A
S214004720B90739F42D813E81D20116962D933C931C
S2140047301797AD81BE811396EC93139716968D91BD
S2140047409C9117971B968D909C901C9781149104B2
S21400475009F481C00196F4012681378182179307F8
S21400476014F486839783D2011896EC9118971996BD
S214004770BC90D40113962C911397AE2E1B2D110FBF
S214004780110B30E040E050E060E070E080E090E048
S214004790C12ED12EE12EF12E012F0E94529D09F43A
S2140047A05AC08C9190E028163906B1F411968C9177
S2140047B0119790E029813A812817390769F41296F3
S2140047C08C9190E0AB81BC81A817B90729F4D2017F
S2140047D016968D929C921797D4011396EC93139786
S2140047E01696ED90FC9017971B966D917C911C97F2
S2140047F00B811C8129813A81A101C2010E946301BB
S214004800F401E680F780658576850B811C81298119
S2140048103A81A101C2010E946301D4011696ED906F
S214004820FC9017971F966D917C9150970B811C8179
S21400483029813A81A101C2010E946301F401E68048
S214004840F780618972890B811C8129813A81A101D7
S214004850C2010E946301AD81BE8116968D919C9126
S21400486017971D968D909C901E978114910409F4BD
S21400487081C00196F401268137818217930714F4CC
S21400488086839783D2011896EC9118971996BC9058
S214004890D40113962C911397AE2E1B2D110F110BCE
S2140048A030E040E050E060E070E080E090E0C12E54
S2140048B0D12EE12EF12E012F0E94529D09F45AC0EE
S2140048C08C9190E028163906B1F411968C911197C8
S2140048D090E029813A812817390769F412968C915D
S2140048E090E0AB81BC81A817B90729F4D2011696CF
S2140048F08D929C921797D4011396EC931397169665
S214004900ED90FC9017971B966D917C911C970B81F0
S2140049101C8129813A81A101C2010E946301F40130
S214004920E680F780658576850B811C8129813A8132
S214004930A101C2010E946301D4011696ED90FC907D
S21400494017971F966D917C9150970B811C8129813A
S2140049503A81A101C2010E946301F401E680F7805A
S214004960618972890B811C8129813A81A101C2016A
S2140049700E946301AD81BE8116968D919C9117971A
S2140049801F968D909C9050978114910409F481C0D5
S2140049900196F401268137818217930714F48683E3
S2140049A09783D2011896EC9118971996BC90D4016B
S2140049B013962C911397AE2E1B2D110F110B30E072
S2140049C040E050E060E070E080E090E0C12ED12E44
S2140049D0E12EF12E012F0E94529D09F45AC08C91AF
S2140049E090E028163906B1F411968C91119790E054
S2140049F029813A812817390769F412968C9190E03C
S214004A00AB81BC81A817B90729F4D20116968D92FE
S214004A109C921797D4011396EC9313971696ED90E5
S214004A20FC9017971B966D917C911C970B811C81AF
S214004A3029813A81A101C2010E946301F401E68046
S214004A40F780658576850B811C8129813A81A101D5
S214004A50C2010E946301D4011696ED90FC90179750
S214004A601F966D917C9150970B811C8129813A810C
S214004A70A101C2010E946301F401E680F78061890A
S214004A8072890B811C8129813A81A101C2010E9491
S214004A906301AD81BE8116968D919C9117975196B4
S214004AA0ED91FC915297ED83FE83309709F487C011
S214004AB00196268137818217930714F4868397839D
S214004AC0D2011896EC9118971996BC90AD81BE81CC
S214004AD013962C911397AE2E1B2D110F110B30E051
S214004AE040E050E060E070E080E090E0C12ED12E23
S214004AF0E12EF12E012F0E94529D09F460C08C9188
S214004B0090E028163906C1F411968C91119790E022
S214004B1029813A812817390779F412968C9190E00A
S214004B20AB81BC81A817B90739F42D813E81D2012B
S214004B3016962D933C931797AD81BE811396EC93F2
S214004B4013971696ED90FC9017971B966D917C9197
S214004B501C970B811C8129813A81A101C2010E9408
S214004B606301ED81FE81E680F780658576850B81A1
S214004B701C8129813A81A101C2010E946301AD8195
S214004B80BE811696ED90FC9017971F966D917C91BE
S214004B9050970B811C8129813A81A101C2010E9494
S214004BA06301ED81FE81E680F780618972890B8161
S214004BB01C8129813A81A101C2010E946301D201B0
S214004BC018968D919C9119970196817090789923EB
S214004BD024F401978E6F9F6F01969C01F2018087E7
S214004BE091870680F781E02D309709F0A0C04091AC
S214004BF0DA245091DB24493F51050CF0A3C0AF8165
S214004C00B88512966C91129711967C911197AC917B
S214004C104F5F5F4F4093DA245093DB2485E1849FF7
S214004C20F001859FF00D1124E852FB4D88EE93E0CD
S214004C3084879587828793878B859C858A0F911DAD
S214004C40848389859A85870F911D858366832F5F68
S214004C503F4F21703078332334F4215031092E6FC2
S214004C603F6F2F5F3F4F278385E1849FF001859F2D
S214004C70F00D1124E852FB4D11861686EF81F8855B
S214004C80EF2B09F45FC0849FF001859FF00D11247F
S214004C90E452FB4DAF81B8851B968D919C911C9775
S214004CA0009761F08E179F0709F447C01D9621E014
S214004CB030E08D919D91009771F402C020E030E0C5
S214004CC0220F331FAF81B885A20FB31F1B96ED933B
S214004CD0FC931C9732C08E179F0779F12F5F3F4FCA
S214004CE02430310531F729C02F8138852817390738
S214004CF049F1DF011D9681E090E0A9012D913D91DB
S214004D002115310561F402C080E090E0880F991FFC
S214004D10E80FF91F8F8198858387948713C0421701
S214004D20530781F001968430910541F70BC0AF819F
S214004D30B885AB2B09F0AECF05C083859485009768
S214004D4099F6E2CF2F96CDBFDEBFDF91CF911F91B0
S214004D500F91FF90EF90DF90CF90BF90AF909F9015
S214004D608F907F906F905F904F903F902F90089518
S214004D702F923F924F925F926F927F928F929F9266
S214004D80AF92BF92CF92DF92EF92FF920F931F9354
S214004D90CF93DF93CDB7DEB72A97CDBFDEBF240F04
S214004DA0351F2D5F3F4F23703078332334F4215066
S214004DB031092C6F3F6F2F5F3F4F6115710511F45E
S214004DC00C94E14609871A87DB012C0112966C9039
S214004DD0129711967C901197220F331F220F331FC4
S214004DE0255A3F4DF90182809380BC910190F08155
S214004DF0E02DEF83F887FC0116821782228133812B
S214004E002D833E83F90186819781309711F40C94A7
S214004E10CD469C012F5F3F4F2817390714F4268391
S214004E203783F201A085B184ED81FE812381AA2E0D
S214004E301B2D110F110B30E040E050E060E070E0F9
S214004E4080E090E0C12ED12EE12EF12E012F0E949F
S214004E50529D11F40C94CD46262D30E02B833C83D6
S214004E60E985FA858E9EC0018F9E900D9E9E900DC0
S214004E7011249C01270D311D29833A838F81988543
S214004E80E89F1001E99F300CF89F300C11242B0E80
S214004E90311CED81FE81808190E02816390681F470
S214004EA0818190E02817390759F4828190E02B81A0
S214004EB03C812817390721F49F01F20126833783A6
S214004EC0ED81FE81A3838681978163847484611457
S214004ED0710411F40C94A42F0196D30116962D910B
S214004EE03C9117978217930724F416968D939C93FC
S214004EF01797D2011896EC9118971996BC90D30183
S214004F0013962C911397AE2E1B2D110F110B30E01C
S214004F1040E050E060E070E080E090E0C12ED12EEE
S214004F20E12EF12E012F0E94529D11F40C94A42F15
S214004F308C9190E028163906B1F411968C91119751
S214004F4090E029813A812817390769F412968C91E6
S214004F5090E0AB81BC81A817B90729F4D201169658
S214004F606D927C921797D3011396EC93139716962F
S214004F708D919C9117971B968D909C901C978114F1
S214004F80910409F499C20196F401268137818217AB
S214004F90930714F486839783D2011896EC9118979A
S214004FA01996BC90D40113962C911397AE2E1B2DF8
S214004FB0110F110B30E040E050E060E070E080E060
S214004FC090E0C12ED12EE12EF12E012F0E94529D8F
S214004FD009F472C28C9190E028163906B1F4119645
S214004FE08C91119790E029813A812817390769F446
S214004FF012968C9190E0AB81BC81A817B90729F472
S214005000D20116968D929C921797D4011396EC9324
S214005010139716968D919C9117971B96ED91FC9180
S2140050201C97EF83F887309709F487C0019626818E
S21400503037818217930714F486839783D2011896D4
S214005040EC9118971996BC90AF81B88513962C9161
S2140050501397AE2E1B2D110F110B30E040E050E0E1
S21400506060E070E080E090E0C12ED12EE12EF12EBF
S214005070012F0E94529D09F460C08C9190E0281682
S2140050803906C1F411968C91119790E029813A81E6
S2140050902817390779F412968C9190E0AB81BC8181
S2140050A0A817B90739F42F813885D20116962D93A3
S2140050B03C931797AF81B8851396EC931397169683
S2140050C0ED90FC9017971B966D917C911C970B8129
S2140050D01C8129813A81A101C2010E946301EF81EE
S2140050E0F885E680F780658576850B811C812981A9
S2140050F03A81A101C2010E946301AF81B88516966C
S214005100ED90FC9017971F966D917C9150970B81B0
S2140051101C8129813A81A101C2010E946301EF81AD
S214005120F885E680F780618972890B811C81298168
S2140051303A81A101C2010E946301D40116968D91A5
S2140051409C9117971D96ED91FC911E97EF83F8871B
S214005150309709F487C00196268137818217930716
S21400516014F486839783D2011896EC9118971996B3
S214005170BC90AF81B88513962C911397AE2E1B2D3D
S214005180110F110B30E040E050E060E070E080E08E
S21400519090E0C12ED12EE12EF12E012F0E94529DBD
S2140051A009F460C08C9190E028163906C1F4119677
S2140051B08C91119790E029813A812817390779F464
S2140051C012968C9190E0AB81BC81A817B90739F490
S2140051D02F813885D20116962D933C931797AF8171
S2140051E0B8851396EC9313971696ED90FC90179748
S2140051F01B966D917C911C970B811C8129813A81AD
S214005200A101C2010E946301EF81F885E680F78064
S214005210658576850B811C8129813A81A101C201B1
S2140052200E946301AF81B8851696ED90FC901797A3
S2140052301F966D917C9150970B811C8129813A8134
S214005240A101C2010E946301EF81F885E680F78024
S214005250618972890B811C8129813A81A101C20171
S2140052600E946301D40116968D919C9117971F9604
S214005270ED91FC915097EF83F887309709F487C03B
S2140052800196268137818217930714F486839783C5
S214005290D2011896EC9118971996BC90AF81B885F4
S2140052A013962C911397AE2E1B2D110F110B30E079
S2140052B040E050E060E070E080E090E0C12ED12E4B
S2140052C0E12EF12E012F0E94529D09F460C08C91B0
S2140052D090E028163906C1F411968C91119790E04B
S2140052E029813A812817390779F412968C9190E033
S2140052F0AB81BC81A817B90739F42F813885D20154
S21400530016962D933C931797AF81B8851396EC931A
S21400531013971696ED90FC9017971B966D917C91BF
S2140053201C970B811C8129813A81A101C2010E9430
S2140053306301EF81F885E680F780658576850B81C9
S2140053401C8129813A81A101C2010E946301AF81BB
S214005350B8851696ED90FC9017971F966D917C91E8
S21400536050970B811C8129813A81A101C2010E94BC
S2140053706301EF81F885E680F780618972890B8189
S2140053801C8129813A81A101C2010E946301D401D6
S21400539016968D919C9117975196ED91FC91529788
S2140053A0EF83F887309709F487C001962681378106
S2140053B08217930714F486839783D2011896EC918C
S2140053C018971996BC90AF81B88513962C911397B1
S2140053D0AE2E1B2D110F110B30E040E050E060E0C8
S2140053E070E080E090E0C12ED12EE12EF12E012F4C
S2140053F00E94529D09F460C08C9190E028163906F0
S214005400C1F411968C91119790E029813A81281762
S214005410390779F412968C9190E0AB81BC81A8177D
S214005420B90739F42F813885D20116962D933C930F
S2140054301797AF81B8851396EC9313971696ED9051
S214005440FC9017971B966D917C911C970B811C8185
S21400545029813A81A101C2010E946301EF81F8858A
S214005460E680F780658576850B811C8129813A81E7
S214005470A101C2010E946301AF81B8851696ED9026
S214005480FC9017971F966D917C9150970B811C810D
S21400549029813A81A101C2010E946301EF81F8854A
S2140054A0E680F780618972890B811C8129813A81A7
S2140054B0A101C2010E946301D30116968D919C91B1
S2140054C017971D96ED91FC911E97EF83F8873097FE
S2140054D009F40DC20196268137818217930714F4CA
S2140054E086839783D2011896EC9118971996BC90EC
S2140054F0AF81B88513962C911397AE2E1B2D110FE6
S214005500110B30E040E050E060E070E080E090E0BA
S214005510C12ED12EE12EF12E012F0E94529D09F4AC
S214005520E6C18C9190E028163906C1F411968C914C
S214005530119790E029813A812817390779F4129655
S2140055408C9190E0AB81BC81A817B90739F42F8104
S2140055503885D20116962D933C931797AF81B88560
S2140055601396EC9313971696ED90FC9017971B9650
S2140055706D917C911C970B811C8129813A81A10138
S214005580C2010E946301EF81F88586819781858438
S21400559096848114910409F485C00196D401169668
S2140055A02D913C9117978217930724F416968D93A6
S2140055B09C931797D2011896EC9118971996BC9061
S2140055C0D40113962C911397AE2E1B2D110F110B91
S2140055D030E040E050E060E070E080E090E0C12E17
S2140055E0D12EE12EF12E012F0E94529D09F45AC0B1
S2140055F08C9190E028163906B1F411968C9111978B
S21400560090E029813A812817390769F412968C911F
S21400561090E0AB81BC81A817B90729F4D201169691
S2140056208D929C921797D4011396EC931397169627
S214005630ED90FC9017971B966D917C911C970B81B3
S2140056401C8129813A81A101C2010E946301F401F3
S214005650E680F780658576850B811C8129813A81F5
S214005660A101C2010E946301D4011696ED90FC9040
S21400567017971F966D917C9150970B811C812981FD
S2140056803A81A101C2010E946301F401E680F7801D
S214005690618972890B811C8129813A81A101C2012D
S2140056A00E946301AF81B88516968D919C911797DD
S2140056B01F968D909C9050978114910409F481C098
S2140056C00196F401268137818217930714F48683A6
S2140056D09783D2011896EC9118971996BC90D4012E
S2140056E013962C911397AE2E1B2D110F110B30E035
S2140056F040E050E060E070E080E090E0C12ED12E07
S214005700E12EF12E012F0E94529D09F45AC08C9171
S21400571090E028163906B1F411968C91119790E016
S21400572029813A812817390769F412968C9190E0FE
S214005730AB81BC81A817B90729F4D20116968D92C1
S2140057409C921797D4011396EC9313971696ED90A8
S214005750FC9017971B966D917C911C970B811C8172
S21400576029813A81A101C2010E946301F401E68009
S214005770F780658576850B811C8129813A81A10198
S214005780C2010E946301D4011696ED90FC90179713
S2140057901F966D917C9150970B811C8129813A81CF
S2140057A0A101C2010E946301F401E680F7806189CD
S2140057B072890B811C8129813A81A101C2010E9454
S2140057C06301AF81B88516968D919C911797519677
S2140057D0ED91FC915297EF83F887309709F487C0D4
S2140057E00196268137818217930714F48683978360
S2140057F0D2011896EC9118971996BC90AF81B8858F
S21400580013962C911397AE2E1B2D110F110B30E013
S21400581040E050E060E070E080E090E0C12ED12EE5
S214005820E12EF12E012F0E94529D09F460C08C914A
S21400583090E028163906C1F411968C91119790E0E5
S21400584029813A812817390779F412968C9190E0CD
S214005850AB81BC81A817B90739F42F813885D201EE
S21400586016962D933C931797AF81B8851396EC93B5
S21400587013971696ED90FC9017971B966D917C915A
S2140058801C970B811C8129813A81A101C2010E94CB
S2140058906301EF81F885E680F780658576850B8164
S2140058A01C8129813A81A101C2010E946301AF8156
S2140058B0B8851696ED90FC9017971F966D917C9183
S2140058C050970B811C8129813A81A101C2010E9457
