S00E0000417175696C612E73726563B9
S11300000C9458010C948E010C948E010C948E0166
S11300100C948E010C948E010C948E010C948E0120
S11300200C948E010C948E010C948E010C948E0110
S11300300C948E010C948E010C948E010C948E0100
S11300400C948E010C948E010C948E010C948E01F0
S11300500C948E010C948E010C948E010C948E01E0
S11300600C948E010C948E010C948E010C948E01D0
S11300700C948E010C948E010C948E010C948E01C0
S11300800C948E010C948E010C948E010C948E01B0
S11300900C948E010C948E010C948E010C948E01A0
S11300A00C948E010C948E010C948E010C948E0190
S11300B00C948E010C948E010C948E010C948E0180
S11300C00C948E010C948E010C948E010C948E0170
S11300D00C948E010C948E010C948E010C948E0160
S11300E00C948E010C948E010C948E010C948E0150
S11300F00C948E010C948E010C948E010C948E0140
S11301000C948E010C948E010C948E010C948E012F
S11301100C948E010C948E010C948E010C948E011F
S11301200C948E010C948E010C948E010C948E010F
S11301300C948E010C94830A0C948E010C948E0101
S11301400C948E010C948E010C948E010C948E01EF
S11301500C948E010C948E010C948E010C948E01DF
S11301600C948E010C948E010C948E010C948E01CF
S11301700C948E010C948E010C948E010C948E01BF
S11301800C948E010C948E010C948E010C948E01AF
S11301900C948E010C948E010C948E010C948E019F
S11301A00C948E010C948E010C948E010C948E018F
S11301B00C948E010C948E010C948E010C948E017F
S11301C00C948E010C948E010C948E010C948E016F
S11301D00C948E010C948E010C948E010C948E015F
S11301E00C948E010C948E010C948E010C948E014F
S11301F00C948E010C948E010C948E01A00D910D23
S11302007C0D670D520D3D0D280D130DFE0CE90CF0
S113021008000000BE922449123EABAAAA2ABECD11
S1130220CCCC4C3E00000080BEABAAAAAA3E000083
S11302300000BF000000803F00000000000841787B
S1130240D3BB4387D1133D190E3CC3BD4282AD2BB2
S11302503E68EC8276BED98FE1A93E4C80EFFFBEAA
S113026001C4FF7F3F00000000000C94FE0C0C94BE
S1130270E90C0C94670D0C941A0A0C94A00D0C94C0
S11302807C0D0C94280D0C94130D0C94CE010C943D
S1130290E6040C94910D0C94060B0C94520D0C94E2
S11302A0E5080C943D0DCE01E604E5081A0A060B98
S11302B011241FBECFEFCDBFDFE3DEBF00E00CBFD4
S11302C018BE19BE1ABE1BBE11E2A0E0B0E2E4E6FD
S11302D0F2E200E00BBF02C007900D92A637B1070F
S11302E0D9F71BBE2BE3A6E7B1E201C01D92A331EF
S11302F0B207E1F711E0C8E5D1E000E006C02197BC
S11303000109802FFE010E941811C335D10780E036
S11303100807A9F70E9490010C9430110C94000076
S11303200E9425050E94EF082FEF87E893E12150F2
S113033080409040E1F700C000006FE370E280EB82
S113034094E00E94870781E00E9440080E94E90728
S113035065E470E280EB94E00E9487070E94E9075D
S11303606CE470E286E791E20E94230C80E293E061
S11303700E949E0A81E00E94D00560E087E00E940E
S1130380320580E00E9495052FEF89EF90E021501F
S113039080409040E1F700C00000ECCFCF93DF93A2
S11303A0E4E7F5E266EF79E324E641E088EE93E0E2
S11303B038E02083218342838683978380879187D3
S11303C01286DF011B96ED01532F19925A95E9F716
S11303D0138A148A7596E617F70759F78AEFE6EF3A
S11303E0F9E3DF011D928A95E9F7E0E7F5E210826F
S11303F0118281E090E08283938388EE93E081A36D
S113040092A3878F90A384E6818F828F81E0838F6C
S1130410848F168E13A2EAE7F1E289E895E28083DD
S113042091831086118616821782828393831482A5
S1130430158240E456E060EA78E086E791E20E94A3
S1130440F70BDF91CF9108950F931F93CF93DF9311
S1130450C82F61E082E00E94D10A61E084E00E943A
S1130460D10A61E081E00E94D10A28E2C29F8001A2
S1130470112420E030E0E0E2F7E0D1E0CEE0B2E0A9
S1130480ADE074E06BE058E047E0D583C6838FE7C6
S11304909EE30197F1F700C00000B583A6838FE7C0
S11304A09EE30197F1F700C00000758366838FE730
S11304B09EE30197F1F700C00000558346838FE760
S11304C09EE30197F1F700C000002F5F3F4F021732
S11304D01307DCF68FE08093260760E082E00E9439
S11304E0D10A60E084E00E94D10A60E081E00E94C9
S11304F0D10A61E081E00E94DF0ACBE0D0E063E052
S113050081E00E94DF0A64E082E00E94DF0A80E268
S113051093E00E949E0A9FEF2BE48DE191502040CE
S11305208040E1F700C00000219749F760E081E0D6
S11305300E94DF0A60E082E00E94DF0ADF91CF912F
S11305401F910F91089587E08093A106089520E0FC
S113055030E060E070E0E0EAF6E092E0A1E0B0E0D4
S113056095838AE08A95F1F700C0408543FF09C06E
S1130570AD01022E02C0440F551F0A94E2F7640F26
S1130580751F96838AE08A95F1F700C02F5F3F4F6D
S11305902C30310529F780E28A95F1F7CB010895D3
S11305A01F93CF93DF931092F43A1092F53A10927E
S11305B0F23A1092F33A1092F03A1092F13AC0EAF9
S11305C0D6E08FE08E838FE79EE30197F1F700C0BA
S11305D0000081E08D8314E01D839FEF23EF81E011
S11305E0915020408040E1F700C000001E839AE251
S11305F09A95F1F700C00E94A7028093F43A909371
S1130600F53A0E94A7028093F23A9093F33A0E943B
S1130610A7028093F03A9093F13A1D83DF91CF9132
S11306201F9108950E94D0022091F03A3091F13A3E
S11306308091F23A9091F33A280F391F8091F43A5D
S11306409091F53A280F391F81E02C3B324008F095
S113065080E008951F93CF93DF93182FEB0140E0C0
S113066060EA86EF9AE30E947B0B612F70E086EFCD
S11306709AE30E94A90B41E060EA86EF9AE30E94A4
S11306807B0B61E086EF9AE30E94CD0B90E08883B8
S1130690998360E086EF9AE30E94CD0B90E08A8311
S11306A09B8386EF9AE30E94E50BDF91CF911F9124
S11306B008954F925F926F927F928F929F92AF9222
S11306C0BF92CF92DF92EF92FF92CF93DF9300D04D
S11306D01F92CDB7DEB7BE016F5F7F4F84E30E94E8
S11306E02A0360E070E07B8189819A81682B792BF1
S11306F0072E000C880B990B0E94D90E20E030E0E5
S113070040E058E30E94431020E030E040E851E428
S11307100E9443102DEC3CEC4CE151E40E94431048
S11307204B015C01BE016F5F7F4F85E30E942A038A
S113073060E070E07B8189819A81682B792B072E98
S1130740000C880B990B0E94D90E20E030E040E0A9
S113075058E30E94431020E030E040E851E40E9456
S113076043102DEC3CEC4CE151E40E9443106B012E
S11307707C01BE016F5F7F4F86E30E942A0360E025
S113078070E07B8189819A81682B792B072E000C7C
S1130790880B990B0E94D90E20E030E040E058E32A
S11307A00E94431020E030E040E851E40E944310EE
S11307B02DEC3CEC4CE151E40E9443102B013C0134
S11307C065E570E286E791E20E94230CB501A4017D
S11307D086E791E20E94B00D68E570E286E791E257
S11307E00E94230CB701A60186E791E20E94B00D96
S11307F06BE570E286E791E20E94230CB301A2014B
S113080086E791E20E94B00D2496CDBFDEBFDF9152
S1130810CF91FF90EF90DF90CF90BF90AF909F90DB
S11308208F907F906F905F904F900895CF93DF9358
S113083000D01F92CDB7DEB7BE016F5F7F4F80E35C
S11308400E942A0349815A81052E000C660B770BFE
S113085086E791E20E94A50C6EE570E286E791E2DC
S11308600E94230C4B815C81052E000C660B770BD8
S113087086E791E20E94A50C62E670E286E791E2C7
S11308800E94230CBE016F5F7F4F81E30E942A0305
S113089049815A81052E000C660B770B86E791E29D
S11308A00E94A50C66E670E286E791E20E94230CA2
S11308B04B815C81052E000C660B770B86E791E279
S11308C00E94A50C6AE670E286E791E20E94230C7E
S11308D0BE016F5F7F4F82E30E942A0349815A81E0
S11308E0052E000C660B770B86E791E20E94A50C9F
S11308F06EE670E286E791E20E94230C4B815C81F4
S1130900052E000C660B770B86E791E20E94A50C7E
S113091062E770E286E791E20E94230CBE016F5FFA
S11309207F4F83E30E942A0340E050E05B8189818A
S11309309A81482B592B052E000C660B770B86E702
S113094091E20E94A50C66E770E286E791E20E94BC
S1130950230C2496CDBFDEBFDF91CF910895CF93B2
S1130960DF9300D01F92CDB7DEB7BE016F5F7F4F1C
S11309708FE30E942A0360E070E07B8189819A8181
S1130980682B792B072E000C880B990B0E94D90E2B
S113099020E030E040E058E30E94431020E030E0E3
S11309A044E353E40E94431020E030E044E353E482
S11309B00E94300EAB01BC0186E791E20E94B00DAB
S11309C02496CDBFDEBFDF91CF91089520E930EDAD
S11309D043E050E060E874E086EF9AE30E94350B50
S11309E00895E0E5F0E0808182608083818181FF69
S11309F0FDCF88ED84BFE0E4F0E081E0808384E013
S1130A008183E0E5F0E080818E7F8083089584E037
S1130A1080935000E1E5F0E080818823E9F381E0F0
S1130A208093430087E080930004089581E08093DD
S1130A300106E0ECF7E087E0818385838FE0809313
S1130A40210783E08093210608950E94F1040E9407
S1130A5016050E943A060E941C080E9407050E947F
S1130A60A3020895CF93DF93C82F662339F06BE96F
S1130A7070E286E791E20E94230C06C06EED70E2FC
S1130A8086E791E20E94230C0E94E9076AE770E27C
S1130A9080EB94E00E94870761E870E286E791E2C8
S1130AA00E94230CC730E1F42FC06DE870E286E7A2
S1130AB091E20E94230CCE010E944B0AAC0160E03B
S1130AC070E086E791E20E94A50C2196C730D1051B
S1130AD061F76FE870E286E791E20E94230C11C08F
S1130AE08C2F90E00E944B0AAC0160E070E086E736
S1130AF091E20E94A50C6FE870E286E791E20E9401
S1130B00230C0E94E9070EC081E090E00E944B0A8A
S1130B10AC0160E070E086E791E20E94A50CC2E0BF
S1130B20D0E0C3CFDF91CF910895CF93C82F0E9417
S1130B30E9076DE970E280EB94E00E948707CC231B
S1130B4039F06BE970E286E791E20E94230C06C05B
S1130B506EED70E286E791E20E94230C62EA70E295
S1130B6086E791E20E94230C0E94590367EB70E22E
S1130B7086E791E20E94230C0E94AF0461EC70E2CC
S1130B8086E791E20E94230C0E94160461ED70E254
S1130B9086E791E20E94230C0E94E907CF91089511
S1130BA0CF93C82F0E94E9076DE970E280EB94E0CF
S1130BB00E948707CC2339F06BE970E286E791E263
S1130BC00E94230C06C06EED70E286E791E20E945B
S1130BD0230C60EE70E286E791E20E94230C0E94EF
S1130BE01203813039F46CEF70E286E791E20E94DF
S1130BF0230C06C062E071E286E791E20E94230CB6
S1130C0060E171E286E791E20E94230C4091F43A9C
S1130C105091F53A60E070E086E791E20E94A50CFD
S1130C206BE171E286E791E20E94230C4091F23A73
S1130C305091F33A60E070E086E791E20E94A50CDF
S1130C4068E271E286E791E20E94230C4091F03A57
S1130C505091F13A60E070E086E791E20E94A50CC1
S1130C6064E371E286E791E20E94230C0E94E907A3
S1130C70CF910895CF93DF93CDB7DEB72A97CDBF39
S1130C80DEBF20EE33E944E050E060E974E0CE01D9
S1130C9001960E94350B40E06CE7CE0101960E945C
S1130CA07B0B60E070E0CE0101960E94A90B68E323
S1130CB070E0CE0101960E94A90BCE0101960E941C
S1130CC0E50B2FEF81EE94E0215080409040E1F756
S1130CD000C0000040E06CE7CE0101960E947B0B4F
S1130CE060E070E0CE0101960E94A90B69E370E018
S1130CF0CE0101960E94A90BCE0101960E94E50B3C
S1130D002FEF81EE94E0215080409040E1F700C045
S1130D10000040E06CE7CE0101960E947B0B60E08E
S1130D2070E0CE0101960E94A90B64E170E0CE014F
S1130D3001960E94A90BCE0101960E94E50B2FEFAC
S1130D4081EE94E0215080409040E1F700C0000023
S1130D5040E06CE7CE0101960E947B0B60E070E0FE
S1130D60CE0101960E94A90B6EE770E0CE010196B8
S1130D700E94A90BCE0101960E94E50B2FEF81EE94
S1130D8094E0215080409040E1F700C0000040E032
S1130D906CE7CE0101960E947B0B60E070E0CE010F
S1130DA001960E94A90B65E570E0CE0101960E94B0
S1130DB0A90BCE0101960E94E50B2FEF81EE94E082
S1130DC0215080409040E1F700C0000040E06CE713
S1130DD0CE0101960E947B0B60E070E0CE0101968B
S1130DE00E94A90B6CE670E0CE0101960E94A90B4B
S1130DF0CE0101960E94E50B2FEF83ED90E3215085
S1130E0080409040E1F700C0000040E06CE7CE0174
S1130E1001960E947B0B60E070E0CE0101960E9477
S1130E20A90B68E370E0CE0101960E94A90BCE01E4
S1130E3001960E94E50B2FEF81EE94E02150804053
S1130E409040E1F700C0000040E06CE7CE0101965D
S1130E500E947B0B60E070E0CE0101960E94A90B1A
S1130E606CE070E0CE0101960E94A90BCE010196C0
S1130E700E94E50B2FEF81EE94E0215080409040DA
S1130E80E1F700C0000040E06CE7CE0101960E944B
S1130E907B0B60E070E0CE0101960E94A90B61E03B
S1130EA070E0CE0101960E94A90BCE0101960E942A
S1130EB0E50B2FEF81EE94E0215080409040E1F764
S1130EC000C0000040E06CE7CE0101960E947B0B5D
S1130ED060E070E0CE0101960E94A90B66E070E02C
S1130EE0CE0101960E94A90BCE0101960E94E50B4A
S1130EF02FEF81EE94E0215080409040E1F700C054
S1130F0000002A96CDBFDEBFDF91CF910895AF9246
S1130F10BF92CF92DF92EF92FF921F93CF93DF9312
S1130F20CDB7DEB72A97CDBFDEBF7B0120EE33E914
S1130F3044E050E060E974E0CE0101960E94350B74
S1130F4040E06CE7CE0101960E947B0BF701019013
S1130F500020E9F731976F01CE18DF0849F180E0EE
S1130F6090E010E0560121E0A21AB108A816B906D3
S1130F7039F460E470E0CE0101960E94A90B06C02A
S1130F8060EC70E0CE0101960E94A90BF70161911B
S1130F907F0170E0CE0101960E94A90BFAE6FA9552
S1130FA0F1F700C01F5F812F90E08C159D05F0F2D2
S1130FB0CE0101960E94E50B2A96CDBFDEBFDF91DC
S1130FC0CF911F91FF90EF90DF90CF90BF90AF90A3
S1130FD00895CF93DF93CDB7DEB72A97CDBFDEBF99
S1130FE020EE33E944E050E060E974E0CE0101967C
S1130FF00E94350B40E06CE7CE0101960E947B0B0A
S113100060E070E0CE0101960E94A90B61E070E0FF
S1131010CE0101960E94A90BCE0101960E94E50B18
S11310208FEB92E10197F1F700C000002A96CDBF43
S1131030DEBFDF91CF910895E0E2F6E08FE0818397
S1131040858383E086830895623021F498E0909349
S1131050260605C0613091F494E090932606682F2B
S11310608FE39CE90197F1F700C0000080E09BE367
S11310700E94250B9CE090932506089580E0089536
S11310800F931F93CF93C82F00E017E061E080E037
S11310900E942408813099F0F801808585FD02C002
S11310A0C11129C0F801808586FD02C0C11134C078
S11310B0F8018085882354F3CC2341F33EC000E03B
S11310C017E062E080E00E942408813009F479C0CE
S11310D0F801808585FD02C0C11140C0F8018085FA
S11310E086FD02C0C1114BC0F801808588234CF3F2
S11310F0CC2339F355C081E00E948C0960E081E083
S11311000E94FD0860E082E00E94FD0860E083E048
S11311100E94FD08C0E0C6CF82E00E948C0960E016
S113112081E00E94FD0860E082E00E94FD0860E02A
S113113083E00E94FD08C0E0BBCF83E00E948C09DD
S113114060E081E00E94FD0860E082E00E94FD080A
S113115060E083E00E94FD08C0E098CF81E00E9437
S11311608C0960E081E00E94FD0860E082E00E945A
S1131170FD0860E083E00E94FD08C0E0AFCF82E09C
S11311800E948C0960E081E00E94FD0860E082E03A
S11311900E94FD0860E083E00E94FD08C0E0A4CF47
S11311A083E00E948C0960E081E00E94FD0860E019
S11311B082E00E94FD0860E083E00E94FD08C0E038
S11311C080CFCF911F910F91089521E040E456E024
S11311D060EC78E080E09BE30E94110B0895E0E668
S11311E0F6E08CE18183A0E0B7E090EE12969C9348
S11311F0129715969C9386830895823071F08330FC
S1131200B1F08130E9F4662321F084E0809366062E
S1131210089584E0809365060895662321F088E0AC
S113122080936606089588E0809365060895662392
S113123021F080E180936606089580E1809365063D
S113124008951F93CF93DF936130D9F4C0E6D6E0BD
S113125014E01D83EFE3FFE13197F1F700C00000D4
S11312601E83FFEF23EC39E0F15020403040E1F7DA
S113127000C00000682F85E09BE30E94250B1D83BE
S113128039C06230D9F4C0E6D6E018E01D83EFE33C
S1131290FFE13197F1F700C000001E83FFEF23EC5C
S11312A039E0F15020403040E1F700C00000682FE1
S11312B085E09BE30E94250B1D831CC0633039F538
S11312C0C0E6D6E010E11D83EFE3FFE13197F1F7CB
S11312D000C000001E83FFEF23EC39E0F1502040F2
S11312E03040E1F700C00000682F85E09BE30E94D6
S11312F0250B1D839FEFE9EFF0E09150E040F040B3
S1131300E1F700C000009CE19093660601C080E014
S1131310DF91CF911F910895CF93DF93D82F83E06E
S1131320809325068FE39CE90197F1F700C0000044
S113133061E084E00E94D10A61E08D2F0E942109BE
S1131340C82F60E08D2F0E94FD0860E471E286E7FB
S113135091E20E94230C6C2F70E086E791E20E94D8
S1131360380C6AE970E286E791E20E94230C60E09F
S11313708D2F0E94FD0860E084E00E94D10AC09392
S1131380043BC53019F128F4C33041F0C43091F066
S113139040C0C63039F1C93088F13BC00E94E9072A
S11313A063E471E280EB94E00E94870782E00E948C
S11313B024022FC00E94E9076BE471E280EB94E001
S11313C00E94870781E00E94240223C00E94E9074B
S11313D063E571E280EB94E00E94870780E00E945D
S11313E0240217C00E94E9076BE571E280EB94E0E8
S11313F00E94870781E00E9424020BC00E94E90733
S113140066E671E280EB94E00E94870781E00E9427
S113141024020E94E9079FEF29EF80E091502040C9
S11314208040E1F700C0000083E080932606DF914E
S1131430CF91089523E040E656E060EC79E085E042
S11314409BE30E94110B1092043B0895FC016183FD
S113145064838AE28A95F1F700C06683628390858B
S11314609623E9F3A0E0B8E090961D921C92919720
S1131470F89485E08C9390859623E9F7E0E0F8E012
S1131480108278948FE39CE90197F1F700C0000083
S113149080A191A1089583309105D1F034F4813075
S11314A0910551F0029771F02BC085309105E1F060
S11314B0ACF00697F9F024C061E080E896E00E9461
S11314C0260A089562E080E896E00E94260A0895BC
S11314D064E080E896E00E94260A089568E080E8C7
S11314E096E00E94260A089560E180E896E00E9452
S11314F0260A089560E280E896E00E94260A08958C
S113150080E090E008951F920F920FB60F9211247D
S113151008B60F9218BE0F9008BE0F900FBE0F9022
S11315201F90189520E030E04AE04A95F1F700C09A
S11315302F5F3F4F82179307B8F70895AF92BF927A
S1131540CF92DF92EF92FF920F931F93CF93DF938B
S11315508C0188EE93E06C01C01AD10AC0E0D0E09F
S11315600F2EE12CF6E0FF2EF02DBB24B394AB2C10
S1131570F701A582C8010E94920AF701B682C80148
S11315800E94920A2196CC16DD0690F7DF91CF9146
S11315901F910F91FF90EF90DF90CF90BF90AF908D
S11315A00895613019F48093C6070895611103C04A
S11315B08093C50708958CE18093C507089590E34F
S11315C090932107823081F4613021F480E180938B
S11315D025070895611104C080E1809326070895CA
S11315E080E1809327070895813079F4613021F4F4
S11315F080E2809325070895611104C080E28093FE
S11316002607089580E280932707089520EA36E8A4
S113161041E050E060E974E089E09BE30E94350B0F
S11316200895FC01608371834283538380E4DA016B
S113163012968C93A281B38180EB11968C930190C6
S1131640F081E02D206520830895DC01ED91FC916B
S113165011976383ED91FC91119792819923ECF793
S11316601282ED91FC91838108950F931F93CF9380
S1131670DF93EC018B0168877987220F331F441FA6
S1131680551F60E078E488EE91E00E94D710DA01FB
S1131690C9010597A109B1098C839D83AE83BF83DA
S11316A0F8018583E885F98582818283E885F98557
S11316B0818188608183E885F98581E08483DF9175
S11316C0CF911F910F910895DC011896ED91FC9133
S11316D01997848182FD05C09481892F887093FFB6
S11316E009C081E084831896ED91FC91199783E0F9
S11316F083838FEF0895DC01442359F01896ED910C
S1131700FC911997616066831896ED91FC91199785
S113171007C01896ED91FC9119976E7F6683F4CFFC
S11317209481907CE9F39481892F807194FF10C097
S11317308481806484831896ED91FC911997848147
S1131740806884831896ED91FC91199781E08483D5
S11317500895CF93DF93EC01E885F9856783E885E5
S1131760F98584818C7FE9F3CE010E94640BE885BE
S1131770F9859481892F807194FF0CC084818064E1
S11317808483E885F985848180688483E885F98584
S113179081E08483DF91CF910895CF93DF93EC01AF
S11317A0E885F98584818C7FE9F3662319F082E06A
S11317B0838302C086E08383CE010E94640BE885A4
S11317C0F9858781DF91CF910895CF93DF93EC0161
S11317D0E885F98584818C7FE9F3CE010E94640B4E
S11317E0E885F98583E08383DF91CF910895FC0137
S11317F0408351836283738388E0DA0111968C936A
S1131800A081B18184E012968C93A281B38183E399
S113181016968C93A281B38117961C92A281B381F0
S113182083E015968C930280F381E02D88E1848314
S11318300895DC011296ED91FC911397818185FF47
S1131840FDCF608308950F931F93CF93DF93EB0134
S11318506881662341F08C012196C8010E94190C0D
S113186069916111FACFDF91CF911F910F91089582
S1131870EF92FF920F931F93CF93DF937C01EB01C1
S11318809B01369527953695279536952795A5EC92
S1131890B0E20E9421118C01129502950F7001276C
S11318A01F70012760E3600FC7010E94190C28EE26
S11318B033E0029FC001039F900D129F900D1124ED
S11318C0C81BD90B9E013695279536952795ABE70E
S11318D0B4E10E9421118C011695079560E3600F15
S11318E0C7010E94190C24E6209FC001219F900D7E
S11318F01124C81BD90B9E01ADECBCEC0E94211134
S11319008C0116950795169507951695079560E32E
S1131910600FC7010E94190CC801880F991F000F9E
S1131920111F000F111F000F111F080F191FC01BDB
S1131930D10B6C2F605DC7010E94190CDF91CF9110
S11319401F910F91FF90EF900895AF92BF92CF92A5
S1131950DF92EF92FF920F931F93CF93DF93EC01EB
S11319606A017B0177237CF461E771E20E94230C16
S1131970C601992324F4882799278C199D096C01A1
S1131980990FEE08FF08C701B6010E94D90E0E9404
S1131990EB0F20E030E040E85FE30E94300E0E944D
S11319A0A80E162FC114D104E104F10421F460E35C
S11319B0CE010E94190C812F90E0FC013197EA308E
S11319C0F10508F0C2C08827E250FF4F8F4F0C94F6
S11319D01811C701B60120E03AEC4AE95BE30E9422
S11319E0F910A62EB72E082F192F60E3620FCE012F
S11319F00E94190CCA2CDB2CE02EF12EC701B60173
S1131A0020E031EE45EF55E00E94F910A62EB72EE6
S1131A10082F192F60E3620FCE010E94190CCA2C03
S1131A20DB2CE02EF12EC701B60120E836E948E9A7
S1131A3050E00E94F910A62EB72E082F192F60E34C
S1131A40620FCE010E94190CCA2CDB2CE02EF12E61
S1131A50C701B60120E432E44FE050E00E94F910DF
S1131A60A62EB72E082F192F60E3620FCE010E9415
S1131A70190CCA2CDB2CE02EF12EC701B60120EA8A
S1131A8036E841E050E00E94F910A62EB72E082F48
S1131A90192F60E3620FCE010E94190CCA2CDB2CB3
S1131AA0E02EF12EC701B60120E137E240E050E01C
S1131AB00E94F910A62EB72E082F192F60E3620F8B
S1131AC0CE010E94190CCA2CDB2CE02EF12EC7018A
S1131AD0B60128EE33E040E050E00E94F910A62E53
S1131AE0B72E082F192F60E3620FCE010E94190C44
S1131AF0CA2CDB2CE02EF12EC701B60124E630E01F
S1131B0040E050E00E94F910A62EB72E082F192F9E
S1131B1060E3620FCE010E94190CCA2CDB2CE02E6C
S1131B20F12EC701B6012AE030E040E050E00E9407
S1131B30F910A62E60E3620FCE010E94190CCA2C84
S1131B4060E36C0DCE010E94190CDF91CF911F91BF
S1131B500F91FF90EF90DF90CF90BF90AF900895DA
S1131B60CF92DF92EF92FF92CF93DF93EC016A0161
S1131B707B0120E030E0A901C701B6010E949C0E60
S1131B8088234CF461E771E2CE010E94230CF7FA3A
S1131B90F094F7F8F094C701B6010E94A10EAB01CE
S1131BA0BC01CE010E94A50C63E771E2CE010E9444
S1131BB0230C20E030E040E85FE3C701B6010E9457
S1131BC01F0F20E030E040E251E40E9443106B011B
S1131BD07C0120E030E040E452E40E94300E0E9498
S1131BE0A80ECE010E94190C20E030E040E85FE32B
S1131BF0C701B6010E941F0F20E030E040E251E42B
S1131C000E9443106B017C0120E030E040E452E488
S1131C100E94300E0E94A80ECE010E94190C20E0F2
S1131C2030E040E85FE3C701B6010E941F0F20E0E7
S1131C3030E040E251E40E94431020E030E040E410
S1131C4052E40E94300E0E94A80ECE010E94190C8C
S1131C50DF91CF91FF90EF90DF90CF90089550588F
S1131C60BB27AA270E94470E0C94B10F0E94A30F12
S1131C7038F00E94AA0F20F039F49F3F19F426F49B
S1131C800C94A00F0EF4E095E7FB0C948C0FE92F55
S1131C900E94C20F58F3BA176207730784079507A7
S1131CA020F079F4A6F50C94E40F0EF4E0950B2ED5
S1131CB0BA2FA02D0B01B90190010C01CA01A0019A
S1131CC01124FF27591B99F0593F50F4503E68F1F5
S1131CD01A16F040A22F232F342F4427585FF3CF36
S1131CE0469537952795A795F0405395C9F77EF407
S1131CF01F16BA0B620B730B840BBAF09150A1F050
S1131D00FF0FBB1F661F771F881FC2F70EC0BA0FD5
S1131D10621F731F841F48F4879577956795B7955D
S1131D20F7959E3F08F0B0CF9395880F08F0992758
S1131D30EE0F9795879508950E94680F08F481E047
S1131D4008950E94A80E6894B1110C94E50F0895AB
S1131D500E94CA0F88F09F5798F0B92F9927B7515E
S1131D60B0F0E1F0660F771F881F991F1AF0BA953B
S1131D70C9F714C0B13091F00E94E40FB1E00895A6
S1131D800C94E40F672F782F8827B85F39F0B93F98
S1131D90CCF3869577956795B395D9F73EF49095EE
S1131DA08095709561957F4F8F4F9F4F0895E8946C
S1131DB009C097FB3EF490958095709561957F4F8F
S1131DC08F4F9F4F9923A9F0F92F96E9BB2793953D
S1131DD0F695879577956795B795F111F8CFFAF44D
S1131DE0BB0F11F460FF1BC06F5F7F4F8F4F9F4F7E
S1131DF016C0882311F096E911C0772321F09EE8DC
S1131E00872F762F05C0662371F096E8862F70E041
S1131E1060E02AF09A95660F771F881FDAF7880F1B
S1131E209695879597F908950E94A30F20F019F0CD
S1131E300E94AA0F50F40C94A00F0C94E50FE92F04
S1131E400E94C20F88F35523B1F3E7FB62177307AF
S1131E5084079507A8F189F3E92FFF2788232AF03F
S1131E603197660F771F881FDAF7952F552744237C
S1131E7032F091505040220F331F441FD2F7BB273A
S1131E80E91BF50B621B730B840BB109B1F222F44D
S1131E90620F731F841FB11D31972AF0660F771FDD
S1131EA0881FBB1FEFCF9150504062F041F0882350
S1131EB032F0660F771F881F91505040C1F79395F9
S1131EC00C94920F8695779567959F5FD9F7F7CF16
S1131ED0990F0008550FAA0BE0E8FEEF1616170637
S1131EE0E807F907C0F012161306E407F50798F09F
S1131EF0621B730B840B950B39F40A2661F0232BB8
S1131F00242B252B21F408950A2609F4A140A69533
S1131F108FEF811D811D089597F99F6780E870E018
S1131F2060E008959F3F31F0915020F487957795B4
S1131F306795B795880F911D9695879597F908959C
S1131F409FEF80EC089500240A94161617061806CD
S1131F500906089500240A941216130614060506A9
S1131F600895092E0394000C11F4882352F0BB0F3A
S1131F7040F4BF2B11F460FF04C06F5F7F4F8F4F9D
S1131F809F4F089557FD9058440F551F59F05F3FD8
S1131F9071F04795880F97FB991F61F09F3F79F087
S1131FA087950895121613061406551FF2CF469509
S1131FB0F1DF08C0161617061806991FF1CF86958B
S1131FC07105610508940895E894BB27662777276F
S1131FD0CB0197F908950E94FB0F29ED3BE54EEDE7
S1131FE05EE30C94431016F00C94920F0C94A00F23
S1131FF068940C948C0F0E94CA0FA8F39923C1F320
S1132000AEF3DF93CF931F930F93FF92C92FDD2776
S113201088232AF02197660F771F881FDAF720E0BC
S113202030E040E85FEB9FE3883920F0803E38F0F1
S113203021968F770E94300EE0E1F2E004C00E9406
S1132040300EEDE3F2E00E94B0108B01BE01EC0112
S1132050FB2E6F5771097595771F880B990B0E949A
S1132060D90E28E132E741E35FE30E945610AF2D19
S11320709801AE01FF900F911F91CF91DF910E94C3
S1132080470E0C94B10F0E9456100C94B10F0E948D
S1132090A30F38F00E94AA0F20F0952311F00C949E
S11320A08C0F0C94A00F11240C94E50F0E94C20F06
S11320B070F3959FC1F3950F50E0551F629FF00197
S11320C0729FBB27F00DB11D639FAA27F00DB11DB0
S11320D0AA1F649F6627B00DA11D661F829F222739
S11320E0B00DA11D621F739FB00DA11D621F839FC0
S11320F0A00D611D221F749F3327A00D611D231F96
S1132100849F600D211D822F762F6A2F11249F57E3
S113211050409AF0F1F088234AF0EE0FFF1FBB1FE6
S1132120661F771F881F91505040A9F79E3F5105A5
S113213080F00C948C0F0C94E50F5F3FE4F3983E11
S1132140D4F3869577956795B795F795E7959F5F4F
S1132150C1F7FE2B880F911D9695879597F90895E1
S1132160DF93CF931F930F93FF92EF92DF927B0144
S11321708C01689406C0DA2EEF010E945610FE010D
S1132180E894A5912591359145915591A6F3EF01D8
S11321900E94470EFE019701A801DA9469F7DF90C7
S11321A0EF90FF900F911F91CF91DF910895A1E2DD
S11321B01A2EAA1BBB1BFD010DC0AA1FBB1FEE1FBD
S11321C0FF1FA217B307E407F50720F0A21BB30B08
S11321D0E40BF50B661F771F881F991F1A9469F784
S11321E060957095809590959B01AC01BD01CF01E0
S11321F00895052E97FB1EF400940E94101157FDBC
S113220007D00E94D71007FC03D04EF40C94101191
S113221050954095309521953F4F4F4F5F4F08950E
S113222090958095709561957F4F8F4F9F4F08953E
S1132230EE0FFF1F881F8BBF0790F691E02D1BBE8A
S11322401994A29FB001B39FC001A39F700D811D7B
S11322501124911DB29F700D811D1124911D0895AB
S1072260F894FFCF1C
S113226473616B6121006E6163006D5F6E2D6100AB
S11322746D5F6E006D5F6E2D62006D5F612D610098
S11322846D5F612D62006D5F612D63006D5F6100A0
S11322946466730064667332006500656E640048A6
S11322A4656C6C6F005265616479210077616B65BC
S11322B45F75700A00783A00793A007A3A00944ECD
S11322C420008C8E200093FA20008E9E200095AA74
S11322D42000956220006D956200445F70696E670A
S11322E4001B5B34326D5B70696E673A002C005DD1
S11322F400445F6D76006D763A000A0D00445F6A0F
S113230479001B5B34316D5B416363656C65726199
S113231474696F6E3A20005D5B416E676C653A20A8
S1132324005D5B4A593930312D2D74696D653A204D
S1132334005D1B5B34306D202020202020202000F1
S11323441B5B34356D1B5B33306D5B436F6C6F7299
S11323543A1B5B34306D1B5B33376D00426C616335
S11323646B001B5B376D57686974651B5B306D00CC
S1132374201B5B33316D5265643A001B5B33326D51
S113238420477265656E3A001B5B33346D20426CE2
S113239475653A005D1B5B34306D1B5B33376D0030
S11323A463680046696E642048210046696E6420AF
S11323B453210046696E642055210046696E6420E9
S11323C45365726D6F0046696E64204572726F7254
S10923D4002D002E0000A4
S9030000FC
