:100000000C9404010C943A010C943A010C943A01BA
:100010000C943A010C943A010C943A010C943A0174
:100020000C943A010C943A010C943A010C943A0164
:100030000C943A010C943A010C943A010C943A0154
:100040000C943A010C943A010C943A010C943A0144
:100050000C943A010C943A010C943A010C943A0134
:100060000C943A010C943A010C943A010C943A0124
:100070000C943A010C943A010C943A010C943A0114
:100080000C943A010C943A010C943A010C943A0104
:100090000C943A010C943A010C943A010C943A01F4
:1000A0000C943A010C943A010C943A010C943A01E4
:1000B0000C943A010C943A010C943A010C943A01D4
:1000C0000C943A010C943A010C943A010C943A01C4
:1000D0000C943A010C943A010C943A010C943A01B4
:1000E0000C943A010C943A010C943A010C943A01A4
:1000F0000C943A010C943A010C943A010C943A0194
:100100000C943A010C943A010C943A010C943A0183
:100110000C943A010C943A010C943A010C943A0173
:100120000C943A010C943A010C943A010C943A0163
:100130000C943A010C9408630C943A010C943A0123
:100140000C943A010C943A010C943A010C943A0143
:100150000C943A010C943A010C943A010C943A0133
:100160000C943A010C943A010C943A010C943A0123
:100170000C943A010C943A010C943A010C943A0113
:100180000C943A010C943A010C943A010C943A0103
:100190000C943A010C943A010C943A010C943A01F3
:1001A0000C943A010C943A010C943A010C943A01E3
:1001B0000C943A010C943A010C943A010C943A01D3
:1001C0000C943A010C943A010C943A010C943A01C3
:1001D0000C943A010C943A010C943A010C943A01B3
:1001E0000C943A010C943A010C943A010C943A01A3
:1001F0000C943A010C943A010C943A010C948E58E8
:100200000C943D628E583D6211241FBECFEFCDBFCE
:10021000DFE3DEBF00E00CBF18BE19BE1ABE1BBE76
:1002200010E2A0E0B0E2E6E0FAEC00E00BBF02C0B2
:1002300007900D92AE33B107D9F71BBE2AE3AEE3A8
:10024000B0E201C01D92A83FB207E1F711E0C4E09F
:10025000D1E000E006C021970109802FFE010E9435
:10026000D464C230D10780E00807A9F70E94325851
:100270000C9401650C9400002F923F924F925F9274
:100280006F927F928F929F92AF92BF92CF92DF92A6
:10029000EF92FF920F931F93CF93DF93CDB7DEB70B
:1002A0002E97CDBFDEBFFC01DB014D875E87490184
:1002B0001801109709F493C52FEFE21AF20A169667
:1002C0008D919C911797E816F90624F41696ED92F5
:1002D000FC9217973681398387818A8320852B8307
:1002E00031853C8382858D8323852E8334853F83AE
:1002F0008585888758964D905D906D907C905B9732
:1003000073016201FF0CCC08DC2C7601242D352D05
:10031000462D572D6C2D7C2D8C2D9C2DA980BA80BF
:10032000CB80DC80ED80FE800F8118850E94F86410
:1003300011F008F054C58D919C9111972D853E8543
:100340008217930781F412968D919C9113978815CB
:10035000990549F414968D919C91159782159305F2
:1003600011F4A68BB78B2B863C8689869A864D84A2
:100370005E841D01ED87FE8789819A81AB81BC81F6
:100380000196A11DB11DF101808F918FA28FB38FB6
:1003900086819781828493848114910409F4A3C097
:1003A0000196F401268137818217930714F486831E
:1003B0009783ED85FE85F681F983ED85FE85F781CE
:1003C000FA83ED85FE85F085FB83ED85FE85F1855D
:1003D000FC83ED85FE85F285FD83ED85FE85F38545
:1003E000FE83ED85FE85F485FF83ED85FE85F5852D
:1003F000F887F401808D918DA28DB38D6C017D0104
:10040000FF0CCC08DC2C7601282F392F4A2F5B2FCC
:100410006C2D7C2D8C2D9C2DA980BA80CB80DC800E
:10042000ED80FE800F8118850E94F86411F008F0BD
:100430005AC0808191814816590691F48281938136
:1004400029853A852817390759F484819581EB85E8
:10045000FC85E817F90721F4ED85FE85868A978AE1
:1004600089819A81AB81BC810196A11DB11DF401E6
:10047000808F918FA28FB38FE680F780628573851E
:100480000B851C8529853A85A2018D859E850E9454
:100490003C01F401E680F780648575850B851C8539
:1004A00029853A85A2018D859E850E943C01F40133
:1004B000E680F780668577850B851C8529853A85DA
:1004C000A2018D859E850E943C01F401E680F780A3
:1004D000608971890B851C8529853A85A2018D85E6
:1004E0009E850E943C01F1018681978184849584D8
:1004F0008114910409F41BC30196F401268137810C
:100500008217930714F486839783ED85FE85F68121
:10051000F983ED85FE85F781FA83ED85FE85F0850B
:10052000FB83ED85FE85F185FC83ED85FE85F285F7
:10053000FD83ED85FE85F385FE83ED85FE85F485DF
:10054000FF83ED85FE85F585F887F401808D918D1B
:10055000A28DB38D6C017D01FF0CCC08DC2C7601E3
:10056000282F392F4A2F5B2F6C2D7C2D8C2D9C2D05
:10057000A980BA80CB80DC80ED80FE800F81188559
:100580000E94F86411F008F0D2C28081918148166F
:10059000590691F48281938129853A852817390774
:1005A00059F484819581EB85FC85E817F90721F4DE
:1005B000ED85FE85868A978A89819A81AB81BC8187
:1005C0000196A11DB11DF401808F918FA28FB38F71
:1005D00086819781628473846114710409F4A3C0D5
:1005E0000196F301268137818217930714F48683DD
:1005F0009783ED85FE85F681F983ED85FE85F7818C
:10060000FA83ED85FE85F085FB83ED85FE85F1851A
:10061000FC83ED85FE85F285FD83ED85FE85F38502
:10062000FE83ED85FE85F485FF83ED85FE85F585EA
:10063000F887F301808D918DA28DB38D6C017D01C2
:10064000FF0CCC08DC2C7601282F392F4A2F5B2F8A
:100650006C2D7C2D8C2D9C2DA980BA80CB80DC80CC
:10066000ED80FE800F8118850E94F86411F008F07B
:100670005AC0808191814816590691F482819381F4
:1006800029853A852817390759F484819581EB85A6
:10069000FC85E817F90721F4ED85FE85668A778ADF
:1006A00089819A81AB81BC810196A11DB11DF301A5
:1006B000808F918FA28FB38FE680F78062857385DC
:1006C0000B851C8529853A85A2018D859E850E9412
:1006D0003C01F301E680F780648575850B851C85F8
:1006E00029853A85A2018D859E850E943C01F301F2
:1006F000E680F780668577850B851C8529853A8598
:10070000A2018D859E850E943C01F301E680F78061
:10071000608971890B851C8529853A85A2018D85A3
:100720009E850E943C01F4018681978164847584D2
:100730006114710409F4A3C00196F3012681378185
:100740008217930714F486839783ED85FE85F681DF
:10075000F983ED85FE85F781FA83ED85FE85F085C9
:10076000FB83ED85FE85F185FC83ED85FE85F285B5
:10077000FD83ED85FE85F385FE83ED85FE85F4859D
:10078000FF83ED85FE85F585F887F301808D918DDA
:10079000A28DB38D6C017D01FF0CCC08DC2C7601A1
:1007A000282F392F4A2F5B2F6C2D7C2D8C2D9C2DC3
:1007B000A980BA80CB80DC80ED80FE800F81188517
:1007C0000E94F86411F008F05AC0808191814816A7
:1007D000590691F48281938129853A852817390732
:1007E00059F484819581EB85FC85E817F90721F49C
:1007F000ED85FE85668A778A89819A81AB81BC8185
:100800000196A11DB11DF301808F918FA28FB38F2F
:10081000E680F780628573850B851C8529853A857E
:10082000A2018D859E850E943C01F301E680F78040
:10083000648575850B851C8529853A85A2018D8582
:100840009E850E943C01F301E680F78066857785EE
:100850000B851C8529853A85A2018D859E850E9480
:100860003C01F301E680F780608971890B851C8566
:1008700029853A85A2018D859E850E943C01F4015F
:1008800086819781668477846114710409F4A3C01A
:100890000196F301268137818217930714F486832A
:1008A0009783ED85FE85F681F983ED85FE85F781D9
:1008B000FA83ED85FE85F085FB83ED85FE85F18568
:1008C000FC83ED85FE85F285FD83ED85FE85F38550
:1008D000FE83ED85FE85F485FF83ED85FE85F58538
:1008E000F887F301808D918DA28DB38D6C017D0110
:1008F000FF0CCC08DC2C7601282F392F4A2F5B2FD8
:100900006C2D7C2D8C2D9C2DA980BA80CB80DC8019
:10091000ED80FE800F8118850E94F86411F008F0C8
:100920005AC0808191814816590691F48281938141
:1009300029853A852817390759F484819581EB85F3
:10094000FC85E817F90721F4ED85FE85668A778A2C
:1009500089819A81AB81BC810196A11DB11DF301F2
:10096000808F918FA28FB38FE680F7806285738529
:100970000B851C8529853A85A2018D859E850E945F
:100980003C01F301E680F780648575850B851C8545
:1009900029853A85A2018D859E850E943C01F3013F
:1009A000E680F780668577850B851C8529853A85E5
:1009B000A2018D859E850E943C01F301E680F780AF
:1009C000608971890B851C8529853A85A2018D85F1
:1009D0009E850E943C01F4018681978180889188E0
:1009E0008114910409F4A3C00196F4012681378192
:1009F0008217930714F486839783ED85FE85F6812D
:100A0000F983ED85FE85F781FA83ED85FE85F08516
:100A1000FB83ED85FE85F185FC83ED85FE85F28502
:100A2000FD83ED85FE85F385FE83ED85FE85F485EA
:100A3000FF83ED85FE85F585F887F401808D918D26
:100A4000A28DB38D6C017D01FF0CCC08DC2C7601EE
:100A5000282F392F4A2F5B2F6C2D7C2D8C2D9C2D10
:100A6000A980BA80CB80DC80ED80FE800F81188564
:100A70000E94F86411F008F05AC0808191814816F4
:100A8000590691F48281938129853A85281739077F
:100A900059F484819581EB85FC85E817F90721F4E9
:100AA000ED85FE85868A978A89819A81AB81BC8192
:100AB0000196A11DB11DF401808F918FA28FB38F7C
:100AC000E680F780628573850B851C8529853A85CC
:100AD000A2018D859E850E943C01F401E680F7808D
:100AE000648575850B851C8529853A85A2018D85D0
:100AF0009E850E943C01F401E680F780668577853B
:100B00000B851C8529853A85A2018D859E850E94CD
:100B10003C01F401E680F780608971890B851C85B2
:100B200029853A85A2018D859E850E943C01F101AF
:100B300086819781868497848114910409F4A3C0E7
:100B40000196F401268137818217930714F4868376
:100B50009783ED85FE85F681F983ED85FE85F78126
:100B6000FA83ED85FE85F085FB83ED85FE85F185B5
:100B7000FC83ED85FE85F285FD83ED85FE85F3859D
:100B8000FE83ED85FE85F485FF83ED85FE85F58585
:100B9000F887F401808D918DA28DB38D6C017D015C
:100BA000FF0CCC08DC2C7601282F392F4A2F5B2F25
:100BB0006C2D7C2D8C2D9C2DA980BA80CB80DC8067
:100BC000ED80FE800F8118850E94F86411F008F016
:100BD0005AC0808191814816590691F4828193818F
:100BE00029853A852817390759F484819581EB8541
:100BF000FC85E817F90721F4ED85FE85868A978A3A
:100C000089819A81AB81BC810196A11DB11DF4013E
:100C1000808F918FA28FB38FE680F7806285738576
:100C20000B851C8529853A85A2018D859E850E94AC
:100C30003C01F401E680F780648575850B851C8591
:100C400029853A85A2018D859E850E943C01F4018B
:100C5000E680F780668577850B851C8529853A8532
:100C6000A2018D859E850E943C01F401E680F780FB
:100C7000608971890B851C8529853A85A2018D853E
:100C80009E850E943C01F101868197818088918830
:100C90008114910409F4A3C00196F40126813781DF
:100CA0008217930714F486839783ED85FE85F6817A
:100CB000F983ED85FE85F781FA83ED85FE85F08564
:100CC000FB83ED85FE85F185FC83ED85FE85F28550
:100CD000FD83ED85FE85F385FE83ED85FE85F48538
:100CE000FF83ED85FE85F585F887F401808D918D74
:100CF000A28DB38D6C017D01FF0CCC08DC2C76013C
:100D0000282F392F4A2F5B2F6C2D7C2D8C2D9C2D5D
:100D1000A980BA80CB80DC80ED80FE800F811885B1
:100D20000E94F86411F008F05AC080819181481641
:100D3000590691F48281938129853A8528173907CC
:100D400059F484819581EB85FC85E817F90721F436
:100D5000ED85FE85868A978A89819A81AB81BC81DF
:100D60000196A11DB11DF401808F918FA28FB38FC9
:100D7000E680F780628573850B851C8529853A8519
:100D8000A2018D859E850E943C01F401E680F780DA
:100D9000648575850B851C8529853A85A2018D851D
:100DA0009E850E943C01F401E680F7806685778588
:100DB0000B851C8529853A85A2018D859E850E941B
:100DC0003C01F401E680F780608971890B851C8500
:100DD00029853A85A2018D859E850E943C012E962B
:100DE000CDBFDEBFDF91CF911F910F91FF90EF90AC
:100DF000DF90CF90BF90AF909F908F907F906F903B
:100E00005F904F903F902F9008952F923F924F9276
:100E10005F926F927F928F929F92AF92BF92CF928A
:100E2000DF92EF92FF920F931F93CF93DF93CDB793
:100E3000DEB76297CDBFDEBF898B9A8B6F87788BC9
:100E40001A0129873A870B871C87FC01168A178AA3
:100E5000228133812D873E87F901868197813097E2
:100E600011F40C94BA269C012F5F3F4F28173907C5
:100E700014F426833783E989FA89F681F983E989AD
:100E8000FA89F781FA83E989FA89F085FB83E98990
:100E9000FA89F185FC83E989FA89F285FD83E9897C
:100EA000FA89F385FE83E989FA89F485FF83E98964
:100EB000FA89F585F887ED85FE85808D918DA28D67
:100EC000B38D6C017D01FF0CCC08DC2C7601282F42
:100ED000392F4A2F5B2F6C2D7C2D8C2D9C2DA980BA
:100EE000BA80CB80DC80ED80FE800F8118850E9467
:100EF000F86419F010F00C94BA26808191812816BC
:100F0000390699F48281938129853A852817390712
:100F100061F4848195814B855C854817590729F4D4
:100F20009F01E989FA89268B378B89819A81AB8168
:100F3000BC810196A11DB11DED85FE85808F918F2D
:100F4000A28FB38F868197814284538441145104C8
:100F500011F40C94B60F0196F201268137818217A5
:100F6000930714F486839783E989FA89F681F983D4
:100F7000E989FA89F781FA83E989FA89F085FB839F
:100F8000E989FA89F185FC83E989FA89F285FD838B
:100F9000E989FA89F385FE83E989FA89F485FF8373
:100FA000E989FA89F585F887F201808D918DA28D06
:100FB000B38D6C017D01FF0CCC08DC2C7601282F51
:100FC000392F4A2F5B2F6C2D7C2D8C2D9C2DA980C9
:100FD000BA80CB80DC80ED80FE800F8118850E9476
:100FE000F86411F008F0C2C7808191812816390693
:100FF00091F48281938129853A852817390759F41C
:10100000848195814B855C854817590721F4E989CE
:10101000FA89468A578A89819A81AB81BC81019677
:10102000A11DB11DF201808F918FA28FB38F868198
:101030009781828493848114910409F4A3C001965A
:10104000F401268137818217930714F486839783EE
:10105000E989FA89F681F983E989FA89F781FA83BE
:10106000E989FA89F085FB83E989FA89F185FC83AE
:10107000E989FA89F285FD83E989FA89F385FE8396
:10108000E989FA89F485FF83E989FA89F585F88782
:10109000F401808D918DA28DB38D6C017D01FF0CCB
:1010A000CC08DC2C7601282F392F4A2F5B2F6C2D92
:1010B0007C2D8C2D9C2DA980BA80CB80DC80ED808E
:1010C000FE800F8118850E94F86411F008F05AC064
:1010D000808191812816390691F482819381298536
:1010E0003A852817390759F4848195814B855C85A9
:1010F0004817590721F4E989FA89868A978A8981EC
:101100009A81AB81BC810196A11DB11DF401808F34
:10111000918FA28FB38FE680F780628573850B85F0
:101120001C8529853A85A10189899A890E943C01FB
:10113000F401E680F780648575850B851C8529851B
:101140003A85A10189899A890E943C01F401E680CF
:10115000F780668577850B851C8529853A85A101F1
:1011600089899A890E943C01F401E680F7806089B0
:1011700071890B851C8529853A85A10189899A8900
:101180000E943C01F20186819781848495848114B8
:10119000910409F4DFC10196F40126813781821799
:1011A000930714F486839783E989FA89F681F98392
:1011B000E989FA89F781FA83E989FA89F085FB835D
:1011C000E989FA89F185FC83E989FA89F285FD8349
:1011D000E989FA89F385FE83E989FA89F485FF8331
:1011E000E989FA89F585F887F401808D918DA28DC2
:1011F000B38D6C017D01FF0CCC08DC2C7601282F0F
:10120000392F4A2F5B2F6C2D7C2D8C2D9C2DA98086
:10121000BA80CB80DC80ED80FE800F8118850E9433
:10122000F86411F008F096C1808191812816390682
:1012300091F48281938129853A852817390759F4D9
:10124000848195814B855C854817590721F4E9898C
:10125000FA89868A978A89819A81AB81BC810196B5
:10126000A11DB11DF401808F918FA28FB38FE680F5
:10127000F780628573850B851C8529853A85A101D8
:1012800089899A890E943C01F4018681978164844E
:1012900075846114710409F4A3C00196F3012681D9
:1012A00037818217930714F486839783E989FA8933
:1012B000F681F983E989FA89F781FA83E989FA895C
:1012C000F085FB83E989FA89F185FC83E989FA894C
:1012D000F285FD83E989FA89F385FE83E989FA8934
:1012E000F485FF83E989FA89F585F887F301808D14
:1012F000918DA28DB38D6C017D01FF0CCC08DC2C8F
:101300007601282F392F4A2F5B2F6C2D7C2D8C2DA9
:101310009C2DA980BA80CB80DC80ED80FE800F817F
:1013200018850E94F86411F008F05AC080819181FC
:101330002816390691F48281938129853A852817E8
:10134000390759F4848195814B855C854817590785
:1013500021F4E989FA89668A778A89819A81AB8141
:10136000BC810196A11DB11DF301808F918FA28FC9
:10137000B38FE680F780628573850B851C85298590
:101380003A85A10189899A890E943C01F301E6808E
:10139000F780648575850B851C8529853A85A101B3
:1013A00089899A890E943C01F301E680F78066856D
:1013B00077850B851C8529853A85A10189899A89BC
:1013C0000E943C01F301E680F780608971890B85FA
:1013D0001C8529853A85A10189899A890E943C0149
:1013E000F401E680F780668577850B851C85298565
:1013F0003A85A10189899A890E943C01F40186817C
:101400009781808891888114910409F4A3C0019682
:10141000F401268137818217930714F4868397831A
:10142000E989FA89F681F983E989FA89F781FA83EA
:10143000E989FA89F085FB83E989FA89F185FC83DA
:10144000E989FA89F285FD83E989FA89F385FE83C2
:10145000E989FA89F485FF83E989FA89F585F887AE
:10146000F401808D918DA28DB38D6C017D01FF0CF7
:10147000CC08DC2C7601282F392F4A2F5B2F6C2DBE
:101480007C2D8C2D9C2DA980BA80CB80DC80ED80BA
:10149000FE800F8118850E94F86411F008F05AC090
:1014A000808191812816390691F482819381298562
:1014B0003A852817390759F4848195814B855C85D5
:1014C0004817590721F4E989FA89868A978A898118
:1014D0009A81AB81BC810196A11DB11DF401808F61
:1014E000918FA28FB38FE680F780628573850B851D
:1014F0001C8529853A85A10189899A890E943C0128
:10150000F401E680F780648575850B851C85298547
:101510003A85A10189899A890E943C01F401E680FB
:10152000F780668577850B851C8529853A85A1011D
:1015300089899A890E943C01F401E680F7806089DC
:1015400071890B851C8529853A85A10189899A892C
:101550000E943C01F20186819781868497848114E0
:10156000910409F47DC20196F40126813781821726
:10157000930714F486839783E989FA89F681F983BE
:10158000E989FA89F781FA83E989FA89F085FB8389
:10159000E989FA89F185FC83E989FA89F285FD8375
:1015A000E989FA89F385FE83E989FA89F485FF835D
:1015B000E989FA89F585F887F401808D918DA28DEE
:1015C000B38D6C017D01FF0CCC08DC2C7601282F3B
:1015D000392F4A2F5B2F6C2D7C2D8C2D9C2DA980B3
:1015E000BA80CB80DC80ED80FE800F8118850E9460
:1015F000F86411F008F034C2808191812816390610
:1016000091F48281938129853A852817390759F405
:10161000848195814B855C854817590721F4E989B8
:10162000FA89868A978A89819A81AB81BC810196E1
:10163000A11DB11DF401808F918FA28FB38FE68021
:10164000F780628573850B851C8529853A85A10104
:1016500089899A890E943C01F4018681978164847A
:1016600075846114710409F4A3C00196F301268105
:1016700037818217930714F486839783E989FA895F
:10168000F681F983E989FA89F781FA83E989FA8988
:10169000F085FB83E989FA89F185FC83E989FA8978
:1016A000F285FD83E989FA89F385FE83E989FA8960
:1016B000F485FF83E989FA89F585F887F301808D40
:1016C000918DA28DB38D6C017D01FF0CCC08DC2CBB
:1016D0007601282F392F4A2F5B2F6C2D7C2D8C2DD6
:1016E0009C2DA980BA80CB80DC80ED80FE800F81AC
:1016F00018850E94F86411F008F05AC08081918129
:101700002816390691F48281938129853A85281714
:10171000390759F4848195814B855C8548175907B1
:1017200021F4E989FA89668A778A89819A81AB816D
:10173000BC810196A11DB11DF301808F918FA28FF5
:10174000B38FE680F780628573850B851C852985BC
:101750003A85A10189899A890E943C01F301E680BA
:10176000F780648575850B851C8529853A85A101DF
:1017700089899A890E943C01F301E680F780668599
:1017800077850B851C8529853A85A10189899A89E8
:101790000E943C01F301E680F780608971890B8526
:1017A0001C8529853A85A10189899A890E943C0175
:1017B000F40186819781668477846114710409F449
:1017C000A3C00196F301268137818217930714F491
:1017D00086839783E989FA89F681F983E989FA8909
:1017E000F781FA83E989FA89F085FB83E989FA8927
:1017F000F185FC83E989FA89F285FD83E989FA8913
:10180000F385FE83E989FA89F485FF83E989FA89FA
:10181000F585F887F301808D918DA28DB38D6C01D4
:101820007D01FF0CCC08DC2C7601282F392F4A2FA4
:101830005B2F6C2D7C2D8C2D9C2DA980BA80CB80AC
:10184000DC80ED80FE800F8118850E94F86411F025
:1018500008F05AC0808191812816390691F482815E
:10186000938129853A852817390759F48481958110
:101870004B855C854817590721F4E989FA89668AFE
:10188000778A89819A81AB81BC810196A11DB11DA6
:10189000F301808F918FA28FB38FE680F7806285EE
:1018A00073850B851C8529853A85A10189899A89CB
:1018B0000E943C01F301E680F780648575850B8505
:1018C0001C8529853A85A10189899A890E943C0154
:1018D000F301E680F780668577850B851C85298571
:1018E0003A85A10189899A890E943C01F301E68029
:1018F000F780608971890B851C8529853A85A1014E
:1019000089899A890E943C01F401868197818088A7
:1019100091888114910409F4A3C00196F4012681F1
:1019200037818217930714F486839783E989FA89AC
:10193000F681F983E989FA89F781FA83E989FA89D5
:10194000F085FB83E989FA89F185FC83E989FA89C5
:10195000F285FD83E989FA89F385FE83E989FA89AD
:10196000F485FF83E989FA89F585F887F401808D8C
:10197000918DA28DB38D6C017D01FF0CCC08DC2C08
:101980007601282F392F4A2F5B2F6C2D7C2D8C2D23
:101990009C2DA980BA80CB80DC80ED80FE800F81F9
:1019A00018850E94F86411F008F05AC08081918176
:1019B0002816390691F48281938129853A85281762
:1019C000390759F4848195814B855C8548175907FF
:1019D00021F4E989FA89868A978A89819A81AB817B
:1019E000BC810196A11DB11DF401808F918FA28F42
:1019F000B38FE680F780628573850B851C8529850A
:101A00003A85A10189899A890E943C01F401E68006
:101A1000F780648575850B851C8529853A85A1012C
:101A200089899A890E943C01F401E680F7806685E5
:101A300077850B851C8529853A85A10189899A8935
:101A40000E943C01F401E680F780608971890B8572
:101A50001C8529853A85A10189899A890E943C01C2
:101A6000F20186819781808891888114910409F41C
:101A70007DC20196F401268137818217930714F401
:101A800086839783E989FA89F681F983E989FA8956
:101A9000F781FA83E989FA89F085FB83E989FA8974
:101AA000F185FC83E989FA89F285FD83E989FA8960
:101AB000F385FE83E989FA89F485FF83E989FA8948
:101AC000F585F887F401808D918DA28DB38D6C0121
:101AD0007D01FF0CCC08DC2C7601282F392F4A2FF2
:101AE0005B2F6C2D7C2D8C2D9C2DA980BA80CB80FA
:101AF000DC80ED80FE800F8118850E94F86411F073
:101B000008F034C2808191812816390691F48281CF
:101B1000938129853A852817390759F4848195815D
:101B20004B855C854817590721F4E989FA89868A2B
:101B3000978A89819A81AB81BC810196A11DB11DD3
:101B4000F401808F918FA28FB38F868197816284F9
:101B500073846114710409F4A3C00196F301268112
:101B600037818217930714F486839783E989FA896A
:101B7000F681F983E989FA89F781FA83E989FA8993
:101B8000F085FB83E989FA89F185FC83E989FA8983
:101B9000F285FD83E989FA89F385FE83E989FA896B
:101BA000F485FF83E989FA89F585F887F301808D4B
:101BB000918DA28DB38D6C017D01FF0CCC08DC2CC6
:101BC0007601282F392F4A2F5B2F6C2D7C2D8C2DE1
:101BD0009C2DA980BA80CB80DC80ED80FE800F81B7
:101BE00018850E94F86411F008F05AC08081918134
:101BF0002816390691F48281938129853A85281720
:101C0000390759F4848195814B855C8548175907BC
:101C100021F4E989FA89668A778A89819A81AB8178
:101C2000BC810196A11DB11DF301808F918FA28F00
:101C3000B38FE680F780628573850B851C852985C7
:101C40003A85A10189899A890E943C01F301E680C5
:101C5000F780648575850B851C8529853A85A101EA
:101C600089899A890E943C01F301E680F7806685A4
:101C700077850B851C8529853A85A10189899A89F3
:101C80000E943C01F301E680F780608971890B8531
:101C90001C8529853A85A10189899A890E943C0180
:101CA000F40186819781648475846114710409F458
:101CB000A3C00196F301268137818217930714F49C
:101CC00086839783E989FA89F681F983E989FA8914
:101CD000F781FA83E989FA89F085FB83E989FA8932
:101CE000F185FC83E989FA89F285FD83E989FA891E
:101CF000F385FE83E989FA89F485FF83E989FA8906
:101D0000F585F887F301808D918DA28DB38D6C01DF
:101D10007D01FF0CCC08DC2C7601282F392F4A2FAF
:101D20005B2F6C2D7C2D8C2D9C2DA980BA80CB80B7
:101D3000DC80ED80FE800F8118850E94F86411F030
:101D400008F05AC0808191812816390691F4828169
:101D5000938129853A852817390759F4848195811B
:101D60004B855C854817590721F4E989FA89668A09
:101D7000778A89819A81AB81BC810196A11DB11DB1
:101D8000F301808F918FA28FB38FE680F7806285F9
:101D900073850B851C8529853A85A10189899A89D6
:101DA0000E943C01F301E680F780648575850B8510
:101DB0001C8529853A85A10189899A890E943C015F
:101DC000F301E680F780668577850B851C8529857C
:101DD0003A85A10189899A890E943C01F301E68034
:101DE000F780608971890B851C8529853A85A10159
:101DF00089899A890E943C01F401868197816684D1
:101E000077846114710409F4A3C00196F30126815B
:101E100037818217930714F486839783E989FA89B7
:101E2000F681F983E989FA89F781FA83E989FA89E0
:101E3000F085FB83E989FA89F185FC83E989FA89D0
:101E4000F285FD83E989FA89F385FE83E989FA89B8
:101E5000F485FF83E989FA89F585F887F301808D98
:101E6000918DA28DB38D6C017D01FF0CCC08DC2C13
:101E70007601282F392F4A2F5B2F6C2D7C2D8C2D2E
:101E80009C2DA980BA80CB80DC80ED80FE800F8104
:101E900018850E94F86411F008F05AC08081918181
:101EA0002816390691F48281938129853A8528176D
:101EB000390759F4848195814B855C85481759070A
:101EC00021F4E989FA89668A778A89819A81AB81C6
:101ED000BC810196A11DB11DF301808F918FA28F4E
:101EE000B38FE680F780628573850B851C85298515
:101EF0003A85A10189899A890E943C01F301E68013
:101F0000F780648575850B851C8529853A85A10137
:101F100089899A890E943C01F301E680F7806685F1
:101F200077850B851C8529853A85A10189899A8940
:101F30000E943C01F301E680F780608971890B857E
:101F40001C8529853A85A10189899A890E943C01CD
:101F5000F401E680F780608971890B851C852985ED
:101F60003A85A10189899A890E943C01ED85FE8507
:101F700086819781448455844114510409F46DC7C6
:101F80000196F201268137818217930714F4868324
:101F90009783E989FA89F681F983E989FA89F781D2
:101FA000FA83E989FA89F085FB83E989FA89F18561
:101FB000FC83E989FA89F285FD83E989FA89F38549
:101FC000FE83E989FA89F485FF83E989FA89F58531
:101FD000F887F201808D918DA28DB38D6C017D010A
:101FE000FF0CCC08DC2C7601282F392F4A2F5B2FD1
:101FF0006C2D7C2D8C2D9C2DA980BA80CB80DC8013
:10200000ED80FE800F8118850E94F86411F008F0C1
:1020100024C7808191812816390691F482819381A9
:1020200029853A852817390759F4848195814B858C
:102030005C854817590721F4E989FA89468A578A45
:1020400089819A81AB81BC810196A11DB11DF201EC
:10205000808F918FA28FB38F8681978182849384A2
:102060008114910409F441C10196F401268137815C
:102070008217930714F486839783E989FA89F68196
:10208000F983E989FA89F781FA83E989FA89F08580
:10209000FB83E989FA89F185FC83E989FA89F2856C
:1020A000FD83E989FA89F385FE83E989FA89F48554
:1020B000FF83E989FA89F585F887F401808D918D90
:1020C000A28DB38D6C017D01FF0CCC08DC2C760158
:1020D000282F392F4A2F5B2F6C2D7C2D8C2D9C2D7A
:1020E000A980BA80CB80DC80ED80FE800F811885CE
:1020F0000E94F86411F008F0F8C0808191812816E0
:10210000390691F48281938129853A852817390708
:1021100059F4848195814B855C854817590721F4D2
:10212000E989FA89868A978A89819A81AB81BC81FB
:102130000196A11DB11DF401808F918FA28FB38FE5
:10214000E680F780628573850B851C8529853A8535
:10215000A10189899A890E943C01F401E680F780F7
:10216000648575850B851C8529853A85A10189893A
:102170009A890E943C01F401E680F78066857785A4
:102180000B851C8529853A85A10189899A890E9438
:102190003C01F401868197818088918881149104A3
:1021A00009F4A3C00196F4012681378182179307B1
:1021B00014F486839783E989FA89F681F983E9899A
:1021C000FA89F781FA83E989FA89F085FB83E9893D
:1021D000FA89F185FC83E989FA89F285FD83E98929
:1021E000FA89F385FE83E989FA89F485FF83E98911
:1021F000FA89F585F887F401808D918DA28DB38DD4
:102200006C017D01FF0CCC08DC2C7601282F392FC6
:102210004A2F5B2F6C2D7C2D8C2D9C2DA980BA8094
:10222000CB80DC80ED80FE800F8118850E94F864F1
:1022300011F008F05AC0808191812816390691F476
:102240008281938129853A852817390759F4848139
:1022500095814B855C854817590721F4E989FA89EE
:10226000868A978A89819A81AB81BC810196A11D5A
:10227000B11DF401808F918FA28FB38FE680F7801C
:10228000628573850B851C8529853A85A10189891D
:102290009A890E943C01F401E680F7806485758587
:1022A0000B851C8529853A85A10189899A890E9417
:1022B0003C01F401E680F780668577850B851C85F7
:1022C00029853A85A10189899A890E943C01F401F6
:1022D000E680F780608971890B851C8529853A85A0
:1022E000A10189899A890E943C01F2018681978126
:1022F000848495848114910409F441C10196F40108
:10230000268137818217930714F486839783E9899E
:10231000FA89F681F983E989FA89F781FA83E989EB
:10232000FA89F085FB83E989FA89F185FC83E989DB
:10233000FA89F285FD83E989FA89F385FE83E989C3
:10234000FA89F485FF83E989FA89F585F887F4012C
:10235000808D918DA28DB38D6C017D01FF0CCC0819
:10236000DC2C7601282F392F4A2F5B2F6C2D7C2DEA
:102370008C2D9C2DA980BA80CB80DC80ED80FE80E6
:102380000F8118850E94F86411F008F0F8C0808170
:1023900091812816390691F48281938129853A85A5
:1023A0002817390759F4848195814B855C85481736
:1023B000590721F4E989FA89868A978A89819A815D
:1023C000AB81BC810196A11DB11DF401808F918F5D
:1023D000A28FB38FE680F780628573850B851C859D
:1023E00029853A85A10189899A890E943C01F401D5
:1023F000E680F780648575850B851C8529853A857F
:10240000A10189899A890E943C01F401E680F78044
:10241000668577850B851C8529853A85A101898983
:102420009A890E943C01F401868197818088918875
:102430008114910409F4A3C00196F4012681378127
:102440008217930714F486839783E989FA89F681C2
:10245000F983E989FA89F781FA83E989FA89F085AC
:10246000FB83E989FA89F185FC83E989FA89F28598
:10247000FD83E989FA89F385FE83E989FA89F48580
:10248000FF83E989FA89F585F887F401808D918DBC
:10249000A28DB38D6C017D01FF0CCC08DC2C760184
:1024A000282F392F4A2F5B2F6C2D7C2D8C2D9C2DA6
:1024B000A980BA80CB80DC80ED80FE800F811885FA
:1024C0000E94F86411F008F05AC0808191812816AA
:1024D000390691F48281938129853A852817390735
:1024E00059F4848195814B855C854817590721F4FF
:1024F000E989FA89868A978A89819A81AB81BC8128
:102500000196A11DB11DF401808F918FA28FB38F11
:10251000E680F780628573850B851C8529853A8561
:10252000A10189899A890E943C01F401E680F78023
:10253000648575850B851C8529853A85A101898966
:102540009A890E943C01F401E680F78066857785D0
:102550000B851C8529853A85A10189899A890E9464
:102560003C01F401E680F780608971890B851C8548
:1025700029853A85A10189899A890E943C01F20145
:1025800086819781868497848114910409F41BC302
:102590000196F401268137818217930714F486830C
:1025A0009783E989FA89F681F983E989FA89F781BC
:1025B000FA83E989FA89F085FB83E989FA89F1854B
:1025C000FC83E989FA89F285FD83E989FA89F38533
:1025D000FE83E989FA89F485FF83E989FA89F5851B
:1025E000F887F401808D918DA28DB38D6C017D01F2
:1025F000FF0CCC08DC2C7601282F392F4A2F5B2FBB
:102600006C2D7C2D8C2D9C2DA980BA80CB80DC80FC
:10261000ED80FE800F8118850E94F86411F008F0AB
:10262000D2C2808191812816390691F482819381EA
:1026300029853A852817390759F4848195814B8576
:102640005C854817590721F4E989FA89868A978AAF
:1026500089819A81AB81BC810196A11DB11DF401D4
:10266000808F918FA28FB38F8681978162847384CC
:102670006114710409F4A3C00196F3012681378126
:102680008217930714F486839783E989FA89F68180
:10269000F983E989FA89F781FA83E989FA89F0856A
:1026A000FB83E989FA89F185FC83E989FA89F28556
:1026B000FD83E989FA89F385FE83E989FA89F4853E
:1026C000FF83E989FA89F585F887F301808D918D7B
:1026D000A28DB38D6C017D01FF0CCC08DC2C760142
:1026E000282F392F4A2F5B2F6C2D7C2D8C2D9C2D64
:1026F000A980BA80CB80DC80ED80FE800F811885B8
:102700000E94F86411F008F05AC080819181281667
:10271000390691F48281938129853A8528173907F2
:1027200059F4848195814B855C854817590721F4BC
:10273000E989FA89668A778A89819A81AB81BC8125
:102740000196A11DB11DF301808F918FA28FB38FD0
:10275000E680F780628573850B851C8529853A851F
:10276000A10189899A890E943C01F301E680F780E2
:10277000648575850B851C8529853A85A101898924
:102780009A890E943C01F301E680F780668577858F
:102790000B851C8529853A85A10189899A890E9422
:1027A0003C01F301E680F780608971890B851C8507
:1027B00029853A85A10189899A890E943C01F40101
:1027C00086819781648475846114710409F4A3C0BF
:1027D0000196F301268137818217930714F48683CB
:1027E0009783E989FA89F681F983E989FA89F7817A
:1027F000FA83E989FA89F085FB83E989FA89F18509
:10280000FC83E989FA89F285FD83E989FA89F385F0
:10281000FE83E989FA89F485FF83E989FA89F585D8
:10282000F887F301808D918DA28DB38D6C017D01B0
:10283000FF0CCC08DC2C7601282F392F4A2F5B2F78
:102840006C2D7C2D8C2D9C2DA980BA80CB80DC80BA
:10285000ED80FE800F8118850E94F86411F008F069
:102860005AC0808191812816390691F48281938122
:1028700029853A852817390759F4848195814B8534
:102880005C854817590721F4E989FA89668A778AAD
:1028900089819A81AB81BC810196A11DB11DF30193
:1028A000808F918FA28FB38FE680F78062857385CA
:1028B0000B851C8529853A85A10189899A890E9401
:1028C0003C01F301E680F780648575850B851C85E6
:1028D00029853A85A10189899A890E943C01F301E1
:1028E000E680F780668577850B851C8529853A8586
:1028F000A10189899A890E943C01F301E680F78051
:10290000608971890B851C8529853A85A101898992
:102910009A890E943C01F4018681978166847784BC
:102920006114710409F4A3C00196F3012681378173
:102930008217930714F486839783E989FA89F681CD
:10294000F983E989FA89F781FA83E989FA89F085B7
:10295000FB83E989FA89F185FC83E989FA89F285A3
:10296000FD83E989FA89F385FE83E989FA89F4858B
:10297000FF83E989FA89F585F887F301808D918DC8
:10298000A28DB38D6C017D01FF0CCC08DC2C76018F
:10299000282F392F4A2F5B2F6C2D7C2D8C2D9C2DB1
:1029A000A980BA80CB80DC80ED80FE800F81188505
:1029B0000E94F86411F008F05AC0808191812816B5
:1029C000390691F48281938129853A852817390740
:1029D00059F4848195814B855C854817590721F40A
:1029E000E989FA89668A778A89819A81AB81BC8173
:1029F0000196A11DB11DF301808F918FA28FB38F1E
:102A0000E680F780628573850B851C8529853A856C
:102A1000A10189899A890E943C01F301E680F7802F
:102A2000648575850B851C8529853A85A101898971
:102A30009A890E943C01F301E680F78066857785DC
:102A40000B851C8529853A85A10189899A890E946F
:102A50003C01F301E680F780608971890B851C8554
:102A600029853A85A10189899A890E943C01F4014E
:102A700086819781808891888114910409F4A3C08C
:102A80000196F401268137818217930714F4868317
:102A90009783E989FA89F681F983E989FA89F781C7
:102AA000FA83E989FA89F085FB83E989FA89F18556
:102AB000FC83E989FA89F285FD83E989FA89F3853E
:102AC000FE83E989FA89F485FF83E989FA89F58526
:102AD000F887F401808D918DA28DB38D6C017D01FD
:102AE000FF0CCC08DC2C7601282F392F4A2F5B2FC6
:102AF0006C2D7C2D8C2D9C2DA980BA80CB80DC8008
:102B0000ED80FE800F8118850E94F86411F008F0B6
:102B10005AC0808191812816390691F4828193816F
:102B200029853A852817390759F4848195814B8581
:102B30005C854817590721F4E989FA89868A978ABA
:102B400089819A81AB81BC810196A11DB11DF401DF
:102B5000808F918FA28FB38FE680F7806285738517
:102B60000B851C8529853A85A10189899A890E944E
:102B70003C01F401E680F780648575850B851C8532
:102B800029853A85A10189899A890E943C01F4012D
:102B9000E680F780668577850B851C8529853A85D3
:102BA000A10189899A890E943C01F401E680F7809D
:102BB000608971890B851C8529853A85A1018989E0
:102BC0009A890E943C01F2018681978180889188D0
:102BD0008114910409F441C10196F40126813781E1
:102BE0008217930714F486839783E989FA89F6811B
:102BF000F983E989FA89F781FA83E989FA89F08505
:102C0000FB83E989FA89F185FC83E989FA89F285F0
:102C1000FD83E989FA89F385FE83E989FA89F485D8
:102C2000FF83E989FA89F585F887F401808D918D14
:102C3000A28DB38D6C017D01FF0CCC08DC2C7601DC
:102C4000282F392F4A2F5B2F6C2D7C2D8C2D9C2DFE
:102C5000A980BA80CB80DC80ED80FE800F81188552
:102C60000E94F86411F008F0F8C080819181281664
:102C7000390691F48281938129853A85281739078D
:102C800059F4848195814B855C854817590721F457
:102C9000E989FA89868A978A89819A81AB81BC8180
:102CA0000196A11DB11DF401808F918FA28FB38F6A
:102CB000E680F780628573850B851C8529853A85BA
:102CC000A10189899A890E943C01F401E680F7807C
:102CD000648575850B851C8529853A85A1018989BF
:102CE0009A890E943C01F401E680F7806685778529
:102CF0000B851C8529853A85A10189899A890E94BD
:102D00003C01F40186819781808891888114910427
:102D100009F4A3C00196F401268137818217930735
:102D200014F486839783E989FA89F681F983E9891E
:102D3000FA89F781FA83E989FA89F085FB83E989C1
:102D4000FA89F185FC83E989FA89F285FD83E989AD
:102D5000FA89F385FE83E989FA89F485FF83E98995
:102D6000FA89F585F887F401808D918DA28DB38D58
:102D70006C017D01FF0CCC08DC2C7601282F392F4B
:102D80004A2F5B2F6C2D7C2D8C2D9C2DA980BA8019
:102D9000CB80DC80ED80FE800F8118850E94F86476
:102DA00011F008F05AC0808191812816390691F4FB
:102DB0008281938129853A852817390759F48481BE
:102DC00095814B855C854817590721F4E989FA8973
:102DD000868A978A89819A81AB81BC810196A11DDF
:102DE000B11DF401808F918FA28FB38FE680F780A1
:102DF000628573850B851C8529853A85A1018989A2
:102E00009A890E943C01F401E680F780648575850B
:102E10000B851C8529853A85A10189899A890E949B
:102E20003C01F401E680F780668577850B851C857B
:102E300029853A85A10189899A890E943C01F4017A
:102E4000E680F780608971890B851C8529853A8524
:102E5000A10189899A890E943C01ED85FE858681C0
:102E60009781468457844114510411F40C94431FF4
:102E70000196F201268137818217930714F4868325
:102E80009783E989FA89F681F983E989FA89F781D3
:102E9000FA83E989FA89F085FB83E989FA89F18562
:102EA000FC83E989FA89F285FD83E989FA89F3854A
:102EB000FE83E989FA89F485FF83E989FA89F58532
:102EC000F887F201808D918DA28DB38D6C017D010B
:102ED000FF0CCC08DC2C7601282F392F4A2F5B2FD2
:102EE0006C2D7C2D8C2D9C2DA980BA80CB80DC8014
:102EF000ED80FE800F8118850E94F86411F008F0C3
:102F0000C2C7808191812816390691F4828193810C
:102F100029853A852817390759F4848195814B858D
:102F20005C854817590721F4E989FA89468A578A46
:102F300089819A81AB81BC810196A11DB11DF201ED
:102F4000808F918FA28FB38F8681978182849384A3
:102F50008114910409F4A3C00196F40126813781FC
:102F60008217930714F486839783E989FA89F68197
:102F7000F983E989FA89F781FA83E989FA89F08581
:102F8000FB83E989FA89F185FC83E989FA89F2856D
:102F9000FD83E989FA89F385FE83E989FA89F48555
:102FA000FF83E989FA89F585F887F401808D918D91
:102FB000A28DB38D6C017D01FF0CCC08DC2C760159
:102FC000282F392F4A2F5B2F6C2D7C2D8C2D9C2D7B
:102FD000A980BA80CB80DC80ED80FE800F811885CF
:102FE0000E94F86411F008F05AC08081918128167F
:102FF000390691F48281938129853A85281739070A
:1030000059F4848195814B855C854817590721F4D3
:10301000E989FA89868A978A89819A81AB81BC81FC
:103020000196A11DB11DF401808F918FA28FB38FE6
:10303000E680F780628573850B851C8529853A8536
:10304000A10189899A890E943C01F401E680F780F8
:10305000648575850B851C8529853A85A10189893B
:103060009A890E943C01F401E680F78066857785A5
:103070000B851C8529853A85A10189899A890E9439
:103080003C01F401E680F780608971890B851C851D
:1030900029853A85A10189899A890E943C01F2011A
:1030A00086819781848495848114910409F4DFC119
:1030B0000196F401268137818217930714F48683E1
:1030C0009783E989FA89F681F983E989FA89F78191
:1030D000FA83E989FA89F085FB83E989FA89F18520
:1030E000FC83E989FA89F285FD83E989FA89F38508
:1030F000FE83E989FA89F485FF83E989FA89F585F0
:10310000F887F401808D918DA28DB38D6C017D01C6
:10311000FF0CCC08DC2C7601282F392F4A2F5B2F8F
:103120006C2D7C2D8C2D9C2DA980BA80CB80DC80D1
:10313000ED80FE800F8118850E94F86411F008F080
:1031400096C1808191812816390691F482819381FC
:1031500029853A852817390759F4848195814B854B
:103160005C854817590721F4E989FA89868A978A84
:1031700089819A81AB81BC810196A11DB11DF401A9
:10318000808F918FA28FB38F8681978162847384A1
:103190006114710409F4A3C00196F30126813781FB
:1031A0008217930714F486839783E989FA89F68155
:1031B000F983E989FA89F781FA83E989FA89F0853F
:1031C000FB83E989FA89F185FC83E989FA89F2852B
:1031D000FD83E989FA89F385FE83E989FA89F48513
:1031E000FF83E989FA89F585F887F301808D918D50
:1031F000A28DB38D6C017D01FF0CCC08DC2C760117
:10320000282F392F4A2F5B2F6C2D7C2D8C2D9C2D38
:10321000A980BA80CB80DC80ED80FE800F8118858C
:103220000E94F86411F008F05AC08081918128163C
:10323000390691F48281938129853A8528173907C7
:1032400059F4848195814B855C854817590721F491
:10325000E989FA89668A778A89819A81AB81BC81FA
:103260000196A11DB11DF301808F918FA28FB38FA5
:10327000E680F780628573850B851C8529853A85F4
:10328000A10189899A890E943C01F301E680F780B7
:10329000648575850B851C8529853A85A1018989F9
:1032A0009A890E943C01F301E680F7806685778564
:1032B0000B851C8529853A85A10189899A890E94F7
:1032C0003C01F301E680F780608971890B851C85DC
:1032D00029853A85A10189899A890E943C01F401D6
:1032E00086819781648475846114710409F4A3C094
:1032F0000196F301268137818217930714F48683A0
:103300009783E989FA89F681F983E989FA89F7814E
:10331000FA83E989FA89F085FB83E989FA89F185DD
:10332000FC83E989FA89F285FD83E989FA89F385C5
:10333000FE83E989FA89F485FF83E989FA89F585AD
:10334000F887F301808D918DA28DB38D6C017D0185
:10335000FF0CCC08DC2C7601282F392F4A2F5B2F4D
:103360006C2D7C2D8C2D9C2DA980BA80CB80DC808F
:10337000ED80FE800F8118850E94F86411F008F03E
:103380005AC0808191812816390691F482819381F7
:1033900029853A852817390759F4848195814B8509
:1033A0005C854817590721F4E989FA89668A778A82
:1033B00089819A81AB81BC810196A11DB11DF30168
:1033C000808F918FA28FB38FE680F780628573859F
:1033D0000B851C8529853A85A10189899A890E94D6
:1033E0003C01F301E680F780648575850B851C85BB
:1033F00029853A85A10189899A890E943C01F301B6
:10340000E680F780668577850B851C8529853A855A
:10341000A10189899A890E943C01F301E680F78025
:10342000608971890B851C8529853A85A101898967
:103430009A890E943C01F401E680F78066857785D1
:103440000B851C8529853A85A10189899A890E9465
:103450003C01F401E680F780608971890B851C8549
:1034600029853A85A10189899A890E943C01F20146
:1034700086819781868497848114910409F41BC303
:103480000196F401268137818217930714F486830D
:103490009783E989FA89F681F983E989FA89F781BD
:1034A000FA83E989FA89F085FB83E989FA89F1854C
:1034B000FC83E989FA89F285FD83E989FA89F38534
:1034C000FE83E989FA89F485FF83E989FA89F5851C
:1034D000F887F401808D918DA28DB38D6C017D01F3
:1034E000FF0CCC08DC2C7601282F392F4A2F5B2FBC
:1034F0006C2D7C2D8C2D9C2DA980BA80CB80DC80FE
:10350000ED80FE800F8118850E94F86411F008F0AC
:10351000D2C2808191812816390691F482819381EB
:1035200029853A852817390759F4848195814B8577
:103530005C854817590721F4E989FA89868A978AB0
:1035400089819A81AB81BC810196A11DB11DF401D5
:10355000808F918FA28FB38F8681978162847384CD
:103560006114710409F4A3C00196F3012681378127
:103570008217930714F486839783E989FA89F68181
:10358000F983E989FA89F781FA83E989FA89F0856B
:10359000FB83E989FA89F185FC83E989FA89F28557
:1035A000FD83E989FA89F385FE83E989FA89F4853F
:1035B000FF83E989FA89F585F887F301808D918D7C
:1035C000A28DB38D6C017D01FF0CCC08DC2C760143
:1035D000282F392F4A2F5B2F6C2D7C2D8C2D9C2D65
:1035E000A980BA80CB80DC80ED80FE800F811885B9
:1035F0000E94F86411F008F05AC080819181281669
:10360000390691F48281938129853A8528173907F3
:1036100059F4848195814B855C854817590721F4BD
:10362000E989FA89668A778A89819A81AB81BC8126
:103630000196A11DB11DF301808F918FA28FB38FD1
:10364000E680F780628573850B851C8529853A8520
:10365000A10189899A890E943C01F301E680F780E3
:10366000648575850B851C8529853A85A101898925
:103670009A890E943C01F301E680F7806685778590
:103680000B851C8529853A85A10189899A890E9423
:103690003C01F301E680F780608971890B851C8508
:1036A00029853A85A10189899A890E943C01F40102
:1036B00086819781648475846114710409F4A3C0C0
:1036C0000196F301268137818217930714F48683CC
:1036D0009783E989FA89F681F983E989FA89F7817B
:1036E000FA83E989FA89F085FB83E989FA89F1850A
:1036F000FC83E989FA89F285FD83E989FA89F385F2
:10370000FE83E989FA89F485FF83E989FA89F585D9
:10371000F887F301808D918DA28DB38D6C017D01B1
:10372000FF0CCC08DC2C7601282F392F4A2F5B2F79
:103730006C2D7C2D8C2D9C2DA980BA80CB80DC80BB
:10374000ED80FE800F8118850E94F86411F008F06A
:103750005AC0808191812816390691F48281938123
:1037600029853A852817390759F4848195814B8535
:103770005C854817590721F4E989FA89668A778AAE
:1037800089819A81AB81BC810196A11DB11DF30194
:10379000808F918FA28FB38FE680F78062857385CB
:1037A0000B851C8529853A85A10189899A890E9402
:1037B0003C01F301E680F780648575850B851C85E7
:1037C00029853A85A10189899A890E943C01F301E2
:1037D000E680F780668577850B851C8529853A8587
:1037E000A10189899A890E943C01F301E680F78052
:1037F000608971890B851C8529853A85A101898994
:103800009A890E943C01F4018681978166847784BD
:103810006114710409F4A3C00196F3012681378174
:103820008217930714F486839783E989FA89F681CE
:10383000F983E989FA89F781FA83E989FA89F085B8
:10384000FB83E989FA89F185FC83E989FA89F285A4
:10385000FD83E989FA89F385FE83E989FA89F4858C
:10386000FF83E989FA89F585F887F301808D918DC9
:10387000A28DB38D6C017D01FF0CCC08DC2C760190
:10388000282F392F4A2F5B2F6C2D7C2D8C2D9C2DB2
:10389000A980BA80CB80DC80ED80FE800F81188506
:1038A0000E94F86411F008F05AC0808191812816B6
:1038B000390691F48281938129853A852817390741
:1038C00059F4848195814B855C854817590721F40B
:1038D000E989FA89668A778A89819A81AB81BC8174
:1038E0000196A11DB11DF301808F918FA28FB38F1F
:1038F000E680F780628573850B851C8529853A856E
:10390000A10189899A890E943C01F301E680F78030
:10391000648575850B851C8529853A85A101898972
:103920009A890E943C01F301E680F78066857785DD
:103930000B851C8529853A85A10189899A890E9470
:103940003C01F301E680F780608971890B851C8555
:1039500029853A85A10189899A890E943C01F4014F
:1039600086819781808891888114910409F4A3C08D
:103970000196F401268137818217930714F4868318
:103980009783E989FA89F681F983E989FA89F781C8
:10399000FA83E989FA89F085FB83E989FA89F18557
:1039A000FC83E989FA89F285FD83E989FA89F3853F
:1039B000FE83E989FA89F485FF83E989FA89F58527
:1039C000F887F401808D918DA28DB38D6C017D01FE
:1039D000FF0CCC08DC2C7601282F392F4A2F5B2FC7
:1039E0006C2D7C2D8C2D9C2DA980BA80CB80DC8009
:1039F000ED80FE800F8118850E94F86411F008F0B8
:103A00005AC0808191812816390691F48281938170
:103A100029853A852817390759F4848195814B8582
:103A20005C854817590721F4E989FA89868A978ABB
:103A300089819A81AB81BC810196A11DB11DF401E0
:103A4000808F918FA28FB38FE680F7806285738518
:103A50000B851C8529853A85A10189899A890E944F
:103A60003C01F401E680F780648575850B851C8533
:103A700029853A85A10189899A890E943C01F4012E
:103A8000E680F780668577850B851C8529853A85D4
:103A9000A10189899A890E943C01F401E680F7809E
:103AA000608971890B851C8529853A85A1018989E1
:103AB0009A890E943C01F2018681978180889188D1
:103AC0008114910409F4DFC10196F4012681378144
:103AD0008217930714F486839783E989FA89F6811C
:103AE000F983E989FA89F781FA83E989FA89F08506
:103AF000FB83E989FA89F185FC83E989FA89F285F2
:103B0000FD83E989FA89F385FE83E989FA89F485D9
:103B1000FF83E989FA89F585F887F401808D918D15
:103B2000A28DB38D6C017D01FF0CCC08DC2C7601DD
:103B3000282F392F4A2F5B2F6C2D7C2D8C2D9C2DFF
:103B4000A980BA80CB80DC80ED80FE800F81188553
:103B50000E94F86411F008F096C1808191812816C6
:103B6000390691F48281938129853A85281739078E
:103B700059F4848195814B855C854817590721F458
:103B8000E989FA89868A978A89819A81AB81BC8181
:103B90000196A11DB11DF401808F918FA28FB38F6B
:103BA00086819781628473846114710409F4A3C0CF
:103BB0000196F301268137818217930714F48683D7
:103BC0009783E989FA89F681F983E989FA89F78186
:103BD000FA83E989FA89F085FB83E989FA89F18515
:103BE000FC83E989FA89F285FD83E989FA89F385FD
:103BF000FE83E989FA89F485FF83E989FA89F585E5
:103C0000F887F301808D918DA28DB38D6C017D01BC
:103C1000FF0CCC08DC2C7601282F392F4A2F5B2F84
:103C20006C2D7C2D8C2D9C2DA980BA80CB80DC80C6
:103C3000ED80FE800F8118850E94F86411F008F075
:103C40005AC0808191812816390691F4828193812E
:103C500029853A852817390759F4848195814B8540
:103C60005C854817590721F4E989FA89668A778AB9
:103C700089819A81AB81BC810196A11DB11DF3019F
:103C8000808F918FA28FB38FE680F78062857385D6
:103C90000B851C8529853A85A10189899A890E940D
:103CA0003C01F301E680F780648575850B851C85F2
:103CB00029853A85A10189899A890E943C01F301ED
:103CC000E680F780668577850B851C8529853A8592
:103CD000A10189899A890E943C01F301E680F7805D
:103CE000608971890B851C8529853A85A10189899F
:103CF0009A890E943C01F401E680F780648575850D
:103D00000B851C8529853A85A10189899A890E949C
:103D10003C01F401E680F780668577850B851C857C
:103D200029853A85A10189899A890E943C01F4017B
:103D300086819781808891888114910409F4A3C0B9
:103D40000196F401268137818217930714F4868344
:103D50009783E989FA89F681F983E989FA89F781F4
:103D6000FA83E989FA89F085FB83E989FA89F18583
:103D7000FC83E989FA89F285FD83E989FA89F3856B
:103D8000FE83E989FA89F485FF83E989FA89F58553
:103D9000F887F401808D918DA28DB38D6C017D012A
:103DA000FF0CCC08DC2C7601282F392F4A2F5B2FF3
:103DB0006C2D7C2D8C2D9C2DA980BA80CB80DC8035
:103DC000ED80FE800F8118850E94F86411F008F0E4
:103DD0005AC0808191812816390691F4828193819D
:103DE00029853A852817390759F4848195814B85AF
:103DF0005C854817590721F4E989FA89868A978AE8
:103E000089819A81AB81BC810196A11DB11DF4010C
:103E1000808F918FA28FB38FE680F7806285738544
:103E20000B851C8529853A85A10189899A890E947B
:103E30003C01F401E680F780648575850B851C855F
:103E400029853A85A10189899A890E943C01F4015A
:103E5000E680F780668577850B851C8529853A8500
:103E6000A10189899A890E943C01F401E680F780CA
:103E7000608971890B851C8529853A85A10189890D
:103E80009A890E943C01ED85FE8586819781408854
:103E900051884114510409F46DC70196F20126813D
:103EA00037818217930714F486839783E989FA8907
:103EB000F681F983E989FA89F781FA83E989FA8930
:103EC000F085FB83E989FA89F185FC83E989FA8920
:103ED000F285FD83E989FA89F385FE83E989FA8908
:103EE000F485FF83E989FA89F585F887F201808DE9
:103EF000918DA28DB38D6C017D01FF0CCC08DC2C63
:103F00007601282F392F4A2F5B2F6C2D7C2D8C2D7D
:103F10009C2DA980BA80CB80DC80ED80FE800F8153
:103F200018850E94F86411F008F024C780819181FF
:103F30002816390691F48281938129853A852817BC
:103F4000390759F4848195814B855C854817590759
:103F500021F4E989FA89468A578A89819A81AB8155
:103F6000BC810196A11DB11DF201808F918FA28F9E
:103F7000B38F86819781828493848114910409F49C
:103F800041C10196F401268137818217930714F409
:103F900086839783E989FA89F681F983E989FA8921
:103FA000F781FA83E989FA89F085FB83E989FA893F
:103FB000F185FC83E989FA89F285FD83E989FA892B
:103FC000F385FE83E989FA89F485FF83E989FA8913
:103FD000F585F887F401808D918DA28DB38D6C01EC
:103FE0007D01FF0CCC08DC2C7601282F392F4A2FBD
:103FF0005B2F6C2D7C2D8C2D9C2DA980BA80CB80C5
:10400000DC80ED80FE800F8118850E94F86411F03D
:1040100008F0F8C0808191812816390691F48281D8
:10402000938129853A852817390759F48481958128
:104030004B855C854817590721F4E989FA89868AF6
:10404000978A89819A81AB81BC810196A11DB11D9E
:10405000F401808F918FA28FB38FE680F780628505
:1040600073850B851C8529853A85A10189899A89E3
:104070000E943C01F401E680F780648575850B851C
:104080001C8529853A85A10189899A890E943C016C
:10409000F401E680F780668577850B851C85298588
:1040A0003A85A10189899A890E943C01F40186819F
:1040B0009781808891888114910409F4A3C00196A6
:1040C000F401268137818217930714F4868397833E
:1040D000E989FA89F681F983E989FA89F781FA830E
:1040E000E989FA89F085FB83E989FA89F185FC83FE
:1040F000E989FA89F285FD83E989FA89F385FE83E6
:10410000E989FA89F485FF83E989FA89F585F887D1
:10411000F401808D918DA28DB38D6C017D01FF0C1A
:10412000CC08DC2C7601282F392F4A2F5B2F6C2DE1
:104130007C2D8C2D9C2DA980BA80CB80DC80ED80DD
:10414000FE800F8118850E94F86411F008F05AC0B3
:10415000808191812816390691F482819381298585
:104160003A852817390759F4848195814B855C85F8
:104170004817590721F4E989FA89868A978A89813B
:104180009A81AB81BC810196A11DB11DF401808F84
:10419000918FA28FB38FE680F780628573850B8540
:1041A0001C8529853A85A10189899A890E943C014B
:1041B000F401E680F780648575850B851C8529856B
:1041C0003A85A10189899A890E943C01F401E6801F
:1041D000F780668577850B851C8529853A85A10141
:1041E00089899A890E943C01F401E680F780608900
:1041F00071890B851C8529853A85A10189899A8950
:104200000E943C01F2018681978184849584811407
:10421000910409F4A3C00196F40126813781821725
:10422000930714F486839783E989FA89F681F983E1
:10423000E989FA89F781FA83E989FA89F085FB83AC
:10424000E989FA89F185FC83E989FA89F285FD8398
:10425000E989FA89F385FE83E989FA89F485FF8380
:10426000E989FA89F585F887F401808D918DA28D11
:10427000B38D6C017D01FF0CCC08DC2C7601282F5E
:10428000392F4A2F5B2F6C2D7C2D8C2D9C2DA980D6
:10429000BA80CB80DC80ED80FE800F8118850E9483
:1042A000F86411F008F05AC080819181281639060F
:1042B00091F48281938129853A852817390759F429
:1042C000848195814B855C854817590721F4E989DC
:1042D000FA89868A978A89819A81AB81BC81019605
:1042E000A11DB11DF401808F918FA28FB38FE68045
:1042F000F780628573850B851C8529853A85A10128
:1043000089899A890E943C01F401E680F7806485DE
:1043100075850B851C8529853A85A10189899A892E
:104320000E943C01F401E680F780668577850B8565
:104330001C8529853A85A10189899A890E943C01B9
:10434000F401E680F780608971890B851C852985D9
:104350003A85A10189899A890E943C01F2018681EE
:104360009781868497848114910409F41BC3019674
:10437000F401268137818217930714F4868397838B
:10438000E989FA89F681F983E989FA89F781FA835B
:10439000E989FA89F085FB83E989FA89F185FC834B
:1043A000E989FA89F285FD83E989FA89F385FE8333
:1043B000E989FA89F485FF83E989FA89F585F8871F
:1043C000F401808D918DA28DB38D6C017D01FF0C68
:1043D000CC08DC2C7601282F392F4A2F5B2F6C2D2F
:1043E0007C2D8C2D9C2DA980BA80CB80DC80ED802B
:1043F000FE800F8118850E94F86411F008F0D2C287
:10440000808191812816390691F4828193812985D2
:104410003A852817390759F4848195814B855C8545
:104420004817590721F4E989FA89868A978A898188
:104430009A81AB81BC810196A11DB11DF401808FD1
:10444000918FA28FB38F8681978162847384611468
:10445000710409F4A3C00196F30126813781821704
:10446000930714F486839783E989FA89F681F9839F
:10447000E989FA89F781FA83E989FA89F085FB836A
:10448000E989FA89F185FC83E989FA89F285FD8356
:10449000E989FA89F385FE83E989FA89F485FF833E
:1044A000E989FA89F585F887F301808D918DA28DD0
:1044B000B38D6C017D01FF0CCC08DC2C7601282F1C
:1044C000392F4A2F5B2F6C2D7C2D8C2D9C2DA98094
:1044D000BA80CB80DC80ED80FE800F8118850E9441
:1044E000F86411F008F05AC08081918128163906CD
:1044F00091F48281938129853A852817390759F4E7
:10450000848195814B855C854817590721F4E98999
:10451000FA89668A778A89819A81AB81BC81019602
:10452000A11DB11DF301808F918FA28FB38FE68003
:10453000F780628573850B851C8529853A85A101E5
:1045400089899A890E943C01F301E680F78064859D
:1045500075850B851C8529853A85A10189899A89EC
:104560000E943C01F301E680F780668577850B8524
:104570001C8529853A85A10189899A890E943C0177
:10458000F301E680F780608971890B851C85298598
:104590003A85A10189899A890E943C01F4018681AA
:1045A0009781648475846114710409F4A3C0019631
:1045B000F301268137818217930714F4868397834A
:1045C000E989FA89F681F983E989FA89F781FA8319
:1045D000E989FA89F085FB83E989FA89F185FC8309
:1045E000E989FA89F285FD83E989FA89F385FE83F1
:1045F000E989FA89F485FF83E989FA89F585F887DD
:10460000F301808D918DA28DB38D6C017D01FF0C26
:10461000CC08DC2C7601282F392F4A2F5B2F6C2DEC
:104620007C2D8C2D9C2DA980BA80CB80DC80ED80E8
:10463000FE800F8118850E94F86411F008F05AC0BE
:10464000808191812816390691F482819381298590
:104650003A852817390759F4848195814B855C8503
:104660004817590721F4E989FA89668A778A898186
:104670009A81AB81BC810196A11DB11DF301808F90
:10468000918FA28FB38FE680F780628573850B854B
:104690001C8529853A85A10189899A890E943C0156
:1046A000F301E680F780648575850B851C85298577
:1046B0003A85A10189899A890E943C01F301E6802B
:1046C000F780668577850B851C8529853A85A1014C
:1046D00089899A890E943C01F301E680F78060890C
:1046E00071890B851C8529853A85A10189899A895B
:1046F0000E943C01F401868197816684778461146D
:10470000710409F4A3C00196F30126813781821751
:10471000930714F486839783E989FA89F681F983EC
:10472000E989FA89F781FA83E989FA89F085FB83B7
:10473000E989FA89F185FC83E989FA89F285FD83A3
:10474000E989FA89F385FE83E989FA89F485FF838B
:10475000E989FA89F585F887F301808D918DA28D1D
:10476000B38D6C017D01FF0CCC08DC2C7601282F69
:10477000392F4A2F5B2F6C2D7C2D8C2D9C2DA980E1
:10478000BA80CB80DC80ED80FE800F8118850E948E
:10479000F86411F008F05AC080819181281639061A
:1047A00091F48281938129853A852817390759F434
:1047B000848195814B855C854817590721F4E989E7
:1047C000FA89668A778A89819A81AB81BC81019650
:1047D000A11DB11DF301808F918FA28FB38FE68051
:1047E000F780628573850B851C8529853A85A10133
:1047F00089899A890E943C01F301E680F7806485EB
:1048000075850B851C8529853A85A10189899A8939
:104810000E943C01F301E680F780668577850B8571
:104820001C8529853A85A10189899A890E943C01C4
:10483000F301E680F780608971890B851C852985E5
:104840003A85A10189899A890E943C01F4018681F7
:104850009781808891888114910409F4A3C00196FE
:10486000F401268137818217930714F48683978396
:10487000E989FA89F681F983E989FA89F781FA8366
:10488000E989FA89F085FB83E989FA89F185FC8356
:10489000E989FA89F285FD83E989FA89F385FE833E
:1048A000E989FA89F485FF83E989FA89F585F8872A
:1048B000F401808D918DA28DB38D6C017D01FF0C73
:1048C000CC08DC2C7601282F392F4A2F5B2F6C2D3A
:1048D0007C2D8C2D9C2DA980BA80CB80DC80ED8036
:1048E000FE800F8118850E94F86411F008F05AC00C
:1048F000808191812816390691F4828193812985DE
:104900003A852817390759F4848195814B855C8550
:104910004817590721F4E989FA89868A978A898193
:104920009A81AB81BC810196A11DB11DF401808FDC
:10493000918FA28FB38FE680F780628573850B8598
:104940001C8529853A85A10189899A890E943C01A3
:10495000F401E680F780648575850B851C852985C3
:104960003A85A10189899A890E943C01F401E68077
:10497000F780668577850B851C8529853A85A10199
:1049800089899A890E943C01F401E680F780608958
:1049900071890B851C8529853A85A10189899A89A8
:1049A0000E943C01F2018681978180889188811460
:1049B000910409F4DFC10196F40126813781821741
:1049C000930714F486839783E989FA89F681F9833A
:1049D000E989FA89F781FA83E989FA89F085FB8305
:1049E000E989FA89F185FC83E989FA89F285FD83F1
:1049F000E989FA89F385FE83E989FA89F485FF83D9
:104A0000E989FA89F585F887F401808D918DA28D69
:104A1000B38D6C017D01FF0CCC08DC2C7601282FB6
:104A2000392F4A2F5B2F6C2D7C2D8C2D9C2DA9802E
:104A3000BA80CB80DC80ED80FE800F8118850E94DB
:104A4000F86411F008F096C180819181281639062A
:104A500091F48281938129853A852817390759F481
:104A6000848195814B855C854817590721F4E98934
:104A7000FA89868A978A89819A81AB81BC8101965D
:104A8000A11DB11DF401808F918FA28FB38F8681FC
:104A90009781628473846114710409F4A3C0019640
:104AA000F301268137818217930714F48683978355
:104AB000E989FA89F681F983E989FA89F781FA8324
:104AC000E989FA89F085FB83E989FA89F185FC8314
:104AD000E989FA89F285FD83E989FA89F385FE83FC
:104AE000E989FA89F485FF83E989FA89F585F887E8
:104AF000F301808D918DA28DB38D6C017D01FF0C32
:104B0000CC08DC2C7601282F392F4A2F5B2F6C2DF7
:104B10007C2D8C2D9C2DA980BA80CB80DC80ED80F3
:104B2000FE800F8118850E94F86411F008F05AC0C9
:104B3000808191812816390691F48281938129859B
:104B40003A852817390759F4848195814B855C850E
:104B50004817590721F4E989FA89668A778A898191
:104B60009A81AB81BC810196A11DB11DF301808F9B
:104B7000918FA28FB38FE680F780628573850B8556
:104B80001C8529853A85A10189899A890E943C0161
:104B9000F301E680F780648575850B851C85298582
:104BA0003A85A10189899A890E943C01F301E68036
:104BB000F780668577850B851C8529853A85A10157
:104BC00089899A890E943C01F301E680F780608917
:104BD00071890B851C8529853A85A10189899A8966
:104BE0000E943C01F401E680F780648575850B85A1
:104BF0001C8529853A85A10189899A890E943C01F1
:104C0000F40186819781668477846114710409F4C4
:104C1000A3C00196F301268137818217930714F40C
:104C200086839783E989FA89F681F983E989FA8984
:104C3000F781FA83E989FA89F085FB83E989FA89A2
:104C4000F185FC83E989FA89F285FD83E989FA898E
:104C5000F385FE83E989FA89F485FF83E989FA8976
:104C6000F585F887F301808D918DA28DB38D6C0150
:104C70007D01FF0CCC08DC2C7601282F392F4A2F20
:104C80005B2F6C2D7C2D8C2D9C2DA980BA80CB8028
:104C9000DC80ED80FE800F8118850E94F86411F0A1
:104CA00008F05AC0808191812816390691F48281DA
:104CB000938129853A852817390759F4848195818C
:104CC0004B855C854817590721F4E989FA89668A7A
:104CD000778A89819A81AB81BC810196A11DB11D22
:104CE000F301808F918FA28FB38FE680F78062856A
:104CF00073850B851C8529853A85A10189899A8947
:104D00000E943C01F301E680F780648575850B8580
:104D10001C8529853A85A10189899A890E943C01CF
:104D2000F301E680F780668577850B851C852985EC
:104D30003A85A10189899A890E943C01F301E680A4
:104D4000F780608971890B851C8529853A85A101C9
:104D500089899A890E943C01F401E680F780608984
:104D600071890B851C8529853A85A10189899A89D4
:104D70000E943C01E989FA89268137814085518565
:104D80006285738584859585A1E00E94EC64268305
:104D900037834087518762877387848795878688A2
:104DA00097888114910409F05AC0ECE5F0E224815F
:104DB00035818081918101972817390784F42F5F0D
:104DC0003F4F20936020309361204EE1429FC0010D
:104DD000439F900D11249C012E593F4D4901F40130
:104DE0002082318229853A85228333834B855C85F5
:104DF00044835583EF85F88982859385892BA9F0B3
:104E000084859585892B59F086859785892B51F066
:104E100080899189892BA1F4E3E0F0E008C0E1E00A
:104E2000F0E005C0E2E0F0E002C0E0E0F0E035963E
:104E3000EE0FFF1F2F853889E20FF31F80829182CA
:104E4000EF85F889868197810196F401868397839F
:104E50002F853889228B338B22873387B8C3EF8520
:104E6000F889828593858815990509F4ABC3248553
:104E700035852815390509F4A5C3268537852815F4
:104E8000390509F49FC3208931892815390509F4AA
:104E900099C3892BA1F084859585892B51F086854E
:104EA0009785892B49F0C901892BA9F483E090E00B
:104EB00008C081E090E005C082E090E002C080E0A0
:104EC00090E0FC013596EE0FFF1F2F853889E20F29
:104ED000F31F80829182F401828593852F85388922
:104EE0002817390799F1248535854F855889421748
:104EF000530761F1268537854217530739F1208919
:104F000031894217530711F1892BA1F084859585CA
:104F1000892B51F086859785892B49F0C901892B0A
:104F2000A9F483E090E008C081E090E005C082E051
:104F300090E002C080E090E0FC013596EE0FFF1F8C
:104F4000E80DF91D8F85988980839183E989FA8915
:104F5000168A178A42805380F20186819781411414
:104F6000510409F41AC39C012F5F3F4F28173907DA
:104F700014F426833783E989FA89F681F983E9896C
:104F8000FA89F781FA83E989FA89F085FB83E9894F
:104F9000FA89F185FC83E989FA89F285FD83E9893B
:104FA000FA89F385FE83E989FA89F485FF83E98923
:104FB000FA89F585F887F201808D918DA28DB38DE8
:104FC0006C017D01FF0CCC08DC2C7601282F392FD9
:104FD0004A2F5B2F6C2D7C2D8C2D9C2DA980BA80A7
:104FE000CB80DC80ED80FE800F8118850E94F86404
:104FF00011F008F0D2C2808191812816390691F40F
:105000008281938129853A852817390759F484814B
:1050100095814B855C854817590721F4E989FA8900
:10502000468A578A89819A81AB81BC810196A11DEC
:10503000B11DF201808F918FA28FB38F86819781EE
:10504000628473846114710409F4A3C00196F301AE
:10505000268137818217930714F486839783E98921
:10506000FA89F681F983E989FA89F781FA83E9896E
:10507000FA89F085FB83E989FA89F185FC83E9895E
:10508000FA89F285FD83E989FA89F385FE83E98946
:10509000FA89F485FF83E989FA89F585F887F301B0
:1050A000808D918DA28DB38D6C017D01FF0CCC089C
:1050B000DC2C7601282F392F4A2F5B2F6C2D7C2D6D
:1050C0008C2D9C2DA980BA80CB80DC80ED80FE8069
:1050D0000F8118850E94F86411F008F05AC0808191
:1050E00091812816390691F48281938129853A8528
:1050F0002817390759F4848195814B855C854817B9
:10510000590721F4E989FA89668A778A89819A811F
:10511000AB81BC810196A11DB11DF301808F918FE0
:10512000A28FB38FE680F780628573850B851C851F
:1051300029853A85A10189899A890E943C01F30158
:10514000E680F780648575850B851C8529853A8501
:10515000A10189899A890E943C01F301E680F780C8
:10516000668577850B851C8529853A85A101898906
:105170009A890E943C01F301E680F7806089718979
:105180000B851C8529853A85A10189899A890E9408
:105190003C01F201868197816484758461147104F5
:1051A00009F4A3C00196F301268137818217930782
:1051B00014F486839783E989FA89F681F983E9896A
:1051C000FA89F781FA83E989FA89F085FB83E9890D
:1051D000FA89F185FC83E989FA89F285FD83E989F9
:1051E000FA89F385FE83E989FA89F485FF83E989E1
:1051F000FA89F585F887F301808D918DA28DB38DA5
:105200006C017D01FF0CCC08DC2C7601282F392F96
:105210004A2F5B2F6C2D7C2D8C2D9C2DA980BA8064
:10522000CB80DC80ED80FE800F8118850E94F864C1
:1052300011F008F05AC0808191812816390691F446
:105240008281938129853A852817390759F4848109
:1052500095814B855C854817590721F4E989FA89BE
:10526000668A778A89819A81AB81BC810196A11D6A
:10527000B11DF301808F918FA28FB38FE680F780ED
:10528000628573850B851C8529853A85A1018989ED
:105290009A890E943C01F301E680F7806485758558
:1052A0000B851C8529853A85A10189899A890E94E7
:1052B0003C01F301E680F780668577850B851C85C8
:1052C00029853A85A10189899A890E943C01F301C7
:1052D000E680F780608971890B851C8529853A8570
:1052E000A10189899A890E943C01F20186819781F6
:1052F000668477846114710409F4A3C00196F301F4
:10530000268137818217930714F486839783E9896E
:10531000FA89F681F983E989FA89F781FA83E989BB
:10532000FA89F085FB83E989FA89F185FC83E989AB
:10533000FA89F285FD83E989FA89F385FE83E98993
:10534000FA89F485FF83E989FA89F585F887F301FD
:10535000808D918DA28DB38D6C017D01FF0CCC08E9
:10536000DC2C7601282F392F4A2F5B2F6C2D7C2DBA
:105370008C2D9C2DA980BA80CB80DC80ED80FE80B6
:105380000F8118850E94F86411F008F05AC08081DE
:1053900091812816390691F48281938129853A8575
:1053A0002817390759F4848195814B855C85481706
:1053B000590721F4E989FA89668A778A89819A816D
:1053C000AB81BC810196A11DB11DF301808F918F2E
:1053D000A28FB38FE680F780628573850B851C856D
:1053E00029853A85A10189899A890E943C01F301A6
:1053F000E680F780648575850B851C8529853A854F
:10540000A10189899A890E943C01F301E680F78015
:10541000668577850B851C8529853A85A101898953
:105420009A890E943C01F301E680F78060897189C6
:105430000B851C8529853A85A10189899A890E9455
:105440003C01F20186819781608871886114710442
:1054500009F4A3C00196F3012681378182179307CF
:1054600014F486839783E989FA89F681F983E989B7
:10547000FA89F781FA83E989FA89F085FB83E9895A
:10548000FA89F185FC83E989FA89F285FD83E98946
:10549000FA89F385FE83E989FA89F485FF83E9892E
:1054A000FA89F585F887F301808D918DA28DB38DF2
:1054B0006C017D01FF0CCC08DC2C7601282F392FE4
:1054C0004A2F5B2F6C2D7C2D8C2D9C2DA980BA80B2
:1054D000CB80DC80ED80FE800F8118850E94F8640F
:1054E00011F008F05AC0808191812816390691F494
:1054F0008281938129853A852817390759F4848157
:1055000095814B855C854817590721F4E989FA890B
:10551000668A778A89819A81AB81BC810196A11DB7
:10552000B11DF301808F918FA28FB38FE680F7803A
:10553000628573850B851C8529853A85A10189893A
:105540009A890E943C01F301E680F78064857585A5
:105550000B851C8529853A85A10189899A890E9434
:105560003C01F301E680F780668577850B851C8515
:1055700029853A85A10189899A890E943C01F30114
:10558000E680F780608971890B851C8529853A85BD
:10559000A10189899A890E943C01E989FA892681B9
:1055A0003781408551856285738584859585A1E025
:1055B0000E94EC6426833783408751876287738714
:1055C000848795872F853889F401228B338B6296E7
:1055D000CDBFDEBFDF91CF911F910F91FF90EF9074
:1055E000DF90CF90BF90AF909F908F907F906F9003
:1055F0005F904F903F902F9008952F923F924F923F
:105600005F926F927F928F929F92AF92BF92CF9252
:10561000DF92EF92FF920F931F93CF93DF93CDB75B
:10562000DEB72E97CDBFDEBF8D879E87F801240F92
:10563000351F2D5F3F4F23703078332334F42150D2
:1056400031092C6F3F6F2F5F3F4F2130310509F437
:10565000C1C724F4232B71F00C940752223031057A
:1056600011F40C944E3F2330310511F40C9454483E
:105670000C940752DB0114960D90BC91A02DAB87C2
:10568000BC87DB0112960D90BC91A02DA987BA872B
:10569000DB014D905C90AD85BE8556961D921C92A7
:1056A000579712962D903C901397D10116968D9195
:1056B0009C9117972114310409F473C79C012F5F43
:1056C0003F4F2817390724F416962D933C931797CC
:1056D000AD85BE851696BC91B983AD85BE851796FE
:1056E000BC91BA83AD85BE851896BC91BB83AD8550
:1056F000BE851996BC91BC83AD85BE851A96BC91BA
:10570000BD83AD85BE851B96BC91BE83AD85BE8530
:105710001C96BC91BF83AD85BE851D96BC91B88794
:10572000D10158968D909D90AD90BC905B9775017E
:105730006401FF0CCC08DC2C7601282D392D4A2D74
:105740005B2D6C2D7C2D8C2D9C2DA980BA80CB805F
:10575000DC80ED80FE800F8118850E94F86411F0D6
:1057600008F01FC74E1A5F0A8D919C911197481639
:105770005906C1F412968D919C911397E985FA858B
:10578000E817F90779F414968D919C9115972B855C
:105790003C852817390731F4AD85BE8556962D9284
:1057A0003C92579789819A81AB81BC810196A11D5A
:1057B000B11DF101808F918FA28FB38F8681978168
:1057C000828493848114910409F4B3C00196D401B6
:1057D00016962D913C9117978217930724F41696ED
:1057E0008D939C931797ED85FE85F681F983AD85A2
:1057F000BE851796BC91BA83ED85FE85F085FB8347
:10580000AD85BE851996BC91BC83ED85FE85F2857C
:10581000FD83AD85BE851B96BC91BE83ED85FE855F
:10582000F485FF83AD85BE851D96BC91B887F401D4
:10583000808D918DA28DB38D6C017D01FF0CCC0804
:10584000DC2C7601282F392F4A2F5B2F6C2D7C2DD5
:105850008C2D9C2DA980BA80CB80DC80ED80FE80D1
:105860000F8118850E94F86411F008F062C08081F1
:1058700091814816590691F48281938129853A8550
:105880002817390759F484819581AB85BC85A81701
:10589000B90721F4ED85FE85868A978A89819A81E8
:1058A000AB81BC810196A11DB11DF401808F918F48
:1058B000A28FB38FE680F780628573850B851C8588
:1058C00029853A85A2018D859E850E943C01D401DF
:1058D0001696ED90FC9017971C966D917C911D97F4
:1058E0000B851C8529853A85A2018D859E850E94A0
:1058F0003C01F401E680F780668577850B851C8581
:1059000029853A85A2018D859E850E943C01D4019E
:105910001696ED90FC90179750966D917C9151974B
:105920000B851C8529853A85A2018D859E850E945F
:105930003C01F101868197818484958481149104CE
:1059400009F463C30196D40116962D913C911797E3
:105950008217930724F416968D939C931797ED85E1
:10596000FE85F681F983AD85BE851796BC91BA8315
:10597000ED85FE85F085FB83AD85BE851996BC91CE
:10598000BC83ED85FE85F285FD83AD85BE851B96C6
:10599000BC91BE83ED85FE85F485FF83AD85BE8514
:1059A0001D96BC91B887F401808D918DA28DB38D29
:1059B0006C017D01FF0CCC08DC2C7601282F392FDF
:1059C0004A2F5B2F6C2D7C2D8C2D9C2DA980BA80AD
:1059D000CB80DC80ED80FE800F8118850E94F8640A
:1059E00011F008F012C3808191814816590691F494
:1059F0008281938129853A852817390759F4848152
:105A00009581AB85BC85A817B90721F4ED85FE8586
:105A1000868A978A89819A81AB81BC810196A11D72
:105A2000B11DF401808F918FA28FB38F86819781F2
:105A3000628473846114710409F4B3C00196D301C4
:105A400016962D913C9117978217930724F416967A
:105A50008D939C931797ED85FE85F681F983AD852F
:105A6000BE851796BC91BA83ED85FE85F085FB83D4
:105A7000AD85BE851996BC91BC83ED85FE85F2850A
:105A8000FD83AD85BE851B96BC91BE83ED85FE85ED
:105A9000F485FF83AD85BE851D96BC91B887F30163
:105AA000808D918DA28DB38D6C017D01FF0CCC0892
:105AB000DC2C7601282F392F4A2F5B2F6C2D7C2D63
:105AC0008C2D9C2DA980BA80CB80DC80ED80FE805F
:105AD0000F8118850E94F86411F008F062C080817F
