S00E0000417175696C612E73726563B9
S11300000C9420010C9456010C9456010C94560146
S11300100C9456010C9456010C9456010C94560100
S11300200C9456010C9456010C9456010C945601F0
S11300300C9456010C9456010C9456010C945601E0
S11300400C9456010C9456010C9456010C945601D0
S11300500C9456010C9456010C9456010C945601C0
S11300600C9456010C9456010C9456010C945601B0
S11300700C9456010C9456010C9456010C945601A0
S11300800C9456010C9456010C9456010C94560190
S11300900C9456010C9456010C9456010C94560180
S11300A00C9456010C9456010C9456010C94560170
S11300B00C9456010C9456010C9456010C94560160
S11300C00C9456010C9456010C9456010C94560150
S11300D00C9456010C9456010C9456010C94560140
S11300E00C9456010C9456010C9456010C94560130
S11300F00C9456010C9456010C9456010C94560120
S11301000C9456010C9456010C9456010C9456010F
S11301100C9456010C9456010C9456010C945601FF
S11301200C9456010C9456010C9456010C945601EF
S11301300C9456010C9461600C9456010C94560175
S11301400C9456010C9456010C9456010C945601CF
S11301500C9456010C9456010C9456010C945601BF
S11301600C9456010C9456010C9456010C945601AF
S11301700C9456010C9456010C9456010C9456019F
S11301800C9456010C9456010C9456010C9456018F
S11301900C9456010C9456010C9456010C9456017F
S11301A00C9456010C9456010C9456010C9456016F
S11301B00C9456010C9456010C9456010C9456015F
S11301C00C9456010C9456010C9456010C9456014F
S11301D00C9456010C9456010C9456010C9456013F
S11301E00C9456010C9456010C9456010C9456012F
S11301F00C9456010C9456010C945601545D635DA5
S1130200CC5DCC5D725D815D905D9F5DAE5DBD5DDD
S11302100C949F5D0C94725D0C94545D0C94DE5DA3
S11302200C94BD5D0C94AE5D0C94815D0C94CC5D1E
S11302300C9452520C94635D0C94905D5252DE5DAA
S113024011241FBECFEFCDBFDFE3DEBF00E00CBF44
S113025018BE19BE1ABE1BBE10E2A0E0B0E2E4E56F
S1130260F5EC00E00BBF02C007900D92A032B1077D
S1130270D9F71BBE2CE3A0E2B0E201C01D92A9385D
S1130280B207E1F711E0C0E2D1E000E006C0219737
S11302900109802FFE010E947B62CE31D10780E0EC
S11302A00807A9F70E9413520C94A8620C9400004A
S11302B02F923F924F925F926F927F928F929F9272
S11302C0AF92BF92CF92DF92EF92FF920F931F9360
S11302D0CF93DF93CDB7DEB72E97CDBFDEBF8D872B
S11302E09E87FB012A0149013801309709F4CEC5E4
S11302F02FEFE21AF20A86819781E816F90614F4C0
S1130300E682F782AD85BE851696BC91B983AD852C
S1130310BE851796BC91BA83AD85BE851896BC91EF
S1130320BB83AD85BE851996BC91BC83AD85BE8566
S11303301A96BC91BD83AD85BE851B96BC91BE83C8
S1130340AD85BE851C96BC91BF83AD85BE851D96CB
S1130350BC91B887358D248D932F990F990B492F14
S1130360592F692F792F892FA980BA80CB80DC80FF
S1130370ED80FE800F811B2F0E949F6211F008F018
S113038085C5808191818415950581F4828193814D
S11303908815990559F4848195818615970531F45A
S11303A0AD85BE855696ED93FC9357976B867C86F8
S11303B089869A861F0189819A810196D1015C966A
S11303C08D939C935D9716968D919C9117971A9691
S11303D08D909C901B978114910409F4ACC00196F4
S11303E0F401268137818217930714F48683978357
S11303F0AD85BE851696BC91B983ED85FE85F781E2
S1130400FA83AD85BE851896BC91BB83ED85FE85C8
S1130410F185FC83AD85BE851A96BC91BD83ED85BF
S1130420FE85F385FE83AD85BE851C96BC91BF8396
S1130430ED85FE85F585F887D4015D963C915D9741
S11304405C962C915C97932F990F990B492F592FF8
S1130450692F792F892FA980BA80CB80DC80ED8029
S1130460FE800F811F2F0E949F6211F008F063C06D
S11304708D919C91119748165906C1F412968D914D
S11304809C911397E985FA85E817F90779F414968E
S11304908D919C9115972B853C852817390731F44C
S11304A0AD85BE8556968D929C92579789819A8187
S11304B00196F401848F958FE680F78062857385B9
S11304C00B851C8529853A85A2018D859E850E9410
S11304D05801D4011696ED90FC9017971C966D91D7
S11304E07C911D970B851C8529853A85A2018D85F4
S11304F09E850E945801F401E680F7806685778521
S11305000B851C8529853A85A2018D859E850E94CF
S11305105801D4011696ED90FC90179750966D9162
S11305207C9151970B851C8529853A85A2018D857F
S11305309E850E945801F101868197818484958467
S11305408114910409F439C30196D40116962D91AE
S11305503C9117978217930724F416968D939C93D6
S11305601797ED85FE85F681F983AD85BE851796CF
S1130570BC91BA83ED85FE85F085FB83AD85BE8590
S11305801996BC91BC83ED85FE85F285FD83AD850E
S1130590BE851B96BC91BE83ED85FE85F485FF83E5
S11305A0AD85BE851D96BC91B887F401358D248D2B
S11305B0932F990F990B492F592F692F792F892F31
S11305C0A980BA80CB80DC80ED80FE800F811B2F58
S11305D00E949F6211F008F0F0C280819181481658
S11305E0590691F48281938129853A852817390720
S11305F059F484819581AB85BC85A817B90721F48A
S1130600ED85FE85868A978A89819A810196D4012F
S11306105C968D939C935D9716968D919C911797FC
S11306201A966D907C901B976114710409F4ACC008
S11306300196F301268137818217930714F4868388
S11306409783AD85BE851696BC91B983ED85FE85ED
S1130650F781FA83AD85BE851896BC91BB83ED8581
S1130660FE85F185FC83AD85BE851A96BC91BD835C
S1130670ED85FE85F385FE83AD85BE851C96BC9114
S1130680BF83ED85FE85F585F887D3015D963C91A2
S11306905D975C962C915C97932F990F990B492F3A
S11306A0592F692F792F892FA980BA80CB80DC80BC
S11306B0ED80FE800F811F2F0E949F6211F008F0D1
S11306C063C08D919C91119748165906C1F41296F6
S11306D08D919C911397E985FA85E817F90779F4C8
S11306E014968D919C9115972B853C852817390775
S11306F031F4AD85BE8556966D927C92579789816B
S11307009A810196F301848F958FE680F780628544
S113071073850B851C8529853A85A2018D859E8567
S11307200E945801D3011696ED90FC9017971C96E1
S11307306D917C911D970B851C8529853A85A201B5
S11307408D859E850E945801F301E680F7806685B9
S113075077850B851C8529853A85A2018D859E8523
S11307600E945801D3011696ED90FC90179750966D
S11307706D917C9151970B851C8529853A85A20141
S11307808D859E850E945801F40186819781648439
S113079075846114710409F4A7C00196D3011696F7
S11307A02D913C9117978217930724F416968D93F5
S11307B09C931797ED85FE85F681F983AD85BE85FB
S11307C01796BC91BA83ED85FE85F085FB83AD85D4
S11307D0BE851996BC91BC83ED85FE85F285FD83AB
S11307E0AD85BE851B96BC91BE83ED85FE85F485E3
S11307F0FF83AD85BE851D96BC91B887F301358D09
S1130800248D932F990F990B492F592F692F792FE5
S1130810892FA980BA80CB80DC80ED80FE800F8197
S11308201B2F0E949F6211F008F05EC080819181AD
S11308304816590691F48281938129853A852817AF
S1130840390759F484819581AB85BC85A817B9070C
S113085021F4ED85FE85668A778A89819A810196DD
S1130860D3015C968D939C935D971696ED90FC90C6
S113087017971A966D917C911B970B851C8529857A
S11308803A85A2018D859E850E945801F301E68078
S1130890F780648575850B851C8529853A85A201B9
S11308A08D859E850E945801D3011696ED90FC908B
S11308B017971E966D917C911F970B851C85298532
S11308C03A85A2018D859E850E945801F301E68038
S11308D0F780608971890B851C8529853A85A20179
S11308E08D859E850E945801D40116968D919C9108
S11308F017971E966D907C901F976114710409F4EC
S1130900ACC00196F301268137818217930714F452
S113091086839783AD85BE851696BC91B983ED8594
S1130920FE85F781FA83AD85BE851896BC91BB839D
S1130930ED85FE85F185FC83AD85BE851A96BC9157
S1130940BD83ED85FE85F385FE83AD85BE851C964E
S1130950BC91BF83ED85FE85F585F887D3015D964F
S11309603C915D975C962C915C97932F990F990B12
S1130970492F592F692F792F892FA980BA80CB80CD
S1130980DC80ED80FE800F811F2F0E949F6211F09A
S113099008F063C08D919C91119748165906C1F4D3
S11309A012968D919C911397E985FA85E817F907BA
S11309B079F414968D919C9115972B853C85281775
S11309C0390731F4AD85BE8556966D927C92579762
S11309D089819A810196F301848F958FE680F7804F
S11309E0628573850B851C8529853A85A2018D85D1
S11309F09E850E945801D3011696ED90FC9017979E
S1130A001C966D917C911D970B851C8529853A85D3
S1130A10A2018D859E850E945801F301E680F7802E
S1130A20668577850B851C8529853A85A2018D8588
S1130A309E850E945801D3011696ED90FC9017975D
S1130A4050966D917C9151970B851C8529853A852B
S1130A50A2018D859E850E945801F40186819781AB
S1130A60808891888114910409F4A7C00196D40167
S1130A7016962D913C9117978217930724F4169696
S1130A808D939C931797ED85FE85F681F983AD854B
S1130A90BE851796BC91BA83ED85FE85F085FB83F0
S1130AA0AD85BE851996BC91BC83ED85FE85F28526
S1130AB0FD83AD85BE851B96BC91BE83ED85FE8509
S1130AC0F485FF83AD85BE851D96BC91B887F4017E
S1130AD0358D248D932F990F990B492F592F692FF9
S1130AE0792F892FA980BA80CB80DC80ED80FE80AD
S1130AF00F811B2F0E949F6211F008F05EC080815D
S1130B0091814816590691F48281938129853A8509
S1130B102817390759F484819581AB85BC85A817BA
S1130B20B90721F4ED85FE85868A978A89819A81A1
S1130B300196D4015C968D939C935D971696ED90E7
S1130B40FC9017971A966D917C911B970B851C85C9
S1130B5029853A85A2018D859E850E945801F4015C
S1130B60E680F780648575850B851C8529853A8523
S1130B70A2018D859E850E945801D4011696ED90A0
S1130B80FC9017971E966D917C911F970B851C8581
S1130B9029853A85A2018D859E850E945801F4011C
S1130BA0E680F780608971890B851C8529853A85E3
S1130BB0A2018D859E850E945801D10116968D91C2
S1130BC09C9117971E968D909C901F978114910469
S1130BD009F4ACC00196F40126813781821793078A
S1130BE014F486839783AD85BE851696BC91B9832C
S1130BF0ED85FE85F781FA83AD85BE851896BC9197
S1130C00BB83ED85FE85F185FC83AD85BE851A9693
S1130C10BC91BD83ED85FE85F385FE83AD85BE85E0
S1130C201C96BC91BF83ED85FE85F585F887D401BC
S1130C305D963C915D975C962C915C97932F990FF0
S1130C40990B492F592F692F792F892FA980BA80A1
S1130C50CB80DC80ED80FE800F811F2F0E949F627D
S1130C6011F008F063C08D919C91119748165906B4
S1130C70C1F412968D919C911397E985FA85E81732
S1130C80F90779F414968D919C9115972B853C85E1
S1130C902817390731F4AD85BE8556968D929C92FE
S1130CA0579789819A810196F401848F958FE68004
S1130CB0F780628573850B851C8529853A85A20199
S1130CC08D859E850E945801D4011696ED90FC9066
S1130CD017971C966D917C911D970B851C85298512
S1130CE03A85A2018D859E850E945801F401E68013
S1130CF0F780668577850B851C8529853A85A20151
S1130D008D859E850E945801D4011696ED90FC9025
S1130D10179750966D917C9151970B851C85298569
S1130D203A85A2018D859E850E945801F101868134
S1130D309781808891888114910409F4A7C0019651
S1130D40D40116962D913C9117978217930724F49A
S1130D5016968D939C931797ED85FE85F681F983FE
S1130D60AD85BE851796BC91BA83ED85FE85F08569
S1130D70FB83AD85BE851996BC91BC83ED85FE854C
S1130D80F285FD83AD85BE851B96BC91BE83ED8542
S1130D90FE85F485FF83AD85BE851D96BC91B8871D
S1130DA0F401358D248D932F990F990B492F592FC9
S1130DB0692F792F892FA980BA80CB80DC80ED80C0
S1130DC0FE800F811B2F0E949F6211F008F05EC00D
S1130DD0808191814816590691F4828193812985F5
S1130DE03A852817390759F484819581AB85BC85E8
S1130DF0A817B90721F4ED85FE85868A978A89812B
S1130E009A810196D4015C968D939C935D97169676
S1130E10ED90FC9017971A966D917C911B970B851A
S1130E201C8529853A85A2018D859E850E945801DD
S1130E30F401E680F780648575850B851C8529851A
S1130E403A85A2018D859E850E945801D40116968B
S1130E50ED90FC9017971E966D917C911F970B85D2
S1130E601C8529853A85A2018D859E850E9458019D
S1130E70F401E680F780608971890B851C852985DA
S1130E803A85A2018D859E850E9458012E96CDBF7C
S1130E90DEBFDF91CF911F910F91FF90EF90DF9014
S1130EA0CF90BF90AF909F908F907F906F905F9006
S1130EB04F903F902F9008952F923F924F925F92C0
S1130EC06F927F928F929F92AF92BF92CF92DF9256
S1130ED0EF92FF920F931F93CF93DF93CDB7DEB7BB
S1130EE06297CDBFDEBF898B9A8BFC010190F081A4
S1130EF0E02DED87FE872080318022813381298790
S1130F003A87448155814B875C87FC0184819581B4
S1130F108130910571F01CF4892B39F01BC08230AB
S1130F20910571F0039781F015C0F1E02F1A310893
S1130F3011C029853A852F5F3F4F29873A870AC018
S1130F403FEF231A330A06C049855A854150510997
S1130F5049875A87E989FA89168A178A4280538011
S1130F60F201868197814114510411F40C94B51453
S1130F709C012F5F3F4F2817390714F426833783CA
S1130F80E989FA89F681F983E989FA89F781FA838B
S1130F90E989FA89F085FB83E989FA89F185FC837B
S1130FA0E989FA89F285FD83E989FA89F385FE8363
S1130FB0E989FA89F485FF83E989FA89F585F8874F
S1130FC0F201358D248D932F990F990B492F592FA9
S1130FD0692F792F892FA980BA80CB80DC80ED809E
S1130FE0FE800F8118850E949F6219F010F00C9406
S1130FF0B514808191812816390691F482819381F8
S113100029853A852817390759F4848195814B85B8
S11310105C854817590721F4E989FA89468A578A71
S113102089819A810196F201848F958F86819781B7
S1131030628473846114710409F46DC30196F3012D
S1131040268137818217930714F486839783E9896D
S1131050FA89F681F983E989FA89F781FA83E989BA
S1131060FA89F085FB83E989FA89F185FC83E989AA
S1131070FA89F285FD83E989FA89F385FE83E98992
S1131080FA89F485FF83E989FA89F585F887F301FC
S1131090358D248D932F990F990B492F592F692F33
S11310A0792F892FA980BA80CB80DC80ED80FE80E7
S11310B00F8118850E949F6211F008F02CC3808173
S11310C091812816390691F48281938129853A8584
S11310D02817390759F4848195814B855C85481715
S11310E0590721F4E989FA89668A778A89819A817C
S11310F00196F301848F958F8681978182849384EE
S11311008114910409F495C00196F4012681378174
S11311108217930714F486839783E989FA89F68101
S1131120F983E989FA89F781FA83E989FA89F085EB
S1131130FB83E989FA89F185FC83E989FA89F285D7
S1131140FD83E989FA89F385FE83E989FA89F485BF
S1131150FF83E989FA89F585F887F401358D248DB3
S1131160932F990F990B492F592F692F792F892F75
S1131170A980BA80CB80DC80ED80FE800F81188549
S11311800E949F6211F008F054C08081918128165A
S1131190390691F48281938129853A852817390784
S11311A059F4848195814B855C854817590721F44E
S11311B0E989FA89868A978A89819A810196F40154
S11311C0848F958FE680F780628573850B851C85F7
S11311D029853A85A10189899A890E945801F401D7
S11311E0E680F780648575850B851C8529853A859D
S11311F0A10189899A890E945801F401E680F78047
S1131200668577850B851C8529853A85A1018989A1
S11312109A890E945801F401E680F78060897189F7
S11312200B851C8529853A85A10189899A890E94A3
S11312305801F301868197818484958481149104F3
S113124009F42DC10196F401268137818217930791
S113125014F486839783E989FA89F681F983E98905
S1131260FA89F781FA83E989FA89F085FB83E989A8
S1131270FA89F185FC83E989FA89F285FD83E98994
S1131280FA89F385FE83E989FA89F485FF83E9897C
S1131290FA89F585F887F401358D248D932F990FFC
S11312A0990B492F592F692F792F892FA980BA803B
S11312B0CB80DC80ED80FE800F8118850E949F62C8
S11312C011F008F0ECC0808191812816390691F460
S11312D08281938129853A852817390759F48481B5
S11312E095814B855C854817590721F4E989FA896A
S11312F0868A978A89819A810196F401848F958FD1
S113130086819781228533852F87388B2115310576
S113131009F49BC00196F90126813781821793074E
S113132014F486839783E989FA89F681F983E98934
S1131330FA89F781FA83E989FA89F085FB83E989D7
S1131340FA89F185FC83E989FA89F285FD83E989C3
S1131350FA89F385FE83E989FA89F485FF83E989AB
S1131360FA89F585F887EF85F889358D248D932FD3
S1131370990F990B492F592F692F792F892FA980FC
S1131380BA80CB80DC80ED80FE800F8118850E94BE
S11313909F6211F008F059C08081918128163906A6
S11313A099F48281938129853A852817390761F454
S11313B0848195814B855C854817590729F49F01E1
S11313C0E989FA89268B378B89819A810196EF8581
S11313D0F889848F958FE680F780628573850B8505
S11313E01C8529853A85A10189899A890E94580119
S11313F0EF85F889E680F780648575850B851C8503
S113140029853A85A10189899A890E945801EF8525
S1131410F889E680F780668577850B851C852985A4
S11314203A85A10189899A890E945801EF85F88932
S1131430E680F780608971890B851C8529853A854A
S1131440A10189899A890E945801F401E680F780F4
S1131450648575850B851C8529853A85A101898953
S11314609A890E945801F401E680F78066857785A1
S11314700B851C8529853A85A10189899A890E9451
S11314805801F401E680F780608971890B851C8519
S113149029853A85A10189899A890E945801F30115
S11314A086819781868497848114910409F495C078
S11314B00196F401268137818217930714F48683F9
S11314C09783E989FA89F681F983E989FA89F781A9
S11314D0FA83E989FA89F085FB83E989FA89F18538
S11314E0FC83E989FA89F285FD83E989FA89F38520
S11314F0FE83E989FA89F485FF83E989FA89F58508
S1131500F887F401358D248D932F990F990B492F6A
S1131510592F692F792F892FA980BA80CB80DC803D
S1131520ED80FE800F8118850E949F6211F008F003
S113153054C0808191812816390691F48281938167
S113154029853A852817390759F4848195814B8573
S11315505C854817590721F4E989FA89868A978AAC
S113156089819A810196F401848F958FE680F780B2
S1131570628573850B851C8529853A85A101898936
S11315809A890E945801F401E680F7806485758584
S11315900B851C8529853A85A10189899A890E9430
S11315A05801F401E680F780668577850B851C85F4
S11315B029853A85A10189899A890E945801F401F3
S11315C0E680F780608971890B851C8529853A85B9
S11315D0A10189899A890E945801F3018681978122
S11315E0808891888114910409F495C00196F401CE
S11315F0268137818217930714F486839783E989B8
S1131600FA89F681F983E989FA89F781FA83E98904
S1131610FA89F085FB83E989FA89F185FC83E989F4
S1131620FA89F285FD83E989FA89F385FE83E989DC
S1131630FA89F485FF83E989FA89F585F887F40145
S1131640358D248D932F990F990B492F592F692F7D
S1131650792F892FA980BA80CB80DC80ED80FE8031
S11316600F8118850E949F6211F008F054C0808198
S113167091812816390691F48281938129853A85CE
S11316802817390759F4848195814B855C8548175F
S1131690590721F4E989FA89868A978A89819A8186
S11316A00196F401848F958FE680F78062857385B7
S11316B00B851C8529853A85A10189899A890E940F
S11316C05801F401E680F780648575850B851C85D7
S11316D029853A85A10189899A890E945801F401D2
S11316E0E680F780668577850B851C8529853A8594
S11316F0A10189899A890E945801F401E680F78042
S1131700608971890B851C8529853A85A1018989A0
S11317109A890E945801F201868197818484958474
S11317208114910409F4D5C20196F401268137810C
S11317308217930714F486839783E989FA89F681DB
S1131740F983E989FA89F781FA83E989FA89F085C5
S1131750FB83E989FA89F185FC83E989FA89F285B1
S1131760FD83E989FA89F385FE83E989FA89F48599
S1131770FF83E989FA89F585F887F401358D248D8D
S1131780932F990F990B492F592F692F792F892F4F
S1131790A980BA80CB80DC80ED80FE800F81188523
S11317A00E949F6211F008F094C2808191812816F2
S11317B0390691F48281938129853A85281739075E
S11317C059F4848195814B855C854817590721F428
S11317D0E989FA89868A978A89819A810196F4012E
S11317E0848F958F868197816284738461147104D8
S11317F009F495C00196F301268137818217930776
S113180014F486839783E989FA89F681F983E9894F
S1131810FA89F781FA83E989FA89F085FB83E989F2
S1131820FA89F185FC83E989FA89F285FD83E989DE
S1131830FA89F385FE83E989FA89F485FF83E989C6
S1131840FA89F585F887F301358D248D932F990F47
S1131850990B492F592F692F792F892FA980BA8085
S1131860CB80DC80ED80FE800F8118850E949F6212
S113187011F008F054C0808191812816390691F442
S11318808281938129853A852817390759F48481FF
S113189095814B855C854817590721F4E989FA89B4
S11318A0668A778A89819A810196F301848F958F5C
S11318B0E680F780628573850B851C8529853A85CA
S11318C0A10189899A890E945801F301E680F78071
S11318D0648575850B851C8529853A85A1018989CF
S11318E09A890E945801F301E680F780668577851E
S11318F00B851C8529853A85A10189899A890E94CD
S11319005801F301E680F780608971890B851C8595
S113191029853A85A10189899A890E945801F4018F
S113192086819781648475846114710409F495C077
S11319300196F301268137818217930714F4868375
S11319409783E989FA89F681F983E989FA89F78124
S1131950FA83E989FA89F085FB83E989FA89F185B3
S1131960FC83E989FA89F285FD83E989FA89F3859B
S1131970FE83E989FA89F485FF83E989FA89F58583
S1131980F887F301358D248D932F990F990B492FE7
S1131990592F692F792F892FA980BA80CB80DC80B9
S11319A0ED80FE800F8118850E949F6211F008F07F
S11319B054C0808191812816390691F482819381E3
S11319C029853A852817390759F4848195814B85EF
S11319D05C854817590721F4E989FA89668A778A68
S11319E089819A810196F301848F958FE680F7802F
S11319F0628573850B851C8529853A85A1018989B2
S1131A009A890E945801F301E680F7806485758500
S1131A100B851C8529853A85A10189899A890E94AB
S1131A205801F301E680F780668577850B851C8570
S1131A3029853A85A10189899A890E945801F3016F
S1131A40E680F780608971890B851C8529853A8534
S1131A50A10189899A890E945801F401868197819C
S1131A60668477846114710409F495C00196F301C6
S1131A70268137818217930714F486839783E98933
S1131A80FA89F681F983E989FA89F781FA83E98980
S1131A90FA89F085FB83E989FA89F185FC83E98970
S1131AA0FA89F285FD83E989FA89F385FE83E98958
S1131AB0FA89F485FF83E989FA89F585F887F301C2
S1131AC0358D248D932F990F990B492F592F692FF9
S1131AD0792F892FA980BA80CB80DC80ED80FE80AD
S1131AE00F8118850E949F6211F008F054C0808114
S1131AF091812816390691F48281938129853A854A
S1131B002817390759F4848195814B855C854817DA
S1131B10590721F4E989FA89668A778A89819A8141
S1131B200196F301848F958FE680F7806285738533
S1131B300B851C8529853A85A10189899A890E948A
S1131B405801F301E680F780648575850B851C8553
S1131B5029853A85A10189899A890E945801F3014E
S1131B60E680F780668577850B851C8529853A850F
S1131B70A10189899A890E945801F301E680F780BE
S1131B80608971890B851C8529853A85A10189891C
S1131B909A890E945801F4018681978180889188EE
S1131BA08114910409F495C00196F40126813781CA
S1131BB08217930714F486839783E989FA89F68157
S1131BC0F983E989FA89F781FA83E989FA89F08541
S1131BD0FB83E989FA89F185FC83E989FA89F2852D
S1131BE0FD83E989FA89F385FE83E989FA89F48515
S1131BF0FF83E989FA89F585F887F401358D248D09
S1131C00932F990F990B492F592F692F792F892FCA
S1131C10A980BA80CB80DC80ED80FE800F8118859E
S1131C200E949F6211F008F054C0808191812816AF
S1131C30390691F48281938129853A8528173907D9
S1131C4059F4848195814B855C854817590721F4A3
S1131C50E989FA89868A978A89819A810196F401A9
S1131C60848F958FE680F780628573850B851C854C
S1131C7029853A85A10189899A890E945801F4012C
S1131C80E680F780648575850B851C8529853A85F2
S1131C90A10189899A890E945801F401E680F7809C
S1131CA0668577850B851C8529853A85A1018989F7
S1131CB09A890E945801F401E680F780608971894D
S1131CC00B851C8529853A85A10189899A890E94F9
S1131CD05801F20186819781868497848114910446
S1131CE009F4D5C20196F40126813781821793073E
S1131CF014F486839783E989FA89F681F983E9895B
S1131D00FA89F781FA83E989FA89F085FB83E989FD
S1131D10FA89F185FC83E989FA89F285FD83E989E9
S1131D20FA89F385FE83E989FA89F485FF83E989D1
S1131D30FA89F585F887F401358D248D932F990F51
S1131D40990B492F592F692F792F892FA980BA8090
S1131D50CB80DC80ED80FE800F8118850E949F621D
S1131D6011F008F094C2808191812816390691F40B
S1131D708281938129853A852817390759F484810A
S1131D8095814B855C854817590721F4E989FA89BF
S1131D90868A978A89819A810196F401848F958F26
S1131DA086819781628473846114710409F495C0F7
S1131DB00196F301268137818217930714F48683F1
S1131DC09783E989FA89F681F983E989FA89F781A0
S1131DD0FA83E989FA89F085FB83E989FA89F1852F
S1131DE0FC83E989FA89F285FD83E989FA89F38517
S1131DF0FE83E989FA89F485FF83E989FA89F585FF
S1131E00F887F301358D248D932F990F990B492F62
S1131E10592F692F792F892FA980BA80CB80DC8034
S1131E20ED80FE800F8118850E949F6211F008F0FA
S1131E3054C0808191812816390691F4828193815E
S1131E4029853A852817390759F4848195814B856A
S1131E505C854817590721F4E989FA89668A778AE3
S1131E6089819A810196F301848F958FE680F780AA
S1131E70628573850B851C8529853A85A10189892D
S1131E809A890E945801F301E680F780648575857C
S1131E900B851C8529853A85A10189899A890E9427
S1131EA05801F301E680F780668577850B851C85EC
S1131EB029853A85A10189899A890E945801F301EB
S1131EC0E680F780608971890B851C8529853A85B0
S1131ED0A10189899A890E945801F4018681978118
S1131EE0648475846114710409F495C00196F30146
S1131EF0268137818217930714F486839783E989AF
S1131F00FA89F681F983E989FA89F781FA83E989FB
S1131F10FA89F085FB83E989FA89F185FC83E989EB
S1131F20FA89F285FD83E989FA89F385FE83E989D3
S1131F30FA89F485FF83E989FA89F585F887F3013D
S1131F40358D248D932F990F990B492F592F692F74
S1131F50792F892FA980BA80CB80DC80ED80FE8028
S1131F600F8118850E949F6211F008F054C080818F
S1131F7091812816390691F48281938129853A85C5
S1131F802817390759F4848195814B855C85481756
S1131F90590721F4E989FA89668A778A89819A81BD
S1131FA00196F301848F958FE680F78062857385AF
S1131FB00B851C8529853A85A10189899A890E9406
S1131FC05801F301E680F780648575850B851C85CF
S1131FD029853A85A10189899A890E945801F301CA
S1131FE0E680F780668577850B851C8529853A858B
S1131FF0A10189899A890E945801F301E680F7803A
S1132000608971890B851C8529853A85A101898997
S11320109A890E945801F4018681978166847784A5
S11320206114710409F495C00196F3012681378186
S11320308217930714F486839783E989FA89F681D2
S1132040F983E989FA89F781FA83E989FA89F085BC
S1132050FB83E989FA89F185FC83E989FA89F285A8
S1132060FD83E989FA89F385FE83E989FA89F48590
S1132070FF83E989FA89F585F887F301358D248D85
S1132080932F990F990B492F592F692F792F892F46
S1132090A980BA80CB80DC80ED80FE800F8118851A
S11320A00E949F6211F008F054C08081918128162B
S11320B0390691F48281938129853A852817390755
S11320C059F4848195814B855C854817590721F41F
S11320D0E989FA89668A778A89819A810196F30166
S11320E0848F958FE680F780628573850B851C85C8
S11320F029853A85A10189899A890E945801F301A9
S1132100E680F780648575850B851C8529853A856D
S1132110A10189899A890E945801F301E680F78018
S1132120668577850B851C8529853A85A101898972
S11321309A890E945801F301E680F78060897189C9
S11321400B851C8529853A85A10189899A890E9474
S11321505801F401868197818088918881149104C3
S113216009F495C00196F4012681378182179307FB
S113217014F486839783E989FA89F681F983E989D6
S1132180FA89F781FA83E989FA89F085FB83E98979
S1132190FA89F185FC83E989FA89F285FD83E98965
S11321A0FA89F385FE83E989FA89F485FF83E9894D
S11321B0FA89F585F887F401358D248D932F990FCD
S11321C0990B492F592F692F792F892FA980BA800C
S11321D0CB80DC80ED80FE800F8118850E949F6299
S11321E011F008F054C0808191812816390691F4C9
S11321F08281938129853A852817390759F4848186
S113220095814B855C854817590721F4E989FA893A
S1132210868A978A89819A810196F401848F958FA1
S1132220E680F780628573850B851C8529853A8550
S1132230A10189899A890E945801F401E680F780F6
S1132240648575850B851C8529853A85A101898955
S11322509A890E945801F401E680F78066857785A3
S11322600B851C8529853A85A10189899A890E9453
S11322705801F401E680F780608971890B851C851B
S113228029853A85A10189899A890E945801F20118
S113229086819781408851884114510409F465C3AB
S11322A00196F201268137818217930714F48683FD
S11322B09783E989FA89F681F983E989FA89F781AB
S11322C0FA83E989FA89F085FB83E989FA89F1853A
S11322D0FC83E989FA89F285FD83E989FA89F38522
S11322E0FE83E989FA89F485FF83E989FA89F5850A
S11322F0F887F201358D248D932F990F990B492F6F
S1132300592F692F792F892FA980BA80CB80DC803F
S1132310ED80FE800F8118850E949F6211F008F005
S113232024C3808191812816390691F48281938196
S113233029853A852817390759F4848195814B8575
S11323405C854817590721F4E989FA89468A578A2E
S113235089819A810196F201848F958F8681978174
S1132360828493848114910409F495C00196F40144
S1132370268137818217930714F486839783E9892A
S1132380FA89F681F983E989FA89F781FA83E98977
S1132390FA89F085FB83E989FA89F185FC83E98967
S11323A0FA89F285FD83E989FA89F385FE83E9894F
S11323B0FA89F485FF83E989FA89F585F887F401B8
S11323C0358D248D932F990F990B492F592F692FF0
S11323D0792F892FA980BA80CB80DC80ED80FE80A4
S11323E00F8118850E949F6211F008F054C080810B
S11323F091812816390691F48281938129853A8541
S11324002817390759F4848195814B855C854817D1
S1132410590721F4E989FA89868A978A89819A81F8
S11324200196F401848F958FE680F7806285738529
S11324300B851C8529853A85A10189899A890E9481
S11324405801F401E680F780648575850B851C8549
S113245029853A85A10189899A890E945801F40144
S1132460E680F780668577850B851C8529853A8506
S1132470A10189899A890E945801F401E680F780B4
S1132480608971890B851C8529853A85A101898913
S11324909A890E945801F2018681978184849584E7
S11324A08114910409F495C00196F40126813781C1
S11324B08217930714F486839783E989FA89F6814E
S11324C0F983E989FA89F781FA83E989FA89F08538
S11324D0FB83E989FA89F185FC83E989FA89F28524
S11324E0FD83E989FA89F385FE83E989FA89F4850C
S11324F0FF83E989FA89F585F887F401358D248D00
S1132500932F990F990B492F592F692F792F892FC1
S1132510A980BA80CB80DC80ED80FE800F81188595
S11325200E949F6211F008F054C0808191812816A6
S1132530390691F48281938129853A8528173907D0
S113254059F4848195814B855C854817590721F49A
S1132550E989FA89868A978A89819A810196F401A0
S1132560848F958FE680F780628573850B851C8543
S113257029853A85A10189899A890E945801F40123
S1132580E680F780648575850B851C8529853A85E9
S1132590A10189899A890E945801F401E680F78093
S11325A0668577850B851C8529853A85A1018989EE
S11325B09A890E945801F401E680F7806089718944
S11325C00B851C8529853A85A10189899A890E94F0
S11325D05801F2018681978186849784811491043D
S11325E009F425C10196F4012681378182179307E6
S11325F014F486839783E989FA89F681F983E98952
S1132600FA89F781FA83E989FA89F085FB83E989F4
S1132610FA89F185FC83E989FA89F285FD83E989E0
S1132620FA89F385FE83E989FA89F485FF83E989C8
S1132630FA89F585F887F401358D248D932F990F48
S1132640990B492F592F692F792F892FA980BA8087
S1132650CB80DC80ED80FE800F8118850E949F6214
S113266011F008F0E4C0808191812816390691F4B4
S11326708281938129853A852817390759F4848101
S113268095814B855C854817590721F4E989FA89B6
S1132690868A978A89819A810196F401848F958F1D
S11326A0E680F780628573850B851C8529853A85CC
S11326B0A10189899A890E945801F4018681978130
S11326C0648475846114710409F495C00196F3015E
S11326D0268137818217930714F486839783E989C7
S11326E0FA89F681F983E989FA89F781FA83E98914
S11326F0FA89F085FB83E989FA89F185FC83E98904
S1132700FA89F285FD83E989FA89F385FE83E989EB
S1132710FA89F485FF83E989FA89F585F887F30155
S1132720358D248D932F990F990B492F592F692F8C
S1132730792F892FA980BA80CB80DC80ED80FE8040
S11327400F8118850E949F6211F008F054C08081A7
S113275091812816390691F48281938129853A85DD
S11327602817390759F4848195814B855C8548176E
S1132770590721F4E989FA89668A778A89819A81D5
S11327800196F301848F958FE680F78062857385C7
S11327900B851C8529853A85A10189899A890E941E
S11327A05801F301E680F780648575850B851C85E7
S11327B029853A85A10189899A890E945801F301E2
S11327C0E680F780668577850B851C8529853A85A3
S11327D0A10189899A890E945801F301E680F78052
S11327E0608971890B851C8529853A85A1018989B0
S11327F09A890E945801F401E680F78066857785FE
S11328000B851C8529853A85A10189899A890E94AD
S11328105801F401E680F780608971890B851C8575
S113282029853A85A10189899A890E945801F20172
S113283086819781808891888114910409F495C0D8
S11328400196F401268137818217930714F4868355
S11328509783E989FA89F681F983E989FA89F78105
S1132860FA83E989FA89F085FB83E989FA89F18594
S1132870FC83E989FA89F285FD83E989FA89F3857C
S1132880FE83E989FA89F485FF83E989FA89F58564
S1132890F887F401358D248D932F990F990B492FC7
S11328A0592F692F792F892FA980BA80CB80DC809A
S11328B0ED80FE800F8118850E949F6211F008F060
S11328C054C0808191812816390691F482819381C4
S11328D029853A852817390759F4848195814B85D0
S11328E05C854817590721F4E989FA89868A978A09
S11328F089819A810196F401848F958FE680F7800F
S1132900628573850B851C8529853A85A101898992
S11329109A890E945801F401E680F78064857585E0
S11329200B851C8529853A85A10189899A890E948C
S11329305801F401E680F780668577850B851C8550
S113294029853A85A10189899A890E945801F4014F
S1132950E680F780608971890B851C8529853A8515
S1132960A10189899A890E945801E989FA892681F5
S11329703781408551856285738584859585A1E07D
S11329800E949362268337834087518762877387C7
S113299084879587868897888114910409F05CC0A0
S11329A0E8E9F2E284819581208131812150310965
S11329B0821793078CF4019680939C2290939D2216
S11329C0880F991F82959295907F9827807F9827EA
S11329D09C0122563D4D4901F40120823182298512
S11329E03A85228333834B855C8544835583ED8507
S11329F0FE8582859385892BA9F084859585892B0D
S1132A0059F086859785892B51F080899189892B86
S1132A10A1F4E3E0F0E008C0E1E0F0E005C0E2E0AA
S1132A20F0E002C0E0E0F0E03596EE0FFF1F2D85E8
S1132A303E85E20FF31F80829182ED85FE858681BB
S1132A4097810196F401868397832D853E85228B99
S1132A50338B2287338772C3ED85FE858285938508
S1132A608815990509F465C3248535852815390524
S1132A7009F45FC3268537852815390509F459C338
S1132A80208931892815390509F453C3892BA1F00C
S1132A9084859585892B51F086859785892B49F006
S1132AA0C901892BA9F483E090E008C081E090E09B
S1132AB005C082E090E002C080E090E0FC01359621
S1132AC0EE0FFF1F2D853E85E20FF31F808291825A
S1132AD0F401828593852D853E852817390799F160
S1132AE0248535854D855E854217530761F126851A
S1132AF037854217530739F1208931894217530723
S1132B0011F1892BA1F084859585892B51F0868557
S1132B109785892B49F0C901892BA9F483E090E0BA
S1132B2008C081E090E005C082E090E002C080E04F
S1132B3090E0FC013596EE0FFF1FE80DF91D8D8521
S1132B409E8580839183E989FA89168A178A42804F
S1132B505380F201868197814114510409F4D4C24F
S1132B609C012F5F3F4F2817390714F426833783BE
S1132B70E989FA89F681F983E989FA89F781FA837F
S1132B80E989FA89F085FB83E989FA89F185FC836F
S1132B90E989FA89F285FD83E989FA89F385FE8357
S1132BA0E989FA89F485FF83E989FA89F585F88743
S1132BB0F201358D248D932F990F990B492F592F9D
S1132BC0692F792F892FA980BA80CB80DC80ED8092
S1132BD0FE800F8118850E949F6211F008F094C254
S1132BE0808191812816390691F482819381298507
S1132BF03A852817390759F4848195814B855C857A
S1132C004817590721F4E989FA89468A578A89813C
S1132C109A810196F201848F958F868197816284CF
S1132C2073846114710409F495C00196F30126813B
S1132C3037818217930714F486839783E989FA8985
S1132C40F681F983E989FA89F781FA83E989FA89AE
S1132C50F085FB83E989FA89F185FC83E989FA899E
S1132C60F285FD83E989FA89F385FE83E989FA8986
S1132C70F485FF83E989FA89F585F887F301358DB1
S1132C80248D932F990F990B492F592F692F792F41
S1132C90892FA980BA80CB80DC80ED80FE800F81F3
S1132CA018850E949F6211F008F054C080819181C0
S1132CB02816390691F48281938129853A8528174B
S1132CC0390759F4848195814B855C8548175907E8
S1132CD021F4E989FA89668A778A89819A81019639
S1132CE0F301848F958FE680F780628573850B8569
S1132CF01C8529853A85A10189899A890E945801F0
S1132D00F301E680F780648575850B851C8529852C
S1132D103A85A10189899A890E945801F301E680C4
S1132D20F780668577850B851C8529853A85A10101
S1132D3089899A890E945801F301E680F7806089A5
S1132D4071890B851C8529853A85A10189899A8910
S1132D500E945801F201868197816484758461140C
S1132D60710409F495C00196F30126813781821715
S1132D70930714F486839783E989FA89F681F983A2
S1132D80E989FA89F781FA83E989FA89F085FB836D
S1132D90E989FA89F185FC83E989FA89F285FD8359
S1132DA0E989FA89F385FE83E989FA89F485FF8341
S1132DB0E989FA89F585F887F301358D248D932FF8
S1132DC0990F990B492F592F692F792F892FA98092
S1132DD0BA80CB80DC80ED80FE800F8118850E9454
S1132DE09F6211F008F054C0808191812816390641
S1132DF091F48281938129853A852817390759F4FA
S1132E00848195814B855C854817590721F4E989AC
S1132E10FA89668A778A89819A810196F301848F77
S1132E20958FE680F780628573850B851C852985DF
S1132E303A85A10189899A890E945801F301E680A3
S1132E40F780648575850B851C8529853A85A101E4
S1132E5089899A890E945801F301E680F780668582
S1132E6077850B851C8529853A85A10189899A89ED
S1132E700E945801F301E680F780608971890B850F
S1132E801C8529853A85A10189899A890E9458015E
S1132E90F20186819781668477846114710409F450
S1132EA095C00196F301268137818217930714F4A4
S1132EB086839783E989FA89F681F983E989FA890E
S1132EC0F781FA83E989FA89F085FB83E989FA892C
S1132ED0F185FC83E989FA89F285FD83E989FA8918
S1132EE0F385FE83E989FA89F485FF83E989FA8900
S1132EF0F585F887F301358D248D932F990F990B60
S1132F00492F592F692F792F892FA980BA80CB8017
S1132F10DC80ED80FE800F8118850E949F6211F095
S1132F2008F054C0808191812816390691F4828179
S1132F30938129853A852817390759F48481958125
S1132F404B855C854817590721F4E989FA89668A13
S1132F50778A89819A810196F301848F958FE6801F
S1132F60F780628573850B851C8529853A85A101C7
S1132F7089899A890E945801F301E680F780648563
S1132F8075850B851C8529853A85A10189899A89CE
S1132F900E945801F301E680F780668577850B85EA
S1132FA01C8529853A85A10189899A890E9458013D
S1132FB0F301E680F780608971890B851C8529857A
S1132FC03A85A10189899A890E945801F201868172
S1132FD09781608871886114710409F495C0019621
S1132FE0F301268137818217930714F4868397832C
S1132FF0E989FA89F681F983E989FA89F781FA83FB
S1133000E989FA89F085FB83E989FA89F185FC83EA
S1133010E989FA89F285FD83E989FA89F385FE83D2
S1133020E989FA89F485FF83E989FA89F585F887BE
S1133030F301358D248D932F990F990B492F592F17
S1133040692F792F892FA980BA80CB80DC80ED800D
S1133050FE800F8118850E949F6211F008F054C011
S1133060808191812816390691F482819381298582
S11330703A852817390759F4848195814B855C85F5
S11330804817590721F4E989FA89668A778A898178
S11330909A810196F301848F958FE680F78062858B
S11330A073850B851C8529853A85A10189899A89AF
S11330B00E945801F301E680F780648575850B85CD
S11330C01C8529853A85A10189899A890E9458011C
S11330D0F301E680F780668577850B851C85298555
S11330E03A85A10189899A890E945801F301E680F1
S11330F0F780608971890B851C8529853A85A10132
S113310089899A890E945801E989FA892681378137
S1133110408551856285738584859585A1E00E94EB
S113312093622683378340875187628773878487B6
S113313095872D853E85F401228B338BE989FA89A5
S1133140168A178A42805380F2018681978141143E
S1133150510411F40C9409299C012F5F3F4F281747
S1133160390714F426833783E989FA89F681F983C8
S1133170E989FA89F781FA83E989FA89F085FB8379
S1133180E989FA89F185FC83E989FA89F285FD8365
S1133190E989FA89F385FE83E989FA89F485FF834D
S11331A0E989FA89F585F887F201358D248D932F05
S11331B0990F990B492F592F692F792F892FA9809E
S11331C0BA80CB80DC80ED80FE800F8118850E9460
S11331D09F6219F010F00C940929808191812816BE
S11331E0390691F48281938129853A852817390714
S11331F059F4848195814B855C854817590721F4DE
S1133200E989FA89468A578A89819A810196F20165
S1133210848F958F8681978182849384811491040D
S113322009F41DC50196F40126813781821793079D
S113323014F486839783E989FA89F681F983E98905
S1133240FA89F781FA83E989FA89F085FB83E989A8
S1133250FA89F185FC83E989FA89F285FD83E98994
S1133260FA89F385FE83E989FA89F485FF83E9897C
S1133270FA89F585F887F401358D248D932F990FFC
S1133280990B492F592F692F792F892FA980BA803B
S1133290CB80DC80ED80FE800F8118850E949F62C8
S11332A011F008F0DCC4808191812816390691F46C
S11332B08281938129853A852817390759F48481B5
S11332C095814B855C854817590721F4E989FA896A
S11332D0868A978A89819A810196F401848F958FD1
S11332E086819781228533852D873E872115310577
S11332F009F4DBC20196F90126813781821793070D
S113330014F486839783E989FA89F681F983E98934
S1133310FA89F781FA83E989FA89F085FB83E989D7
S1133320FA89F185FC83E989FA89F285FD83E989C3
S1133330FA89F385FE83E989FA89F485FF83E989AB
S1133340FA89F585F887ED85FE85358D248D932FD3
S1133350990F990B492F592F692F792F892FA980FC
S1133360BA80CB80DC80ED80FE800F8118850E94BE
S11333709F6211F008F099C2808191812816390664
S113338099F48281938129853A852817390761F454
S1133390848195814B855C854817590729F49F01E1
S11333A0E989FA89268B378B89819A810196ED8583
S11333B0FE85848F958F86819781628473846114DE
S11333C0710409F495C00196F301268137818217AF
S11333D0930714F486839783E989FA89F681F9833C
S11333E0E989FA89F781FA83E989FA89F085FB8307
S11333F0E989FA89F185FC83E989FA89F285FD83F3
S1133400E989FA89F385FE83E989FA89F485FF83DA
S1133410E989FA89F585F887F301358D248D932F91
S1133420990F990B492F592F692F792F892FA9802B
S1133430BA80CB80DC80ED80FE800F8118850E94ED
S11334409F6211F008F054C08081918128163906DA
S113345091F48281938129853A852817390759F493
S1133460848195814B855C854817590721F4E98946
S1133470FA89668A778A89819A810196F301848F11
S1133480958FE680F780628573850B851C85298579
S11334903A85A10189899A890E945801F301E6803D
S11334A0F780648575850B851C8529853A85A1017E
S11334B089899A890E945801F301E680F78066851C
S11334C077850B851C8529853A85A10189899A8987
S11334D00E945801F301E680F780608971890B85A9
S11334E01C8529853A85A10189899A890E945801F8
S11334F0ED85FE85868197816484758461147104E9
S113350009F495C00196F301268137818217930748
S113351014F486839783E989FA89F681F983E98922
S1133520FA89F781FA83E989FA89F085FB83E989C5
S1133530FA89F185FC83E989FA89F285FD83E989B1
S1133540FA89F385FE83E989FA89F485FF83E98999
S1133550FA89F585F887F301358D248D932F990F1A
S1133560990B492F592F692F792F892FA980BA8058
S1133570CB80DC80ED80FE800F8118850E949F62E5
S113358011F008F054C0808191812816390691F415
S11335908281938129853A852817390759F48481D2
S11335A095814B855C854817590721F4E989FA8987
S11335B0668A778A89819A810196F301848F958F2F
S11335C0E680F780628573850B851C8529853A859D
S11335D0A10189899A890E945801F301E680F78044
S11335E0648575850B851C8529853A85A1018989A2
S11335F09A890E945801F301E680F78066857785F1
S11336000B851C8529853A85A10189899A890E949F
S11336105801F301E680F780608971890B851C8568
S113362029853A85A10189899A890E945801ED85E5
S1133630FE8586819781668477846114710409F418
S113364095C00196F301268137818217930714F4FC
S113365086839783E989FA89F681F983E989FA8966
S1133660F781FA83E989FA89F085FB83E989FA8984
S1133670F185FC83E989FA89F285FD83E989FA8970
S1133680F385FE83E989FA89F485FF83E989FA8958
S1133690F585F887F301358D248D932F990F990BB8
S11336A0492F592F692F792F892FA980BA80CB8070
S11336B0DC80ED80FE800F8118850E949F6211F0EE
S11336C008F054C0808191812816390691F48281D2
S11336D0938129853A852817390759F4848195817E
S11336E04B855C854817590721F4E989FA89668A6C
S11336F0778A89819A810196F301848F958FE68078
S1133700F780628573850B851C8529853A85A1011F
S113371089899A890E945801F301E680F7806485BB
S113372075850B851C8529853A85A10189899A8926
S11337300E945801F301E680F780668577850B8542
S11337401C8529853A85A10189899A890E94580195
S1133750F301E680F780608971890B851C852985D2
S11337603A85A10189899A890E945801ED85FE85CF
S113377086819781608871886114710409F495C009
S11337800196F301268137818217930714F4868307
S11337909783E989FA89F681F983E989FA89F781B6
S11337A0FA83E989FA89F085FB83E989FA89F18545
S11337B0FC83E989FA89F285FD83E989FA89F3852D
S11337C0FE83E989FA89F485FF83E989FA89F58515
S11337D0F887F301358D248D932F990F990B492F79
S11337E0592F692F792F892FA980BA80CB80DC804B
S11337F0ED80FE800F8118850E949F6211F008F011
S113380054C0808191812816390691F48281938174
S113381029853A852817390759F4848195814B8580
S11338205C854817590721F4E989FA89668A778AF9
S113383089819A810196F301848F958FE680F780C0
S1133840628573850B851C8529853A85A101898943
S11338509A890E945801F301E680F7806485758592
S11338600B851C8529853A85A10189899A890E943D
S11338705801F301E680F780668577850B851C8502
S113388029853A85A10189899A890E945801F30101
S1133890E680F780608971890B851C8529853A85C6
S11338A0A10189899A890E945801F401868197812E
S11338B0648475846114710409F495C00196F3015C
S11338C0268137818217930714F486839783E989C5
S11338D0FA89F681F983E989FA89F781FA83E98912
S11338E0FA89F085FB83E989FA89F185FC83E98902
S11338F0FA89F285FD83E989FA89F385FE83E989EA
S1133900FA89F485FF83E989FA89F585F887F30153
S1133910358D248D932F990F990B492F592F692F8A
S1133920792F892FA980BA80CB80DC80ED80FE803E
S11339300F8118850E949F6211F008F054C08081A5
S113394091812816390691F48281938129853A85DB
S11339502817390759F4848195814B855C8548176C
S1133960590721F4E989FA89668A778A89819A81D3
S11339700196F301848F958FE680F78062857385C5
S11339800B851C8529853A85A10189899A890E941C
S11339905801F301E680F780648575850B851C85E5
S11339A029853A85A10189899A890E945801F301E0
S11339B0E680F780668577850B851C8529853A85A1
S11339C0A10189899A890E945801F301E680F78050
S11339D0608971890B851C8529853A85A1018989AE
S11339E09A890E945801F4018681978166847784BC
S11339F06114710409F495C00196F301268137819D
S1133A008217930714F486839783E989FA89F681E8
S1133A10F983E989FA89F781FA83E989FA89F085D2
S1133A20FB83E989FA89F185FC83E989FA89F285BE
S1133A30FD83E989FA89F385FE83E989FA89F485A6
S1133A40FF83E989FA89F585F887F301358D248D9B
S1133A50932F990F990B492F592F692F792F892F5C
S1133A60A980BA80CB80DC80ED80FE800F81188530
S1133A700E949F6211F008F054C080819181281641
S1133A80390691F48281938129853A85281739076B
S1133A9059F4848195814B855C854817590721F435
S1133AA0E989FA89668A778A89819A810196F3017C
S1133AB0848F958FE680F780628573850B851C85DE
S1133AC029853A85A10189899A890E945801F301BF
S1133AD0E680F780648575850B851C8529853A8584
S1133AE0A10189899A890E945801F301E680F7802F
S1133AF0668577850B851C8529853A85A101898989
S1133B009A890E945801F301E680F78060897189DF
S1133B100B851C8529853A85A10189899A890E948A
S1133B205801F401868197818088918881149104D9
S1133B3009F495C00196F401268137818217930711
S1133B4014F486839783E989FA89F681F983E989EC
S1133B50FA89F781FA83E989FA89F085FB83E9898F
S1133B60FA89F185FC83E989FA89F285FD83E9897B
S1133B70FA89F385FE83E989FA89F485FF83E98963
S1133B80FA89F585F887F401358D248D932F990FE3
S1133B90990B492F592F692F792F892FA980BA8022
S1133BA0CB80DC80ED80FE800F8118850E949F62AF
S1133BB011F008F054C0808191812816390691F4DF
S1133BC08281938129853A852817390759F484819C
S1133BD095814B855C854817590721F4E989FA8951
S1133BE0868A978A89819A810196F401848F958FB8
S1133BF0E680F780628573850B851C8529853A8567
S1133C00A10189899A890E945801F401E680F7800C
S1133C10648575850B851C8529853A85A10189896B
S1133C209A890E945801F401E680F78066857785B9
S1133C300B851C8529853A85A10189899A890E9469
S1133C405801F401E680F780608971890B851C8531
S1133C5029853A85A10189899A890E945801F2012E
S1133C6086819781848495848114910409F4D5C252
S1133C700196F401268137818217930714F4868311
S1133C809783E989FA89F681F983E989FA89F781C1
S1133C90FA83E989FA89F085FB83E989FA89F18550
S1133CA0FC83E989FA89F285FD83E989FA89F38538
S1133CB0FE83E989FA89F485FF83E989FA89F58520
S1133CC0F887F401358D248D932F990F990B492F83
S1133CD0592F692F792F892FA980BA80CB80DC8056
S1133CE0ED80FE800F8118850E949F6211F008F01C
S1133CF094C2808191812816390691F4828193813E
S1133D0029853A852817390759F4848195814B858B
S1133D105C854817590721F4E989FA89868A978AC4
S1133D2089819A810196F401848F958F8681978188
S1133D30628473846114710409F495C00196F301DB
S1133D40268137818217930714F486839783E98940
S1133D50FA89F681F983E989FA89F781FA83E9898D
S1133D60FA89F085FB83E989FA89F185FC83E9897D
S1133D70FA89F285FD83E989FA89F385FE83E98965
S1133D80FA89F485FF83E989FA89F585F887F301CF
S1133D90358D248D932F990F990B492F592F692F06
S1133DA0792F892FA980BA80CB80DC80ED80FE80BA
S1133DB00F8118850E949F6211F008F054C0808121
S1133DC091812816390691F48281938129853A8557
S1133DD02817390759F4848195814B855C854817E8
S1133DE0590721F4E989FA89668A778A89819A814F
S1133DF00196F301848F958FE680F7806285738541
S1133E000B851C8529853A85A10189899A890E9497
S1133E105801F301E680F780648575850B851C8560
S1133E2029853A85A10189899A890E945801F3015B
S1133E30E680F780668577850B851C8529853A851C
S1133E40A10189899A890E945801F301E680F780CB
S1133E50608971890B851C8529853A85A101898929
S1133E609A890E945801F40186819781648475843B
S1133E706114710409F495C00196F3012681378118
S1133E808217930714F486839783E989FA89F68164
S1133E90F983E989FA89F781FA83E989FA89F0854E
S1133EA0FB83E989FA89F185FC83E989FA89F2853A
S1133EB0FD83E989FA89F385FE83E989FA89F48522
S1133EC0FF83E989FA89F585F887F301358D248D17
S1133ED0932F990F990B492F592F692F792F892FD8
S1133EE0A980BA80CB80DC80ED80FE800F811885AC
S1133EF00E949F6211F008F054C0808191812816BD
S1133F00390691F48281938129853A8528173907E6
S1133F1059F4848195814B855C854817590721F4B0
S1133F20E989FA89668A778A89819A810196F301F7
S1133F30848F958FE680F780628573850B851C8559
S1133F4029853A85A10189899A890E945801F3013A
S1133F50E680F780648575850B851C8529853A85FF
S1133F60A10189899A890E945801F301E680F780AA
S1133F70668577850B851C8529853A85A101898904
S1133F809A890E945801F301E680F780608971895B
S1133F900B851C8529853A85A10189899A890E9406
S1133FA05801F401868197816684778461147104D1
S1133FB009F495C00196F30126813781821793078E
S1133FC014F486839783E989FA89F681F983E98968
S1133FD0FA89F781FA83E989FA89F085FB83E9890B
S1133FE0FA89F185FC83E989FA89F285FD83E989F7
S1133FF0FA89F385FE83E989FA89F485FF83E989DF
S1134000FA89F585F887F301358D248D932F990F5F
S1134010990B492F592F692F792F892FA980BA809D
S1134020CB80DC80ED80FE800F8118850E949F622A
S113403011F008F054C0808191812816390691F45A
S11340408281938129853A852817390759F4848117
S113405095814B855C854817590721F4E989FA89CC
S1134060668A778A89819A810196F301848F958F74
S1134070E680F780628573850B851C8529853A85E2
S1134080A10189899A890E945801F301E680F78089
S1134090648575850B851C8529853A85A1018989E7
S11340A09A890E945801F301E680F7806685778536
S11340B00B851C8529853A85A10189899A890E94E5
S11340C05801F301E680F780608971890B851C85AE
S11340D029853A85A10189899A890E945801F401A8
S11340E086819781808891888114910409F495C010
S11340F00196F401268137818217930714F486838D
S11341009783E989FA89F681F983E989FA89F7813C
S1134110FA83E989FA89F085FB83E989FA89F185CB
S1134120FC83E989FA89F285FD83E989FA89F385B3
S1134130FE83E989FA89F485FF83E989FA89F5859B
S1134140F887F401358D248D932F990F990B492FFE
S1134150592F692F792F892FA980BA80CB80DC80D1
S1134160ED80FE800F8118850E949F6211F008F097
S113417054C0808191812816390691F482819381FB
S113418029853A852817390759F4848195814B8507
S11341905C854817590721F4E989FA89868A978A40
S11341A089819A810196F401848F958FE680F78046
S11341B0628573850B851C8529853A85A1018989CA
S11341C09A890E945801F401E680F7806485758518
S11341D00B851C8529853A85A10189899A890E94C4
S11341E05801F401E680F780668577850B851C8588
S11341F029853A85A10189899A890E945801F40187
S1134200E680F780608971890B851C8529853A854C
S1134210A10189899A890E945801F20186819781B6
S1134220868497848114910409F4D5C20196F4011B
S1134230268137818217930714F486839783E9894B
S1134240FA89F681F983E989FA89F781FA83E98998
S1134250FA89F085FB83E989FA89F185FC83E98988
S1134260FA89F285FD83E989FA89F385FE83E98970
S1134270FA89F485FF83E989FA89F585F887F401D9
S1134280358D248D932F990F990B492F592F692F11
S1134290792F892FA980BA80CB80DC80ED80FE80C5
S11342A00F8118850E949F6211F008F094C28081EA
S11342B091812816390691F48281938129853A8562
S11342C02817390759F4848195814B855C854817F3
S11342D0590721F4E989FA89868A978A89819A811A
S11342E00196F401848F958F86819781628473840B
S11342F06114710409F495C00196F3012681378194
S11343008217930714F486839783E989FA89F681DF
S1134310F983E989FA89F781FA83E989FA89F085C9
S1134320FB83E989FA89F185FC83E989FA89F285B5
S1134330FD83E989FA89F385FE83E989FA89F4859D
S1134340FF83E989FA89F585F887F301358D248D92
S1134350932F990F990B492F592F692F792F892F53
S1134360A980BA80CB80DC80ED80FE800F81188527
S11343700E949F6211F008F054C080819181281638
S1134380390691F48281938129853A852817390762
S113439059F4848195814B855C854817590721F42C
S11343A0E989FA89668A778A89819A810196F30173
S11343B0848F958FE680F780628573850B851C85D5
S11343C029853A85A10189899A890E945801F301B6
S11343D0E680F780648575850B851C8529853A857B
S11343E0A10189899A890E945801F301E680F78026
S11343F0668577850B851C8529853A85A101898980
S11344009A890E945801F301E680F78060897189D6
S11344100B851C8529853A85A10189899A890E9481
S11344205801F40186819781648475846114710450
S113443009F495C00196F301268137818217930709
S113444014F486839783E989FA89F681F983E989E3
S1134450FA89F781FA83E989FA89F085FB83E98986
S1134460FA89F185FC83E989FA89F285FD83E98972
S1134470FA89F385FE83E989FA89F485FF83E9895A
S1134480FA89F585F887F301358D248D932F990FDB
S1134490990B492F592F692F792F892FA980BA8019
S11344A0CB80DC80ED80FE800F8118850E949F62A6
S11344B011F008F054C0808191812816390691F4D6
S11344C08281938129853A852817390759F4848193
S11344D095814B855C854817590721F4E989FA8948
S11344E0668A778A89819A810196F301848F958FF0
S11344F0E680F780628573850B851C8529853A855E
S1134500A10189899A890E945801F301E680F78004
S1134510648575850B851C8529853A85A101898962
S11345209A890E945801F301E680F78066857785B1
S11345300B851C8529853A85A10189899A890E9460
S11345405801F301E680F780608971890B851C8529
S113455029853A85A10189899A890E945801F40123
S113456086819781668477846114710409F495C007
S11345700196F301268137818217930714F4868309
S11345809783E989FA89F681F983E989FA89F781B8
S1134590FA83E989FA89F085FB83E989FA89F18547
S11345A0FC83E989FA89F285FD83E989FA89F3852F
S11345B0FE83E989FA89F485FF83E989FA89F58517
S11345C0F887F301358D248D932F990F990B492F7B
S11345D0592F692F792F892FA980BA80CB80DC804D
S11345E0ED80FE800F8118850E949F6211F008F013
S11345F054C0808191812816390691F48281938177
S113460029853A852817390759F4848195814B8582
S11346105C854817590721F4E989FA89668A778AFB
S113462089819A810196F301848F958FE680F780C2
S1134630628573850B851C8529853A85A101898945
S11346409A890E945801F301E680F7806485758594
S11346500B851C8529853A85A10189899A890E943F
S11346605801F301E680F780668577850B851C8504
S113467029853A85A10189899A890E945801F30103
S1134680E680F780608971890B851C8529853A85C8
S1134690A10189899A890E945801F4018681978130
S11346A0808891888114910409F495C00196F401DD
S11346B0268137818217930714F486839783E989C7
S11346C0FA89F681F983E989FA89F781FA83E98914
S11346D0FA89F085FB83E989FA89F185FC83E98904
S11346E0FA89F285FD83E989FA89F385FE83E989EC
S11346F0FA89F485FF83E989FA89F585F887F40155
S1134700358D248D932F990F990B492F592F692F8C
S1134710792F892FA980BA80CB80DC80ED80FE8040
S11347200F8118850E949F6211F008F054C08081A7
S113473091812816390691F48281938129853A85DD
S11347402817390759F4848195814B855C8548176E
S1134750590721F4E989FA89868A978A89819A8195
S11347600196F401848F958FE680F78062857385C6
S11347700B851C8529853A85A10189899A890E941E
S11347805801F401E680F780648575850B851C85E6
S113479029853A85A10189899A890E945801F401E1
S11347A0E680F780668577850B851C8529853A85A3
S11347B0A10189899A890E945801F401E680F78051
S11347C0608971890B851C8529853A85A1018989B0
S11347D09A890E945801F201868197818088918884
S11347E08114910409F415C50196F40126813781D9
S11347F08217930714F486839783E989FA89F681EB
S1134800F983E989FA89F781FA83E989FA89F085D4
S1134810FB83E989FA89F185FC83E989FA89F285C0
S1134820FD83E989FA89F385FE83E989FA89F485A8
S1134830FF83E989FA89F585F887F401358D248D9C
S1134840932F990F990B492F592F692F792F892F5E
S1134850A980BA80CB80DC80ED80FE800F81188532
S11348600E949F6211F008F0D4C4808191812816BF
S1134870390691F48281938129853A85281739076D
S113488059F4848195814B855C854817590721F437
S1134890E989FA89868A978A89819A810196F4013D
S11348A0848F958F868197816284738461147104E7
S11348B009F495C00196F301268137818217930785
S11348C014F486839783E989FA89F681F983E9895F
S11348D0FA89F781FA83E989FA89F085FB83E98902
S11348E0FA89F185FC83E989FA89F285FD83E989EE
S11348F0FA89F385FE83E989FA89F485FF83E989D6
S1134900FA89F585F887F301358D248D932F990F56
S1134910990B492F592F692F792F892FA980BA8094
S1134920CB80DC80ED80FE800F8118850E949F6221
S113493011F008F054C0808191812816390691F451
S11349408281938129853A852817390759F484810E
S113495095814B855C854817590721F4E989FA89C3
S1134960668A778A89819A810196F301848F958F6B
S1134970E680F780628573850B851C8529853A85D9
S1134980A10189899A890E945801F301E680F78080
S1134990648575850B851C8529853A85A1018989DE
S11349A09A890E945801F301E680F780668577852D
S11349B00B851C8529853A85A10189899A890E94DC
S11349C05801F301E680F780608971890B851C85A5
S11349D029853A85A10189899A890E945801F4019F
S11349E086819781648475846114710409F495C087
S11349F00196F301268137818217930714F4868385
S1134A009783E989FA89F681F983E989FA89F78133
S1134A10FA83E989FA89F085FB83E989FA89F185C2
S1134A20FC83E989FA89F285FD83E989FA89F385AA
S1134A30FE83E989FA89F485FF83E989FA89F58592
S1134A40F887F301358D248D932F990F990B492FF6
S1134A50592F692F792F892FA980BA80CB80DC80C8
S1134A60ED80FE800F8118850E949F6211F008F08E
S1134A7054C0808191812816390691F482819381F2
S1134A8029853A852817390759F4848195814B85FE
S1134A905C854817590721F4E989FA89668A778A77
S1134AA089819A810196F301848F958FE680F7803E
S1134AB0628573850B851C8529853A85A1018989C1
S1134AC09A890E945801F301E680F7806485758510
S1134AD00B851C8529853A85A10189899A890E94BB
S1134AE05801F301E680F780668577850B851C8580
S1134AF029853A85A10189899A890E945801F3017F
S1134B00E680F780608971890B851C8529853A8543
S1134B10A10189899A890E945801F40186819781AB
S1134B20468457844114510409F4D5C20196F20114
S1134B30268137818217930714F486839783E98942
S1134B40FA89F681F983E989FA89F781FA83E9898F
S1134B50FA89F085FB83E989FA89F185FC83E9897F
S1134B60FA89F285FD83E989FA89F385FE83E98967
S1134B70FA89F485FF83E989FA89F585F887F201D2
S1134B80358D248D932F990F990B492F592F692F08
S1134B90792F892FA980BA80CB80DC80ED80FE80BC
S1134BA00F8118850E949F6211F008F094C28081E1
S1134BB091812816390691F48281938129853A8559
S1134BC02817390759F4848195814B855C854817EA
S1134BD0590721F4E989FA89468A578A89819A8191
S1134BE00196F201848F958F868197816284738404
S1134BF06114710409F495C00196F301268137818B
S1134C008217930714F486839783E989FA89F681D6
S1134C10F983E989FA89F781FA83E989FA89F085C0
S1134C20FB83E989FA89F185FC83E989FA89F285AC
S1134C30FD83E989FA89F385FE83E989FA89F48594
S1134C40FF83E989FA89F585F887F301358D248D89
S1134C50932F990F990B492F592F692F792F892F4A
S1134C60A980BA80CB80DC80ED80FE800F8118851E
S1134C700E949F6211F008F054C08081918128162F
S1134C80390691F48281938129853A852817390759
S1134C9059F4848195814B855C854817590721F423
S1134CA0E989FA89668A778A89819A810196F3016A
S1134CB0848F958FE680F780628573850B851C85CC
S1134CC029853A85A10189899A890E945801F301AD
S1134CD0E680F780648575850B851C8529853A8572
S1134CE0A10189899A890E945801F301E680F7801D
S1134CF0668577850B851C8529853A85A101898977
S1134D009A890E945801F301E680F78060897189CD
S1134D100B851C8529853A85A10189899A890E9478
S1134D205801F20186819781648475846114710449
S1134D3009F495C00196F301268137818217930700
S1134D4014F486839783E989FA89F681F983E989DA
S1134D50FA89F781FA83E989FA89F085FB83E9897D
S1134D60FA89F185FC83E989FA89F285FD83E98969
S1134D70FA89F385FE83E989FA89F485FF83E98951
S1134D80FA89F585F887F301358D248D932F990FD2
S1134D90990B492F592F692F792F892FA980BA8010
S1134DA0CB80DC80ED80FE800F8118850E949F629D
S1134DB011F008F054C0808191812816390691F4CD
S1134DC08281938129853A852817390759F484818A
S1134DD095814B855C854817590721F4E989FA893F
S1134DE0668A778A89819A810196F301848F958FE7
S1134DF0E680F780628573850B851C8529853A8555
S1134E00A10189899A890E945801F301E680F780FB
S1134E10648575850B851C8529853A85A101898959
S1134E209A890E945801F301E680F78066857785A8
S1134E300B851C8529853A85A10189899A890E9457
S1134E405801F301E680F780608971890B851C8520
S1134E5029853A85A10189899A890E945801F2011C
S1134E6086819781668477846114710409F495C0FE
S1134E700196F301268137818217930714F4868300
S1134E809783E989FA89F681F983E989FA89F781AF
S1134E90FA83E989FA89F085FB83E989FA89F1853E
S1134EA0FC83E989FA89F285FD83E989FA89F38526
S1134EB0FE83E989FA89F485FF83E989FA89F5850E
S1134EC0F887F301358D248D932F990F990B492F72
S1134ED0592F692F792F892FA980BA80CB80DC8044
S1134EE0ED80FE800F8118850E949F6211F008F00A
S1134EF054C0808191812816390691F4828193816E
S1134F0029853A852817390759F4848195814B8579
S1134F105C854817590721F4E989FA89668A778AF2
S1134F2089819A810196F301848F958FE680F780B9
S1134F30628573850B851C8529853A85A10189893C
S1134F409A890E945801F301E680F780648575858B
S1134F500B851C8529853A85A10189899A890E9436
S1134F605801F301E680F780668577850B851C85FB
S1134F7029853A85A10189899A890E945801F301FA
S1134F80E680F780608971890B851C8529853A85BF
S1134F90A10189899A890E945801F2018681978129
S1134FA0608871886114710409F495C00196F30155
S1134FB0268137818217930714F486839783E989BE
S1134FC0FA89F681F983E989FA89F781FA83E9890B
S1134FD0FA89F085FB83E989FA89F185FC83E989FB
S1134FE0FA89F285FD83E989FA89F385FE83E989E3
S1134FF0FA89F485FF83E989FA89F585F887F3014D
S1135000358D248D932F990F990B492F592F692F83
S1135010792F892FA980BA80CB80DC80ED80FE8037
S11350200F8118850E949F6211F008F054C080819E
S113503091812816390691F48281938129853A85D4
S11350402817390759F4848195814B855C85481765
S1135050590721F4E989FA89668A778A89819A81CC
S11350600196F301848F958FE680F78062857385BE
S11350700B851C8529853A85A10189899A890E9415
S11350805801F301E680F780648575850B851C85DE
S113509029853A85A10189899A890E945801F301D9
S11350A0E680F780668577850B851C8529853A859A
S11350B0A10189899A890E945801F301E680F78049
S11350C0608971890B851C8529853A85A1018989A7
S11350D09A890E945801F401868197818088918879
S11350E08114910409F495C00196F4012681378155
S11350F08217930714F486839783E989FA89F681E2
S1135100F983E989FA89F781FA83E989FA89F085CB
S1135110FB83E989FA89F185FC83E989FA89F285B7
S1135120FD83E989FA89F385FE83E989FA89F4859F
S1135130FF83E989FA89F585F887F401358D248D93
S1135140932F990F990B492F592F692F792F892F55
S1135150A980BA80CB80DC80ED80FE800F81188529
S11351600E949F6211F008F054C08081918128163A
S1135170390691F48281938129853A852817390764
S113518059F4848195814B855C854817590721F42E
S1135190E989FA89868A978A89819A810196F40134
S11351A0848F958FE680F780628573850B851C85D7
S11351B029853A85A10189899A890E945801F401B7
S11351C0E680F780648575850B851C8529853A857D
S11351D0A10189899A890E945801F401E680F78027
S11351E0668577850B851C8529853A85A101898982
S11351F09A890E945801F401E680F78060897189D8
S11352000B851C8529853A85A10189899A890E9483
S11352105801E989FA89268137814085518562855B
S1135220738584859585A1E00E94936226833783E4
S11352304087518762877387848795878689978992
S1135240808391836296CDBFDEBFDF91CF911F91A2
S11352500F91FF90EF90DF90CF90BF90AF909F9011
S11352608F907F906F905F904F903F902F90089514
S11352702F923F924F925F926F927F928F929F9262
S1135280AF92BF92CF92DF92EF92FF920F931F9350
S1135290CF93DF93CDB7DEB72E97CDBFDEBF8D871B
S11352A09E87F801240F351F2D5F3F4F2370307800
S11352B0332334F4215031092C6F3F6F2F5F3F4F5C
S11352C02130310511F40C94423724F4232B71F06E
S11352D00C949E4F2230310511F40C945A3F233024
S11352E0310511F40C948C470C949E4FDB011496F9
S11352F00D90BC91A02DAB87BC87DB0112960D905D
S1135300BC91A02DA987BA87DB014D905C90AD8537
S1135310BE8556961D921C92579712962D903C90DE
S11353201397D10116968D919C91179721143104EE
S113533011F40C9429379C012F5F3F4F281739072C
S113534024F416962D933C931797AD85BE85169637
S1135350BC91B983AD85BE851796BC91BA83AD85E2
S1135360BE851896BC91BB83AD85BE851996BC914C
S1135370BC83AD85BE851A96BC91BD83AD85BE85C3
S11353801B96BC91BE83AD85BE851C96BC91BF8324
S1135390AD85BE851D96BC91B887D1015D963C91C3
S11353A05D975C962C915C97932F990F990B492FDD
S11353B0592F692F792F892FA980BA80CB80DC805F
S11353C0ED80FE800F8118850E949F6219F010F015
S11353D00C9429374E1A5F0A8D919C9111974816A7
S11353E05906C1F412968D919C911397E985FA851B
S11353F0E817F90779F414968D919C9115972B85EC
S11354003C852817390731F4AD85BE8556962D9213
S11354103C92579789819A810196F101848F958FE7
S113542086819781828493848114910409F439C319
S11354300196D40116962D913C91179782179307E4
S113544024F416968D939C931797ED85FE85F6812B
S1135450F983AD85BE851796BC91BA83ED85FE852B
S1135460F085FB83AD85BE851996BC91BC83ED8523
S1135470FE85F285FD83AD85BE851B96BC91BE83FA
S1135480ED85FE85F485FF83AD85BE851D96BC91B3
S1135490B887F401358D248D932F990F990B492FDB
S11354A0592F692F792F892FA980BA80CB80DC806E
S11354B0ED80FE800F811B2F0E949F6211F008F087
S11354C0F0C2808191814816590691F482819381BA
S11354D029853A852817390759F484819581AB8544
S11354E0BC85A817B90721F4ED85FE85868A978ABD
S11354F089819A810196D4015C968D939C935D97E2
S113550016968D919C9117971A966D907C901B9787
S11355106114710409F4ACC00196F301268137814A
S11355208217930714F486839783AD85BE851696F8
S1135530BC91B983ED85FE85F781FA83AD85BE857F
S11355401896BC91BB83ED85FE85F185FC83AD8502
S1135550BE851A96BC91BD83ED85FE85F385FE83D9
S1135560AD85BE851C96BC91BF83ED85FE85F58512
S1135570F887D3015D963C915D975C962C915C977E
S1135580932F990F990B492F592F692F792F892F11
S1135590A980BA80CB80DC80ED80FE800F811F2F34
S11355A00E949F6211F008F063C08D919C91119745
S11355B048165906C1F412968D919C911397E9856A
S11355C0FA85E817F90779F414968D919C9115974B
S11355D02B853C852817390731F4AD85BE85569651
S11355E06D927C92579789819A810196F301848FF9
S11355F0958FE680F780628573850B851C852985E8
S11356003A85A2018D859E850E945801D301169684
S1135610ED90FC9017971C966D917C911D970B85CE
S11356201C8529853A85A2018D859E850E94580195
S1135630F301E680F780668577850B851C852985CF
S11356403A85A2018D859E850E945801D301169644
S1135650ED90FC90179750966D917C9151970B8526
S11356601C8529853A85A2018D859E850E94580155
S1135670F40186819781648475846114710409F44A
S1135680A7C00196D30116962D913C9117978217C6
S1135690930724F416968D939C931797ED85FE85B6
S11356A0F681F983AD85BE851796BC91BA83ED85E5
S11356B0FE85F085FB83AD85BE851996BC91BC83C0
S11356C0ED85FE85F285FD83AD85BE851B96BC9177
S11356D0BE83ED85FE85F485FF83AD85BE851D966D
S11356E0BC91B887F301358D248D932F990F990BB5
S11356F0492F592F692F792F892FA980BA80CB8000
S1135700DC80ED80FE800F811B2F0E949F6211F0D0
S113571008F05EC0808191814816590691F4828117
S1135720938129853A852817390759F4848195810D
S1135730AB85BC85A817B90721F4ED85FE85668A7B
S1135740778A89819A810196D3015C968D939C9383
S11357505D971696ED90FC9017971A966D917C9133
S11357601B970B851C8529853A85A2018D859E850D
S11357700E945801F301E680F780648575850B85E6
S11357801C8529853A85A2018D859E850E94580134
S1135790D3011696ED90FC9017971E966D917C910F
S11357A01F970B851C8529853A85A2018D859E85C9
S11357B00E945801F301E680F780608971890B85A6
S11357C01C8529853A85A2018D859E850E945801F4
S11357D0D40116968D919C9117971E966D907C908E
S11357E01F976114710409F4ACC00196F30126817A
S11357F037818217930714F486839783AD85BE851A
S11358001696BC91B983ED85FE85F781FA83AD8543
S1135810BE851896BC91BB83ED85FE85F185FC831E
S1135820AD85BE851A96BC91BD83ED85FE85F38555
S1135830FE83AD85BE851C96BC91BF83ED85FE8538
S1135840F585F887D3015D963C915D975C962C9124
S11358505C97932F990F990B492F592F692F792F03
S1135860892FA980BA80CB80DC80ED80FE800F81F7
S11358701F2F0E949F6211F008F063C08D919C91CC
S1135880119748165906C1F412968D919C9113975D
S1135890E985FA85E817F90779F414968D919C91B6
S11358A015972B853C852817390731F4AD85BE85BE
S11358B056966D927C92579789819A810196F3014D
S11358C0848F958FE680F780628573850B851C85B0
S11358D029853A85A2018D859E850E945801D301B0
S11358E01696ED90FC9017971C966D917C911D97E0
S11358F00B851C8529853A85A2018D859E850E948C
S11359005801F301E680F780668577850B851C8551
S113591029853A85A2018D859E850E945801D3016F
S11359201696ED90FC90179750966D917C91519737
S11359300B851C8529853A85A2018D859E850E944B
S11359405801F4018681978180889188811491049B
S113595009F4A7C00196D40116962D913C9117978E
S11359608217930724F416968D939C931797ED85CD
S1135970FE85F681F983AD85BE851796BC91BA8301
S1135980ED85FE85F085FB83AD85BE851996BC91BA
S1135990BC83ED85FE85F285FD83AD85BE851B96B2
S11359A0BC91BE83ED85FE85F485FF83AD85BE8500
S11359B01D96BC91B887F401358D248D932F990FD2
S11359C0990B492F592F692F792F892FA980BA80D4
S11359D0CB80DC80ED80FE800F811B2F0E949F62B4
S11359E011F008F05EC0808191814816590691F447
S11359F08281938129853A852817390759F484814E
S1135A009581AB85BC85A817B90721F4ED85FE8582
S1135A10868A978A89819A810196D4015C968D93AE
S1135A209C935D971696ED90FC9017971A966D913E
S1135A307C911B970B851C8529853A85A2018D8550
S1135A409E850E945801F401E680F780648575857F
S1135A500B851C8529853A85A2018D859E850E942A
S1135A605801D4011696ED90FC9017971E966D91EF
S1135A707C911F970B851C8529853A85A2018D850C
S1135A809E850E945801F401E680F780608971893F
S1135A900B851C8529853A85A2018D859E850E94EA
S1135AA05801D10116968D919C9117971C968D9053
S1135AB09C901D978114910409F43EC30196F4014E
S1135AC0268137818217930714F486839783AD85E3
S1135AD0BE851696BC91B983ED85FE85F781FA8360
S1135AE0AD85BE851896BC91BB83ED85FE85F18599
S1135AF0FC83AD85BE851A96BC91BD83ED85FE857C
S1135B00F385FE83AD85BE851C96BC91BF83ED8570
S1135B10FE85F585F887D4015D963C915D975C968A
S1135B202C915C97932F990F990B492F592F692F1B
S1135B30792F892FA980BA80CB80DC80ED80FE800C
S1135B400F811F2F0E949F6211F008F0F5C28D9102
S1135B509C91119748165906C1F412968D919C9107
S1135B601397E985FA85E817F90779F414968D9166
S1135B709C9115972B853C852817390731F4AD8501
S1135B80BE8556968D929C92579789819A810196EB
S1135B90F401848F958F8681978162847384611464
S1135BA0710409F4A7C00196D30116962D913C9176
S1135BB017978217930724F416968D939C9317973F
S1135BC0ED85FE85F681F983AD85BE851796BC917A
S1135BD0BA83ED85FE85F085FB83AD85BE85199678
S1135BE0BC91BC83ED85FE85F285FD83AD85BE85C4
S1135BF01B96BC91BE83ED85FE85F485FF83AD8540
S1135C00BE851D96BC91B887F301358D248D932FE5
S1135C10990F990B492F592F692F792F892FA98013
S1135C20BA80CB80DC80ED80FE800F811B2F0E9428
S1135C309F6211F008F05EC0808191814816590678
S1135C4091F48281938129853A852817390759F47B
S1135C5084819581AB85BC85A817B90721F4ED85AE
S1135C60FE85668A778A89819A810196D3015C963A
S1135C708D939C935D971696ED90FC9017971A96CA
S1135C806D917C911B970B851C8529853A85A20112
S1135C908D859E850E945801F301E680F780648516
S1135CA075850B851C8529853A85A2018D859E8580
S1135CB00E945801D3011696ED90FC9017971E96FA
S1135CC06D917C911F970B851C8529853A85A201CE
S1135CD08D859E850E945801F301E680F7806089D6
S1135CE071890B851C8529853A85A2018D859E8540
