S00E0000417175696C612E73726563B9
S11300000C9404010C943A010C943A010C943A01B6
S11300100C943A010C943A010C943A010C943A0170
S11300200C943A010C943A010C943A010C943A0160
S11300300C943A010C943A010C943A010C943A0150
S11300400C943A010C943A010C943A010C943A0140
S11300500C943A010C943A010C943A010C943A0130
S11300600C943A010C943A010C943A010C943A0120
S11300700C943A010C943A010C943A010C943A0110
S11300800C943A010C943A010C943A010C943A0100
S11300900C943A010C943A010C943A010C943A01F0
S11300A00C943A010C943A010C943A010C943A01E0
S11300B00C943A010C943A010C943A010C943A01D0
S11300C00C943A010C943A010C943A010C943A01C0
S11300D00C943A010C943A010C943A010C943A01B0
S11300E00C943A010C943A010C943A010C943A01A0
S11300F00C943A010C943A010C943A010C943A0190
S11301000C943A010C943A010C943A010C943A017F
S11301100C943A010C943A010C943A010C943A016F
S11301200C943A010C943A010C943A010C943A015F
S11301300C943A010C94B8070C943A010C943A01CB
S11301400C943A010C943A010C943A010C943A013F
S11301500C943A010C943A010C943A010C943A012F
S11301600C943A010C943A010C943A010C943A011F
S11301700C943A010C943A010C943A010C943A010F
S11301800C943A010C943A010C943A010C943A01FF
S11301900C943A010C943A010C943A010C943A01EF
S11301A00C943A010C943A010C943A010C943A01DF
S11301B00C943A010C943A010C943A010C943A01CF
S11301C00C943A010C943A010C943A010C943A01BF
S11301D00C943A010C943A010C943A010C943A01AF
S11301E00C943A010C943A010C943A010C943A019F
S11301F00C943A010C943A010C943A010C94510772
S11302000C9485018501510711241FBECFEFCDBF8A
S1130210DFE3DEBF00E00CBF18BE19BE1ABE1BBE72
S113022010E2A0E0B0E2E6EFF2E100E00BBF02C0B2
S113023007900D92A432B107D9F71BBE28E3A4E2BC
S1130240B0E201C01D92AA37B207E1F711E0C4E0A1
S1130250D1E000E006C021970109802FFE010E9431
S11302604809C230D10780E00807A9F70E943C0181
S11302700C9479090C9400000E9436052FEF87E84E
S113028093E1215080409040E1F700C0000068E015
S113029070E280EB94E00E9490060E9444070E9462
S11302A0F2066EE070E280EB94E00E94900665E155
S11302B070E284E290E20E94C108EFECF1E08081F8
S11302C08823ECF36AEA70E080E090E00E94510930
S11302D0C1E0D0E0CE010E948007AC0160E070E094
S11302E084E290E20E94D6086EE170E284E290E239
S11302F00E94C1082196C730D10561F760E270E21F
S113030084E290E20E94C108E3CFCF93DF93A8E395
S1130310B0E288EC90E08D939C93119780E797E18D
S1130320EEE3F0E2EF019C01199221503040E1F735
S113033088EE93E01C968D939C931D978093802068
S11303409093812080939E2090939F208093BC2043
S11303509093BD208093DA209093DB208093F82043
S11303609093F92080931621909317218093342140
S1130370909335218093522190935321809370213F
S11303809093712180938E2190938F218093AC213F
S11303909093AD218093CA219093CB218093E8213F
S11303A09093E9218093062290930722809324223C
S11303B0909325228093422290934322809360223B
S11303C09093612280937E2290937F2280939C223B
S11303D090939D228093BA229093BB228093D8223B
S11303E09093D9228093F6229093F722809314233A
S11303F09093152380933223909333238093502337
S11304009093512380936E2390936F2380938C2336
S113041090938D238093AA239093AB238093C82336
S11304209093C9238093E6239093E7238093042435
S11304309093052480932224909323248093402432
S11304409093412480935E2490935F2480937C2432
S113045090937D2480939A2490939B248093B82432
S11304609093B9248093D6249093D7248093F42432
S11304709093F5248093122590931325809330252F
S11304809093312580934E2590934F2580936C252E
S113049090936D2580938A2590938B258093A8252E
S11304A09093A9258093C6259093C7258093E4252E
S11304B09093E5258093022690930326809320262B
S11304C09093212680933E2690933F2680935C262A
S11304D090935D2680937A2690937B26809398262A
S11304E0909399268093B6269093B7268093D4262A
S11304F09093D5268093F2269093F3268093102729
S11305009093112780932E2790932F2780934C2725
S113051090934D2780936A2790936B278093882725
S1130520909389278093A6279093A7278093C42725
S11305309093C5278093E2279093E3278093002824
S11305409093012880931E2890931F2880933C2821
S113055090933D2880935A2890935B288093782821
S11305609093792880939628909397288093B42821
S11305709093B5288093D2289093D3288093F02821
S11305809093F12880930E2990930F2980932C291E
S113059090932D2980934A2990934B29809368291D
S11305A09093692980938629909387298093A4291D
S11305B09093A5298093C2299093C3298093E0291D
S11305C09093E1298093FE299093FF2980931C2A1C
S11305D090931D2A80933A2A90933B2A8093582A19
S11305E09093592A8093762A9093772A8093942A19
S11305F09093952A8093B22A9093B32A8093D02A19
S11306009093D12A8093EE2A9093EF2A80930C2B17
S113061090930D2B80932A2B90932B2B8093482B14
S11306209093492B8093662B9093672B8093842B14
S11306309093852B8093A22B9093A32B8093C02B14
S11306409093C12B8093DE2B9093DF2B8093FC2B14
S11306509093FD2B80931A2C90931B2C8093382C11
S11306609093392C8093562C9093572C8093742C10
S11306709093752C8093922C9093932C8093B02C10
S11306809093B12C8093CE2C9093CF2C8093EC2C10
S11306909093ED2C80930A2D90930B2D8093282D0D
S11306A09093292D8093462D9093472D8093642D0C
S11306B09093652D8093822D9093832D8093A02D0C
S11306C09093A12D8093BE2D9093BF2D8093DC2D0C
S11306D09093DD2D8093FA2D9093FB2D8093182E0B
S11306E09093192E8093362E9093372E8093542E08
S11306F09093552E8093722E9093732E8093902E08
S11307009093912E8093AE2E9093AF2E8093CC2E07
S11307109093CD2E8093EA2E9093EB2E8093082F06
S11307209093092F8093262F9093272F8093442F03
S11307309093452F8093622F9093632F8093802F03
S11307409093812F80939E2F90939F2F8093BC2F03
S11307509093BD2F8093DA2F9093DB2F8093F82F03
S11307609093F92F80931630909317308093343000
S113077090933530809352309093533080937030FF
S11307809093713080938E3090938F308093AC30FF
S11307909093AD308093CA309093CB308093E830FF
S11307A09093E930809306319093073180932431FC
S11307B090932531809342319093433180936031FB
S11307C09093613180937E3190937F3180939C31FB
S11307D090939D318093BA319093BB318093D831FB
S11307E09093D9318093F6319093F73180931432FA
S11307F090931532809332329093333280935032F7
S11308009093513280936E3290936F3280938C32F6
S113081090938D328093AA329093AB328093C832F6
S11308209093C9328093E6329093E73280930433F5
S113083090930533809322339093233380934033F2
S11308409093413380935E3390935F3380937C33F2
S113085090937D3380939A3390939B338093B833F2
S11308609093B9338093D6339093D7338093F433F2
S11308709093F533809312349093133480933034EF
S11308809093313480934E3490934F3480936C34EE
S113089090936D3480938A3490938B348093A834EE
S11308A09093A9348093C6349093C7348093E434EE
S11308B09093E534809302359093033580932035EB
S11308C09093213580933E3590933F3580935C35EA
S11308D090935D3580937A3590937B3580939835EA
S11308E0909399358093B6359093B7358093D435EA
S11308F09093D5358093F2359093F33580931036E9
S11309009093113680932E3690932F3680934C36E5
S113091090934D3680936A3690936B3680938836E5
S1130920909389368093A6369093A7368093C436E5
S11309309093C5368093E2369093E33680930037E4
S11309409093013780931E3790931F3780933C37E1
S113095090933D3780935A3790935B3780937837E1
S113096090937937809396379093973788ECEEEA93
S1130970F7E3EF0119928A95E9F712961D921C92FA
S1130980139781E090E014968D939C931597E8E279
S1130990F0E22CE530E2208331832283338324E6A2
S11309A030E094962D933C93959796962D933C9393
S11309B0979798968D939C9399978FEF9FEF9C961A
S11309C08D939C939D979A961D921C929B9714824B
S11309D01582168217821086118612861386148653
S11309E015861686178640E456E060EA78E084E2CD
S11309F090E20E949508DF91CF91089587E080935B
S1130A00A1060895E0E5F0E0808182608083818121
S1130A1081FFFDCF88ED84BFE0E4F0E081E08083D6
S1130A2084E08183E0E5F0E080818E7F8083089517
S1130A3084E080935000E1E5F0E080818823E9F3CD
S1130A4081E08093430087E080930004089581E06F
S1130A5080930106E0ECF7E087E0818385838FE0F3
S1130A608093210783E08093210608950E94020564
S1130A700E9427050E9443050E9425070E9418052D
S1130A800E94FE040895CF93DF93CDB7DEB72A9773
S1130A90CDBFDEBF20E83AE146E050E060E974E013
S1130AA0CE0101960E94EB0740E06CE7CE0101966F
S1130AB00E94310860E070E0CE0101960E945F0858
S1130AC068E370E0CE0101960E945F08CE010196B2
S1130AD00E9483082FEF81EE94E0215080409040E3
S1130AE0E1F700C0000040E06CE7CE0101960E94EF
S1130AF0310860E070E0CE0101960E945F0869E36E
S1130B0070E0CE0101960E945F08CE0101960E941A
S1130B1083082FEF81EE94E0215080409040E1F76C
S1130B2000C0000040E06CE7CE0101960E9431084D
S1130B3060E070E0CE0101960E945F0864E170E01D
S1130B40CE0101960E945F08CE0101960E9483089F
S1130B502FEF81EE94E0215080409040E1F700C0F7
S1130B60000040E06CE7CE0101960E94310860E08D
S1130B7070E0CE0101960E945F086EE770E0CE013E
S1130B8001960E945F08CE0101960E9483082FEF10
S1130B9081EE94E0215080409040E1F700C00000D5
S1130BA040E06CE7CE0101960E94310860E070E0FD
S1130BB0CE0101960E945F0865E570E0CE010196C2
S1130BC00E945F08CE0101960E9483082FEF81EEF8
S1130BD094E0215080409040E1F700C0000040E0E4
S1130BE06CE7CE0101960E94310860E070E0CE010E
S1130BF001960E945F086CE670E0CE0101960E94A7
S1130C005F08CE0101960E9483082FEF83ED90E3E5
S1130C10215080409040E1F700C0000040E06CE7C4
S1130C20CE0101960E94310860E070E0CE01019689
S1130C300E945F0868E370E0CE0101960E945F089D
S1130C40CE0101960E9483082FEF81EE94E021509B
S1130C5080409040E1F700C0000040E06CE7CE0126
S1130C6001960E94310860E070E0CE0101960E9476
S1130C705F086CE070E0CE0101960E945F08CE012F
S1130C8001960E9483082FEF81EE94E0215080406A
S1130C909040E1F700C0000040E06CE7CE0101960F
S1130CA00E94310860E070E0CE0101960E945F0866
S1130CB061E070E0CE0101960E945F08CE010196CA
S1130CC00E9483082FEF81EE94E0215080409040F1
S1130CD0E1F700C0000040E06CE7CE0101960E94FD
S1130CE0310860E070E0CE0101960E945F0866E082
S1130CF070E0CE0101960E945F08CE0101960E9429
S1130D0083082FEF81EE94E0215080409040E1F77A
S1130D1000C000002A96CDBFDEBFDF91CF910895B9
S1130D20AF92BF92CF92DF92EF92FF921F93CF9335
S1130D30DF93CDB7DEB72A97CDBFDEBF7B0120E8B6
S1130D403AE146E050E060E974E0CE0101960E9489
S1130D50EB0740E06CE7CE0101960E943108F701F1
S1130D6001900020E9F731976F01CE18DF0849F1AF
S1130D7080E090E010E0560121E0A21AB108A81624
S1130D80B90639F460E470E0CE0101960E945F0870
S1130D9006C060EC70E0CE0101960E945F08F70186
S1130DA061917F0170E0CE0101960E945F08FAE62E
S1130DB0FA95F1F700C01F5F812F90E08C159D0517
S1130DC0F0F2CE0101960E9483082A96CDBFDEBFC1
S1130DD0DF91CF911F91FF90EF90DF90CF90BF9064
S1130DE0AF900895CF93DF93CDB7DEB72A97CDBFE9
S1130DF0DEBF20E83AE146E050E060E974E0CE016D
S1130E0001960E94EB0740E06CE7CE0101960E9438
S1130E10310860E070E0CE0101960E945F0861E055
S1130E2070E0CE0101960E945F08CE0101960E94F7
S1130E3083088FEB92E10197F1F700C000002A9636
S1130E40CDBFDEBFDF91CF910895E0E2F6E08CE004
S1130E50818385830895623021F498E09093260677
S1130E6005C0613079F494E090932606682F8FE3EF
S1130E709CE90197F1F700C0000086E798E30E941F
S1130E80DB07089580E0089561E080E00E942B076D
S1130E908130D1F762E080E00E942B078130D1F7E6
S1130EA0089522E040E456E060EC78E086E798E3B9
S1130EB00E94C7070895FC01618364838AE28A95CE
S1130EC0F1F700C06683628390859623E9F3A0E07E
S1130ED0B8E090961D921C929197F89485E08C93BB
S1130EE090859623E9F7E0E0F8E0108278948FE3A8
S1130EF09CE90197F1F700C0000080A191A1089539
S1130F0083309105D1F034F48130910551F002978A
S1130F1071F02BC085309105E1F0ACF00697F9F043
S1130F2024C061E080E896E00E945B07089562E0D7
S1130F3080E896E00E945B07089564E080E896E00C
S1130F400E945B07089568E080E896E00E945B07D2
S1130F50089560E180E896E00E945B07089560E2EE
S1130F6080E896E00E945B07089580E090E0089591
S1130F701F920F920FB60F92112408B60F9218BE4B
S1130F800F9008BE0F900FBE0F901F901895FC0194
S1130F90608371834283538380E4DA0112968C93D5
S1130FA0A281B38180EB11968C930190F081E02DA6
S1130FB0206520830895DC01ED91FC9111976383F2
S1130FC0ED91FC91119792819923ECF71282ED91A6
S1130FD0FC91838108950F931F93CF93DF93EC01CA
S1130FE08B0168877987220F331F441F551F60E0E8
S1130FF078E488EE91E00E942609DA01C901059798
S1131000A109B1098C839D83AE83BF83F8018583D5
S1131010E885F98582818283E885F9858181886004
S11310208183E885F98581E08483DF91CF911F91E5
S11310300F910895DC011896ED91FC911997848124
S113104082FD05C09481892F887093FF09C081E0D7
S113105084831896ED91FC91199783E083838FEF35
S11310600895DC01442359F01896ED91FC911997E9
S1131070616066831896ED91FC91199707C01896E4
S1131080ED91FC9119976E7F6683F4CF9481907CE7
S1131090E9F39481892F807194FF10C08481806466
S11310A084831896ED91FC911997848180688483D8
S11310B01896ED91FC91199781E084830895CF935C
S11310C0DF93EC01E885F9856783E885F9858481F8
S11310D08C7FE9F3CE010E941A08E885F985948192
S11310E0892F807194FF0CC0848180648483E88597
S11310F0F985848180688483E885F98581E0848327
S1131100DF91CF910895CF93DF93EC01E885F985C2
S113111084818C7FE9F3CE010E941A08E885F98561
S113112083E08383DF91CF910895FC014083518351
S11311306283738388E0DA0111968C93A081B18174
S113114084E012968C93A281B38183E316968C93E8
S1131150A281B38117961C92A281B38183E0159674
S11311608C930280F381E02D88E184830895DC016F
S11311701296ED91FC911397818185FFFDCF6083D9
S113118008950F931F93CF93DF93EB016881662338
S113119041F08C012196C8010E94B7086991611140
S11311A0FACFDF91CF911F910F910895CF92DF92E3
S11311B0EF92FF921F93CF93DF93EC01CB01BA011F
S11311C020E137E240E050E00E9426096B017C01F7
S11311D060E3620FCE010E94B708C701B60128EE92
S11311E033E040E050E00E9426096B017C0160E39B
S11311F0620FCE010E94B708C701B60124E630E0B1
S113120040E050E00E9426096B017C0160E3620F1C
S1131210CE010E94B708C701B6012AE030E040E0E1
S113122050E00E942609162F60E3620FCE010E944F
S1131230B70860E3610FCE010E94B708DF91CF9138
S11312401F91FF90EF90DF90CF900895A1E21A2EA6
S1131250AA1BBB1BFD010DC0AA1FBB1FEE1FFF1F56
S1131260A217B307E407F50720F0A21BB30BE40BA6
S1131270F50B661F771F881F991F1A9469F76095ED
S11312807095809590959B01AC01BD01CF010895A7
S1131290EE0FFF1F881F8BBF0790F691E02D1BBE3A
S11312A019940E945609272F0C945709262FE0EC15
S11312B0F1E0378537FDFDCF3485377F34873785B7
S11312C031FF09C036E3328738ED34BF31E033876C
S11312D0378537FDFDCF33E33287808391831282D4
S11312E0248325E3228728ED31E024BF3387019648
S10912F00895F894FFCFFD
S11312F6202C2000656E640048656C6C6F00526596
S1131306616479210077616B655F75700A002C0052
S10713160A0D0000B8
S9030000FC
