S00E0000417175696C612E73726563B9
S11300000C944E010C9484010C9484010C9484018E
S11300100C9484010C9484010C9484010C94840148
S11300200C9484010C9484010C9484010C94840138
S11300300C9484010C9484010C9484010C94840128
S11300400C9484010C9484010C9484010C94840118
S11300500C9484010C9484010C9484010C94840108
S11300600C9484010C9484010C9484010C948401F8
S11300700C9484010C9484010C9484010C948401E8
S11300800C9484010C9484010C9484010C948401D8
S11300900C9484010C9484010C9484010C948401C8
S11300A00C9484010C9484010C9484010C948401B8
S11300B00C9484010C9484010C9484010C948401A8
S11300C00C9484010C9484010C9484010C94840198
S11300D00C9484010C9484010C9484010C94840188
S11300E00C9484010C9484010C9484010C94840178
S11300F00C9484010C9484010C9484010C94840168
S11301000C9484010C9484010C9484010C94840157
S11301100C9484010C9484010C9484010C94840147
S11301200C9484010C9484010C9484010C94840137
S11301300C9484010C941F0E0C9484010C9484017F
S11301400C9484010C9484010C9484010C94840117
S11301500C9484010C9484010C9484010C94840107
S11301600C9484010C9484010C9484010C948401F7
S11301700C9484010C9484010C9484010C948401E7
S11301800C9484010C9484010C9484010C948401D7
S11301900C9484010C9484010C9484010C948401C7
S11301A00C9484010C9484010C9484010C948401B7
S11301B00C9484010C9484010C9484010C948401A7
S11301C00C9484010C9484010C9484010C94840197
S11301D00C9484010C9484010C9484010C94840187
S11301E00C9484010C9484010C9484010C94840177
S11301F00C9484010C9484010C9484010800000084
S1130200BE922449123EABAAAA2ABECDCCCC4C3E07
S113021000000080BEABAAAAAA3E00000000BF00F6
S11302200000803F0000000000084178D3BB4387F2
S1130230D1133D190E3CC3BD4282AD2B3E68EC8206
S113024076BED98FE1A93E4C80EFFFBE01C4FF7F8B
S11302503F000000000007634236B79BD8A71A3955
S1130260685618AEBAAB558C1D3CB7CC5763BD6D00
S1130270EDFD753EF6177231BF000000803F0C940F
S1130280DE0C0C94A20E0C94E7090C94B7010C94A8
S1130290130EB701E709DE0C130EA20E11241FBEC4
S11302A0CFEFCDBFDFE3DEBF00E00CBF18BE19BE49
S11302B01ABE1BBE10E2A0E0B0E2EAE5F9E200E0FB
S11302C00BBF02C007900D92A236B107D9F71BBE2F
S11302D02BE3A2E6B0E201C01D92AA3FB207E1F708
S11302E011E0CEE4D1E000E006C021970109802F9F
S11302F0FE010E947F14C934D10780E00807A9F7E2
S11303000E9486010C94AB140C9400000E94260AEF
S11303100E94E80C2FEF87E893E121508040904041
S1130320E1F700C0000064E170E280EB94E00E9419
S1130330800B81E00E94390C0E94E20B6AE170E2BA
S113034080EB94E00E94800B0E94E20B61E270E279
S113035082E690E20E94BF0F80E293E00E943A0E90
S113036080E293E00E943A0E0E94ED08FDCFCF9305
S1130370DF93E3E8F9E388E592E0DF01EC011D9205
S11303802197E9F71092DB3B1092DC3BE5EDF2E2BA
S113039088EC90E08083918380EE95E1ABEDB2E24E
S11303A0ED019C01199221503040E1F788EE93E071
S11303B08487958780A391A384AF95AF80931923F5
S11303C090931A2380932D2390932E238093352387
S11303D0909336238093492390934A238093512307
S11303E090935223809365239093662380936D2387
S11303F090936E2380938123909382238093892307
S113040090938A2380939D2390939E238093A52386
S11304109093A6238093B9239093BA238093C12306
S11304209093C2238093D5239093D6238093DD2386
S11304309093DE238093F1239093F2238093F92306
S11304409093FA2380930D2490930E248093152483
S1130450909316248093292490932A248093312402
S113046090933224809345249093462480934D2482
S113047090934E2480936124909362248093692402
S113048090936A2480937D2490937E248093852482
S1130490909386248093992490939A248093A12402
S11304A09093A2248093B5249093B6248093BD2482
S11304B09093BE248093D1249093D2248093D92402
S11304C09093DA248093ED249093EE248093F52482
S11304D09093F6248093092590930A2580931125FF
S11304E090931225809325259093262580932D257E
S11304F090932E25809341259093422580934925FE
S113050090934A2580935D2590935E25809365257D
S1130510909366258093792590937A2580938125FD
S113052090938225809395259093962580939D257D
S113053090939E258093B1259093B2258093B925FD
S11305409093BA258093CD259093CE258093D5257D
S11305509093D6258093E9259093EA258093F125FD
S11305609093F225809305269093062680930D267A
S113057090930E26809321269093222680932926F9
S113058090932A2680933D2690933E268093452679
S1130590909346268093592690935A2680936126F9
S11305A090936226809375269093762680937D2679
S11305B090937E26809391269093922680939926F9
S11305C090939A268093AD269093AE268093B52679
S11305D09093B6268093C9269093CA268093D126F9
S11305E09093D2268093E5269093E6268093ED2679
S11305F09093EE26809301279093022780930927F6
S113060090930A2780931D2790931E278093252774
S1130610909326278093392790933A2780934127F4
S113062090934227809355279093562780935D2774
S113063090935E27809371279093722780937927F4
S113064090937A2780938D2790938E278093952774
S1130650909396278093A9279093AA278093B127F4
S11306609093B2278093C5279093C6278093CD2774
S11306709093CE278093E1279093E2278093E927F4
S11306809093EA278093FD279093FE278093052873
S1130690909306288093192890931A2880932128F0
S11306A090932228809335289093362880933D2870
S11306B090933E28809351289093522880935928F0
S11306C090935A2880936D2890936E288093752870
S11306D0909376288093892890938A2880939128F0
S11306E0909392288093A5289093A6288093AD2870
S11306F09093AE288093C1289093C2288093C928F0
S11307009093CA288093DD289093DE288093E5286F
S11307109093E6288093F9289093FA2880930129EE
S113072090930229809315299093162980931D296B
S113073090931E29809331299093322980933929EB
S113074090933A2980934D2990934E29809355296B
S1130750909356298093692990936A2980937129EB
S113076090937229809385299093862980938D296B
S113077090938E298093A1299093A2298093A929EB
S11307809093AA298093BD299093BE298093C5296B
S11307909093C6298093D9299093DA298093E129EB
S11307A09093E2298093F5299093F6298093FD296B
S11307B09093FE298093112A9093122A8093192AE8
S11307C090931A2A80932D2A90932E2A8093352A67
S11307D09093362A8093492A90934A2A8093512AE7
S11307E09093522A8093652A9093662A80936D2A67
S11307F090936E2A8093812A9093822A8093892AE7
S113080090938A2A80939D2A90939E2A8093A52A66
S11308109093A62A8093B92A9093BA2A8093C12AE6
S11308209093C22A8093D52A9093D62A8093DD2A66
S11308309093DE2A8093F12A9093F22A8093F92AE6
S11308409093FA2A80930D2B90930E2B8093152B63
S11308509093162B8093292B90932A2B8093312BE2
S11308609093322B8093452B9093462B80934D2B62
S113087090934E2B8093612B9093622B8093692BE2
S113088090936A2B80937D2B90937E2B8093852B62
S11308909093862B8093992B90939A2B8093A12BE2
S11308A09093A22B8093B52B9093B62B8093BD2B62
S11308B09093BE2B8093D12B9093D22B8093D92BE2
S11308C09093DA2B8093ED2B9093EE2B8093F52B62
S11308D09093F62B8093092C90930A2C8093112CDF
S11308E09093122C8093252C9093262C80932D2C5E
S11308F090932E2C8093412C9093422C8093492CDE
S113090090934A2C80935D2C90935E2C8093652C5D
S11309109093662C8093792C90937A2C8093812CDD
S11309209093822C8093952C9093962C80939D2C5D
S113093090939E2C8093B12C9093B22C8093B92CDD
S11309409093BA2C8093CD2C9093CE2C8093D52C5D
S11309509093D62C8093E92C9093EA2C8093F12CDD
S11309609093F22C8093052D9093062D80930D2D5A
S113097090930E2D8093212D9093222D8093292DD9
S113098090932A2D80933D2D90933E2D8093452D59
S11309909093462D8093592D90935A2D8093612DD9
S11309A09093622D8093752D9093762D80937D2D59
S11309B090937E2D8093912D9093922D8093992DD9
S11309C090939A2D8093AD2D9093AE2D8093B52D59
S11309D09093B62D8093C92D9093CA2D8093D12DD9
S11309E09093D22D8093E52D9093E62D8093ED2D59
S11309F09093EE2D8093012E9093022E8093092ED6
S1130A0090930A2E80931D2E90931E2E8093252E54
S1130A109093262E8093392E90933A2E8093412ED4
S1130A209093422E8093552E9093562E80935D2E54
S1130A3090935E2E8093712E9093722E8093792ED4
S1130A4090937A2E80938D2E90938E2E8093952E54
S1130A509093962E8093A92E9093AA2E8093B12ED4
S1130A609093B22E8093C52E9093C62E8093CD2E54
S1130A709093CE2E8093E12E9093E22E8093E92ED4
S1130A809093EA2E8093FD2E9093FE2E8093052F53
S1130A909093062F8093192F90931A2F8093212FD0
S1130AA09093222F8093352F9093362F80933D2F50
S1130AB090933E2F8093512F9093522F8093592FD0
S1130AC090935A2F80936D2F90936E2F8093752F50
S1130AD09093762F8093892F90938A2F8093912FD0
S1130AE09093922F8093A52F9093A62F8093AD2F50
S1130AF09093AE2F8093C12F9093C22F8093C92FD0
S1130B009093CA2F8093DD2F9093DE2F8093E52F4F
S1130B109093E62F8093F92F9093FA2F80930130CE
S1130B2090930230809315309093163080931D304B
S1130B3090931E30809331309093323080933930CB
S1130B4090933A3080934D3090934E30809355304B
S1130B50909356308093693090936A30DF0180938C
S1130B607130909372308093853090938630809367
S1130B708D3090938E308093A1309093A2308093E7
S1130B80A9309093AA308093BD309093BE30809367
S1130B90C5309093C6308093D9309093DA308093E7
S1130BA0E1309093E2308093F5309093F630809367
S1130BB0FD309093FE3080931131909312318093E5
S1130BC0193190931A3180932D3190932E31809363
S1130BD03531909336318093493190934A318093E3
S1130BE05131909352318093653190936631809363
S1130BF06D3190936E3180938131909382318093E3
S1130C00893190938A3180939D3190939E31809362
S1130C10A5319093A6318093B9319093BA318093E2
S1130C20C1319093C2318093D5319093D631809362
S1130C30DD319093DE318093F1319093F2318093E2
S1130C40F9319093FA3180930D3290930E32809360
S1130C501532909316328093293290932A328093DE
S1130C60313290933232809345329093463280935E
S1130C704D3290934E3280936132909362328093DE
S1130C80693290936A3280937D3290937E3280935E
S1130C908532909386328093993290939A328093DE
S1130CA0A1329093A2328093B5329093B63280935E
S1130CB0BD329093BE328093D1329093D2328093DE
S1130CC0D9329093DA328093ED329093EE3280935E
S1130CD0F5329093F6328093093390930A338093DC
S1130CE0113390931233809325339093263380935A
S1130CF02D3390932E3380934133909342338093DA
S1130D00493390934A3380935D3390935E33809359
S1130D106533909366338093793390937A338093D9
S1130D208133909382338093953390939633809359
S1130D309D3390939E338093B1339093B2338093D9
S1130D40B9339093BA338093CD339093CE33809359
S1130D50D5339093D6338093E9339093EA338093D9
S1130D60F1339093F2338093053490930634809357
S1130D700D3490930E3480932134909322348093D5
S1130D80293490932A3480933D3490933E34809355
S1130D904534909346348093593490935A348093D5
S1130DA06134909362348093753490937634809355
S1130DB07D3490937E3480939134909392348093D5
S1130DC0993490939A348093AD349093AE34809355
S1130DD0B5349093B6348093C9349093CA348093D5
S1130DE0D1349093D2348093E5349093E634809355
S1130DF0ED349093EE3480930135909302358093D3
S1130E00093590930A3580931D3590931E35809350
S1130E102535909326358093393590933A358093D0
S1130E204135909342358093553590935635809350
S1130E305D3590935E3580937135909372358093D0
S1130E40793590937A3580938D3590938E35809350
S1130E509535909396358093A9359093AA358093D0
S1130E60B1359093B2358093C5359093C635809350
S1130E70CD359093CE358093E1359093E2358093D0
S1130E80E9359093EA358093FD359093FE35809350
S1130E900536909306368093193690931A368093CC
S1130EA0213690932236809335369093363680934C
S1130EB03D3690933E3680935136909352368093CC
S1130EC0593690935A3680936D3690936E3680934C
S1130ED07536909376368093893690938A368093CC
S1130EE09136909392368093A5369093A63680934C
S1130EF0AD369093AE368093C1369093C2368093CC
S1130F00C9369093CA368093DD369093DE3680934B
S1130F10E5369093E6368093F9369093FA368093CB
S1130F200137909302378093153790931637809347
S1130F301D3790931E3780933137909332378093C7
S1130F40393790933A3780934D3790934E37809347
S1130F505537909356378093693790936A378093C7
S1130F607137909372378093853790938637809347
S1130F708D3790938E378093A1379093A2378093C7
S1130F80A9379093AA378093BD379093BE37809347
S1130F90C5379093C6378093D9379093DA378093C7
S1130FA0E1379093E2378093F5379093F637809347
S1130FB0FD379093FE3780931138909312388093C5
S1130FC0193890931A3880932D3890932E38809343
S1130FD03538909336388093493890934A388093C3
S1130FE05138909352388093653890936638809343
S1130FF06D3890936E3880938138909382388093C3
S1131000893890938A3880939D3890939E38809342
S1131010A5389093A6388093B9389093BA3888EC61
S1131020EBEBF8E3EF0119928A95E9F712961D921A
S11310301C92139788E592E0EBE7F0E2EF019C0144
S1131040199221503040E1F7E6E6F0E21092D32203
S11310501092D42281E090E014968D939C9315977E
S113106027EF32E2208331832283338324E630E086
S113107092962D933C93939794962D933C939597A6
S113108096968D939C9397978FEF9FEF9A968D9357
S11310909C939B9798961D921C9299971482158203
S11310A01682178210861186128613861486158678
S11310B0138A148A1786108A118A128A168640E4C3
S11310C056E060EA78E082E690E20E94930FDF91B6
S11310D0CF9108950F931F93CF93DF93C82F61E0AF
S11310E082E00E946D0E61E084E00E946D0E61E07A
S11310F081E00E946D0E28E2C29F8001112420E04D
S113110030E0E0E2F7E0D1E0CEE0B2E0ADE074E060
S11311106BE058E047E0D583C6838FE79EE30197F1
S1131120F1F700C00000B583A6838FE79EE3019723
S1131130F1F700C00000758366838FE79EE3019793
S1131140F1F700C00000558346838FE79EE30197C3
S1131150F1F700C000002F5F3F4F02171307DCF6C2
S11311608FE08093260760E082E00E946D0E60E0CD
S113117084E00E946D0E60E081E00E946D0E61E0EB
S113118081E00E947B0ECBE0D0E063E081E00E942E
S11311907B0E64E082E00E947B0E80E293E00E947A
S11311A03A0E9FEF2BE48DE1915020408040E1F70F
S11311B000C00000219749F760E081E00E947B0EA7
S11311C060E082E00E947B0EDF91CF911F910F912E
S11311D0089587E08093A1060895EF92FF920F93FC
S11311E01F93CF93DF9340E060EA8DED9BE30E9471
S11311F0170F64E370E08DED9BE30E94450F41E01F
S113120060EA8DED9BE30E94170F61E08DED9BE397
S11312100E94690F082F60E08DED9BE30E94690F27
S1131220E82E8DED9BE30E94810F40E060EA8DED96
S11312309BE30E94170F65E370E08DED9BE30E9432
S1131240450F41E060EA8DED9BE30E94170F61E0DA
S11312508DED9BE30E94690FD82F60E08DED9BE339
S11312600E94690FF82E8DED9BE30E94810F40E0F0
S113127060EA8DED9BE30E94170F66E370E08DED4D
S11312809BE30E94450F41E060EA8DED9BE30E94E1
S1131290170F61E08DED9BE30E94690FC82F60E09A
S11312A08DED9BE30E94690F182F8DED9BE30E9447
S11312B0810F602F70E07E29072E000C880B990B9C
S11312C00E94C31120E030E040E058E30E94B512D0
S11312D020E030E040E851E40E94B5122DEC3CECF3
S11312E04CE151E40E94B51220E030E040E251E4C8
S11312F00E94B5120E948B1182E690E20E94411076
S11313006AE270E282E690E20E94BF0F6D2F70E005
S11313107F29072E000C880B990B0E94C31120E033
S113132030E040E058E30E94B51220E030E040E8AD
S113133051E40E94B5122DEC3CEC4CE151E40E94C6
S1131340B51220E030E040E251E40E94B5120E9460
S11313508B1182E690E20E9441106AE270E282E61A
S113136090E20E94BF0F6C2F70E0712B072E000CCF
S1131370880B990B0E94C31120E030E040E058E351
S11313800E94B51220E030E040E851E40E94B5121A
S11313902DEC3CEC4CE151E40E94B51220E030E02D
S11313A040E251E40E94B5120E948B1182E690E261
S11313B00E94411069E070E282E690E20E94BF0F51
S11313C0DF91CF911F910F91FF90EF90089520E44A
S11313D03DE043E050E060E874E08DED9BE30E9463
S11313E0D10E0895E0E5F0E0808182608083818100
S11313F081FFFDCF88ED84BFE0E4F0E081E08083ED
S113140084E08183E0E5F0E080818E7F808308952D
S113141084E080935000E1E5F0E080818823E9F3E3
S113142081E08093430087E080930004089581E085
S113143080930106E0ECF7E087E0818385838FE009
S11314408093210783E08093210608950E94F20986
S11314500E94170A0E94330A0E94150C0E94080A6F
S11314600E94E9080895CF93DF93CDB7DEB72A979A
S1131470CDBFDEBF20EE33E944E050E060E974E024
S1131480CE0101960E94D10E40E06CE7CE01019698
S11314900E94170F60E070E0CE0101960E94450F94
S11314A068E370E0CE0101960E94450FCE010196DB
S11314B00E94810F2FEF81EE94E0215080409040F4
S11314C0E1F700C0000040E06CE7CE0101960E9405
S11314D0170F60E070E0CE0101960E94450F69E3AA
S11314E070E0CE0101960E94450FCE0101960E9444
S11314F0810F2FEF81EE94E0215080409040E1F77E
S113150000C0000040E06CE7CE0101960E94170F76
S113151060E070E0CE0101960E94450F64E170E046
S1131520CE0101960E94450FCE0101960E94810FC3
S11315302FEF81EE94E0215080409040E1F700C00D
S1131540000040E06CE7CE0101960E94170F60E0B6
S113155070E0CE0101960E94450F6EE770E0CE0167
S113156001960E94450FCE0101960E94810F2FEF34
S113157081EE94E0215080409040E1F700C00000EB
S113158040E06CE7CE0101960E94170F60E070E026
S1131590CE0101960E94450F65E570E0CE010196EB
S11315A00E94450FCE0101960E94810F2FEF81EE1C
S11315B094E0215080409040E1F700C0000040E0FA
S11315C06CE7CE0101960E94170F60E070E0CE0137
S11315D001960E94450F6CE670E0CE0101960E94D0
S11315E0450FCE0101960E94810F2FEF83ED90E30A
S11315F0215080409040E1F700C0000040E06CE7DB
S1131600CE0101960E94170F60E070E0CE010196B2
S11316100E94450F68E370E0CE0101960E94450FD9
S1131620CE0101960E94810F2FEF81EE94E02150AC
S113163080409040E1F700C0000040E06CE7CE013C
S113164001960E94170F60E070E0CE0101960E949F
S1131650450F6CE070E0CE0101960E94450FCE016B
S113166001960E94810F2FEF81EE94E0215080407B
S11316709040E1F700C0000040E06CE7CE01019625
S11316800E94170F60E070E0CE0101960E94450FA2
S113169061E070E0CE0101960E94450FCE010196F3
S11316A00E94810F2FEF81EE94E021508040904002
S11316B0E1F700C0000040E06CE7CE0101960E9413
S11316C0170F60E070E0CE0101960E94450F66E0BE
S11316D070E0CE0101960E94450FCE0101960E9452
S11316E0810F2FEF81EE94E0215080409040E1F78C
S11316F000C000002A96CDBFDEBFDF91CF910895D0
S1131700AF92BF92CF92DF92EF92FF921F93CF934B
S1131710DF93CDB7DEB72A97CDBFDEBF7B0120EEC6
S113172033E944E050E060E974E0CE0101960E94A0
S1131730D10E40E06CE7CE0101960E94170FF7012D
S113174001900020E9F731976F01CE18DF0849F1C5
S113175080E090E010E0560121E0A21AB108A8163A
S1131760B90639F460E470E0CE0101960E94450F99
S113177006C060EC70E0CE0101960E94450FF701AF
S113178061917F0170E0CE0101960E94450FFAE657
S1131790FA95F1F700C01F5F812F90E08C159D052D
S11317A0F0F2CE0101960E94810F2A96CDBFDEBFD2
S11317B0DF91CF911F91FF90EF90DF90CF90BF907A
S11317C0AF900895CF93DF93CDB7DEB72A97CDBFFF
S11317D0DEBF20EE33E944E050E060E974E0CE017E
S11317E001960E94D10E40E06CE7CE0101960E9462
S11317F0170F60E070E0CE0101960E94450F61E092
S113180070E0CE0101960E94450FCE0101960E9420
S1131810810F8FEB92E10197F1F700C000002A9647
S1131820CDBFDEBFDF91CF910895E0E2F6E08FE017
S11318308183858383E086830895623021F498E070
S11318409093260605C0613091F494E090932606A7
S1131850682F8FE39CE90197F1F700C0000087EE41
S11318609BE30E94C10E9CE090932506089580E0BE
S113187008950F931F93CF93C82F00E017E061E002
S113188080E00E941D0C813099F0F801808585FD6F
S113189002C0C11129C0F801808586FD02C0C111B2
S11318A034C0F8018085882354F3CC2341F33EC02F
S11318B000E017E062E080E00E941D0C813009F432
S11318C079C0F801808585FD02C0C11140C0F801CE
S11318D0808586FD02C0C1114BC0F8018085882334
S11318E04CF3CC2339F355C081E00E94850D60E0B0
S11318F081E00E94F60C60E082E00E94F60C60E059
S113190083E00E94F60CC0E0C6CF82E00E94850D01
S113191060E081E00E94F60C60E082E00E94F60C38
S113192060E083E00E94F60CC0E0BBCF83E00E943D
S1131930850D60E081E00E94F60C60E082E00E9488
S1131940F60C60E083E00E94F60CC0E098CF81E0E2
S11319500E94850D60E081E00E94F60C60E082E068
S11319600E94F60C60E083E00E94F60CC0E0AFCF6A
S113197082E00E94850D60E081E00E94F60C60E048
S113198082E00E94F60C60E083E00E94F60CC0E066
S1131990A4CF83E00E94850D60E081E00E94F60CF4
S11319A060E082E00E94F60C60E083E00E94F60CA6
S11319B0C0E080CFCF911F910F91089521E040E4C2
S11319C056E060EC78E087EE9BE30E94AD0E08954C
S11319D0E0E6F6E08CE18183A0E0B7E090EE1296B9
S11319E09C93129715969C9386830895823071F088
S11319F08330B1F08130E9F4662321F084E08093F0
S1131A006606089584E0809365060895662321F0B0
S1131A1088E080936606089588E0809365060895BB
S1131A20662321F080E180936606089580E1809327
S1131A30650608951F93CF93DF936130D9F4C0E610
S1131A40D6E014E01D83EFE3FFE13197F1F700C026
S1131A5000001E83FFEF23EC39E0F15020403040BA
S1131A60E1F700C00000682F8CEE9BE30E94C10EDA
S1131A701D8339C06230D9F4C0E6D6E018E01D8376
S1131A80EFE3FFE13197F1F700C000001E83FFEFA1
S1131A9023EC39E0F15020403040E1F700C0000071
S1131AA0682F8CEE9BE30E94C10E1D831CC0633023
S1131AB039F5C0E6D6E010E11D83EFE3FFE131978D
S1131AC0F1F700C000001E83FFEF23EC39E0F15072
S1131AD020403040E1F700C00000682F8CEE9BE30B
S1131AE00E94C10E1D839FEFE9EFF0E09150E040AA
S1131AF0F040E1F700C000009CE19093660601C04D
S1131B0080E0DF91CF911F910895CF93DF93D82F79
S1131B1083E0809325068FE39CE90197F1F700C0E9
S1131B20000061E084E00E946D0E61E08D2F0E9450
S1131B301A0DC82F60E08D2F0E94F60C6CE270E243
S1131B4082E690E20E94BF0F6C2F70E082E690E282
S1131B500E94D40F69E070E282E690E20E94BF0F17
S1131B6060E08D2F0E94F60C60E084E00E946D0E10
S1131B70C093EB3BC53019F128F4C33041F0C430B5
S1131B8091F040C0C63039F1C93088F13BC00E94A1
S1131B90E20B6FE270E280EB94E00E94800B82E043
S1131BA00E946A082FC00E94E20B67E370E280EB98
S1131BB094E00E94800B81E00E946A0823C00E9486
S1131BC0E20B6FE370E280EB94E00E94800B80E014
S1131BD00E946A0817C00E94E20B67E470E280EB7F
S1131BE094E00E94800B81E00E946A080BC00E946E
S1131BF0E20B62E570E280EB94E00E94800B81E0EE
S1131C000E946A080E94E20B9FEF29EF80E0915046
S1131C1020408040E1F700C0000083E08093260666
S1131C20DF91CF91089523E040E656E060EC79E03F
S1131C308CEE9BE30E94AD0E1092EB3B08951F9235
S1131C400F920FB60F92112408B60F9218BE0F9080
S1131C5008BE0F900FBE0F901F90189520E030E043
S1131C604AE04A95F1F700C02F5F3F4F8217930770
S1131C70B8F70895AF92BF92CF92DF92EF92FF929E
S1131C800F931F93CF93DF938C0188EE93E06C0145
S1131C90C01AD10AC0E0D0E00F2EE12CF6E0FF2EEE
S1131CA0F02DBB24B394AB2CF701A582C8010E948C
S1131CB02E0EF701B682C8010E942E0E2196CC1674
S1131CC0DD0690F7DF91CF911F910F91FF90EF9078
S1131CD0DF90CF90BF90AF900895613019F4809356
S1131CE0C6070895611103C08093C50708958CE168
S1131CF08093C507089590E390932107823081F47F
S1131D00613021F480E1809325070895611104C0B6
S1131D1080E180932607089580E180932707089542
S1131D20813079F4613021F480E2809325070895AD
S1131D30611104C080E280932607089580E28093B5
S1131D402707089520E43DE043E050E060E974E0B3
S1131D5080EF9BE30E94D10E0895FC0160837183A0
S1131D604283538380E4DA0112968C93A281B38177
S1131D7080EB11968C930190F081E02D20652083F7
S1131D800895DC01ED91FC9111976383ED91FC9131
S1131D90119792819923ECF71282ED91FC91838142
S1131DA008950F931F93CF93DF93EC018B01688702
S1131DB07987220F331F441F551F60E078E488EEB3
S1131DC091E00E945D14DA01C9010597A109B109E6
S1131DD08C839D83AE83BF83F8018583E885F98571
S1131DE082818283E885F985818188608183E885A1
S1131DF0F98581E08483DF91CF911F910F9108953C
S1131E00DC011896ED91FC911997848182FD05C03F
S1131E109481892F887093FF09C081E08483189688
S1131E20ED91FC91199783E083838FEF0895DC0192
S1131E30442359F01896ED91FC91199761606683DB
S1131E401896ED91FC91199707C01896ED91FC91A5
S1131E5019976E7F6683F4CF9481907CE9F3948123
S1131E60892F807194FF10C08481806484831896C4
S1131E70ED91FC9119978481806884831896ED9183
S1131E80FC91199781E084830895CF93DF93EC014B
S1131E90E885F9856783E885F98584818C7FE9F392
S1131EA0CE010E94000FE885F9859481892F807105
S1131EB094FF0CC0848180648483E885F9858481DF
S1131EC080688483E885F98581E08483DF91CF91FC
S1131ED00895CF93DF93EC01E885F98584818C7FA5
S1131EE0E9F3662319F082E0838302C086E08383EA
S1131EF0CE010E94000FE885F9858781DF91CF919B
S1131F000895CF93DF93EC01E885F98584818C7F74
S1131F10E9F3CE010E94000FE885F98583E083830D
S1131F20DF91CF910895FC014083518362837383D1
S1131F3088E0DA0111968C93A081B18184E0129635
S1131F408C93A281B38183E316968C93A281B3818F
S1131F5017961C92A281B38183E015968C9302801C
S1131F60F381E02D88E184830895DC011296ED91DC
S1131F70FC911397818185FFFDCF608308950F93B2
S1131F801F93CF93DF93EB016881662341F08C01AB
S1131F902196C8010E94B50F69916111FACFDF91B2
S1131FA0CF911F910F910895EF92FF920F931F937A
S1131FB0CF93DF937C01EB019B01369527953695F2
S1131FC0279536952795A5ECB0E20E9488148C01DC
S1131FD0129502950F7001271F70012760E3600FAF
S1131FE0C7010E94B50F28EE33E0029FC001039F92
S1131FF0900D129F900D1124C81BD90B9E0136958C
S1132000279536952795ABE7B4E10E9488148C0197
S11320101695079560E3600FC7010E94B50F24E68B
S1132020209FC001219F900D1124C81BD90B9E0134
S1132030ADECBCEC0E9488148C011695079516959E
S113204007951695079560E3600FC7010E94B50FC9
S1132050C801880F991F000F111F000F111F000FD7
S1132060111F080F191FC01BD10B6C2F605DC70116
S11320700E94B50FDF91CF911F910F91FF90EF90C8
S11320800895AF92BF92CF92DF92EF92FF920F9397
S11320901F93CF93DF935C018B0177233CF46DE5B1
S11320A070E20E94BF0F119501951109B801012E2C
S11320B0000C880B990B0E94C3110E945D1220E052
S11320C030E040E85FE30E94AD100E948B11EB0109
S11320D01C161D06B4F1BE010D2E000C880B990BC5
S11320E00E94C3119B01AC0160E070E080E291E4C6
S11320F00E9422136B017C01B801012E000C880B95
S1132100990B0E94C311A70196010E94191120E0A6
S113211030E040E452E40E94AD100E949211C501E7
S11321200E94B50FC701B6010E948B11AB01BC011F
S1132130C801BA010E9449148C0121971C161D067E
S113214054F6DF91CF911F910F91FF90EF90DF90A4
S1132150CF90BF90AF9008955058BB27AA270E94F4
S1132160C4100C9423120E94151238F00E941C1201
S113217020F039F49F3F19F426F40C9412120EF453
S1132180E095E7FB0C94FE11E92F0E94341258F3FA
S1132190BA17620773078407950720F079F4A6F548
S11321A00C9456120EF4E0950B2EBA2FA02D0B01B1
S11321B0B90190010C01CA01A0011124FF27591B88
S11321C099F0593F50F4503E68F11A16F040A22F8E
S11321D0232F342F4427585FF3CF469537952795FF
S11321E0A795F0405395C9F77EF41F16BA0B620BFE
S11321F0730B840BBAF09150A1F0FF0FBB1F661F45
S1132200771F881FC2F70EC0BA0F621F731F841F87
S113221048F4879577956795B795F7959E3F08F0AD
S1132220B0CF9395880F08F09927EE0F979587956F
S113223008950E942D110C9423120E941C1258F030
S11322400E94151240F029F45F3F29F00C94FE110E
S113225051110C9457120C9412120E94341268F308
S11322609923B1F3552391F3951B550BBB27AA274B
S113227062177307840738F09F5F5F4F220F331F85
S1132280441FAA1FA9F335D00E2E3AF0E0E832D04D
S113229091505040E695001CCAF72BD0FE2F29D050
S11322A0660F771F881FBB1F261737074807AB0722
S11322B0B0E809F0BB0B802DBF01FF2793585F4F97
S11322C03AF09E3F510578F00C94FE110C9457128D
S11322D05F3FE4F3983ED4F3869577956795B79579
S11322E0F7959F5FC9F7880F911D9695879597F984
S11322F00895E1E0660F771F881FBB1F62177307FD
S11323008407BA0720F0621B730B840BBA0BEE1F11
S113231088F7E09508950E9492116894B1110C9485
S1132320571208950E943C1288F09F5798F0B92FD5
S11323309927B751B0F0E1F0660F771F881F991FF6
S11323401AF0BA95C9F714C0B13091F00E94561230
S1132350B1E008950C945612672F782F8827B85F40
S113236039F0B93FCCF3869577956795B395D9F74E
S11323703EF490958095709561957F4F8F4F9F4F58
S11323800895E89409C097FB3EF490958095709564
S113239061957F4F8F4F9F4F9923A9F0F92F96E9AD
S11323A0BB279395F695879577956795B795F11122
S11323B0F8CFFAF4BB0F11F460FF1BC06F5F7F4FBF
S11323C08F4F9F4F16C0882311F096E911C07723D1
S11323D021F09EE8872F762F05C0662371F096E8DA
S11323E0862F70E060E02AF09A95660F771F881FA9
S11323F0DAF7880F9695879597F9089597F99F6767
S113240080E870E060E008959F3F31F0915020F43F
S1132410879577956795B795880F911D96958795BC
S113242097F908959FEF80EC089500240A941616F6
S1132430170618060906089500240A9412161306AE
S1132440140605060895092E0394000C11F488233C
S113245052F0BB0F40F4BF2B11F460FF04C06F5F58
S11324607F4F8F4F9F4F089557FD9058440F551F2E
S113247059F05F3F71F04795880F97FB991F61F002
S11324809F3F79F087950895121613061406551F79
S1132490F2CF4695F1DF08C0161617061806991FE5
S11324A0F1CF86957105610508940895E894BB27DA
S11324B066277727CB0197F908950E946D1229EDBD
S11324C03BE54EED5EE30C94B51216F00C94041249
S11324D00C94121268940C94FE110E943C12A8F3FE
S11324E09923C1F3AEF3DF93CF931F930F93FF921E
S11324F0C92FDD2788232AF02197660F771F881FAD
S1132500DAF720E030E040E85FEB9FE3883920F021
S1132510803E38F021968F770E94AD10ECEFF1E009
S113252004C00E94AD10E9E2F2E00E94AC138B01FA
S1132530BE01EC01FB2E6F5771097595771F880B4F
S1132540990B0E94C31128E132E741E35FE30E9443
S1132550C812AF2D9801AE01FF900F911F91CF913A
S1132560DF910E94C4100C9423120E94C8120C9490
S113257023120E94151238F00E941C1220F0952399
S113258011F00C94FE110C94121211240C94571295
S11325900E94341270F3959FC1F3950F50E0551FBC
S11325A0629FF001729FBB27F00DB11D639FAA27A4
S11325B0F00DB11DAA1F649F6627B00DA11D661FF3
S11325C0829F2227B00DA11D621F739FB00DA11D14
S11325D0621F839FA00D611D221F749F3327A00DCE
S11325E0611D231F849F600D211D822F762F6A2F6A
S11325F011249F5750409AF0F1F088234AF0EE0FCF
S1132600FF1FBB1F661F771F881F91505040A9F7FB
S11326109E3F510580F00C94FE110C9457125F3FBD
S1132620E4F3983ED4F3869577956795B795F79537
S1132630E7959F5FC1F7FE2B880F911D96958795AF
S113264097F90895FA01EE0FFF1F30962105310521
S1132650A1F16115710561F48038BFE39B0749F16D
S113266068949038810561F08038BFEF9B0741F092
S113267099234AF5FF3FE1053105210519F1E89455
S11326800894E795D901AA2329F4AB2FBE2FF85F4C
S1132690D0F310C0FF5F70F4A695E0F7F73950F05F
S11326A019F0FF3A38F49F779F930DD00F9007FCF1
S11326B09058089546F00C94121260E070E080E89F
S11326C09FE308954FE79F775F934F933F932F9333
S11326D00E946D122F913F914F915F910E94B5120C
S11326E00C947A1329F416F00C94FE110C945612DF
S11326F00C9412120E943C12A8F39638A0F707F823
S11327000F92E8942BE33AEA48EB5FE70E94CB127E
S11327100F920F920F924DB75EB70F920E9415144D
S1132720E6E5F2E00E94AC134F915F91EF91FF91C7
S1132730E595EE1FFF1F49F0FE57E0684427EE0FB2
S1132740441FFA95E1F74195550B0E94DF130F9052
S113275007FE0C94D3130895DF93CF931F930F9325
S1132760FF92EF92DF927B018C01689406C0DA2E0F
S1132770EF010E94C812FE01E894A59125913591BC
S113278045915591A6F3EF010E94C410FE019701F3
S1132790A801DA9469F7DF90EF90FF900F911F91F1
S11327A0CF91DF9108959B01AC0160E070E080E877
S11327B09FE30C9419110C94FE110C9404120E94C2
S11327C03C12D8F39923C9F3940F511DA3F39150EC
S11327D0504094F059F0882332F0660F771F881F19
S11327E091505040C1F79E3F51052CF7880F911D21
S11327F09695879597F908955F3FACF0983E9CF0C5
S1132800BB27869577956795B79508F4B16093953E
S1132810C1F7BB0F58F711F460FFE8CF6F5F7F4F2C
S11328208F4F9F4FE3CF0C945712FA01DC01AA0F8C
S1132830BB1F9B01AC01BF5728F422273327442731
S1132840507820C0B75190F4AB2F002446953795AB
S11328502795011CA395D2F3002071F0220F331F9A
S1132860441FB395DAF30ED00C94AC1061307105AB
S1132870A0E88A07B94630F49B01AC0166277727A4
S113288088279078309621F02083318342835383C4
S1132890089597FB072E16F4009407D077FD09D00E
S11328A00E94971407FC05D03EF4909581959F4FA4
S11328B00895709561957F4F0895A1E21A2EAA1B81
S11328C0BB1BFD010DC0AA1FBB1FEE1FFF1FA217DC
S11328D0B307E407F50720F0A21BB30BE40BF50BD9
S11328E0661F771F881F991F1A9469F76095709562
S11328F0809590959B01AC01BD01CF010895EE0F29
S1132900FF1F881F8BBF0790F691E02D1BBE199403
S1132910A29FB001B39FC001A39F700D811D11241C
S1132920911DB29F700D811D1124911D0895AA1B44
S1132930BB1B51E107C0AA1FBB1FA617B70710F0A6
S1132940A61BB70B881F991F5A95A9F780959095D8
S10D2950BC01CD010895F894FFCFF7
S113295A656500635F6E3A20000A0D0062667300C3
S113296A6466730048656C6C6F0052656164792112
S113297A0077616B655F75700A007C0063680046C6
S113298A696E642048210046696E6420532100461A
S113299A696E642055210046696E64205365726D20
S11329AA6F0046696E64204572726F72002D002EA4
S10529BA000017
S9030000FC
