S00E0000417175696C612E73726563B9
S2140000000C9429010C945F010C945F010C945F0121
S2140000100C945F010C945F010C945F010C945F01DB
S2140000200C945F010C945F010C945F010C945F01CB
S2140000300C945F010C945F010C945F010C945F01BB
S2140000400C945F010C945F010C945F010C945F01AB
S2140000500C945F010C945F010C945F010C945F019B
S2140000600C945F010C945F010C945F010C945F018B
S2140000700C945F010C945F010C945F010C945F017B
S2140000800C945F010C945F010C945F010C945F016B
S2140000900C945F010C945F010C945F010C945F015B
S2140000A00C945F010C945F010C945F010C945F014B
S2140000B00C945F010C945F010C945F010C945F013B
S2140000C00C945F010C945F010C945F010C945F012B
S2140000D00C945F010C945F010C945F010C945F011B
S2140000E00C945F010C945F010C945F010C945F010B
S2140000F00C945F010C945F010C945F010C945F01FB
S2140001000C945F010C945F010C945F010C945F01EA
S2140001100C945F010C945F010C945F010C945F01DA
S2140001200C945F010C945F010C945F010C945F01CA
S2140001300C945F010C946A940C945F010C945F011C
S2140001400C945F010C945F010C945F010C945F01AA
S2140001500C945F010C945F010C945F010C945F019A
S2140001600C945F010C945F010C945F010C945F018A
S2140001700C945F010C945F010C945F010C945F017A
S2140001800C945F010C945F010C945F010C945F016A
S2140001900C945F010C945F010C945F010C945F015A
S2140001A00C945F010C945F010C945F010C945F014A
S2140001B00C945F010C945F010C945F010C945F013A
S2140001C00C945F010C945F010C945F010C945F012A
S2140001D00C945F010C945F010C945F010C945F011A
S2140001E00C945F010C945F010C945F010C945F010A
S2140001F00C945F010C945F010C945F01CD8FDD8F32
S2140002004D904D90ED8FFD8F0D901D902D903D9053
S2140002100C94ED8F0C943D900C94CD8F0C944D90D7
S2140002200C940D900C948B8C0C949C930C942E8BAD
S2140002300C94DD8F0C94FD8F0C9467920C941D909B
S2140002400C94ED940C942D902E8B8B8C67929C9333
S214000250ED9411241FBECFEFCDBFDFE3DEBF00E07D
S2140002600CBF18BE19BE1ABE1BBE10E2A0E0B0E25C
S214000270E2E7FDE201E00BBF02C007900D92A43951
S214000280B107D9F71BBE2AE3A4E9B0E201C01D926C
S214000290A233B207E1F711E0C9E2D1E000E006C000
S2140002A021970109802FFE010E949696C432D1073D
S2140002B080E00807A9F70E94F78A0C94B7960C947A
S2140002C000002F923F924F925F926F927F928F9292
S2140002D09F92AF92BF92CF92DF92EF92FF920F93D0
S2140002E01F93CF93DF9300D000D0CDB7DEB78D83BA
S2140002F09E83FB014B835C8349011801309709F408
S21400030000C52FEFE21AF20A86819781E816F906F1
S21400031014F4E682F782AD81BE8118967C90189719
S2140003201996BC902381A72C1B2D110F110B30E0C2
S21400033040E050E060E070E080E090E0C12ED12E1A
S214000340E12EF12E012F0E94AE9609F4DAC48081C8
S21400035090E0AB81BC818A179B0781F4818190E095
S2140003608815990559F4828190E08215930531F439
S214000370AD81BE811696ED93FC93179729823A823B
S21400038024012B803C80EB83FC83AB81BC811396DD
S2140003907C92139716968D919C9117971B968D902D
S2140003A09C901C978114910409F481C00196F40175
S2140003B0268137818217930714F486839783AD814D
S2140003C0BE811896EC9118971996BC90D401139696
S2140003D02C911397AE2E1B2D110F110B30E040E021
S2140003E050E060E070E080E090E0C12ED12EE12E7B
S2140003F0F12E012F0E94AE9609F459C08C9190E020
S21400040028163906A9F411968C91119790E0481693
S214000410590671F412968C9190E029813A8128173A
S214000420390731F4AD81BE8116968D929C9217974E
S214000430D4011396EC9313971696ED90FC901797AD
S2140004401B966D917C911C9709811A819201A101DE
S2140004508D819E810E946101F401E680F7806585AA
S214000460768509811A819201A1018D819E810E9463
S2140004706101D4011696ED90FC9017971F966D912A
S2140004807C91509709811A819201A1018D819E81EC
S2140004900E946101F401E680F78061897289098112
S2140004A01A819201A1018D819E810E946101AB811A
S2140004B0BC8116968D919C9117971D966D907C9099
S2140004C01E976114710409F47DC20196F30126811A
S2140004D037818217930714F486839783AD81BE8194
S2140004E01896EC9118971996BC90D30113962C91F8
S2140004F01397AE2E1B2D110F110B30E040E050E08D
S21400050060E070E080E090E0C12ED12EE12EF12E6A
S214000510012F0E94AE9609F455C28C9190E02816E1
S2140005203906A9F411968C91119790E04816590651
S21400053071F412968C9190E029813A812817390738
S21400054031F4AD81BE8116966D927C921797D301D9
S2140005501396EC93139716968D919C9117971B966E
S2140005608D909C901C978114910409F481C001968B
S214000570F401268137818217930714F486839783C4
S214000580AD81BE811896EC9118971996BC90D4014F
S21400059013962C911397AE2E1B2D110F110B30E0D6
S2140005A040E050E060E070E080E090E0C12ED12EA8
S2140005B0E12EF12E012F0E94AE9609F459C08C91BF
S2140005C090E028163906A9F411968C91119790E0C0
S2140005D04816590671F412968C9190E029813A815A
S2140005E02817390731F4AD81BE8116968D929C92FC
S2140005F01797D4011396EC9313971696ED90FC90EC
S21400060017971B966D917C911C9709811A81920110
S214000610A1018D819E810E946101F401E680F78030
S2140006206585768509811A819201A1018D819E8159
S2140006300E946101D4011696ED90FC9017971F96C4
S2140006406D917C91509709811A819201A1018D814B
S2140006509E810E946101F401E680F78061897289BB
S21400066009811A819201A1018D819E810E946101FA
S214000670D30116968D919C9117971D968D909C9000
S2140006801E978114910409F481C00196F401268115
S21400069037818217930714F486839783AD81BE81D2
S2140006A01896EC9118971996BC90D40113962C9135
S2140006B01397AE2E1B2D110F110B30E040E050E0CB
S2140006C060E070E080E090E0C12ED12EE12EF12EA9
S2140006D0012F0E94AE9609F459C08C9190E028161E
S2140006E03906A9F411968C91119790E04816590690
S2140006F071F412968C9190E029813A812817390777
S21400070031F4AD81BE8116968D929C921797D401D6
S2140007101396EC9313971696ED90FC9017971B96EE
S2140007206D917C911C9709811A819201A1018D819E
S2140007309E810E946101F401E680F78065857685DA
S21400074009811A819201A1018D819E810E94610119
S214000750D4011696ED90FC9017971F966D917C919C
S214000760509709811A819201A1018D819E810E9474
S2140007706101F401E680F7806189728909811A8136
S2140007809201A1018D819E810E946101D30116967E
S2140007908D919C9117971F968D909C9050978114E1
S2140007A0910409F481C00196F401268137818217ED
S2140007B0930714F486839783AD81BE811896EC91D7
S2140007C018971996BC90D40113962C911397AE2EB9
S2140007D01B2D110F110B30E040E050E060E070E0A0
S2140007E080E090E0C12ED12EE12EF12E012F0E9446
S2140007F0AE9609F459C08C9190E028163906A9F4F3
S21400080011968C91119790E04816590671F412963D
S2140008108C9190E029813A812817390731F4AD810F
S214000820BE8116968D929C921797D4011396EC93E0
S21400083013971696ED90FC9017971B966D917C91EA
S2140008401C9709811A819201A1018D819E810E94C7
S2140008506101F401E680F7806585768509811A8155
S2140008609201A1018D819E810E946101D40116969C
S214000870ED90FC9017971F966D917C91509709818B
S2140008801A819201A1018D819E810E946101F4016D
S214000890E680F7806189728909811A819201A10137
S2140008A08D819E810E946101D30116968D919C9147
S2140008B0179751968D909C9052978114910409F445
S2140008C081C00196F401268137818217930714F4BC
S2140008D086839783AD81BE811896EC9118971996FA
S2140008E0BC90D40113962C911397AE2E1B2D110F8E
S2140008F0110B30E040E050E060E070E080E090E017
S214000900C12ED12EE12EF12E012F0E94AE9609F4B3
S21400091059C08C9190E028163906A9F411968C914E
S214000920119790E04816590671F412968C9190E053
S21400093029813A812817390731F4AD81BE81169690
S2140009408D929C921797D4011396EC931397169654
S214000950ED90FC9017971B966D917C911C970981E2
S2140009601A819201A1018D819E810E946101F4018C
S214000970E680F7806585768509811A819201A10156
S2140009808D819E810E946101D4011696ED90FC90A7
S21400099017971F966D917C91509709811A81920145
S2140009A0A1018D819E810E946101F401E680F7809D
S2140009B06189728909811A819201A1018D819E81C6
S2140009C00E946101AB81BC8116968D919C91179710
S2140009D01F968D909C9050978114910409F481C0C5
S2140009E00196F401268137818217930714F48683D3
S2140009F09783AD81BE811896EC9118971996BC9096
S214000A00D40113962C911397AE2E1B2D110F110B9C
S214000A1030E040E050E060E070E080E090E0C12E22
S214000A20D12EE12EF12E012F0E94AE9609F459C068
S214000A308C9190E028163906A9F411968C9111979E
S214000A4090E04816590671F412968C9190E0298130
S214000A503A812817390731F4AD81BE8116968D92FA
S214000A609C921797D4011396EC9313971696ED90D5
S214000A70FC9017971B966D917C911C9709811A81A3
S214000A809201A1018D819E810E946101F401E680A0
S214000A90F7806585768509811A819201A1018D818D
S214000AA09E810E946101D4011696ED90FC901797E6
S214000AB01F966D917C91509709811A819201A10130
S214000AC08D819E810E946101F401E680F780618934
S214000AD0728909811A819201A1018D819E810E94ED
S214000AE06101AB81BC8116968D919C9117975196AA
S214000AF08D909C9052978114910409F402C101963E
S214000B00F401268137818217930714F4868397832E
S214000B10AD81BE811896EC9118971996BC90D401B9
S214000B2013962C911397AE2E1B2D110F110B30E040
S214000B3040E050E060E070E080E090E0C12ED12E12
S214000B40E12EF12E012F0E94AE9609F4DAC08C91A8
S214000B5090E028163906A9F411968C91119790E02A
S214000B604816590671F412968C9190E029813A81C4
S214000B702817390731F4AD81BE8116968D929C9266
S214000B801797D4011396EC93139716968D919C9114
S214000B9017971B966D907C901C976114710409F44E
S214000BA081C00196F301268137818217930714F4DA
S214000BB086839783AD81BE811896EC911897199617
S214000BC0BC90D30113962C911397AE2E1B2D110FAC
S214000BD0110B30E040E050E060E070E080E090E034
S214000BE0C12ED12EE12EF12E012F0E94AE9609F4D1
S214000BF059C08C9190E028163906A9F411968C916C
S214000C00119790E04816590671F412968C9190E070
S214000C1029813A812817390731F4AD81BE811696AD
S214000C206D927C921797D3011396EC9313971696B2
S214000C30ED90FC9017971B966D917C911C970981FF
S214000C401A819201A1018D819E810E946101F301AA
S214000C50E680F7806585768509811A819201A10173
S214000C608D819E810E946101D3011696ED90FC90C5
S214000C7017971F966D917C91509709811A81920162
S214000C80A1018D819E810E946101F301E680F780BB
S214000C906189728909811A819201A1018D819E81E3
S214000CA00E946101D4011696ED90FC9017971D9650
S214000CB06D917C911E9709811A819201A1018D8107
S214000CC09E810E946101F401E680F7806785708945
S214000CD009811A819201A1018D819E810E94610184
S214000CE0D4011696ED90FC90179751966D917C91D5
S214000CF0529709811A819201A1018D819E810E94DD
S214000D0061012696CDBFDEBFDF91CF911F910F9177
S214000D10FF90EF90DF90CF90BF90AF909F908F9016
S214000D207F906F905F904F903F902F9008952F92F6
S214000D303F924F925F926F927F928F929F92AF9266
S214000D40BF92CF92DF92EF92FF920F931F93CF93B3
S214000D50DF93CDB7DEB72E97CDBFDEBF8D879E87DC
S214000D606F837887DC0114968D919C911597480FB8
S214000D70591F4D5F5F4F43705078552334F44150F0
S214000D8051094C6F5F6F4F5F5F4FEF81F885828030
S214000D907180440F551F440F551FDA01A65EBF4DE4
S214000DA012962D913C91139729873A8790808D91C2
S214000DB09C918B879C87AD85BE8516961D921C924E
S214000DC017971296ED91FC911397ED83FE8386811B
S214000DD09781309711F40C9470269C012F5F3F4F3B
S214000DE02817390714F426833783ED85FE85A085FA
S214000DF0B184ED81FE812381AA2E1B2D110F110BCC
S214000E0030E040E050E060E070E080E090E0C12E2E
S214000E10D12EE12EF12E012F0E94AE9611F40C94E5
S214000E207026282D30E02B833C8389859A85870D94
S214000E30911D89839A834B845C84490C511C808164
S214000E4090E04816590699F4818190E0E981FA818C
S214000E50E817F90761F4ED81FE81828190E028179A
S214000E60390729F49F01ED85FE8526833783ED81BA
S214000E70FE81A383868197812384348421143104E0
S214000E8009F4BBC60196D10116962D913C91179791
S214000E908217930724F416968D939C931797AD8527
S214000EA0BE851896EC9118971996BC90D1011396AA
S214000EB02C911397AE2E1B2D110F110B30E040E036
S214000EC050E060E070E080E090E0C12ED12EE12E90
S214000ED0F12E012F0E94AE9609F48FC68C9190E0F9
S214000EE048165906B9F411968C91119790E029810D
S214000EF03A812817390771F412968C9190E0AB81ED
S214000F00BC81A817B90731F4AD85BE8516962D921B
S214000F103C921797D1011396EC93139716968D91E2
S214000F209C9117971B966D907C901C97611471048A
S214000F3009F497C20196F301268137818217930739
S214000F4014F486839783AD85BE851896EC91189722
S214000F501996BC90D30113962C911397AE2E1B2D89
S214000F60110F110B30E040E050E060E070E080E0F0
S214000F7090E0C12ED12EE12EF12E012F0E94AE96CA
S214000F8009F46FC28C9190E048165906B9F4119690
S214000F908C91119790E029813A812817390771F4CE
S214000FA012968C9190E0AB81BC81A817B90731F4FA
S214000FB0AD85BE8516966D927C921797D3011396D3
S214000FC0EC93139716968D919C9117971B968D9080
S214000FD09C901C978114910409F487C00196F40133
S214000FE0268137818217930714F486839783AD850D
S214000FF0BE851896EC9118971996BC90D401139656
S2140010002C911397AE2E1B2D110F110B30E040E0E4
S21400101050E060E070E080E090E0C12ED12EE12E3E
S214001020F12E012F0E94AE9609F45FC08C9190E0DD
S21400103048165906B9F411968C91119790E02981BB
S2140010403A812817390771F412968C9190E0AB819B
S214001050BC81A817B90731F4AD85BE8516968D926A
S2140010609C921797D4011396EC9313971696ED90CF
S214001070FC9017971B966D917C911C970B811C8199
S21400108029813A81A2018D859E850E946101F40125
S214001090E680F780658576850B811C8129813A81FB
S2140010A0A2018D859E850E946101D4011696ED9061
S2140010B0FC9017971F966D917C9150970B811C8121
S2140010C029813A81A2018D859E850E946101F401E5
S2140010D0E680F780618972890B811C8129813A81BB
S2140010E0A2018D859E850E946101D30116968D9181
S2140010F09C9117971D968D909C901E978114910435
S21400110009F487C00196F401268137818217930778
S21400111014F486839783AD85BE851896EC91189750
S2140011201996BC90D40113962C911397AE2E1B2DB6
S214001130110F110B30E040E050E060E070E080E01E
S21400114090E0C12ED12EE12EF12E012F0E94AE96F8
S21400115009F45FC08C9190E048165906B9F41196D0
S2140011608C91119790E029813A812817390771F4FC
S21400117012968C9190E0AB81BC81A817B90731F428
S214001180AD85BE8516968D929C921797D4011396C0
S214001190EC9313971696ED90FC9017971B966D910F
S2140011A07C911C970B811C8129813A81A2018D8537
S2140011B09E850E946101F401E680F780658576854C
S2140011C00B811C8129813A81A2018D859E850E9412
S2140011D06101D4011696ED90FC9017971F966D91BD
S2140011E07C9150970B811C8129813A81A2018D85C3
S2140011F09E850E946101F401E680F780618972890C
S2140012000B811C8129813A81A2018D859E850E94D1
S2140012106101D30116968D919C9117971F968D901C
S2140012209C9050978114910409F487C00196F401AC
S214001230268137818217930714F486839783AD85BA
S214001240BE851896EC9118971996BC90D401139603
S2140012502C911397AE2E1B2D110F110B30E040E092
S21400126050E060E070E080E090E0C12ED12EE12EEC
S214001270F12E012F0E94AE9609F45FC08C9190E08B
S21400128048165906B9F411968C91119790E0298169
S2140012903A812817390771F412968C9190E0AB8149
S2140012A0BC81A817B90731F4AD85BE8516968D9218
S2140012B09C921797D4011396EC9313971696ED907D
S2140012C0FC9017971B966D917C911C970B811C8147
S2140012D029813A81A2018D859E850E946101F401D3
S2140012E0E680F780658576850B811C8129813A81A9
S2140012F0A2018D859E850E946101D4011696ED900F
S214001300FC9017971F966D917C9150970B811C81CE
S21400131029813A81A2018D859E850E946101F40192
S214001320E680F780618972890B811C8129813A8168
S214001330A2018D859E850E946101D30116968D912E
S2140013409C91179751968D909C905297811491047A
S21400135009F487C00196F401268137818217930726
S21400136014F486839783AD85BE851896EC911897FE
S2140013701996BC90D40113962C911397AE2E1B2D64
S214001380110F110B30E040E050E060E070E080E0CC
S21400139090E0C12ED12EE12EF12E012F0E94AE96A6
S2140013A009F45FC08C9190E048165906B9F411967E
S2140013B08C91119790E029813A812817390771F4AA
S2140013C012968C9190E0AB81BC81A817B90731F4D6
S2140013D0AD85BE8516968D929C921797D40113966E
S2140013E0EC9313971696ED90FC9017971B966D91BD
S2140013F07C911C970B811C8129813A81A2018D85E5
S2140014009E850E946101F401E680F78065857685F9
S2140014100B811C8129813A81A2018D859E850E94BF
S2140014206101D4011696ED90FC9017971F966D916A
S2140014307C9150970B811C8129813A81A2018D8570
S2140014409E850E946101F401E680F78061897289B9
S2140014500B811C8129813A81A2018D859E850E947F
S2140014606101D10116968D919C9117971D968D90CE
S2140014709C901E978114910409F487C00196F4018C
S214001480268137818217930714F486839783AD8568
S214001490BE851896EC9118971996BC90D4011396B1
S2140014A02C911397AE2E1B2D110F110B30E040E040
S2140014B050E060E070E080E090E0C12ED12EE12E9A
S2140014C0F12E012F0E94AE9609F45FC08C9190E039
S2140014D048165906B9F411968C91119790E0298117
S2140014E03A812817390771F412968C9190E0AB81F7
S2140014F0BC81A817B90731F4AD85BE8516968D92C6
S2140015009C921797D4011396EC9313971696ED902A
S214001510FC9017971B966D917C911C970B811C81F4
S21400152029813A81A2018D859E850E946101F40180
S214001530E680F780658576850B811C8129813A8156
S214001540A2018D859E850E946101D4011696ED90BC
S214001550FC9017971F966D917C9150970B811C817C
S21400156029813A81A2018D859E850E946101F40140
S214001570E680F780618972890B811C8129813A8116
S214001580A2018D859E850E946101D10116968D91DE
S2140015909C9117971F968D909C905097811491045C
S2140015A009F487C00196F4012681378182179307D4
S2140015B014F486839783AD85BE851896EC911897AC
S2140015C01996BC90D40113962C911397AE2E1B2D12
S2140015D0110F110B30E040E050E060E070E080E07A
S2140015E090E0C12ED12EE12EF12E012F0E94AE9654
S2140015F009F45FC08C9190E048165906B9F411962C
S2140016008C91119790E029813A812817390771F457
S21400161012968C9190E0AB81BC81A817B90731F483
S214001620AD85BE8516968D929C921797D40113961B
S214001630EC9313971696ED90FC9017971B966D916A
S2140016407C911C970B811C8129813A81A2018D8592
S2140016509E850E946101F401E680F78065857685A7
S2140016600B811C8129813A81A2018D859E850E946D
S2140016706101D4011696ED90FC9017971F966D9118
S2140016807C9150970B811C8129813A81A2018D851E
S2140016909E850E946101F401E680F7806189728967
S2140016A00B811C8129813A81A2018D859E850E942D
S2140016B06101D10116968D919C91179751968D9048
S2140016C09C9052978114910409F497C20196F401F4
S2140016D0268137818217930714F486839783AD8516
S2140016E0BE851896EC9118971996BC90D40113965F
S2140016F02C911397AE2E1B2D110F110B30E040E0EE
S21400170050E060E070E080E090E0C12ED12EE12E47
S214001710F12E012F0E94AE9609F46FC28C9190E0D4
S21400172048165906B9F411968C91119790E02981C4
S2140017303A812817390771F412968C9190E0AB81A4
S214001740BC81A817B90731F4AD85BE8516968D9273
S2140017509C921797D4011396EC93139716968D9137
S2140017609C9117971B966D907C901C976114710442
S21400177009F487C00196F301268137818217930703
S21400178014F486839783AD85BE851896EC911897DA
S2140017901996BC90D30113962C911397AE2E1B2D41
S2140017A0110F110B30E040E050E060E070E080E0A8
S2140017B090E0C12ED12EE12EF12E012F0E94AE9682
S2140017C009F45FC08C9190E048165906B9F411965A
S2140017D08C91119790E029813A812817390771F486
S2140017E012968C9190E0AB81BC81A817B90731F4B2
S2140017F0AD85BE8516966D927C921797D30113968B
S214001800EC9313971696ED90FC9017971B966D9198
S2140018107C911C970B811C8129813A81A2018D85C0
S2140018209E850E946101F301E680F78065857685D6
S2140018300B811C8129813A81A2018D859E850E949B
S2140018406101D3011696ED90FC9017971F966D9147
S2140018507C9150970B811C8129813A81A2018D854C
S2140018609E850E946101F301E680F7806189728996
S2140018700B811C8129813A81A2018D859E850E945B
S2140018806101D40116968D919C9117971D966D90C7
S2140018907C901E976114710409F487C00196F301C9
S2140018A0268137818217930714F486839783AD8544
S2140018B0BE851896EC9118971996BC90D30113968E
S2140018C02C911397AE2E1B2D110F110B30E040E01C
S2140018D050E060E070E080E090E0C12ED12EE12E76
S2140018E0F12E012F0E94AE9609F45FC08C9190E015
S2140018F048165906B9F411968C91119790E02981F3
S2140019003A812817390771F412968C9190E0AB81D2
S214001910BC81A817B90731F4AD85BE8516966D92C1
S2140019207C921797D3011396EC9313971696ED9027
S214001930FC9017971B966D917C911C970B811C81D0
S21400194029813A81A2018D859E850E946101F3015D
S214001950E680F780658576850B811C8129813A8132
S214001960A2018D859E850E946101D3011696ED9099
S214001970FC9017971F966D917C9150970B811C8158
S21400198029813A81A2018D859E850E946101F3011D
S214001990E680F780618972890B811C8129813A81F2
S2140019A0A2018D859E850E946101D40116968D91B7
S2140019B09C9117971F966D907C90509761147104B8
S2140019C009F487C00196F3012681378182179307B1
S2140019D014F486839783AD85BE851896EC91189788
S2140019E01996BC90D30113962C911397AE2E1B2DEF
S2140019F0110F110B30E040E050E060E070E080E056
S214001A0090E0C12ED12EE12EF12E012F0E94AE962F
S214001A1009F45FC08C9190E048165906B9F4119607
S214001A208C91119790E029813A812817390771F433
S214001A3012968C9190E0AB81BC81A817B90731F45F
S214001A40AD85BE8516966D927C921797D301139638
S214001A50EC9313971696ED90FC9017971B966D9146
S214001A607C911C970B811C8129813A81A2018D856E
S214001A709E850E946101F301E680F7806585768584
S214001A800B811C8129813A81A2018D859E850E9449
S214001A906101D3011696ED90FC9017971F966D91F5
S214001AA07C9150970B811C8129813A81A2018D85FA
S214001AB09E850E946101F301E680F7806189728944
S214001AC00B811C8129813A81A2018D859E850E9409
S214001AD06101D40116968D919C91179751968D9021
S214001AE09C9052978114910409F487C00196F401E2
S214001AF0268137818217930714F486839783AD85F2
S214001B00BE851896EC9118971996BC90D40113963A
S214001B102C911397AE2E1B2D110F110B30E040E0C9
S214001B2050E060E070E080E090E0C12ED12EE12E23
S214001B30F12E012F0E94AE9609F45FC08C9190E0C2
S214001B4048165906B9F411968C91119790E02981A0
S214001B503A812817390771F412968C9190E0AB8180
S214001B60BC81A817B90731F4AD85BE8516968D924F
S214001B709C921797D4011396EC9313971696ED90B4
S214001B80FC9017971B966D917C911C970B811C817E
S214001B9029813A81A2018D859E850E946101F4010A
S214001BA0E680F780658576850B811C8129813A81E0
S214001BB0A2018D859E850E946101D4011696ED9046
S214001BC0FC9017971F966D917C9150970B811C8106
S214001BD029813A81A2018D859E850E946101F401CA
S214001BE0E680F780618972890B811C8129813A81A0
S214001BF0A2018D859E850E946101AD81BE811696EB
S214001C008D919C9117971D962D903C901E972114B0
S214001C10310409F4AFC50196F10126813781821798
S214001C20930714F486839783AD85BE851896EC914A
S214001C3018971996BC90D10113962C911397AE2E37
S214001C401B2D110F110B30E040E050E060E070E01B
S214001C5080E090E0C12ED12EE12EF12E012F0E94C1
S214001C60AE9609F487C58C9190E048165906B9F4EB
S214001C7011968C91119790E029813A81281739079F
S214001C8071F412968C9190E0AB81BC81A817B907CD
S214001C9031F4AD85BE8516962D923C921797D101EC
S214001CA01396EC93139716968D919C9117971B9607
S214001CB08D909C901C978114910409F48FC1019615
S214001CC0F401268137818217930714F4868397835D
S214001CD0AD85BE851896EC9118971996BC90D401E0
S214001CE013962C911397AE2E1B2D110F110B30E06F
S214001CF040E050E060E070E080E090E0C12ED12E41
S214001D00E12EF12E012F0E94AE9609F467C18C9148
S214001D1090E048165906B9F411968C91119790E008
S214001D2029813A812817390771F412968C9190E030
S214001D30AB81BC81A817B90731F4AD85BE85169670
S214001D408D929C921797D4011396EC931397169640
S214001D508D919C9117971B966D907C901C976114A3
S214001D60710409F487C00196F30126813781821732
S214001D70930714F486839783AD85BE851896EC91F9
S214001D8018971996BC90D30113962C911397AE2EE4
S214001D901B2D110F110B30E040E050E060E070E0CA
S214001DA080E090E0C12ED12EE12EF12E012F0E9470
S214001DB0AE9609F45FC08C9190E048165906B9F4C7
S214001DC011968C91119790E029813A81281739074E
S214001DD071F412968C9190E0AB81BC81A817B9077C
S214001DE031F4AD85BE8516966D927C921797D30119
S214001DF01396EC9313971696ED90FC9017971B96F8
S214001E006D917C911C970B811C8129813A81A201DE
S214001E108D859E850E946101F301E680F7806585C9
S214001E2076850B811C8129813A81A2018D859E854C
S214001E300E946101D3011696ED90FC9017971F96AD
S214001E406D917C9150970B811C8129813A81A2016A
S214001E508D859E850E946101F301E680F780618989
S214001E6072890B811C8129813A81A2018D859E850C
S214001E700E946101D40116968D919C9117971D962C
S214001E806D907C901E976114710409F487C00196CA
S214001E90F301268137818217930714F4868397838C
S214001EA0AD85BE851896EC9118971996BC90D3010F
S214001EB013962C911397AE2E1B2D110F110B30E09D
S214001EC040E050E060E070E080E090E0C12ED12E6F
S214001ED0E12EF12E012F0E94AE9609F45FC08C9180
S214001EE090E048165906B9F411968C91119790E037
S214001EF029813A812817390771F412968C9190E05F
S214001F00AB81BC81A817B90731F4AD85BE8516969E
S214001F106D927C921797D3011396EC9313971696AF
S214001F20ED90FC9017971B966D917C911C970B81FA
S214001F301C8129813A81A2018D859E850E946101BE
S214001F40F301E680F780658576850B811C81298103
S214001F503A81A2018D859E850E946101D301169665
S214001F60ED90FC9017971F966D917C9150970B8182
S214001F701C8129813A81A2018D859E850E9461017E
S214001F80F301E680F780618972890B811C812981C3
S214001F903A81A2018D859E850E946101D401169624
S214001FA0ED90FC9017971F966D917C9150970B8142
S214001FB01C8129813A81A2018D859E850E9461013E
S214001FC0F401E680F780618972890B811C81298182
S214001FD03A81A2018D859E850E946101D1011696E7
S214001FE08D919C9117971D968D909C901E978114AD
S214001FF0910409F487C00196F4012681378182177F
S214002000930714F486839783AD85BE851896EC9166
S21400201018971996BC90D40113962C911397AE2E50
S2140020201B2D110F110B30E040E050E060E070E037
S21400203080E090E0C12ED12EE12EF12E012F0E94DD
S214002040AE9609F45FC08C9190E048165906B9F434
S21400205011968C91119790E029813A8128173907BB
S21400206071F412968C9190E0AB81BC81A817B907E9
S21400207031F4AD85BE8516968D929C921797D40145
S2140020801396EC9313971696ED90FC9017971B9665
S2140020906D917C911C970B811C8129813A81A2014C
S2140020A08D859E850E946101F401E680F780658536
S2140020B076850B811C8129813A81A2018D859E85BA
S2140020C00E946101D4011696ED90FC9017971F961A
S2140020D06D917C9150970B811C8129813A81A201D8
S2140020E08D859E850E946101F401E680F7806189F6
S2140020F072890B811C8129813A81A2018D859E857A
S2140021000E946101D10116968D919C9117971F969A
S2140021106D907C9050976114710409F497C20196F3
S214002120F301268137818217930714F486839783F9
S214002130AD85BE851896EC9118971996BC90D3017C
S21400214013962C911397AE2E1B2D110F110B30E00A
S21400215040E050E060E070E080E090E0C12ED12EDC
S214002160E12EF12E012F0E94AE9609F46FC28C91DB
S21400217090E048165906B9F411968C91119790E0A4
S21400218029813A812817390771F412968C9190E0CC
S214002190AB81BC81A817B90731F4AD85BE8516960C
S2140021A06D927C921797D3011396EC93139716961D
S2140021B08D919C9117971B968D909C901C978114DF
S2140021C0910409F487C00196F401268137818217AD
S2140021D0930714F486839783AD85BE851896EC9195
S2140021E018971996BC90D40113962C911397AE2E7F
S2140021F01B2D110F110B30E040E050E060E070E066
S21400220080E090E0C12ED12EE12EF12E012F0E940B
S214002210AE9609F45FC08C9190E048165906B9F462
S21400222011968C91119790E029813A8128173907E9
S21400223071F412968C9190E0AB81BC81A817B90717
S21400224031F4AD85BE8516968D929C921797D40173
S2140022501396EC9313971696ED90FC9017971B9693
S2140022606D917C911C970B811C8129813A81A2017A
S2140022708D859E850E946101F401E680F780658564
S21400228076850B811C8129813A81A2018D859E85E8
S2140022900E946101D4011696ED90FC9017971F9648
S2140022A06D917C9150970B811C8129813A81A20106
S2140022B08D859E850E946101F401E680F780618924
S2140022C072890B811C8129813A81A2018D859E85A8
S2140022D00E946101D30116968D919C9117971D96C9
S2140022E08D909C901E978114910409F487C00196E6
S2140022F0F401268137818217930714F48683978327
S214002300AD85BE851896EC9118971996BC90D401A9
S21400231013962C911397AE2E1B2D110F110B30E038
S21400232040E050E060E070E080E090E0C12ED12E0A
S214002330E12EF12E012F0E94AE9609F45FC08C911B
S21400234090E048165906B9F411968C91119790E0D2
S21400235029813A812817390771F412968C9190E0FA
S214002360AB81BC81A817B90731F4AD85BE8516963A
S2140023708D929C921797D4011396EC93139716960A
S214002380ED90FC9017971B966D917C911C970B8196
S2140023901C8129813A81A2018D859E850E9461015A
S2140023A0F401E680F780658576850B811C8129819E
S2140023B03A81A2018D859E850E946101D401169600
S2140023C0ED90FC9017971F966D917C9150970B811E
S2140023D01C8129813A81A2018D859E850E9461011A
S2140023E0F401E680F780618972890B811C8129815E
S2140023F03A81A2018D859E850E946101D3011696C1
S2140024008D919C9117971F968D909C905097811454
S214002410910409F487C00196F4012681378182175A
S214002420930714F486839783AD85BE851896EC9142
S21400243018971996BC90D40113962C911397AE2E2C
S2140024401B2D110F110B30E040E050E060E070E013
S21400245080E090E0C12ED12EE12EF12E012F0E94B9
S214002460AE9609F45FC08C9190E048165906B9F410
S21400247011968C91119790E029813A812817390797
S21400248071F412968C9190E0AB81BC81A817B907C5
S21400249031F4AD85BE8516968D929C921797D40121
S2140024A01396EC9313971696ED90FC9017971B9641
S2140024B06D917C911C970B811C8129813A81A20128
S2140024C08D859E850E946101F401E680F780658512
S2140024D076850B811C8129813A81A2018D859E8596
S2140024E00E946101D4011696ED90FC9017971F96F6
S2140024F06D917C9150970B811C8129813A81A201B4
S2140025008D859E850E946101F401E680F7806189D1
S21400251072890B811C8129813A81A2018D859E8555
S2140025200E946101D30116968D919C911797519642
S2140025308D909C9052978114910409F487C001965F
S214002540F401268137818217930714F486839783D4
S214002550AD85BE851896EC9118971996BC90D40157
S21400256013962C911397AE2E1B2D110F110B30E0E6
S21400257040E050E060E070E080E090E0C12ED12EB8
S214002580E12EF12E012F0E94AE9609F45FC08C91C9
S21400259090E048165906B9F411968C91119790E080
S2140025A029813A812817390771F412968C9190E0A8
S2140025B0AB81BC81A817B90731F4AD85BE851696E8
S2140025C08D929C921797D4011396EC9313971696B8
S2140025D0ED90FC9017971B966D917C911C970B8144
S2140025E01C8129813A81A2018D859E850E94610108
S2140025F0F401E680F780658576850B811C8129814C
S2140026003A81A2018D859E850E946101D4011696AD
S214002610ED90FC9017971F966D917C9150970B81CB
S2140026201C8129813A81A2018D859E850E946101C7
S214002630F401E680F780618972890B811C8129810B
S2140026403A81A2018D859E850E946101D101169670
S2140026508D919C91179751968D909C9052978114CE
S214002660910409F487C00196F40126813781821708
S214002670930714F486839783AD85BE851896EC91F0
S21400268018971996BC90D40113962C911397AE2EDA
S2140026901B2D110F110B30E040E050E060E070E0C1
S2140026A080E090E0C12ED12EE12EF12E012F0E9467
S2140026B0AE9609F45FC08C9190E048165906B9F4BE
S2140026C011968C91119790E029813A812817390745
S2140026D071F412968C9190E0AB81BC81A817B90773
S2140026E031F4AD85BE8516968D929C921797D401CF
S2140026F01396EC9313971696ED90FC9017971B96EF
S2140027006D917C911C970B811C8129813A81A201D5
S2140027108D859E850E946101F401E680F7806585BF
S21400272076850B811C8129813A81A2018D859E8543
S2140027300E946101D4011696ED90FC9017971F96A3
S2140027406D917C9150970B811C8129813A81A20161
S2140027508D859E850E946101F401E680F78061897F
S21400276072890B811C8129813A81A2018D859E8503
S2140027700E946101AD81BE8116968D919C9117973E
S2140027801F962D903C9050972114310411F40C9410
S214002790911C0196F101268137818217930714F464
S2140027A086839783AD85BE851896EC911897199603
S2140027B0BC90D10113962C911397AE2E1B2D110FA2
S2140027C0110B30E040E050E060E070E080E090E028
S2140027D0C12ED12EE12EF12E012F0E94AE9611F4BD
S2140027E00C94911C8C9190E048165906B9F41196F9
S2140027F08C91119790E029813A812817390771F456
S21400280012968C9190E0AB81BC81A817B90731F481
S214002810AD85BE8516962D923C921797D1011396DC
S214002820EC93139716968D919C9117971B968D9007
S2140028309C901C978114910409F48FC10196F401B1
S214002840268137818217930714F486839783AD8594
S214002850BE851896EC9118971996BC90D4011396DD
S2140028602C911397AE2E1B2D110F110B30E040E06C
S21400287050E060E070E080E090E0C12ED12EE12EC6
S214002880F12E012F0E94AE9609F467C18C9190E05C
S21400289048165906B9F411968C91119790E0298143
S2140028A03A812817390771F412968C9190E0AB8123
S2140028B0BC81A817B90731F4AD85BE8516968D92F2
S2140028C09C921797D4011396EC9313971696ED9057
S2140028D0FC9017971B966D917C911C970B811C8121
S2140028E029813A81A2018D859E850E946101F401AD
S2140028F0E680F780658576850B811C8129813A8183
S214002900A2018D859E850E946101D40116968D9147
S2140029109C9117971F966D907C9050976114710448
S21400292009F487C00196F301268137818217930741
S21400293014F486839783AD85BE851896EC91189718
S2140029401996BC90D30113962C911397AE2E1B2D7F
S214002950110F110B30E040E050E060E070E080E0E6
S21400296090E0C12ED12EE12EF12E012F0E94AE96C0
S21400297009F45FC08C9190E048165906B9F4119698
S2140029808C91119790E029813A812817390771F4C4
S21400299012968C9190E0AB81BC81A817B90731F4F0
S2140029A0AD85BE8516966D927C921797D3011396C9
S2140029B0EC9313971696ED90FC9017971B966D91D7
S2140029C07C911C970B811C8129813A81A2018D85FF
S2140029D09E850E946101F301E680F7806585768515
S2140029E00B811C8129813A81A2018D859E850E94DA
S2140029F06101D3011696ED90FC9017971F966D9186
S214002A007C9150970B811C8129813A81A2018D858A
S214002A109E850E946101F301E680F78061897289D4
S214002A200B811C8129813A81A2018D859E850E9499
S214002A306101D40116968D919C91179751968D90B1
S214002A409C9052978114910409F487C00196F40172
S214002A50268137818217930714F486839783AD8582
S214002A60BE851896EC9118971996BC90D4011396CB
S214002A702C911397AE2E1B2D110F110B30E040E05A
S214002A8050E060E070E080E090E0C12ED12EE12EB4
S214002A90F12E012F0E94AE9609F45FC08C9190E053
S214002AA048165906B9F411968C91119790E0298131
S214002AB03A812817390771F412968C9190E0AB8111
S214002AC0BC81A817B90731F4AD85BE8516968D92E0
S214002AD09C921797D4011396EC9313971696ED9045
S214002AE0FC9017971B966D917C911C970B811C810F
S214002AF029813A81A2018D859E850E946101F4019B
S214002B00E680F780658576850B811C8129813A8170
S214002B10A2018D859E850E946101D4011696ED90D6
S214002B20FC9017971F966D917C9150970B811C8196
S214002B3029813A81A2018D859E850E946101F4015A
S214002B40E680F780618972890B811C8129813A8130
S214002B50A2018D859E850E946101D10116968D91F8
S214002B609C9117971D968D909C901E9781149104AA
S214002B7009F48FC10196F4012681378182179307E5
S214002B8014F486839783AD85BE851896EC911897C6
S214002B901996BC90D40113962C911397AE2E1B2D2C
S214002BA0110F110B30E040E050E060E070E080E094
S214002BB090E0C12ED12EE12EF12E012F0E94AE966E
S214002BC009F467C18C9190E048165906B9F411963D
S214002BD08C91119790E029813A812817390771F472
S214002BE012968C9190E0AB81BC81A817B90731F49E
S214002BF0AD85BE8516968D929C921797D401139636
S214002C00EC93139716968D919C9117971B966D9043
S214002C107C901C976114710409F487C00196F30137
S214002C20268137818217930714F486839783AD85B0
S214002C30BE851896EC9118971996BC90D3011396FA
S214002C402C911397AE2E1B2D110F110B30E040E088
S214002C5050E060E070E080E090E0C12ED12EE12EE2
S214002C60F12E012F0E94AE9609F45FC08C9190E081
S214002C7048165906B9F411968C91119790E029815F
S214002C803A812817390771F412968C9190E0AB813F
S214002C90BC81A817B90731F4AD85BE8516966D922E
S214002CA07C921797D3011396EC9313971696ED9094
S214002CB0FC9017971B966D917C911C970B811C813D
S214002CC029813A81A2018D859E850E946101F301CA
S214002CD0E680F780658576850B811C8129813A819F
S214002CE0A2018D859E850E946101D3011696ED9006
S214002CF0FC9017971F966D917C9150970B811C81C5
S214002D0029813A81A2018D859E850E946101F30189
S214002D10E680F780618972890B811C8129813A815E
S214002D20A2018D859E850E946101D40116968D9123
S214002D309C9117971D966D907C901E976114710458
S214002D4009F487C00196F30126813781821793071D
S214002D5014F486839783AD85BE851896EC911897F4
S214002D601996BC90D30113962C911397AE2E1B2D5B
S214002D70110F110B30E040E050E060E070E080E0C2
S214002D8090E0C12ED12EE12EF12E012F0E94AE969C
S214002D9009F45FC08C9190E048165906B9F4119674
S214002DA08C91119790E029813A812817390771F4A0
S214002DB012968C9190E0AB81BC81A817B90731F4CC
S214002DC0AD85BE8516966D927C921797D3011396A5
S214002DD0EC9313971696ED90FC9017971B966D91B3
S214002DE07C911C970B811C8129813A81A2018D85DB
S214002DF09E850E946101F301E680F78065857685F1
S214002E000B811C8129813A81A2018D859E850E94B5
S214002E106101D3011696ED90FC9017971F966D9161
S214002E207C9150970B811C8129813A81A2018D8566
S214002E309E850E946101F301E680F78061897289B0
S214002E400B811C8129813A81A2018D859E850E9475
S214002E506101D4011696ED90FC9017971F966D9120
S214002E607C9150970B811C8129813A81A2018D8526
S214002E709E850E946101F401E680F780618972896F
S214002E800B811C8129813A81A2018D859E850E9435
S214002E906101D10116968D919C9117971F966D90A2
S214002EA07C9050976114710409F497C20196F3015F
S214002EB0268137818217930714F486839783AD851E
S214002EC0BE851896EC9118971996BC90D301139668
S214002ED02C911397AE2E1B2D110F110B30E040E0F6
S214002EE050E060E070E080E090E0C12ED12EE12E50
S214002EF0F12E012F0E94AE9609F46FC28C9190E0DD
S214002F0048165906B9F411968C91119790E02981CC
S214002F103A812817390771F412968C9190E0AB81AC
S214002F20BC81A817B90731F4AD85BE8516966D929B
S214002F307C921797D3011396EC93139716968D9160
S214002F409C9117971B968D909C901C9781149104CA
S214002F5009F487C00196F40126813781821793070A
S214002F6014F486839783AD85BE851896EC911897E2
S214002F701996BC90D40113962C911397AE2E1B2D48
S214002F80110F110B30E040E050E060E070E080E0B0
S214002F9090E0C12ED12EE12EF12E012F0E94AE968A
S214002FA009F45FC08C9190E048165906B9F4119662
S214002FB08C91119790E029813A812817390771F48E
S214002FC012968C9190E0AB81BC81A817B90731F4BA
S214002FD0AD85BE8516968D929C921797D401139652
S214002FE0EC9313971696ED90FC9017971B966D91A1
S214002FF07C911C970B811C8129813A81A2018D85C9
S2140030009E850E946101F401E680F78065857685DD
S2140030100B811C8129813A81A2018D859E850E94A3
S2140030206101D4011696ED90FC9017971F966D914E
S2140030307C9150970B811C8129813A81A2018D8554
S2140030409E850E946101F401E680F780618972899D
S2140030500B811C8129813A81A2018D859E850E9463
S2140030606101D30116968D919C9117971D968D90B0
S2140030709C901E978114910409F487C00196F40170
S214003080268137818217930714F486839783AD854C
S214003090BE851896EC9118971996BC90D401139695
S2140030A02C911397AE2E1B2D110F110B30E040E024
S2140030B050E060E070E080E090E0C12ED12EE12E7E
S2140030C0F12E012F0E94AE9609F45FC08C9190E01D
S2140030D048165906B9F411968C91119790E02981FB
S2140030E03A812817390771F412968C9190E0AB81DB
S2140030F0BC81A817B90731F4AD85BE8516968D92AA
S2140031009C921797D4011396EC9313971696ED900E
S214003110FC9017971B966D917C911C970B811C81D8
S21400312029813A81A2018D859E850E946101F40164
S214003130E680F780658576850B811C8129813A813A
S214003140A2018D859E850E946101D4011696ED90A0
S214003150FC9017971F966D917C9150970B811C8160
S21400316029813A81A2018D859E850E946101F40124
S214003170E680F780618972890B811C8129813A81FA
S214003180A2018D859E850E946101D30116968D91C0
S2140031909C9117971F968D909C9050978114910440
S2140031A009F487C00196F4012681378182179307B8
S2140031B014F486839783AD85BE851896EC91189790
S2140031C01996BC90D40113962C911397AE2E1B2DF6
S2140031D0110F110B30E040E050E060E070E080E05E
S2140031E090E0C12ED12EE12EF12E012F0E94AE9638
S2140031F009F45FC08C9190E048165906B9F4119610
S2140032008C91119790E029813A812817390771F43B
S21400321012968C9190E0AB81BC81A817B90731F467
S214003220AD85BE8516968D929C921797D4011396FF
S214003230EC9313971696ED90FC9017971B966D914E
S2140032407C911C970B811C8129813A81A2018D8576
S2140032509E850E946101F401E680F780658576858B
S2140032600B811C8129813A81A2018D859E850E9451
S2140032706101D4011696ED90FC9017971F966D91FC
S2140032807C9150970B811C8129813A81A2018D8502
S2140032909E850E946101F401E680F780618972894B
S2140032A00B811C8129813A81A2018D859E850E9411
S2140032B06101D30116968D919C91179751968D902A
S2140032C09C9052978114910409F487C00196F401EA
S2140032D0268137818217930714F486839783AD85FA
S2140032E0BE851896EC9118971996BC90D401139643
S2140032F02C911397AE2E1B2D110F110B30E040E0D2
S21400330050E060E070E080E090E0C12ED12EE12E2B
S214003310F12E012F0E94AE9609F45FC08C9190E0CA
S21400332048165906B9F411968C91119790E02981A8
S2140033303A812817390771F412968C9190E0AB8188
S214003340BC81A817B90731F4AD85BE8516968D9257
S2140033509C921797D4011396EC9313971696ED90BC
S214003360FC9017971B966D917C911C970B811C8186
S21400337029813A81A2018D859E850E946101F40112
S214003380E680F780658576850B811C8129813A81E8
S214003390A2018D859E850E946101D4011696ED904E
S2140033A0FC9017971F966D917C9150970B811C810E
S2140033B029813A81A2018D859E850E946101F401D2
S2140033C0E680F780618972890B811C8129813A81A8
S2140033D0A2018D859E850E946101D10116968D9170
S2140033E09C91179751968D909C90529781149104BA
S2140033F009F497C20196F401268137818217930754
S21400340014F486839783AD85BE851896EC9118973D
S2140034101996BC90D40113962C911397AE2E1B2DA3
S214003420110F110B30E040E050E060E070E080E00B
S21400343090E0C12ED12EE12EF12E012F0E94AE96E5
S21400344009F46FC28C9190E048165906B9F41196AB
S2140034508C91119790E029813A812817390771F4E9
S21400346012968C9190E0AB81BC81A817B90731F415
S214003470AD85BE8516968D929C921797D4011396AD
S214003480EC93139716968D919C9117971B966D90BB
S2140034907C901C976114710409F487C00196F301AF
S2140034A0268137818217930714F486839783AD8528
S2140034B0BE851896EC9118971996BC90D301139672
S2140034C02C911397AE2E1B2D110F110B30E040E000
S2140034D050E060E070E080E090E0C12ED12EE12E5A
S2140034E0F12E012F0E94AE9609F45FC08C9190E0F9
S2140034F048165906B9F411968C91119790E02981D7
S2140035003A812817390771F412968C9190E0AB81B6
S214003510BC81A817B90731F4AD85BE8516966D92A5
S2140035207C921797D3011396EC9313971696ED900B
S214003530FC9017971B966D917C911C970B811C81B4
S21400354029813A81A2018D859E850E946101F30141
S214003550E680F780658576850B811C8129813A8116
S214003560A2018D859E850E946101D3011696ED907D
S214003570FC9017971F966D917C9150970B811C813C
S21400358029813A81A2018D859E850E946101F30101
S214003590E680F780618972890B811C8129813A81D6
S2140035A0A2018D859E850E946101D40116968D919B
S2140035B09C9117971D966D907C901E9761147104D0
S2140035C009F487C00196F301268137818217930795
S2140035D014F486839783AD85BE851896EC9118976C
S2140035E01996BC90D30113962C911397AE2E1B2DD3
S2140035F0110F110B30E040E050E060E070E080E03A
S21400360090E0C12ED12EE12EF12E012F0E94AE9613
S21400361009F45FC08C9190E048165906B9F41196EB
S2140036208C91119790E029813A812817390771F417
S21400363012968C9190E0AB81BC81A817B90731F443
S214003640AD85BE8516966D927C921797D30113961C
S214003650EC9313971696ED90FC9017971B966D912A
S2140036607C911C970B811C8129813A81A2018D8552
S2140036709E850E946101F301E680F7806585768568
S2140036800B811C8129813A81A2018D859E850E942D
S2140036906101D3011696ED90FC9017971F966D91D9
S2140036A07C9150970B811C8129813A81A2018D85DE
S2140036B09E850E946101F301E680F7806189728928
S2140036C00B811C8129813A81A2018D859E850E94ED
S2140036D06101D40116968D919C9117971F966D9057
S2140036E07C9050976114710409F487C00196F30129
S2140036F0268137818217930714F486839783AD85D6
S214003700BE851896EC9118971996BC90D30113961F
S2140037102C911397AE2E1B2D110F110B30E040E0AD
S21400372050E060E070E080E090E0C12ED12EE12E07
S214003730F12E012F0E94AE9609F45FC08C9190E0A6
S21400374048165906B9F411968C91119790E0298184
S2140037503A812817390771F412968C9190E0AB8164
S214003760BC81A817B90731F4AD85BE8516966D9253
S2140037707C921797D3011396EC9313971696ED90B9
S214003780FC9017971B966D917C911C970B811C8162
S21400379029813A81A2018D859E850E946101F301EF
S2140037A0E680F780658576850B811C8129813A81C4
S2140037B0A2018D859E850E946101D3011696ED902B
S2140037C0FC9017971F966D917C9150970B811C81EA
S2140037D029813A81A2018D859E850E946101F301AF
S2140037E0E680F780618972890B811C8129813A8184
S2140037F0A2018D859E850E946101D40116968D9149
S2140038009C91179751968D909C9052978114910495
S21400381009F487C00196F401268137818217930741
S21400382014F486839783AD85BE851896EC91189719
S2140038301996BC90D40113962C911397AE2E1B2D7F
S214003840110F110B30E040E050E060E070E080E0E7
S21400385090E0C12ED12EE12EF12E012F0E94AE96C1
S21400386009F45FC08C9190E048165906B9F4119699
S2140038708C91119790E029813A812817390771F4C5
S21400388012968C9190E0AB81BC81A817B90731F4F1
S214003890AD85BE8516968D929C921797D401139689
S2140038A0EC9313971696ED90FC9017971B966D91D8
S2140038B07C911C970B811C8129813A81A2018D8500
S2140038C09E850E946101F401E680F7806585768515
S2140038D00B811C8129813A81A2018D859E850E94DB
S2140038E06101D4011696ED90FC9017971F966D9186
S2140038F07C9150970B811C8129813A81A2018D858C
S2140039009E850E946101F401E680F78061897289D4
S2140039100B811C8129813A81A2018D859E850E949A
S2140039206101AD81BE8116968D919C911797519637
S2140039302D903C9052972114310411F40C9470266B
S2140039400196F101268137818217930714F4868346
S2140039509783AD85BE851896EC9118971996BC90FE
S214003960D10113962C911397AE2E1B2D110F110B10
S21400397030E040E050E060E070E080E090E0C12E93
S214003980D12EE12EF12E012F0E94AE9611F40C944A
S21400399070268C9190E048165906B9F411968C91D1
S2140039A0119790E029813A812817390771F4129609
S2140039B08C9190E0AB81BC81A817B90731F4AD8536
S2140039C0BE8516962D923C921797D1011396EC93CE
S2140039D0139716968D919C9117971B968D909C9099
S2140039E01C978114910409F497C20196F40126816C
S2140039F037818217930714F486839783AD85BE8537
S214003A001896EC9118971996BC90D40113962C91A1
S214003A101397AE2E1B2D110F110B30E040E050E037
S214003A2060E070E080E090E0C12ED12EE12EF12E15
S214003A30012F0E94AE9609F46FC28C9190E0481652
S214003A405906B9F411968C91119790E029813A8124
S214003A502817390771F412968C9190E0AB81BC81DF
S214003A60A817B90731F4AD85BE8516968D929C923F
S214003A701797D4011396EC93139716968D919C91F5
S214003A8017971B966D907C901C976114710409F42F
S214003A9087C00196F301268137818217930714F4B5
S214003AA086839783AD85BE851896EC9118971996F0
S214003AB0BC90D30113962C911397AE2E1B2D110F8D
S214003AC0110B30E040E050E060E070E080E090E015
S214003AD0C12ED12EE12EF12E012F0E94AE9609F4B2
S214003AE05FC08C9190E048165906B9F411968C91F7
S214003AF0119790E029813A812817390771F41296B8
S214003B008C9190E0AB81BC81A817B90731F4AD85E4
S214003B10BE8516966D927C921797D3011396EC93FA
S214003B2013971696ED90FC9017971B966D917C91C7
S214003B301C970B811C8129813A81A2018D859E8567
S214003B400E946101F301E680F780658576850B812A
S214003B501C8129813A81A2018D859E850E94610182
S214003B60D3011696ED90FC9017971F966D917C9159
S214003B7050970B811C8129813A81A2018D859E85F3
S214003B800E946101F301E680F780618972890B81EA
S214003B901C8129813A81A2018D859E850E94610142
S214003BA0D40116968D919C9117971D966D907C90DA
S214003BB01E976114710409F487C00196F3012681EB
S214003BC037818217930714F486839783AD85BE8565
S214003BD01896EC9118971996BC90D30113962C91D1
S214003BE01397AE2E1B2D110F110B30E040E050E066
S214003BF060E070E080E090E0C12ED12EE12EF12E44
S214003C00012F0E94AE9609F45FC08C9190E0481692
S214003C105906B9F411968C91119790E029813A8152
S214003C202817390771F412968C9190E0AB81BC810D
S214003C30A817B90731F4AD85BE8516966D927C92AD
S214003C401797D3011396EC9313971696ED90FC9066
S214003C5017971B966D917C911C970B811C8129816F
S214003C603A81A2018D859E850E946101F301E6805E
S214003C70F780658576850B811C8129813A81A201B2
S214003C808D859E850E946101D3011696ED90FC906D
S214003C9017971F966D917C9150970B811C812981F7
S214003CA03A81A2018D859E850E946101F301E6801E
S214003CB0F780618972890B811C8129813A81A20172
S214003CC08D859E850E946101D40116968D919C91EA
S214003CD017971F966D907C9050976114710409F4A5
S214003CE087C00196F301268137818217930714F463
S214003CF086839783AD85BE851896EC91189719969E
S214003D00BC90D30113962C911397AE2E1B2D110F3A
S214003D10110B30E040E050E060E070E080E090E0C2
S214003D20C12ED12EE12EF12E012F0E94AE9609F45F
S214003D305FC08C9190E048165906B9F411968C91A4
S214003D40119790E029813A812817390771F4129665
S214003D508C9190E0AB81BC81A817B90731F4AD8592
S214003D60BE8516966D927C921797D3011396EC93A8
S214003D7013971696ED90FC9017971B966D917C9175
S214003D801C970B811C8129813A81A2018D859E8515
S214003D900E946101F301E680F780658576850B81D8
S214003DA01C8129813A81A2018D859E850E94610130
S214003DB0D3011696ED90FC9017971F966D917C9107
S214003DC050970B811C8129813A81A2018D859E85A1
S214003DD00E946101F301E680F780618972890B8198
S214003DE01C8129813A81A2018D859E850E946101F0
S214003DF0D40116968D919C91179751968D909C9014
S214003E0052978114910409F487C00196F401268123
S214003E1037818217930714F486839783AD85BE8512
S214003E201896EC9118971996BC90D40113962C917D
S214003E301397AE2E1B2D110F110B30E040E050E013
S214003E4060E070E080E090E0C12ED12EE12EF12EF1
S214003E50012F0E94AE9609F45FC08C9190E0481640
S214003E605906B9F411968C91119790E029813A8100
S214003E702817390771F412968C9190E0AB81BC81BB
S214003E80A817B90731F4AD85BE8516968D929C921B
S214003E901797D4011396EC9313971696ED90FC9013
S214003EA017971B966D917C911C970B811C8129811D
S214003EB03A81A2018D859E850E946101F401E6800B
S214003EC0F780658576850B811C8129813A81A20160
S214003ED08D859E850E946101D4011696ED90FC901A
S214003EE017971F966D917C9150970B811C812981A5
S214003EF03A81A2018D859E850E946101F401E680CB
S214003F00F780618972890B811C8129813A81A2011F
S214003F108D859E850E946101D10116968D919C919A
S214003F2017971D968D909C901E978114910409F406
S214003F308FC10196F401268137818217930714F406
S214003F4086839783AD85BE851896EC91189719964B
S214003F50BC90D40113962C911397AE2E1B2D110FE7
S214003F60110B30E040E050E060E070E080E090E070
S214003F70C12ED12EE12EF12E012F0E94AE9609F40D
S214003F8067C18C9190E048165906B9F411968C9149
S214003F90119790E029813A812817390771F4129613
S214003FA08C9190E0AB81BC81A817B90731F4AD8540
S214003FB0BE8516968D929C921797D4011396EC9315
S214003FC013971696ED90FC9017971B966D917C9123
S214003FD01C970B811C8129813A81A2018D859E85C3
S214003FE00E946101F401E680F780658576850B8185
S214003FF01C8129813A81A2018D859E850E946101DE
S214004000D40116968D919C9117971F966D907C9073
S21400401050976114710409F487C00196F301268154
S21400402037818217930714F486839783AD85BE8500
S2140040301896EC9118971996BC90D30113962C916C
S2140040401397AE2E1B2D110F110B30E040E050E001
S21400405060E070E080E090E0C12ED12EE12EF12EDF
S214004060012F0E94AE9609F45FC08C9190E048162E
S2140040705906B9F411968C91119790E029813A81EE
S2140040802817390771F412968C9190E0AB81BC81A9
S214004090A817B90731F4AD85BE8516966D927C9249
S2140040A01797D3011396EC9313971696ED90FC9002
S2140040B017971B966D917C911C970B811C8129810B
S2140040C03A81A2018D859E850E946101F301E680FA
S2140040D0F780658576850B811C8129813A81A2014E
S2140040E08D859E850E946101D3011696ED90FC9009
S2140040F017971F966D917C9150970B811C81298193
S2140041003A81A2018D859E850E946101F301E680B9
S214004110F780618972890B811C8129813A81A2010D
S2140041208D859E850E946101D40116968D919C9185
S214004130179751968D909C9052978114910409F48C
S21400414087C00196F401268137818217930714F4FD
S21400415086839783AD85BE851896EC911897199639
S214004160BC90D40113962C911397AE2E1B2D110FD5
S214004170110B30E040E050E060E070E080E090E05E
S214004180C12ED12EE12EF12E012F0E94AE9609F4FB
S2140041905FC08C9190E048165906B9F411968C9140
S2140041A0119790E029813A812817390771F4129601
S2140041B08C9190E0AB81BC81A817B90731F4AD852E
S2140041C0BE8516968D929C921797D4011396EC9303
S2140041D013971696ED90FC9017971B966D917C9111
S2140041E01C970B811C8129813A81A2018D859E85B1
S2140041F00E946101F401E680F780658576850B8173
S2140042001C8129813A81A2018D859E850E946101CB
S214004210D4011696ED90FC9017971F966D917C91A1
S21400422050970B811C8129813A81A2018D859E853C
S2140042300E946101F401E680F780618972890B8132
S2140042401C8129813A81A2018D859E850E9461018B
S214004250D10116968D919C9117971F968D909C90E4
S21400426050978114910409F497C20196F4012681AF
S21400427037818217930714F486839783AD85BE85AE
S2140042801896EC9118971996BC90D40113962C9119
S2140042901397AE2E1B2D110F110B30E040E050E0AF
S2140042A060E070E080E090E0C12ED12EE12EF12E8D
S2140042B0012F0E94AE9609F46FC28C9190E04816CA
S2140042C05906B9F411968C91119790E029813A819C
S2140042D02817390771F412968C9190E0AB81BC8157
S2140042E0A817B90731F4AD85BE8516968D929C92B7
S2140042F01797D4011396EC93139716968D919C916D
S21400430017971B966D907C901C976114710409F4A6
S21400431087C00196F301268137818217930714F42C
S21400432086839783AD85BE851896EC911897199667
S214004330BC90D30113962C911397AE2E1B2D110F04
S214004340110B30E040E050E060E070E080E090E08C
S214004350C12ED12EE12EF12E012F0E94AE9609F429
S2140043605FC08C9190E048165906B9F411968C916E
S214004370119790E029813A812817390771F412962F
S2140043808C9190E0AB81BC81A817B90731F4AD855C
S214004390BE8516966D927C921797D3011396EC9372
S2140043A013971696ED90FC9017971B966D917C913F
S2140043B01C970B811C8129813A81A2018D859E85DF
S2140043C00E946101F301E680F780658576850B81A2
S2140043D01C8129813A81A2018D859E850E946101FA
S2140043E0D3011696ED90FC9017971F966D917C91D1
S2140043F050970B811C8129813A81A2018D859E856B
S2140044000E946101F301E680F780618972890B8161
S2140044101C8129813A81A2018D859E850E946101B9
S214004420D40116968D919C9117971D966D907C9051
S2140044301E976114710409F487C00196F301268162
S21400444037818217930714F486839783AD85BE85DC
S2140044501896EC9118971996BC90D30113962C9148
S2140044601397AE2E1B2D110F110B30E040E050E0DD
S21400447060E070E080E090E0C12ED12EE12EF12EBB
S214004480012F0E94AE9609F45FC08C9190E048160A
S2140044905906B9F411968C91119790E029813A81CA
S2140044A02817390771F412968C9190E0AB81BC8185
S2140044B0A817B90731F4AD85BE8516966D927C9225
S2140044C01797D3011396EC9313971696ED90FC90DE
S2140044D017971B966D917C911C970B811C812981E7
S2140044E03A81A2018D859E850E946101F301E680D6
S2140044F0F780658576850B811C8129813A81A2012A
S2140045008D859E850E946101D3011696ED90FC90E4
S21400451017971F966D917C9150970B811C8129816E
S2140045203A81A2018D859E850E946101F301E68095
S214004530F780618972890B811C8129813A81A201E9
S2140045408D859E850E946101D40116968D919C9161
S21400455017971F966D907C9050976114710409F41C
S21400456087C00196F301268137818217930714F4DA
S21400457086839783AD85BE851896EC911897199615
S214004580BC90D30113962C911397AE2E1B2D110FB2
S214004590110B30E040E050E060E070E080E090E03A
S2140045A0C12ED12EE12EF12E012F0E94AE9609F4D7
S2140045B05FC08C9190E048165906B9F411968C911C
S2140045C0119790E029813A812817390771F41296DD
S2140045D08C9190E0AB81BC81A817B90731F4AD850A
S2140045E0BE8516966D927C921797D3011396EC9320
S2140045F013971696ED90FC9017971B966D917C91ED
S2140046001C970B811C8129813A81A2018D859E858C
S2140046100E946101F301E680F780658576850B814F
S2140046201C8129813A81A2018D859E850E946101A7
S214004630D3011696ED90FC9017971F966D917C917E
S21400464050970B811C8129813A81A2018D859E8518
S2140046500E946101F301E680F780618972890B810F
S2140046601C8129813A81A2018D859E850E94610167
S214004670D40116968D919C91179751968D909C908B
S21400468052978114910409F487C00196F40126819B
S21400469037818217930714F486839783AD85BE858A
S2140046A01896EC9118971996BC90D40113962C91F5
S2140046B01397AE2E1B2D110F110B30E040E050E08B
S2140046C060E070E080E090E0C12ED12EE12EF12E69
S2140046D0012F0E94AE9609F45FC08C9190E04816B8
S2140046E05906B9F411968C91119790E029813A8178
S2140046F02817390771F412968C9190E0AB81BC8133
S214004700A817B90731F4AD85BE8516968D929C9292
S2140047101797D4011396EC9313971696ED90FC908A
S21400472017971B966D917C911C970B811C81298194
S2140047303A81A2018D859E850E946101F401E68082
S214004740F780658576850B811C8129813A81A201D7
S2140047508D859E850E946101D4011696ED90FC9091
S21400476017971F966D917C9150970B811C8129811C
S2140047703A81A2018D859E850E946101F401E68042
S214004780F780618972890B811C8129813A81A20197
S2140047908D859E850E946101D10116968D919C9112
S2140047A0179751968D909C9052978114910409F416
S2140047B097C20196F401268137818217930714F475
S2140047C086839783AD85BE851896EC9118971996C3
S2140047D0BC90D40113962C911397AE2E1B2D110F5F
S2140047E0110B30E040E050E060E070E080E090E0E8
S2140047F0C12ED12EE12EF12E012F0E94AE9609F485
S2140048006FC28C9190E048165906B9F411968C91B7
S214004810119790E029813A812817390771F412968A
S2140048208C9190E0AB81BC81A817B90731F4AD85B7
S214004830BE8516968D929C921797D4011396EC938C
S214004840139716968D919C9117971B966D907C905A
S2140048501C976114710409F487C00196F301268140
S21400486037818217930714F486839783AD85BE85B8
S2140048701896EC9118971996BC90D30113962C9124
S2140048801397AE2E1B2D110F110B30E040E050E0B9
S21400489060E070E080E090E0C12ED12EE12EF12E97
S2140048A0012F0E94AE9609F45FC08C9190E04816E6
S2140048B05906B9F411968C91119790E029813A81A6
S2140048C02817390771F412968C9190E0AB81BC8161
S2140048D0A817B90731F4AD85BE8516966D927C9201
S2140048E01797D3011396EC9313971696ED90FC90BA
S2140048F017971B966D917C911C970B811C812981C3
S2140049003A81A2018D859E850E946101F301E680B1
S214004910F780658576850B811C8129813A81A20105
S2140049208D859E850E946101D3011696ED90FC90C0
S21400493017971F966D917C9150970B811C8129814A
S2140049403A81A2018D859E850E946101F301E68071
S214004950F780618972890B811C8129813A81A201C5
S2140049608D859E850E946101D40116968D919C913D
S21400497017971D966D907C901E976114710409F42C
S21400498087C00196F301268137818217930714F4B6
S21400499086839783AD85BE851896EC9118971996F1
S2140049A0BC90D30113962C911397AE2E1B2D110F8E
S2140049B0110B30E040E050E060E070E080E090E016
S2140049C0C12ED12EE12EF12E012F0E94AE9609F4B3
S2140049D05FC08C9190E048165906B9F411968C91F8
S2140049E0119790E029813A812817390771F41296B9
S2140049F08C9190E0AB81BC81A817B90731F4AD85E6
S214004A00BE8516966D927C921797D3011396EC93FB
S214004A1013971696ED90FC9017971B966D917C91C8
S214004A201C970B811C8129813A81A2018D859E8568
S214004A300E946101F301E680F780658576850B812B
S214004A401C8129813A81A2018D859E850E94610183
S214004A50D3011696ED90FC9017971F966D917C915A
S214004A6050970B811C8129813A81A2018D859E85F4
S214004A700E946101F301E680F780618972890B81EB
S214004A801C8129813A81A2018D859E850E94610143
S214004A90D40116968D919C9117971F966D907C90D9
S214004AA050976114710409F487C00196F3012681BA
S214004AB037818217930714F486839783AD85BE8566
S214004AC01896EC9118971996BC90D30113962C91D2
S214004AD01397AE2E1B2D110F110B30E040E050E067
S214004AE060E070E080E090E0C12ED12EE12EF12E45
S214004AF0012F0E94AE9609F45FC08C9190E0481694
S214004B005906B9F411968C91119790E029813A8153
S214004B102817390771F412968C9190E0AB81BC810E
S214004B20A817B90731F4AD85BE8516966D927C92AE
S214004B301797D3011396EC9313971696ED90FC9067
S214004B4017971B966D917C911C970B811C81298170
S214004B503A81A2018D859E850E946101F301E6805F
S214004B60F780658576850B811C8129813A81A201B3
S214004B708D859E850E946101D3011696ED90FC906E
S214004B8017971F966D917C9150970B811C812981F8
S214004B903A81A2018D859E850E946101F301E6801F
S214004BA0F780618972890B811C8129813A81A20173
S214004BB08D859E850E946101D40116968D919C91EB
S214004BC0179751968D909C9052978114910409F4F2
S214004BD087C00196F401268137818217930714F463
S214004BE086839783AD85BE851896EC91189719969F
S214004BF0BC90D40113962C911397AE2E1B2D110F3B
S214004C00110B30E040E050E060E070E080E090E0C3
S214004C10C12ED12EE12EF12E012F0E94AE9609F460
S214004C205FC08C9190E048165906B9F411968C91A5
S214004C30119790E029813A812817390771F4129666
S214004C408C9190E0AB81BC81A817B90731F4AD8593
S214004C50BE8516968D929C921797D4011396EC9368
S214004C6013971696ED90FC9017971B966D917C9176
S214004C701C970B811C8129813A81A2018D859E8516
S214004C800E946101F401E680F780658576850B81D8
S214004C901C8129813A81A2018D859E850E94610131
S214004CA0D4011696ED90FC9017971F966D917C9107
S214004CB050970B811C8129813A81A2018D859E85A2
S214004CC00E946101F401E680F780618972890B8198
S214004CD01C8129813A81A2018D859E850E946101F1
S214004CE0AD85BE8518968D919C9119970196817019
S214004CF09078992324F401978E6F9F6F01969C01FC
S214004D00ED85FE85808791870680F781E02D3097B8
S214004D1009F09CC04091902450919124493F510540
S214004D200CF09FC0EF81F88562817181A0814F5F92
S214004D305F4F409390245093912485E1849FF00127
S214004D40859FF00D1124E257FB4D88EE93E0848793
S214004D509587828793878B859C858A0F911D848390
S214004D6089859A85870F911D858366832F5F3F4FC0
S214004D7021703078332334F4215031092E6F3F6F81
S214004D802F5F3F4F278385E1849FF001859FF00DBD
S214004D901124E257FB4D118616862F813885232B6A
S214004DA009F45FC0849FF001859FF00D1124EE5634
S214004DB0FB4DAF81B8851B968D919C911C970097F3
S214004DC061F08E179F0709F447C01D9621E030E07A
S214004DD08D919D91009771F402C020E030E0220F83
S214004DE0331FAF81B885A20FB31F1B96ED93FC93BC
S214004DF01C9732C08E179F0779F12F5F3F4F2430E4
S214004E00310531F729C02F8138852817390749F130
S214004E10DF011D9681E090E0A9012D913D912115BD
S214004E20310561F402C080E090E0880F991FE80F1A
S214004E30F91F8F8198858387948713C0421753077D
S214004E4081F001968430910541F70BC0AF81B8859B
S214004E50AB2B09F0AECF05C083859485009799F6F5
S214004E60E2CF2E96CDBFDEBFDF91CF911F910F917F
S214004E70FF90EF90DF90CF90BF90AF909F908F9075
S214004E807F906F905F904F903F902F9008952F9255
S214004E903F924F925F926F927F928F929F92AF92C5
S214004EA0BF92CF92DF92EF92FF920F931F93CF9312
S214004EB0DF93CDB7DEB72897CDBFDEBF240F351FF3
S214004EC02D5F3F4F23703078332334F4215031095F
S214004ED02C6F3F6F2F5F3F4F6115710511F40C94D7
S214004EE0C2471801DB018F83988712964C90129761
S214004EF011965C901197220F331F220F331F265EE8
S214004F003F4DF90162807380BC9180809180FC01E6
S214004F1016821782228133812D833E83F901868192
S214004F209781309711F40C94AC479C012F5F3F4F4C
S214004F302817390714F426833783EF81F885A08570
S214004F40B184ED81FE812381AA2E1B2D110F110B3A
S214004F5030E040E050E060E070E080E090E0C12E9D
S214004F60D12EE12EF12E012F0E94AE9611F40C9454
S214004F70AC47242D30E02B833C83629CC001639CAD
S214004F80900D729C900D1124FC01E50DF11DE98336
S214004F90FA83289C2001299C500C389C500C112424
S214004FA04B0E511CED81FE81808190E0481659061B
S214004FB0A1F4818190E029813A812817390769F4A4
S214004FC0828190E0EB81FC81E817F90731F42D81AE
S214004FD03E81EF81F88526833783ED81FE81A383AA
S214004FE086819781238434842114310409F4BBC656
S214004FF00196D10116962D913C911797821793072B
S21400500024F416968D939C931797AF81B8851896BF
S214005010EC9118971996BC90D10113962C91139782
S214005020AE2E1B2D110F110B30E040E050E060E07B
S21400503070E080E090E0C12ED12EE12EF12E012FFF
S2140050400E94AE9609F48FC68C9190E048165906D9
S214005050B9F411968C91119790E029813A8128171E
S214005060390771F412968C9190E0AB81BC81A81739
S214005070B90731F4AF81B88516962D923C921797F2
S214005080D1011396EC93139716968D919C911797D2
S2140050901B968D909C901C978114910409F487C0F0
S2140050A00196F401268137818217930714F48683CC
S2140050B09783AF81B8851896EC9118971996BC908F
S2140050C0D40113962C911397AE2E1B2D110F110B96
S2140050D030E040E050E060E070E080E090E0C12E1C
S2140050E0D12EE12EF12E012F0E94AE9609F45FC05C
S2140050F08C9190E048165906B9F411968C91119748
S21400510090E029813A812817390771F412968C911C
S21400511090E0AB81BC81A817B90731F4AF81B885A0
S21400512016968D929C921797D4011396EC9313972C
S2140051301696ED90FC9017971B966D917C911C9798
S2140051400B811C8129813A81A2018F8198850E945A
S2140051506101F401E680F780658576850B811C8108
S21400516029813A81A2018F8198850E946101D4012C
S2140051701696ED90FC9017971F966D917C91509720
S2140051800B811C8129813A81A2018F8198850E941A
S2140051906101F401E680F780618972890B811C81C8
S2140051A029813A81A2018F8198850E946101D101EF
S2140051B016968D919C9117971D966D907C901E97D4
S2140051C06114710409F497C20196F30126813781B0
S2140051D08217930714F486839783AF81B885189651
S2140051E0EC9118971996BC90D30113962C911397AF
S2140051F0AE2E1B2D110F110B30E040E050E060E0AA
S21400520070E080E090E0C12ED12EE12EF12E012F2D
S2140052100E94AE9609F46FC28C9190E0481659062B
S214005220B9F411968C91119790E029813A8128174C
S214005230390771F412968C9190E0AB81BC81A81767
S214005240B90731F4AF81B88516966D927C921797A0
S214005250D3011396EC93139716968D919C911797FE
S2140052601B968D909C901C978114910409F487C01E
S2140052700196F401268137818217930714F48683FA
S2140052809783AF81B8851896EC9118971996BC90BD
S214005290D40113962C911397AE2E1B2D110F110BC4
S2140052A030E040E050E060E070E080E090E0C12E4A
S2140052B0D12EE12EF12E012F0E94AE9609F45FC08A
S2140052C08C9190E048165906B9F411968C91119776
S2140052D090E029813A812817390771F412968C914B
S2140052E090E0AB81BC81A817B90731F4AF81B885CF
S2140052F016968D929C921797D4011396EC9313975B
S2140053001696ED90FC9017971B966D917C911C97C6
S2140053100B811C8129813A81A2018F8198850E9488
S2140053206101F401E680F780658576850B811C8136
S21400533029813A81A2018F8198850E946101D4015A
S2140053401696ED90FC9017971F966D917C9150974E
S2140053500B811C8129813A81A2018F8198850E9448
S2140053606101F401E680F780618972890B811C81F6
S21400537029813A81A2018F8198850E946101D3011B
S21400538016968D919C9117971D968D909C901E97C2
S2140053908114910409F487C00196F40126813781AF
S2140053A08217930714F486839783AF81B88518967F
S2140053B0EC9118971996BC90D40113962C911397DC
S2140053C0AE2E1B2D110F110B30E040E050E060E0D8
S2140053D070E080E090E0C12ED12EE12EF12E012F5C
S2140053E00E94AE9609F45FC08C9190E0481659066C
S2140053F0B9F411968C91119790E029813A8128177B
S214005400390771F412968C9190E0AB81BC81A81795
S214005410B90731F4AF81B88516968D929C9217978E
S214005420D4011396EC9313971696ED90FC9017976D
S2140054301B966D917C911C970B811C8129813A816A
S214005440A2018F8198850E946101F401E680F780B1
S214005450658576850B811C8129813A81A2018F8121
S21400546098850E946101D4011696ED90FC901797DE
S2140054701F966D917C9150970B811C8129813A81F2
S214005480A2018F8198850E946101F401E680F78071
S214005490618972890B811C8129813A81A2018F81E1
S2140054A098850E946101D30116968D919C9117975D
S2140054B01F968D909C9050978114910409F487C094
S2140054C00196F401268137818217930714F48683A8
S2140054D09783AF81B8851896EC9118971996BC906B
S2140054E0D40113962C911397AE2E1B2D110F110B72
S2140054F030E040E050E060E070E080E090E0C12EF8
S214005500D12EE12EF12E012F0E94AE9609F45FC037
S2140055108C9190E048165906B9F411968C91119723
S21400552090E029813A812817390771F412968C91F8
S21400553090E0AB81BC81A817B90731F4AF81B8857C
S21400554016968D929C921797D4011396EC93139708
S2140055501696ED90FC9017971B966D917C911C9774
S2140055600B811C8129813A81A2018F8198850E9436
S2140055706101F401E680F780658576850B811C81E4
S21400558029813A81A2018F8198850E946101D40108
S2140055901696ED90FC9017971F966D917C915097FC
S2140055A00B811C8129813A81A2018F8198850E94F6
S2140055B06101F401E680F780618972890B811C81A4
S2140055C029813A81A2018F8198850E946101D301C9
S2140055D016968D919C91179751968D909C90529708
S2140055E08114910409F487C00196F401268137815D
S2140055F08217930714F486839783AF81B88518962D
S214005600EC9118971996BC90D40113962C91139789
S214005610AE2E1B2D110F110B30E040E050E060E085
S21400562070E080E090E0C12ED12EE12EF12E012F09
S2140056300E94AE9609F45FC08C9190E04816590619
S214005640B9F411968C91119790E029813A81281728
S214005650390771F412968C9190E0AB81BC81A81743
S214005660B90731F4AF81B88516968D929C9217973C
S214005670D4011396EC9313971696ED90FC9017971B
S2140056801B966D917C911C970B811C8129813A8118
S214005690A2018F8198850E946101F401E680F7805F
S2140056A0658576850B811C8129813A81A2018F81CF
S2140056B098850E946101D4011696ED90FC9017978C
S2140056C01F966D917C9150970B811C8129813A81A0
S2140056D0A2018F8198850E946101F401E680F7801F
S2140056E0618972890B811C8129813A81A2018F818F
S2140056F098850E946101D10116968D919C9117970D
S2140057001F968D909C9050978114910409F487C041
S2140057100196F401268137818217930714F4868355
S2140057209783AF81B8851896EC9118971996BC9018
S214005730D40113962C911397AE2E1B2D110F110B1F
S21400574030E040E050E060E070E080E090E0C12EA5
S214005750D12EE12EF12E012F0E94AE9609F45FC0E5
S2140057608C9190E048165906B9F411968C911197D1
S21400577090E029813A812817390771F412968C91A6
S21400578090E0AB81BC81A817B90731F4AF81B8852A
S21400579016968D929C921797D4011396EC931397B6
S2140057A01696ED90FC9017971B966D917C911C9722
S2140057B00B811C8129813A81A2018F8198850E94E4
S2140057C06101F401E680F780658576850B811C8192
S2140057D029813A81A2018F8198850E946101D401B6
S2140057E01696ED90FC9017971F966D917C915097AA
S2140057F00B811C8129813A81A2018F8198850E94A4
S2140058006101F401E680F780618972890B811C8151
S21400581029813A81A2018F8198850E946101D10178
S21400582016968D919C91179751968D909C905297B5
S2140058308114910409F497C20196F40126813781F8
S2140058408217930714F486839783AF81B8851896DA
S214005850EC9118971996BC90D40113962C91139737
S214005860AE2E1B2D110F110B30E040E050E060E033
S21400587070E080E090E0C12ED12EE12EF12E012FB7
S2140058800E94AE9609F46FC28C9190E048165906B5
S214005890B9F411968C91119790E029813A812817D6
S2140058A0390771F412968C9190E0AB81BC81A817F1
S2140058B0B90731F4AF81B88516968D929C921797EA
S2140058C0D4011396EC93139716968D919C91179787
