:100000000C9476010C94AC010C94AC010C94AC01F2
:100010000C94AC010C94AC010C94AC010C94AC01AC
:100020000C94AC010C94AC010C94AC010C94AC019C
:100030000C94AC010C94AC010C94AC010C94AC018C
:100040000C94AC010C94AC010C94AC010C94AC017C
:100050000C94AC010C94AC010C94AC010C94AC016C
:100060000C94AC010C94AC010C94AC010C94AC015C
:100070000C94AC010C94AC010C94AC010C94AC014C
:100080000C94AC010C94AC010C94AC010C94AC013C
:100090000C94AC010C94AC010C94AC010C94AC012C
:1000A0000C94AC010C94AC010C94AC010C94AC011C
:1000B0000C94AC010C94AC010C94AC010C94AC010C
:1000C0000C94AC010C94AC010C94AC010C94AC01FC
:1000D0000C94AC010C94AC010C94AC010C94AC01EC
:1000E0000C94AC010C94AC010C94AC010C94AC01DC
:1000F0000C94AC010C94AC010C94AC010C94AC01CC
:100100000C94AC010C94AC010C94AC010C94AC01BB
:100110000C94AC010C94AC010C94AC010C94AC01AB
:100120000C94AC010C94AC010C94AC010C94AC019B
:100130000C94AC010C94DD0F0C94AC010C94AC014C
:100140000C94AC010C94AC010C94AC010C94AC017B
:100150000C94AC010C94AC010C94AC010C94AC016B
:100160000C94AC010C94AC010C94AC010C94AC015B
:100170000C94AC010C94AC010C94AC010C94AC014B
:100180000C94AC010C94AC010C94AC010C94AC013B
:100190000C94AC010C94AC010C94AC010C94AC012B
:1001A0000C94AC010C94AC010C94AC010C94AC011B
:1001B0000C94AC010C94AC010C94AC010C94AC010B
:1001C0000C94AC010C94AC010C94AC010C94AC01FB
:1001D0000C94AC010C94AC010C94AC010C94AC01EB
:1001E0000C94AC010C94AC010C94AC010C94AC01DB
:1001F0000C94AC010C94AC010C94AC01A60CB60CA4
:10020000C60C700D1C0E2C0E3C0E4C0E5C0E6C0EB3
:10021000FA12EB12D612C112AC12971282126D12A0
:100220005812431208000000BE922449123EABAAA5
:10023000AA2ABECDCCCC4C3E00000080BEABAAAA00
:10024000AA3E00000000BF000000803F0000000048
:1002500000084178D3BB4387D1133D190E3CC3BD81
:100260004282AD2B3E68EC8276BED98FE1A93E4C2E
:1002700080EFFFBE01C4FF7F3F00000000000C9430
:10028000D10F0C94AC120C94B60C0C94D6120C94A6
:10029000A60C0C94700D0C9482120C9460100C94AB
:1002A0009C0E0C9458120C94FA120C94EB120C94B1
:1002B00097120C942C0E0C944C0E0C9443120C942C
:1002C0003C0E0C941C0E0C945C0E0C946C0E0C9456
:1002D0006D120C94C60C0C94DF010C9457090C940D
:1002E000C112DF0157099C0ED10F601011241FBEEF
:1002F000CFEFCDBFDFE3DEBF00E00CBF18BE19BEFD
:100300001ABE1BBE10E2A0E0B0E2ECE7FBE200E0A8
:100310000BBF02C007900D92A63AB107D9F71BBEDA
:100320002CE3A6EAB0E201C01D92AF33B207E1F7B9
:1003300011E0C6E7D1E000E006C021970109802F57
:10034000FE010E94A415C137D10780E00807A9F774
:100350000E94AE010C94BC150C9400000E949609FA
:100360000E94A60E2FEF87E893E121508040904035
:10037000E1F700C0000064E170E280EB94E00E94CD
:10038000F00A81E00E94E20B0E94520B6AE170E2E7
:1003900080EB94E00E94F00A0E94520B61E270E24E
:1003A00086EA90E20E947D1180E293E00E94F80FBD
:1003B00082E00E94870C83E00E94870CF9CFCF93E4
:1003C000DF93E7ECF9E388E592E0DF01EC011D92B1
:1003D0002197E9F710921F3C1092203CE9E1F3E2EB
:1003E00088EC90E08083918380EE95E1AFE1B3E209
:1003F000ED019C01199221503040E1F788EE93E025
:100400008487958780A391A384AF95AF80935D2364
:1004100090935E238093712390937223809379232A
:1004200090937A2380938D2390938E2380939523AA
:10043000909396238093A9239093AA238093B1232A
:100440009093B2238093C5239093C6238093CD23AA
:100450009093CE238093E1239093E2238093E9232A
:100460009093EA238093FD239093FE2380930524A9
:10047000909306248093192490931A248093212426
:1004800090932224809335249093362480933D24A6
:1004900090933E2480935124909352248093592426
:1004A00090935A2480936D2490936E2480937524A6
:1004B000909376248093892490938A248093912426
:1004C000909392248093A5249093A6248093AD24A6
:1004D0009093AE248093C1249093C2248093C92426
:1004E0009093CA248093DD249093DE248093E524A6
:1004F0009093E6248093F9249093FA248093012525
:1005000090930225809315259093162580931D25A1
:1005100090931E2580933125909332258093392521
:1005200090933A2580934D2590934E2580935525A1
:10053000909356258093692590936A258093712521
:1005400090937225809385259093862580938D25A1
:1005500090938E258093A1259093A2258093A92521
:100560009093AA258093BD259093BE258093C525A1
:100570009093C6258093D9259093DA258093E12521
:100580009093E2258093F5259093F6258093FD25A1
:100590009093FE258093112690931226809319261E
:1005A00090931A2680932D2690932E26809335269D
:1005B000909336268093492690934A26809351261D
:1005C00090935226809365269093662680936D269D
:1005D00090936E268093812690938226809389261D
:1005E00090938A2680939D2690939E268093A5269D
:1005F0009093A6268093B9269093BA268093C1261D
:100600009093C2268093D5269093D6268093DD269C
:100610009093DE268093F1269093F2268093F9261C
:100620009093FA2680930D2790930E278093152799
:10063000909316278093292790932A278093312718
:1006400090933227809345279093462780934D2798
:1006500090934E2780936127909362278093692718
:1006600090936A2780937D2790937E278093852798
:10067000909386278093992790939A278093A12718
:100680009093A2278093B5279093B6278093BD2798
:100690009093BE278093D1279093D2278093D92718
:1006A0009093DA278093ED279093EE278093F52798
:1006B0009093F6278093092890930A288093112815
:1006C00090931228809325289093262880932D2894
:1006D00090932E2880934128909342288093492814
:1006E00090934A2880935D2890935E288093652894
:1006F000909366288093792890937A288093812814
:1007000090938228809395289093962880939D2893
:1007100090939E288093B1289093B2288093B92813
:100720009093BA288093CD289093CE288093D52893
:100730009093D6288093E9289093EA288093F12813
:100740009093F228809305299093062980930D2990
:1007500090930E298093212990932229809329290F
:1007600090932A2980933D2990933E29809345298F
:10077000909346298093592990935A29809361290F
:1007800090936229809375299093762980937D298F
:1007900090937E298093912990939229809399290F
:1007A00090939A298093AD299093AE298093B5298F
:1007B0009093B6298093C9299093CA298093D1290F
:1007C0009093D2298093E5299093E6298093ED298F
:1007D0009093EE298093012A9093022A8093092A0C
:1007E00090930A2A80931D2A90931E2A8093252A8B
:1007F0009093262A8093392A90933A2A8093412A0B
:100800009093422A8093552A9093562A80935D2A8A
:1008100090935E2A8093712A9093722A8093792A0A
:1008200090937A2A80938D2A90938E2A8093952A8A
:100830009093962A8093A92A9093AA2A8093B12A0A
:100840009093B22A8093C52A9093C62A8093CD2A8A
:100850009093CE2A8093E12A9093E22A8093E92A0A
:100860009093EA2A8093FD2A9093FE2A8093052B89
:100870009093062B8093192B90931A2B8093212B06
:100880009093222B8093352B9093362B80933D2B86
:1008900090933E2B8093512B9093522B8093592B06
:1008A00090935A2B80936D2B90936E2B8093752B86
:1008B0009093762B8093892B90938A2B8093912B06
:1008C0009093922B8093A52B9093A62B8093AD2B86
:1008D0009093AE2B8093C12B9093C22B8093C92B06
:1008E0009093CA2B8093DD2B9093DE2B8093E52B86
:1008F0009093E62B8093F92B9093FA2B8093012C05
:100900009093022C8093152C9093162C80931D2C81
:1009100090931E2C8093312C9093322C8093392C01
:1009200090933A2C80934D2C90934E2C8093552C81
:100930009093562C8093692C90936A2C8093712C01
:100940009093722C8093852C9093862C80938D2C81
:1009500090938E2C8093A12C9093A22C8093A92C01
:100960009093AA2C8093BD2C9093BE2C8093C52C81
:100970009093C62C8093D92C9093DA2C8093E12C01
:100980009093E22C8093F52C9093F62C8093FD2C81
:100990009093FE2C8093112D9093122D8093192DFE
:1009A00090931A2D80932D2D90932E2D8093352D7D
:1009B0009093362D8093492D90934A2D8093512DFD
:1009C0009093522D8093652D9093662D80936D2D7D
:1009D00090936E2D8093812D9093822D8093892DFD
:1009E00090938A2D80939D2D90939E2D8093A52D7D
:1009F0009093A62D8093B92D9093BA2D8093C12DFD
:100A00009093C22D8093D52D9093D62D8093DD2D7C
:100A10009093DE2D8093F12D9093F22D8093F92DFC
:100A20009093FA2D80930D2E90930E2E8093152E79
:100A30009093162E8093292E90932A2E8093312EF8
:100A40009093322E8093452E9093462E80934D2E78
:100A500090934E2E8093612E9093622E8093692EF8
:100A600090936A2E80937D2E90937E2E8093852E78
:100A70009093862E8093992E90939A2E8093A12EF8
:100A80009093A22E8093B52E9093B62E8093BD2E78
:100A90009093BE2E8093D12E9093D22E8093D92EF8
:100AA0009093DA2E8093ED2E9093EE2E8093F52E78
:100AB0009093F62E8093092F90930A2F8093112FF5
:100AC0009093122F8093252F9093262F80932D2F74
:100AD00090932E2F8093412F9093422F8093492FF4
:100AE00090934A2F80935D2F90935E2F8093652F74
:100AF0009093662F8093792F90937A2F8093812FF4
:100B00009093822F8093952F9093962F80939D2F73
:100B100090939E2F8093B12F9093B22F8093B92FF3
:100B20009093BA2F8093CD2F9093CE2F8093D52F73
:100B30009093D62F8093E92F9093EA2F8093F12FF3
:100B40009093F22F809305309093063080930D3070
:100B500090930E30809321309093223080932930EF
:100B600090932A3080933D3090933E30809345306F
:100B7000909346308093593090935A3080936130EF
:100B800090936230809375309093763080937D306F
:100B900090937E30809391309093923080939930EF
:100BA00090939A308093AD309093AE30DF01809374
:100BB000B5309093B6308093C9309093CA3080930B
:100BC000D1309093D2308093E5309093E63080938B
:100BD000ED309093EE308093013190930231809309
:100BE000093190930A3180931D3190931E31809387
:100BF0002531909326318093393190933A31809307
:100C00004131909342318093553190935631809386
:100C10005D3190935E318093713190937231809306
:100C2000793190937A3180938D3190938E31809386
:100C30009531909396318093A9319093AA31809306
:100C4000B1319093B2318093C5319093C631809386
:100C5000CD319093CE318093E1319093E231809306
:100C6000E9319093EA318093FD319093FE31809386
:100C70000532909306328093193290931A32809302
:100C80002132909322328093353290933632809382
:100C90003D3290933E328093513290935232809302
:100CA000593290935A3280936D3290936E32809382
:100CB0007532909376328093893290938A32809302
:100CC0009132909392328093A5329093A632809382
:100CD000AD329093AE328093C1329093C232809302
:100CE000C9329093CA328093DD329093DE32809382
:100CF000E5329093E6328093F9329093FA32809302
:100D0000013390930233809315339093163380937D
:100D10001D3390931E3380933133909332338093FD
:100D2000393390933A3380934D3390934E3380937D
:100D30005533909356338093693390936A338093FD
:100D4000713390937233809385339093863380937D
:100D50008D3390938E338093A1339093A2338093FD
:100D6000A9339093AA338093BD339093BE3380937D
:100D7000C5339093C6338093D9339093DA338093FD
:100D8000E1339093E2338093F5339093F63380937D
:100D9000FD339093FE3380931134909312348093FB
:100DA000193490931A3480932D3490932E34809379
:100DB0003534909336348093493490934A348093F9
:100DC0005134909352348093653490936634809379
:100DD0006D3490936E3480938134909382348093F9
:100DE000893490938A3480939D3490939E34809379
:100DF000A5349093A6348093B9349093BA348093F9
:100E0000C1349093C2348093D5349093D634809378
:100E1000DD349093DE348093F1349093F2348093F8
:100E2000F9349093FA3480930D3590930E35809376
:100E30001535909316358093293590932A358093F4
:100E40003135909332358093453590934635809374
:100E50004D3590934E3580936135909362358093F4
:100E6000693590936A3580937D3590937E35809374
:100E70008535909386358093993590939A358093F4
:100E8000A1359093A2358093B5359093B635809374
:100E9000BD359093BE358093D1359093D2358093F4
:100EA000D9359093DA358093ED359093EE35809374
:100EB000F5359093F6358093093690930A368093F2
:100EC0001136909312368093253690932636809370
:100ED0002D3690932E3680934136909342368093F0
:100EE000493690934A3680935D3690935E36809370
:100EF0006536909366368093793690937A368093F0
:100F0000813690938236809395369093963680936F
:100F10009D3690939E368093B1369093B2368093EF
:100F2000B9369093BA368093CD369093CE3680936F
:100F3000D5369093D6368093E9369093EA368093EF
:100F4000F1369093F236809305379093063780936D
:100F50000D3790930E3780932137909322378093EB
:100F6000293790932A3780933D3790933E3780936B
:100F70004537909346378093593790935A378093EB
:100F8000613790936237809375379093763780936B
:100F90007D3790937E3780939137909392378093EB
:100FA000993790939A378093AD379093AE3780936B
:100FB000B5379093B6378093C9379093CA378093EB
:100FC000D1379093D2378093E5379093E63780936B
:100FD000ED379093EE3780930138909302388093E9
:100FE000093890930A3880931D3890931E38809367
:100FF0002538909326388093393890933A388093E7
:101000004138909342388093553890935638809366
:101010005D3890935E3880937138909372388093E6
:10102000793890937A3880938D3890938E38809366
:101030009538909396388093A9389093AA388093E6
:10104000B1389093B2388093C5389093C638809366
:10105000CD389093CE388093E1389093E2388093E6
:10106000E9389093EA388093FD389093FE3888EC05
:10107000EFEFF8E3EF0119928A95E9F712961D92C6
:101080001C92139788E592E0EFEBF0E2EF019C01F0
:10109000199221503040E1F7EAEAF0E2109217236A
:1010A0001092182381E090E014968D939C931597ED
:1010B0002BE333E2208331832283338324E630E041
:1010C00092962D933C93939794962D933C9395975A
:1010D00096968D939C9397978FEF9FEF9A968D930B
:1010E0009C939B9798961D921C92999714821582B7
:1010F000168217821086118612861386148615862C
:10110000138A148A1786108A118A128A168640E476
:1011100056E060EA78E086EA90E20E945111DF91A1
:10112000CF9108950F931F93CF93DF93C82F61E062
:1011300082E00E942B1061E084E00E942B1061E0AD
:1011400081E00E942B1028E2C29F8001112420E040
:1011500030E0E0E2F7E0D1E0CEE0B2E0ADE074E014
:101160006BE058E047E0D583C6838FE79EE30197A5
:10117000F1F700C00000B583A6838FE79EE30197D7
:10118000F1F700C00000758366838FE79EE3019747
:10119000F1F700C00000558346838FE79EE3019777
:1011A000F1F700C000002F5F3F4F02171307DCF676
:1011B0008FE08093260760E082E00E942B1060E0C1
:1011C00084E00E942B1060E081E00E942B1061E01F
:1011D00081E00E943910CBE0D0E063E081E00E9422
:1011E000391064E082E00E94391080E293E00E94AE
:1011F000F80F9FEF2BE48DE1915020408040E1F704
:1012000000C00000219749F760E081E00E9439109A
:1012100060E082E00E943910DF91CF911F910F9121
:10122000089587E08093A1060895CF93DF9340E06F
:1012300060EA81E29CE30E94D5106FE370E081E2F6
:101240009CE30E94031141E060EA81E29CE30E947A
:10125000D51061E081E29CE30E942711C82F60E075
:1012600081E29CE30E942711D82F81E29CE30E9437
:101270003F116C2F70E07D2B072E000C880B990B13
:101280000E94B41320E030E040E058E30E94CF1405
:1012900020E030E044E353E40E94CF1420E030E04B
:1012A00044E353E40E940B13DF91CF91089520E9AA
:1012B00030ED43E050E060E874E081E29CE30E949E
:1012C0008F100895E0E5F0E0808182608083818165
:1012D00081FFFDCF88ED84BFE0E4F0E081E0808312
:1012E00084E08183E0E5F0E080818E7F8083089553
:1012F00084E080935000E1E5F0E080818823E9F309
:1013000081E08093430087E080930004089581E0AA
:1013100080930106E0ECF7E087E0818385838FE02E
:101320008093210783E08093210608950E9462093B
:101330000E9487090E94A3090E94850B0E947809D8
:101340000E9411090895CF93DF93CDB7DEB72A9796
:10135000CDBFDEBF20EE33E944E050E060E974E049
:10136000CE0101960E948F1040E06CE7CE010196FD
:101370000E94D51060E070E0CE0101960E9403113A
:1013800068E370E0CE0101960E940311CE01019640
:101390000E943F112FEF81EE94E021508040904059
:1013A000E1F700C0000040E06CE7CE0101960E942A
:1013B000D51060E070E0CE0101960E94031169E350
:1013C00070E0CE0101960E940311CE0101960E94A9
:1013D0003F112FEF81EE94E0215080409040E1F7E3
:1013E00000C0000040E06CE7CE0101960E94D510DD
:1013F00060E070E0CE0101960E94031164E170E0AC
:10140000CE0101960E940311CE0101960E943F1168
:101410002FEF81EE94E0215080409040E1F700C032
:10142000000040E06CE7CE0101960E94D51060E01C
:1014300070E0CE0101960E9403116EE770E0CE01CC
:1014400001960E940311CE0101960E943F112FEFD9
:1014500081EE94E0215080409040E1F700C0000010
:1014600040E06CE7CE0101960E94D51060E070E08C
:10147000CE0101960E94031165E570E0CE01019650
:101480000E940311CE0101960E943F112FEF81EEC1
:1014900094E0215080409040E1F700C0000040E01F
:1014A0006CE7CE0101960E94D51060E070E0CE019D
:1014B00001960E9403116CE670E0CE0101960E9435
:1014C0000311CE0101960E943F112FEF83ED90E3AF
:1014D000215080409040E1F700C0000040E06CE700
:1014E000CE0101960E94D51060E070E0CE01019619
:1014F0000E94031168E370E0CE0101960E9403117F
:10150000CE0101960E943F112FEF81EE94E0215011
:1015100080409040E1F700C0000040E06CE7CE0161
:1015200001960E94D51060E070E0CE0101960E9405
:1015300003116CE070E0CE0101960E940311CE0110
:1015400001960E943F112FEF81EE94E021508040E0
:101550009040E1F700C0000040E06CE7CE0101964A
:101560000E94D51060E070E0CE0101960E94031148
:1015700061E070E0CE0101960E940311CE01019658
:101580000E943F112FEF81EE94E021508040904067
:10159000E1F700C0000040E06CE7CE0101960E9438
:1015A000D51060E070E0CE0101960E94031166E064
:1015B00070E0CE0101960E940311CE0101960E94B7
:1015C0003F112FEF81EE94E0215080409040E1F7F1
:1015D00000C000002A96CDBFDEBFDF91CF910895F5
:1015E000AF92BF92CF92DF92EF92FF921F93CF9371
:1015F000DF93CDB7DEB72A97CDBFDEBF7B0120EEEC
:1016000033E944E050E060E974E0CE0101960E94C5
:101610008F1040E06CE7CE0101960E94D510F701D3
:1016200001900020E9F731976F01CE18DF0849F1EA
:1016300080E090E010E0560121E0A21AB108A8165F
:10164000B90639F460E470E0CE0101960E940311FE
:1016500006C060EC70E0CE0101960E940311F70114
:1016600061917F0170E0CE0101960E940311FAE6BC
:10167000FA95F1F700C01F5F812F90E08C159D0552
:10168000F0F2CE0101960E943F112A96CDBFDEBF37
:10169000DF91CF911F91FF90EF90DF90CF90BF909F
:1016A000AF900895CF93DF93CDB7DEB72A97CDBF24
:1016B000DEBF20EE33E944E050E060E974E0CE01A3
:1016C00001960E948F1040E06CE7CE0101960E94C7
:1016D000D51060E070E0CE0101960E94031161E038
:1016E00070E0CE0101960E940311CE0101960E9486
:1016F0003F118FEB92E10197F1F700C000002A96AD
:10170000CDBFDEBFDF91CF910895E0E2F6E08FE03C
:101710008183858383E086830895623021F498E095
:101720009093260605C0613091F494E090932606CC
:10173000682F8FE39CE90197F1F700C000008CE26D
:101740009CE30E947F109CE090932506089580E022
:101750000895483008F047E050E0440F551F440F0B
:10176000551F440F551F283008F027E0422B6430E6
:1017700008F063E090E4699FB0011124462B409388
:101780002B3C813021F484E08093260605C0823012
:1017900091F488E0809326068FE39CE90197F1F7A6
:1017A00000C0000060912B3C8CE29CE30E947F1003
:1017B0008CE080932506089520E040E063E00E94DD
:1017C000A90B08950F931F93CF93C82F00E017E044
:1017D00061E080E00E948D0B813099F0F8018085F6
:1017E00085FD02C0C11129C0F801808586FD02C0B7
:1017F000C11134C0F8018085882354F3CC2341F310
:101800003EC000E017E062E080E00E948D0B813076
:1018100009F479C0F801808585FD02C0C11140C07E
:10182000F801808586FD02C0C1114BC0F80180859A
:1018300088234CF3CC2339F355C081E00E94430F39
:1018400060E081E00E94B40E60E082E00E94B40E8D
:1018500060E083E00E94B40EC0E0C6CF82E00E9448
:10186000430F60E081E00E94B40E60E082E00E94DD
:10187000B40E60E083E00E94B40EC0E0BBCF83E012
:101880000E94430F60E081E00E94B40E60E082E0BD
:101890000E94B40E60E083E00E94B40EC0E098CFD6
:1018A00081E00E94430F60E081E00E94B40E60E09E
:1018B00082E00E94B40E60E083E00E94B40EC0E0BB
:1018C000AFCF82E00E94430F60E081E00E94B40E3F
:1018D00060E082E00E94B40E60E083E00E94B40EFB
:1018E000C0E0A4CF83E00E94430F60E081E00E944B
:1018F000B40E60E082E00E94B40E60E083E00E94DB
:10190000B40EC0E080CFCF911F910F9108954F92F8
:101910005F926F927F928F929F92AF92BF92CF927F
:10192000DF92EF92FF92CF93EFE3FCE93197F1F76B
:1019300000C0000090E08A30910508F0DDC1FC0194
:101940008827E250FF4F8F4F0C94A41521E047E009
:1019500062E082E00E94A90B21E047E062E081E0C2
:101960000E94A90B81E00E94E20BCFC122E047E078
:1019700062E081E00E94A90B22E047E062E082E0A1
:101980000E94A90B81E00E94E20BBFC10E941509D1
:101990004B015C010E947C13AB01BC0186EA90E222
:1019A0000E94FF1169E070E286EA90E20E947D11D8
:1019B00025E045E062E081E00E94A90B25E045E0DA
:1019C00061E082E00E94A90BFFEF29EF80E0F15077
:1019D00020408040E1F700C000000E9415090E94ED
:1019E0007C13AB01BC0186EA90E20E94FF1169E022
:1019F00070E286EA90E20E947D11C1E00E94150922
:101A00006B017C010E947C13AB01BC0186EA90E271
:101A10000E94FF1169E070E286EA90E20E947D1167
:101A2000A7019601C501B4010E94771388237CF4B5
:101A3000A5019401C701B6010E940A1320E030E01D
:101A400047E853E40E9472141816C4F21FC0A5019F
:101A50009401C701B6010E940A1320E030E044EB74
:101A600053E40E940B132B013C0120E030E047E8D7
:101A700053E40E94721418160CF4C0CFA70196010B
:101A8000C501B4010E94771388238CF4A501940149
:101A9000C701B6010E940A1320E030E044EB52E493
:101AA0000E947713880F880B8C238C270CC020E0B2
:101AB00030E044EB52E4C301B2010E947713880F77
:101AC000880B8C238C27882309F498CF81E00E940F
:101AD000DC0B82E00E94DC0B81E00E94E20B15C16E
:101AE0000E9415094B015C010E947C13AB01BC01F3
:101AF00086EA90E20E94FF1169E070E286EA90E2D5
:101B00000E947D1125E045E061E081E00E94A90B83
:101B100025E045E062E082E00E94A90B9FEFE9EF3B
:101B2000F0E09150E040F040E1F700C000000E947A
:101B300015090E947C13AB01BC0186EA90E20E9469
:101B4000FF1169E070E286EA90E20E947D110E9436
:101B500015096B017C010E947C13AB01BC0186EA74
:101B600090E20E94FF1169E070E286EA90E20E9432
:101B70007D11A7019601C501B4010E947713882346
:101B80007CF4A5019401C701B6010E940A1320E06C
:101B900030E044EB52E40E9477138823C4F21EC065
:101BA000A5019401C701B6010E940A1320E030E0AC
:101BB00044EB53E40E940B132B013C0120E030E086
:101BC00044EB52E40E94771388230CF2A70196019C
:101BD000C501B4010E94771388239CF4A5019401E8
:101BE000C701B6010E940A13C1E020E030E047E8D7
:101BF00053E40E94721418160CF0C0E081E08C27A8
:101C00000EC0C1E020E030E047E853E4C301B20178
:101C10000E94721418160CF0C0E081E08C27882313
:101C200009F495CF81E00E94DC0B82E00E94DC0B7E
:101C300081E00E94E20B69C021E047E061E081E0C1
:101C40000E94A90B21E047E061E082E00E94A90B1D
:101C500081E00E94E20B59C022E047E061E081E0B0
:101C60000E94A90B22E047E061E082E00E94A90BFC
:101C700081E00E94E20B49C024E047E062E081E09D
:101C80000E94A90B24E047E062E082E00E94A90BD9
:101C900081E00E94E20B39C024E047E061E081E08E
:101CA0000E94A90B24E047E061E082E00E94A90BBA
:101CB00081E00E94E20B29C023E045E062E081E080
:101CC0000E94A90B23E045E061E082E00E94A90B9D
:101CD00081E00E94E20B19C023E045E061E081E071
:101CE0000E94A90B23E045E062E082E00E94A90B7C
:101CF00081E00E94E20B09C081E00E94DC0B82E0DF
:101D00000E94DC0B81E00E94E20B2FEF87E893E159
:101D1000215080409040E1F700C00000CF91FF903B
:101D2000EF90DF90CF90BF90AF909F908F907F907B
:101D30006F905F904F90089521E040E456E060EC92
:101D400078E08CE29CE30E946B100895E0E6F6E0F8
:101D50008CE18183A0E0B7E090EE12969C931297FD
:101D600015969C9386830895823071F08330B1F08C
:101D70008130E9F4662321F084E0809366060895BB
:101D800084E0809365060895662321F088E08093BF
:101D90006606089588E0809365060895662321F01D
:101DA00080E180936606089580E18093650608953A
:101DB0001F93CF93DF936130D9F4C0E6D6E014E0EF
:101DC0001D83EFE3FFE13197F1F700C000001E83B0
:101DD000FFEF23EC39E0F15020403040E1F700C044
:101DE0000000682F81E39CE30E947F101D8339C0AF
:101DF0006230D9F4C0E6D6E018E01D83EFE3FFE1DE
:101E00003197F1F700C000001E83FFEF23EC39E0AB
:101E1000F15020403040E1F700C00000682F81E31E
:101E20009CE30E947F101D831CC0633039F5C0E61F
:101E3000D6E010E11D83EFE3FFE13197F1F700C039
:101E400000001E83FFEF23EC39E0F15020403040CA
:101E5000E1F700C00000682F81E39CE30E947F103F
:101E60001D839FEFE9EFF0E09150E040F040E1F793
:101E700000C000009CE19093660601C080E0DF9105
:101E8000CF911F910895CF93DF93D82F83E0809354
:101E900025068FE39CE90197F1F700C0000061E09F
:101EA00084E00E942B1061E08D2F0E94D80EC82F75
:101EB00060E08D2F0E94B40E61E770E286EA90E246
:101EC0000E947D116C2F70E086EA90E20E949211D0
:101ED00069E070E286EA90E20E947D1160E08D2F59
:101EE0000E94B40E60E084E00E942B10C093303C4E
:101EF000C53019F128F4C33041F0C43091F040C02E
:101F0000C63039F1C93088F13BC00E94520B64E7FA
:101F100070E280EB94E00E94F00A82E00E94920856
:101F20002FC00E94520B6CE770E280EB94E00E949D
:101F3000F00A81E00E94920823C00E94520B64E8DC
:101F400070E280EB94E00E94F00A80E00E94920828
:101F500017C00E94520B6CE870E280EB94E00E9484
:101F6000F00A81E00E9492080BC00E94520B67E9C0
:101F700070E280EB94E00E94F00A81E00E949208F7
:101F80000E94520B9FEF29EF80E09150204080404B
:101F9000E1F700C0000083E080932606DF91CF9137
:101FA000089523E040E656E060EC79E081E39CE3AD
:101FB0000E946B101092303C08951F920F920FB642
:101FC0000F92112408B60F9218BE0F9008BE0F9002
:101FD0000FBE0F901F90189520E030E04AE04A9520
:101FE000F1F700C02F5F3F4F82179307B8F70895AE
:101FF000AF92BF92CF92DF92EF92FF920F931F9317
:10200000CF93DF938C0188EE93E06C01C01AD10A64
:10201000C0E0D0E00F2EE12CF6E0FF2EF02DBB2427
:10202000B394AB2CF701A582C8010E94EC0FF70115
:10203000B682C8010E94EC0F2196CC16DD0690F7FF
:10204000DF91CF911F910F91FF90EF90DF90CF9094
:10205000BF90AF900895613019F48093C60708953A
:10206000611103C08093C50708958CE18093C50773
:10207000089590E390932107823081F4613021F438
:1020800080E1809325070895611104C080E1809369
:102090002607089580E1809327070895813079F419
:1020A000613021F480E2809325070895611104C016
:1020B00080E280932607089580E2809327070895A1
:1020C00020EA36E841E050E060E974E085E39CE313
:1020D0000E948F100895FC016083718342835383B3
:1020E00080E4DA0112968C93A281B38180EB119681
:1020F0008C930190F081E02D206520830895DC0110
:10210000ED91FC9111976383ED91FC911197928170
:102110009923ECF71282ED91FC91838108950F933E
:102120001F93CF93DF93EC018B0168877987220F90
:10213000331F441F551F60E078E488EE91E00E9451
:102140006315DA01C9010597A109B1098C839D8343
:10215000AE83BF83F8018583E885F9858281828318
:10216000E885F985818188608183E885F98581E04A
:102170008483DF91CF911F910F910895DC01189610
:10218000ED91FC911997848182FD05C09481892F7E
:10219000887093FF09C081E084831896ED91FC91CB
:1021A000199783E083838FEF0895DC01442359F06E
:1021B0001896ED91FC911997616066831896ED91E0
:1021C000FC91199707C01896ED91FC9119976E7FB5
:1021D0006683F4CF9481907CE9F39481892F807198
:1021E00094FF10C08481806484831896ED91FC91E3
:1021F00019978481806884831896ED91FC911997D2
:1022000081E084830895CF93DF93EC01E885F9851D
:102210006783E885F98584818C7FE9F3CE010E948C
:10222000BE10E885F9859481892F807194FF0CC0D8
:10223000848180648483E885F985848180688483CF
:10224000E885F98581E08483DF91CF910895CF936C
:10225000DF93EC01E885F98584818C7FE9F36623BF
:1022600019F082E0838302C086E08383CE010E945E
:10227000BE10E885F9858781DF91CF910895CF93CE
:10228000DF93EC01E885F98584818C7FE9F3CE0149
:102290000E94BE10E885F98583E08383DF91CF91AA
:1022A0000895FC01408351836283738388E0DA01DF
:1022B00011968C93A081B18184E012968C93A281B7
:1022C000B38183E316968C93A281B38117961C92F7
:1022D000A281B38183E015968C930280F381E02D77
:1022E00088E184830895DC011296ED91FC911397A7
:1022F000818185FFFDCF608308950F931F93CF9356
:10230000DF93EB016881662341F08C012196C801BF
:102310000E94731169916111FACFDF91CF911F91E2
:102320000F910895EF92FF920F931F93CF93DF9336
:102330007C01EB019B0136952795369527953695BF
:102340002795A5ECB0E20E94AD158C01129502957F
:102350000F7001271F70012760E3600FC7010E9403
:10236000731128EE33E0029FC001039F900D129F6E
:10237000900D1124C81BD90B9E01369527953695D3
:102380002795ABE7B4E10E94AD158C011695079532
:1023900060E3600FC7010E94731124E6209FC00113
:1023A000219F900D1124C81BD90B9E01ADECBCECF4
:1023B0000E94AD158C0116950795169507951695F3
:1023C000079560E3600FC7010E947311C801880F71
:1023D000991F000F111F000F111F000F111F080F71
:1023E000191FC01BD10B6C2F605DC7010E947311B8
:1023F000DF91CF911F910F91FF90EF900895AF92D1
:10240000BF92CF92DF92EF92FF920F931F93CF93E1
:10241000DF93EC016A017B0177237CF462EA70E2CE
:102420000E947D11C601992324F4882799278C19CD
:102430009D096C01990FEE08FF08C701B6010E94C3
:10244000B4130E94771420E030E040E85FE30E947C
:102450000B130E948313162FC114D104E104F1045D
:1024600021F460E3CE010E947311812F90E0FC0102
:102470003197EA30F10508F0C2C08827E85FFE4FC7
:102480008F4F0C94A415C701B60120E03AEC4AE93D
:102490005BE30E948515A62EB72E082F192F60E347
:1024A000620FCE010E947311CA2CDB2CE02EF12E9C
:1024B000C701B60120E031EE45EF55E00E948515D9
:1024C000A62EB72E082F192F60E3620FCE010E94AF
:1024D0007311CA2CDB2CE02EF12EC701B60120E8C7
:1024E00036E948E950E00E948515A62EB72E082F40
:1024F000192F60E3620FCE010E947311CA2CDB2CEE
:10250000E02EF12EC701B60120E432E44FE050E0A6
:102510000E948515A62EB72E082F192F60E3620F93
:10252000CE010E947311CA2CDB2CE02EF12EC701C4
:10253000B60120EA36E841E050E00E948515A62E5B
:10254000B72E082F192F60E3620FCE010E9473117E
:10255000CA2CDB2CE02EF12EC701B60120E137E2B8
:1025600040E050E00E948515A62EB72E082F192FA7
:1025700060E3620FCE010E947311CA2CDB2CE02EA7
:10258000F12EC701B60128EE33E040E050E00E9492
:102590008515A62EB72E082F192F60E3620FCE01E6
:1025A0000E947311CA2CDB2CE02EF12EC701B6015C
:1025B00024E630E040E050E00E948515A62EB72EBC
:1025C000082F192F60E3620FCE010E947311CA2CED
:1025D000DB2CE02EF12EC701B6012AE030E040E00E
:1025E00050E00E948515A62E60E3620FCE010E9486
:1025F0007311CA2C60E36C0DCE010E947311DF9140
:10260000CF911F910F91FF90EF90DF90CF90BF90EF
:10261000AF9008955058BB27AA270E9422130C940C
:1026200038140E942A1438F00E94311420F039F432
:102630009F3F19F426F40C9427140EF4E095E7FB61
:102640000C941314E92F0E94491458F3BA17620727
:1026500073078407950720F079F4A6F50C946B14A2
:102660000EF4E0950B2EBA2FA02D0B01B9019001AD
:102670000C01CA01A0011124FF27591B99F0593FF1
:1026800050F4503E68F11A16F040A22F232F342F39
:102690004427585FF3CF469537952795A795F04087
:1026A0005395C9F77EF41F16BA0B620B730B840B9C
:1026B000BAF09150A1F0FF0FBB1F661F771F881F54
:1026C000C2F70EC0BA0F621F731F841F48F48795AC
:1026D00077956795B795F7959E3F08F0B0CF93959E
:1026E000880F08F09927EE0F9795879508950E9417
:1026F000EF1308F481E008950E9483136894B111E8
:102700000C946C1408950E94511488F09F5798F00F
:10271000B92F9927B751B0F0E1F0660F771F881FE6
:10272000991F1AF0BA95C9F714C0B13091F00E9400
:102730006B14B1E008950C946B14672F782F8827E1
:10274000B85F39F0B93FCCF3869577956795B39527
:10275000D9F73EF490958095709561957F4F8F4F96
:102760009F4F0895E89409C097FB3EF4909580959B
:10277000709561957F4F8F4F9F4F9923A9F0F92F47
:1027800096E9BB279395F695879577956795B795C5
:10279000F111F8CFFAF4BB0F11F460FF1BC06F5FAB
:1027A0007F4F8F4F9F4F16C0882311F096E911C0BD
:1027B000772321F09EE8872F762F05C0662371F0DE
:1027C00096E8862F70E060E02AF09A95660F771FF2
:1027D000881FDAF7880F9695879597F90895990FCE
:1027E0000008550FAA0BE0E8FEEF16161706E807DB
:1027F000F907C0F012161306E407F50798F0621BFC
:10280000730B840B950B39F40A2661F0232B242BD0
:10281000252B21F408950A2609F4A140A6958FEFEF
:10282000811D811D089597F99F6780E870E060E041
:1028300008959F3F31F0915020F4879577956795E3
:10284000B795880F911D9695879597F908959FEFF5
:1028500080EC089500240A94161617061806090637
:10286000089500240A941216130614060506089506
:10287000092E0394000C11F4882352F0BB0F40F48E
:10288000BF2B11F460FF04C06F5F7F4F8F4F9F4FCE
:10289000089557FD9058440F551F59F05F3F71F050
:1028A0004795880F97FB991F61F09F3F79F08795B7
:1028B0000895121613061406551FF2CF4695F1DF40
:1028C00008C0161617061806991FF1CF86957105D0
:1028D000610508940895E894BB2766277727CB0104
:1028E00097F908950E94EF1308F48FEF08950E945E
:1028F000871429ED3BE54EED5EE30C94CF1416F002
:102900000C9419140C94271468940C9413140E94BA
:102910005114A8F39923C1F3AEF3DF93CF931F9320
:102920000F93FF92C92FDD2788232AF02197660F86
:10293000771F881FDAF720E030E040E85FEB9FE385
:10294000883920F0803E38F021968F770E940B1353
:10295000E4E2F2E004C00E940B13E1E5F2E00E9421
:102960003C158B01BE01EC01FB2E6F57710975956B
:10297000771F880B990B0E94B41328E132E741E3DB
:102980005FE30E94E214AF2D9801AE01FF900F911A
:102990001F91CF91DF910E9422130C9438140E9452
:1029A000E2140C9438140E942A1438F00E94311456
:1029B00020F0952311F00C9413140C942714112477
:1029C0000C946C140E94491470F3959FC1F3950FF9
:1029D00050E0551F629FF001729FBB27F00DB11DA3
:1029E000639FAA27F00DB11DAA1F649F6627B00D33
:1029F000A11D661F829F2227B00DA11D621F739F1C
:102A0000B00DA11D621F839FA00D611D221F749F29
:102A10003327A00D611D231F849F600D211D822F70
:102A2000762F6A2F11249F5750409AF0F1F0882397
:102A30004AF0EE0FFF1FBB1F661F771F881F9150C4
:102A40005040A9F79E3F510580F00C9413140C944C
:102A50006C145F3FE4F3983ED4F3869577956795C1
:102A6000B795F795E7959F5FC1F7FE2B880F911DEE
:102A70009695879597F90895DF93CF931F930F93BA
:102A8000FF92EF92DF927B018C01689406C0DA2EF0
:102A9000EF010E94E214FE01E894A5912591359181
:102AA00045915591A6F3EF010E942213FE01970173
:102AB000A801DA9469F7DF90EF90FF900F911F91D2
:102AC000CF91DF910895A1E21A2EAA1BBB1BFD0135
:102AD0000DC0AA1FBB1FEE1FFF1FA217B307E407FD
:102AE000F50720F0A21BB30BE40BF50B661F771F55
:102AF000881F991F1A9469F7609570958095909535
:102B00009B01AC01BD01CF010895052E97FB1EF47A
:102B100000940E949C1557FD07D00E94631507FC86
:102B200003D04EF40C949C1550954095309521950A
:102B30003F4F4F4F5F4F08959095809570956195E9
:102B40007F4F8F4F9F4F0895EE0FFF1F881F8BBF42
:102B50000790F691E02D1BBE1994A29FB001B39F80
:102B6000C001A39F700D811D1124911DB29F700D96
:0C2B7000811D1124911D0895F894FFCFE1
:102B7C00656500635F6E3A20000A0D0062667300A3
:102B8C006466730048656C6C6F00526561647921F2
:102B9C000077616B655F75700A00466978696E67CE
:102BAC005475726E004E6F7469667950004E6F7476
:102BBC006966794841004E6F7469667948616C6644
:102BCC00004E6F746966794C0073616B6121004E25
:102BDC006F74694C2155002C004E6F74694C214464
:102BEC000063680046696E642048210046696E6483
:102BFC002053210046696E642055210046696E649D
:102C0C00205365726D6F0046696E64204572726F59
:062C1C0072002D002E00E5
:00000001FF
