S00E0000417175696C612E73726563B9
S2140000000C9420010C9456010C9456010C94560145
S2140000100C9456010C9456010C9456010C945601FF
S2140000200C9456010C9456010C9456010C945601EF
S2140000300C9456010C9456010C9456010C945601DF
S2140000400C9456010C9456010C9456010C945601CF
S2140000500C9456010C9456010C9456010C945601BF
S2140000600C9456010C9456010C9456010C945601AF
S2140000700C9456010C9456010C9456010C9456019F
S2140000800C9456010C9456010C9456010C9456018F
S2140000900C9456010C9456010C9456010C9456017F
S2140000A00C9456010C9456010C9456010C9456016F
S2140000B00C9456010C9456010C9456010C9456015F
S2140000C00C9456010C9456010C9456010C9456014F
S2140000D00C9456010C9456010C9456010C9456013F
S2140000E00C9456010C9456010C9456010C9456012F
S2140000F00C9456010C9456010C9456010C9456011F
S2140001000C9456010C9456010C9456010C9456010E
S2140001100C9456010C9456010C9456010C945601FE
S2140001200C9456010C9456010C9456010C945601EE
S2140001300C9456010C944F830C9456010C94560163
S2140001400C9456010C9456010C9456010C945601CE
S2140001500C9456010C9456010C9456010C945601BE
S2140001600C9456010C9456010C9456010C945601AE
S2140001700C9456010C9456010C9456010C9456019E
S2140001800C9456010C9456010C9456010C9456018E
S2140001900C9456010C9456010C9456010C9456017E
S2140001A00C9456010C9456010C9456010C9456016E
S2140001B00C9456010C9456010C9456010C9456015E
S2140001C00C9456010C9456010C9456010C9456014E
S2140001D00C9456010C9456010C9456010C9456013E
S2140001E00C9456010C9456010C9456010C9456012E
S2140001F00C9456010C9456010C945601A680B580BA
S2140002001E811E81C480D380E280F18000810F8130
S2140002100C941E810C94F1800C9486790C94C48006
S2140002200C94D3800C94E2800C9400810C94A680ED
S2140002300C940F810C9430810C94B58086793081B3
S21400024011241FBECFEFCDBFDFE3DEBF00E00CBF43
S21400025018BE19BE1ABE1BBE10E2A0E0B0E2E4ED66
S214000260FAE001E00BBF02C007900D92A032B10782
S214000270D9F71BBE28E3A0E2B0E201C01D92A73961
S214000280B207E1F711E0C0E2D1E000E006C0219736
S2140002900109802FFE010E944A85CE31D10780E0F9
S2140002A00807A9F70E9460790C9468850C940000F2
S2140002B02F923F924F925F926F927F928F929F9271
S2140002C0AF92BF92CF92DF92EF92FF920F931F935F
S2140002D0CF93DF93CDB7DEB72E97CDBFDEBF8D872A
S2140002E09E87FB012A0149013801309709F4CEC5E3
S2140002F02FEFE21AF20A86819781E816F90614F4BF
S214000300E682F782AD85BE851696BC91B983AD852B
S214000310BE851796BC91BA83AD85BE851896BC91EE
S214000320BB83AD85BE851996BC91BC83AD85BE8565
S2140003301A96BC91BD83AD85BE851B96BC91BE83C7
S214000340AD85BE851C96BC91BF83AD85BE851D96CA
S214000350BC91B887358D248D932F990F990B492F13
S214000360592F692F792F892FA980BA80CB80DC80FE
S214000370ED80FE800F811B2F0E945F8511F008F034
S21400038085C5808191818415950581F4828193814C
S2140003908815990559F4848195818615970531F459
S2140003A0AD85BE851E96ED93FC931F976B867C8667
S2140003B089869A861F0189819A810196D1015C9669
S2140003C08D939C935D9716968D919C9117971A9690
S2140003D08D909C901B978114910409F4ACC00196F3
S2140003E0F401268137818217930714F48683978356
S2140003F0AD85BE851696BC91B983ED85FE85F781E1
S214000400FA83AD85BE851896BC91BB83ED85FE85C7
S214000410F185FC83AD85BE851A96BC91BD83ED85BE
S214000420FE85F385FE83AD85BE851C96BC91BF8395
S214000430ED85FE85F585F887D4015D963C915D9740
S2140004405C962C915C97932F990F990B492F592FF7
S214000450692F792F892FA980BA80CB80DC80ED8028
S214000460FE800F811F2F0E945F8511F008F063C089
S2140004708D919C91119748165906C1F412968D914C
S2140004809C911397E985FA85E817F90779F414968D
S2140004908D919C9115972B853C852817390731F44B
S2140004A0AD85BE851E968D929C921F9789819A81F6
S2140004B00196F401848F958FE680F78062857385B8
S2140004C00B851C8529853A85A2018D859E850E940F
S2140004D05801D4011696ED90FC9017971C966D91D6
S2140004E07C911D970B851C8529853A85A2018D85F3
S2140004F09E850E945801F401E680F7806685778520
S2140005000B851C8529853A85A2018D859E850E94CE
S2140005105801D4011696ED90FC90179750966D9161
S2140005207C9151970B851C8529853A85A2018D857E
S2140005309E850E945801F101868197818484958466
S2140005408114910409F439C30196D40116962D91AD
S2140005503C9117978217930724F416968D939C93D5
S2140005601797ED85FE85F681F983AD85BE851796CE
S214000570BC91BA83ED85FE85F085FB83AD85BE858F
S2140005801996BC91BC83ED85FE85F285FD83AD850D
S214000590BE851B96BC91BE83ED85FE85F485FF83E4
S2140005A0AD85BE851D96BC91B887F401358D248D2A
S2140005B0932F990F990B492F592F692F792F892F30
S2140005C0A980BA80CB80DC80ED80FE800F811B2F57
S2140005D00E945F8511F008F0F0C280819181481674
S2140005E0590691F48281938129853A85281739071F
S2140005F059F484819581AB85BC85A817B90721F489
S214000600ED85FE858686978689819A810196D40136
S2140006105C968D939C935D9716968D919C911797FB
S2140006201A966D907C901B976114710409F4ACC007
S2140006300196F301268137818217930714F4868387
S2140006409783AD85BE851696BC91B983ED85FE85EC
S214000650F781FA83AD85BE851896BC91BB83ED8580
S214000660FE85F185FC83AD85BE851A96BC91BD835B
S214000670ED85FE85F385FE83AD85BE851C96BC9113
S214000680BF83ED85FE85F585F887D3015D963C91A1
S2140006905D975C962C915C97932F990F990B492F39
S2140006A0592F692F792F892FA980BA80CB80DC80BB
S2140006B0ED80FE800F811F2F0E945F8511F008F0ED
S2140006C063C08D919C91119748165906C1F41296F5
S2140006D08D919C911397E985FA85E817F90779F4C7
S2140006E014968D919C9115972B853C852817390774
S2140006F031F4AD85BE851E966D927C921F978981DA
S2140007009A810196F301848F958FE680F780628543
S21400071073850B851C8529853A85A2018D859E8566
S2140007200E945801D3011696ED90FC9017971C96E0
S2140007306D917C911D970B851C8529853A85A201B4
S2140007408D859E850E945801F301E680F7806685B8
S21400075077850B851C8529853A85A2018D859E8522
S2140007600E945801D3011696ED90FC90179750966C
S2140007706D917C9151970B851C8529853A85A20140
S2140007808D859E850E945801F40186819781648438
S21400079075846114710409F4A7C00196D3011696F6
S2140007A02D913C9117978217930724F416968D93F4
S2140007B09C931797ED85FE85F681F983AD85BE85FA
S2140007C01796BC91BA83ED85FE85F085FB83AD85D3
S2140007D0BE851996BC91BC83ED85FE85F285FD83AA
S2140007E0AD85BE851B96BC91BE83ED85FE85F485E2
S2140007F0FF83AD85BE851D96BC91B887F301358D08
S214000800248D932F990F990B492F592F692F792FE4
S214000810892FA980BA80CB80DC80ED80FE800F8196
S2140008201B2F0E945F8511F008F05EC080819181C9
S2140008304816590691F48281938129853A852817AE
S214000840390759F484819581AB85BC85A817B9070B
S21400085021F4ED85FE856686778689819A810196E4
S214000860D3015C968D939C935D971696ED90FC90C5
S21400087017971A966D917C911B970B851C85298579
S2140008803A85A2018D859E850E945801F301E68077
S214000890F780648575850B851C8529853A85A201B8
S2140008A08D859E850E945801D3011696ED90FC908A
S2140008B017971E966D917C911F970B851C85298531
S2140008C03A85A2018D859E850E945801F301E68037
S2140008D0F780608971890B851C8529853A85A20178
S2140008E08D859E850E945801D40116968D919C9107
S2140008F017971E966D907C901F976114710409F4EB
S214000900ACC00196F301268137818217930714F451
S21400091086839783AD85BE851696BC91B983ED8593
S214000920FE85F781FA83AD85BE851896BC91BB839C
S214000930ED85FE85F185FC83AD85BE851A96BC9156
S214000940BD83ED85FE85F385FE83AD85BE851C964D
S214000950BC91BF83ED85FE85F585F887D3015D964E
S2140009603C915D975C962C915C97932F990F990B11
S214000970492F592F692F792F892FA980BA80CB80CC
S214000980DC80ED80FE800F811F2F0E945F8511F0B6
S21400099008F063C08D919C91119748165906C1F4D2
S2140009A012968D919C911397E985FA85E817F907B9
S2140009B079F414968D919C9115972B853C85281774
S2140009C0390731F4AD85BE851E966D927C921F97D1
S2140009D089819A810196F301848F958FE680F7804E
S2140009E0628573850B851C8529853A85A2018D85D0
S2140009F09E850E945801D3011696ED90FC9017979D
S214000A001C966D917C911D970B851C8529853A85D2
S214000A10A2018D859E850E945801F301E680F7802D
S214000A20668577850B851C8529853A85A2018D8587
S214000A309E850E945801D3011696ED90FC9017975C
S214000A4050966D917C9151970B851C8529853A852A
S214000A50A2018D859E850E945801F40186819781AA
S214000A60808891888114910409F4A7C00196D40166
S214000A7016962D913C9117978217930724F4169695
S214000A808D939C931797ED85FE85F681F983AD854A
S214000A90BE851796BC91BA83ED85FE85F085FB83EF
S214000AA0AD85BE851996BC91BC83ED85FE85F28525
S214000AB0FD83AD85BE851B96BC91BE83ED85FE8508
S214000AC0F485FF83AD85BE851D96BC91B887F4017D
S214000AD0358D248D932F990F990B492F592F692FF8
S214000AE0792F892FA980BA80CB80DC80ED80FE80AC
S214000AF00F811B2F0E945F8511F008F05EC0808179
S214000B0091814816590691F48281938129853A8508
S214000B102817390759F484819581AB85BC85A817B9
S214000B20B90721F4ED85FE858686978689819A81A8
S214000B300196D4015C968D939C935D971696ED90E6
S214000B40FC9017971A966D917C911B970B851C85C8
S214000B5029853A85A2018D859E850E945801F4015B
S214000B60E680F780648575850B851C8529853A8522
S214000B70A2018D859E850E945801D4011696ED909F
S214000B80FC9017971E966D917C911F970B851C8580
S214000B9029853A85A2018D859E850E945801F4011B
S214000BA0E680F780608971890B851C8529853A85E2
S214000BB0A2018D859E850E945801D10116968D91C1
S214000BC09C9117971E968D909C901F978114910468
S214000BD009F4ACC00196F401268137818217930789
S214000BE014F486839783AD85BE851696BC91B9832B
S214000BF0ED85FE85F781FA83AD85BE851896BC9196
S214000C00BB83ED85FE85F185FC83AD85BE851A9692
S214000C10BC91BD83ED85FE85F385FE83AD85BE85DF
S214000C201C96BC91BF83ED85FE85F585F887D401BB
S214000C305D963C915D975C962C915C97932F990FEF
S214000C40990B492F592F692F792F892FA980BA80A0
S214000C50CB80DC80ED80FE800F811F2F0E945F8599
S214000C6011F008F063C08D919C91119748165906B3
S214000C70C1F412968D919C911397E985FA85E81731
S214000C80F90779F414968D919C9115972B853C85E0
S214000C902817390731F4AD85BE851E968D929C9235
S214000CA01F9789819A810196F401848F958FE6803B
S214000CB0F780628573850B851C8529853A85A20198
S214000CC08D859E850E945801D4011696ED90FC9065
S214000CD017971C966D917C911D970B851C85298511
S214000CE03A85A2018D859E850E945801F401E68012
S214000CF0F780668577850B851C8529853A85A20150
S214000D008D859E850E945801D4011696ED90FC9024
S214000D10179750966D917C9151970B851C85298568
S214000D203A85A2018D859E850E945801F101868133
S214000D309781808891888114910409F4A7C0019650
S214000D40D40116962D913C9117978217930724F499
S214000D5016968D939C931797ED85FE85F681F983FD
S214000D60AD85BE851796BC91BA83ED85FE85F08568
S214000D70FB83AD85BE851996BC91BC83ED85FE854B
S214000D80F285FD83AD85BE851B96BC91BE83ED8541
S214000D90FE85F485FF83AD85BE851D96BC91B8871C
S214000DA0F401358D248D932F990F990B492F592FC8
S214000DB0692F792F892FA980BA80CB80DC80ED80BF
S214000DC0FE800F811B2F0E945F8511F008F05EC029
S214000DD0808191814816590691F4828193812985F4
S214000DE03A852817390759F484819581AB85BC85E7
S214000DF0A817B90721F4ED85FE8586869786898132
S214000E009A810196D4015C968D939C935D97169675
S214000E10ED90FC9017971A966D917C911B970B8519
S214000E201C8529853A85A2018D859E850E945801DC
S214000E30F401E680F780648575850B851C85298519
S214000E403A85A2018D859E850E945801D40116968A
S214000E50ED90FC9017971E966D917C911F970B85D1
S214000E601C8529853A85A2018D859E850E9458019C
S214000E70F401E680F780608971890B851C852985D9
S214000E803A85A2018D859E850E9458012E96CDBF7B
S214000E90DEBFDF91CF911F910F91FF90EF90DF9013
S214000EA0CF90BF90AF909F908F907F906F905F9005
S214000EB04F903F902F9008952F923F924F925F92BF
S214000EC06F927F928F929F92AF92BF92CF92DF9255
S214000ED0EF92FF920F931F93CF93DF93CDB7DEB7BA
S214000EE06297CDBFDEBF898B9A8B6F87788B1A018E
S214000EF029873A870B871C87FC011686178622816E
S214000F0033812D873E87F90186819781309711F4CA
S214000F100C94D7249C012F5F3F4F2817390714F4F1
S214000F2026833783E989FA89F681F983E989FA897C
S214000F30F781FA83E989FA89F085FB83E989FA89DA
S214000F40F185FC83E989FA89F285FD83E989FA89C6
S214000F50F385FE83E989FA89F485FF83E989FA89AE
S214000F60F585F887ED85FE85358D248D932F990FB1
S214000F70990B492F592F692F792F892FA980BA806D
S214000F80CB80DC80ED80FE800F8118850E945F8517
S214000F9019F010F00C94D724808191812816390618
S214000FA099F48281938129853A852817390761F457
S214000FB0848195814B855C854817590729F49F01E4
S214000FC0E989FA892687378789819A810196ED858E
S214000FD0FE85848F958F8681978182849384811481
S214000FE0910409F455C70196F401268137818217CA
S214000FF0930714F486839783E989FA89F681F9833F
S214001000E989FA89F781FA83E989FA89F085FB8309
S214001010E989FA89F185FC83E989FA89F285FD83F5
S214001020E989FA89F385FE83E989FA89F485FF83DD
S214001030E989FA89F585F887F401358D248D932F93
S214001040990F990B492F592F692F792F892FA9802E
S214001050BA80CB80DC80ED80FE800F8118850E94F0
S2140010605F8511F008F014C7808191812816390633
S21400107091F48281938129853A852817390759F496
S214001080848195814B855C854817590721F4E98949
S214001090FA898686978689819A810196F401848FDB
S2140010A0958F86819781628473846114710409F434
S2140010B095C00196F301268137818217930714F4B1
S2140010C086839783E989FA89F681F983E989FA891B
S2140010D0F781FA83E989FA89F085FB83E989FA8939
S2140010E0F185FC83E989FA89F285FD83E989FA8925
S2140010F0F385FE83E989FA89F485FF83E989FA890D
S214001100F585F887F301358D248D932F990F990B6C
S214001110492F592F692F792F892FA980BA80CB8024
S214001120DC80ED80FE800F8118850E945F8511F0BF
S21400113008F054C0808191812816390691F4828186
S214001140938129853A852817390759F48481958132
S2140011504B855C854817590721F4E989FA89668624
S214001160778689819A810196F301848F958FE68030
S214001170F780628573850B851C8529853A85A101D4
S21400118089899A890E945801F301E680F780648570
S21400119075850B851C8529853A85A10189899A89DB
S2140011A00E945801F301E680F780668577850B85F7
S2140011B01C8529853A85A10189899A890E9458014A
S2140011C0F301E680F780608971890B851C85298587
S2140011D03A85A10189899A890E945801F40186817D
S2140011E09781648475846114710409F495C001962E
S2140011F0F301268137818217930714F48683978339
S214001200E989FA89F681F983E989FA89F781FA8307
S214001210E989FA89F085FB83E989FA89F185FC83F7
S214001220E989FA89F285FD83E989FA89F385FE83DF
S214001230E989FA89F485FF83E989FA89F585F887CB
S214001240F301358D248D932F990F990B492F592F24
S214001250692F792F892FA980BA80CB80DC80ED801A
S214001260FE800F8118850E945F8511F008F054C03B
S214001270808191812816390691F48281938129858F
S2140012803A852817390759F4848195814B855C8502
S2140012904817590721F4E989FA896686778689818D
S2140012A09A810196F301848F958FE680F780628598
S2140012B073850B851C8529853A85A10189899A89BC
S2140012C00E945801F301E680F780648575850B85DA
S2140012D01C8529853A85A10189899A890E94580129
S2140012E0F301E680F780668577850B851C85298562
S2140012F03A85A10189899A890E945801F301E680FE
S214001300F780608971890B851C8529853A85A1013E
S21400131089899A890E945801F401868197814684BA
S21400132057844114510409F4D5C20196F20126816E
S21400133037818217930714F486839783E989FA899D
S214001340F681F983E989FA89F781FA83E989FA89C6
S214001350F085FB83E989FA89F185FC83E989FA89B6
S214001360F285FD83E989FA89F385FE83E989FA899E
S214001370F485FF83E989FA89F585F887F201358DCA
S214001380248D932F990F990B492F592F692F792F59
S214001390892FA980BA80CB80DC80ED80FE800F810B
S2140013A018850E945F8511F008F094C280819181B3
S2140013B02816390691F48281938129853A85281763
S2140013C0390759F4848195814B855C854817590700
S2140013D021F4E989FA894686578689819A81019699
S2140013E0F201848F958F868197816284738461145D
S2140013F0710409F495C00196F3012681378182179E
S214001400930714F486839783E989FA89F681F9832A
S214001410E989FA89F781FA83E989FA89F085FB83F5
S214001420E989FA89F185FC83E989FA89F285FD83E1
S214001430E989FA89F385FE83E989FA89F485FF83C9
S214001440E989FA89F585F887F301358D248D932F80
S214001450990F990B492F592F692F792F892FA9801A
S214001460BA80CB80DC80ED80FE800F8118850E94DC
S2140014705F8511F008F054C08081918128163906E6
S21400148091F48281938129853A852817390759F482
S214001490848195814B855C854817590721F4E98935
S2140014A0FA896686778689819A810196F301848F08
S2140014B0958FE680F780628573850B851C85298568
S2140014C03A85A10189899A890E945801F301E6802C
S2140014D0F780648575850B851C8529853A85A1016D
S2140014E089899A890E945801F301E680F78066850B
S2140014F077850B851C8529853A85A10189899A8976
S2140015000E945801F301E680F780608971890B8597
S2140015101C8529853A85A10189899A890E945801E6
S214001520F20186819781648475846114710409F4DC
S21400153095C00196F301268137818217930714F42C
S21400154086839783E989FA89F681F983E989FA8996
S214001550F781FA83E989FA89F085FB83E989FA89B4
S214001560F185FC83E989FA89F285FD83E989FA89A0
S214001570F385FE83E989FA89F485FF83E989FA8988
S214001580F585F887F301358D248D932F990F990BE8
S214001590492F592F692F792F892FA980BA80CB80A0
S2140015A0DC80ED80FE800F8118850E945F8511F03B
S2140015B008F054C0808191812816390691F4828102
S2140015C0938129853A852817390759F484819581AE
S2140015D04B855C854817590721F4E989FA896686A0
S2140015E0778689819A810196F301848F958FE680AC
S2140015F0F780628573850B851C8529853A85A10150
S21400160089899A890E945801F301E680F7806485EB
S21400161075850B851C8529853A85A10189899A8956
S2140016200E945801F301E680F780668577850B8572
S2140016301C8529853A85A10189899A890E945801C5
S214001640F301E680F780608971890B851C85298502
S2140016503A85A10189899A890E945801F2018681FA
S2140016609781668477846114710409F495C00196A5
S214001670F301268137818217930714F486839783B4
S214001680E989FA89F681F983E989FA89F781FA8383
S214001690E989FA89F085FB83E989FA89F185FC8373
S2140016A0E989FA89F285FD83E989FA89F385FE835B
S2140016B0E989FA89F485FF83E989FA89F585F88747
S2140016C0F301358D248D932F990F990B492F592FA0
S2140016D0692F792F892FA980BA80CB80DC80ED8096
S2140016E0FE800F8118850E945F8511F008F054C0B7
S2140016F0808191812816390691F48281938129850B
S2140017003A852817390759F4848195814B855C857D
S2140017104817590721F4E989FA8966867786898108
S2140017209A810196F301848F958FE680F780628513
S21400173073850B851C8529853A85A10189899A8937
S2140017400E945801F301E680F780648575850B8555
S2140017501C8529853A85A10189899A890E945801A4
S214001760F301E680F780668577850B851C852985DD
S2140017703A85A10189899A890E945801F301E68079
S214001780F780608971890B851C8529853A85A101BA
S21400179089899A890E945801F2018681978160881A
S2140017A071886114710409F495C00196F3012681CD
S2140017B037818217930714F486839783E989FA8919
S2140017C0F681F983E989FA89F781FA83E989FA8942
S2140017D0F085FB83E989FA89F185FC83E989FA8932
S2140017E0F285FD83E989FA89F385FE83E989FA891A
S2140017F0F485FF83E989FA89F585F887F301358D45
S214001800248D932F990F990B492F592F692F792FD4
S214001810892FA980BA80CB80DC80ED80FE800F8186
S21400182018850E945F8511F008F054C08081918170
S2140018302816390691F48281938129853A852817DE
S214001840390759F4848195814B855C85481759077B
S21400185021F4E989FA896686778689819A810196D4
S214001860F301848F958FE680F780628573850B85FC
S2140018701C8529853A85A10189899A890E94580183
S214001880F301E680F780648575850B851C852985C0
S2140018903A85A10189899A890E945801F301E68058
S2140018A0F780668577850B851C8529853A85A10195
S2140018B089899A890E945801F301E680F780608939
S2140018C071890B851C8529853A85A10189899A89A4
S2140018D00E945801F401868197818088918881143E
S2140018E0910409F4D5C20196F40126813781821746
S2140018F0930714F486839783E989FA89F681F98336
S214001900E989FA89F781FA83E989FA89F085FB8300
S214001910E989FA89F185FC83E989FA89F285FD83EC
S214001920E989FA89F385FE83E989FA89F485FF83D4
S214001930E989FA89F585F887F401358D248D932F8A
S214001940990F990B492F592F692F792F892FA98025
S214001950BA80CB80DC80ED80FE800F8118850E94E7
S2140019605F8511F008F094C28081918128163906AF
S21400197091F48281938129853A852817390759F48D
S214001980848195814B855C854817590721F4E98940
S214001990FA898686978689819A810196F401848FD2
S2140019A0958F86819781628473846114710409F42B
S2140019B095C00196F301268137818217930714F4A8
S2140019C086839783E989FA89F681F983E989FA8912
S2140019D0F781FA83E989FA89F085FB83E989FA8930
S2140019E0F185FC83E989FA89F285FD83E989FA891C
S2140019F0F385FE83E989FA89F485FF83E989FA8904
S214001A00F585F887F301358D248D932F990F990B63
S214001A10492F592F692F792F892FA980BA80CB801B
S214001A20DC80ED80FE800F8118850E945F8511F0B6
S214001A3008F054C0808191812816390691F482817D
S214001A40938129853A852817390759F48481958129
S214001A504B855C854817590721F4E989FA8966861B
S214001A60778689819A810196F301848F958FE68027
S214001A70F780628573850B851C8529853A85A101CB
S214001A8089899A890E945801F301E680F780648567
S214001A9075850B851C8529853A85A10189899A89D2
S214001AA00E945801F301E680F780668577850B85EE
S214001AB01C8529853A85A10189899A890E94580141
S214001AC0F301E680F780608971890B851C8529857E
S214001AD03A85A10189899A890E945801F401868174
S214001AE09781648475846114710409F495C0019625
S214001AF0F301268137818217930714F48683978330
S214001B00E989FA89F681F983E989FA89F781FA83FE
S214001B10E989FA89F085FB83E989FA89F185FC83EE
S214001B20E989FA89F285FD83E989FA89F385FE83D6
S214001B30E989FA89F485FF83E989FA89F585F887C2
S214001B40F301358D248D932F990F990B492F592F1B
S214001B50692F792F892FA980BA80CB80DC80ED8011
S214001B60FE800F8118850E945F8511F008F054C032
S214001B70808191812816390691F482819381298586
S214001B803A852817390759F4848195814B855C85F9
S214001B904817590721F4E989FA8966867786898184
S214001BA09A810196F301848F958FE680F78062858F
S214001BB073850B851C8529853A85A10189899A89B3
S214001BC00E945801F301E680F780648575850B85D1
S214001BD01C8529853A85A10189899A890E94580120
S214001BE0F301E680F780668577850B851C85298559
S214001BF03A85A10189899A890E945801F301E680F5
S214001C00F780608971890B851C8529853A85A10135
S214001C1089899A890E945801F40186819781668491
S214001C2077846114710409F495C00196F301268146
S214001C3037818217930714F486839783E989FA8994
S214001C40F681F983E989FA89F781FA83E989FA89BD
S214001C50F085FB83E989FA89F185FC83E989FA89AD
S214001C60F285FD83E989FA89F385FE83E989FA8995
S214001C70F485FF83E989FA89F585F887F301358DC0
S214001C80248D932F990F990B492F592F692F792F50
S214001C90892FA980BA80CB80DC80ED80FE800F8102
S214001CA018850E945F8511F008F054C080819181EC
S214001CB02816390691F48281938129853A8528175A
S214001CC0390759F4848195814B855C8548175907F7
S214001CD021F4E989FA896686778689819A81019650
S214001CE0F301848F958FE680F780628573850B8578
S214001CF01C8529853A85A10189899A890E945801FF
S214001D00F301E680F780648575850B851C8529853B
S214001D103A85A10189899A890E945801F301E680D3
S214001D20F780668577850B851C8529853A85A10110
S214001D3089899A890E945801F301E680F7806089B4
S214001D4071890B851C8529853A85A10189899A891F
S214001D500E945801F40186819781808891888114B9
S214001D60910409F495C00196F40126813781821703
S214001D70930714F486839783E989FA89F681F983B1
S214001D80E989FA89F781FA83E989FA89F085FB837C
S214001D90E989FA89F185FC83E989FA89F285FD8368
S214001DA0E989FA89F385FE83E989FA89F485FF8350
S214001DB0E989FA89F585F887F401358D248D932F06
S214001DC0990F990B492F592F692F792F892FA980A1
S214001DD0BA80CB80DC80ED80FE800F8118850E9463
S214001DE05F8511F008F054C080819181281639066D
S214001DF091F48281938129853A852817390759F409
S214001E00848195814B855C854817590721F4E989BB
S214001E10FA898686978689819A810196F401848F4D
S214001E20958FE680F780628573850B851C852985EE
S214001E303A85A10189899A890E945801F401E680B1
S214001E40F780648575850B851C8529853A85A101F3
S214001E5089899A890E945801F401E680F780668590
S214001E6077850B851C8529853A85A10189899A89FC
S214001E700E945801F401E680F780608971890B851D
S214001E801C8529853A85A10189899A890E9458016D
S214001E90ED85FE85868197814484558441145104DE
S214001EA009F485C40196F2012681378182179307CB
S214001EB014F486839783E989FA89F681F983E98998
S214001EC0FA89F781FA83E989FA89F085FB83E9893B
S214001ED0FA89F185FC83E989FA89F285FD83E98927
S214001EE0FA89F385FE83E989FA89F485FF83E9890F
S214001EF0FA89F585F887F201358D248D932F990F91
S214001F00990B492F592F692F792F892FA980BA80CD
S214001F10CB80DC80ED80FE800F8118850E945F8577
S214001F2011F008F044C4808191812816390691F496
S214001F308281938129853A852817390759F4848147
S214001F4095814B855C854817590721F4E989FA89FC
S214001F504686578689819A810196F201848F958FED
S214001F6086819781828493848114910409F495C0B4
S214001F700196F401268137818217930714F486832D
S214001F809783E989FA89F681F983E989FA89F781DD
S214001F90FA83E989FA89F085FB83E989FA89F1856C
S214001FA0FC83E989FA89F285FD83E989FA89F38554
S214001FB0FE83E989FA89F485FF83E989FA89F5853C
S214001FC0F887F401358D248D932F990F990B492F9F
S214001FD0592F692F792F892FA980BA80CB80DC8072
S214001FE0ED80FE800F8118850E945F8511F008F055
S214001FF054C0808191812816390691F4828193819C
S21400200029853A852817390759F4848195814B85A7
S2140020105C854817590721F4E989FA8986869786E8
S21400202089819A810196F401848F958FE680F780E6
S214002030628573850B851C8529853A85A10189896A
S2140020409A890E945801F401E680F78064857585B8
S2140020500B851C8529853A85A10189899A890E9464
S2140020605801F401E680F780668577850B851C8528
S21400207029853A85A10189899A890E945801F40127
S214002080E680F780608971890B851C8529853A85ED
S214002090A10189899A890E945801F2018681978157
S2140020A0848495848114910409F425C10196F40171
S2140020B0268137818217930714F486839783E989EC
S2140020C0FA89F681F983E989FA89F781FA83E98939
S2140020D0FA89F085FB83E989FA89F185FC83E98929
S2140020E0FA89F285FD83E989FA89F385FE83E98911
S2140020F0FA89F485FF83E989FA89F585F887F4017A
S214002100358D248D932F990F990B492F592F692FB1
S214002110792F892FA980BA80CB80DC80ED80FE8065
S2140021200F8118850E945F8511F008F0E4C0808159
S21400213091812816390691F48281938129853A8502
S2140021402817390759F4848195814B855C85481793
S214002150590721F4E989FA898686978689819A81C2
S2140021600196F401848F958FE680F78062857385EB
S2140021700B851C8529853A85A10189899A890E9443
S2140021805801F401E680F780648575850B851C850B
S21400219029853A85A10189899A890E945801F40106
S2140021A0E680F780668577850B851C8529853A85C8
S2140021B0A10189899A890E945801F4018681978134
S2140021C0808891888114910409F495C00196F401E1
S2140021D0268137818217930714F486839783E989CB
S2140021E0FA89F681F983E989FA89F781FA83E98918
S2140021F0FA89F085FB83E989FA89F185FC83E98908
S214002200FA89F285FD83E989FA89F385FE83E989EF
S214002210FA89F485FF83E989FA89F585F887F40158
S214002220358D248D932F990F990B492F592F692F90
S214002230792F892FA980BA80CB80DC80ED80FE8044
S2140022400F8118850E945F8511F008F054C08081C8
S21400225091812816390691F48281938129853A85E1
S2140022602817390759F4848195814B855C85481772
S214002270590721F4E989FA898686978689819A81A1
S2140022800196F401848F958FE680F78062857385CA
S2140022900B851C8529853A85A10189899A890E9422
S2140022A05801F401E680F780648575850B851C85EA
S2140022B029853A85A10189899A890E945801F401E5
S2140022C0E680F780668577850B851C8529853A85A7
S2140022D0A10189899A890E945801F401E680F78055
S2140022E0608971890B851C8529853A85A1018989B4
S2140022F09A890E945801F201868197818684978484
S2140023008114910409F425C10196F40126813781D0
S2140023108217930714F486839783E989FA89F681EE
S214002320F983E989FA89F781FA83E989FA89F085D8
S214002330FB83E989FA89F185FC83E989FA89F285C4
S214002340FD83E989FA89F385FE83E989FA89F485AC
S214002350FF83E989FA89F585F887F401358D248DA0
S214002360932F990F990B492F592F692F792F892F62
S214002370A980BA80CB80DC80ED80FE800F81188536
S2140023800E945F8511F008F0E4C0808191812816D4
S214002390390691F48281938129853A852817390771
S2140023A059F4848195814B855C854817590721F43B
S2140023B0E989FA898686978689819A810196F40149
S2140023C0848F958FE680F780628573850B851C85E4
S2140023D029853A85A10189899A890E945801F401C4
S2140023E0E680F780648575850B851C8529853A858A
S2140023F0A10189899A890E945801F40186819781F2
S214002400668477846114710409F495C00196F3011B
S214002410268137818217930714F486839783E98988
S214002420FA89F681F983E989FA89F781FA83E989D5
S214002430FA89F085FB83E989FA89F185FC83E989C5
S214002440FA89F285FD83E989FA89F385FE83E989AD
S214002450FA89F485FF83E989FA89F585F887F30117
S214002460358D248D932F990F990B492F592F692F4E
S214002470792F892FA980BA80CB80DC80ED80FE8002
S2140024800F8118850E945F8511F008F054C0808186
S21400249091812816390691F48281938129853A859F
S2140024A02817390759F4848195814B855C85481730
S2140024B0590721F4E989FA896686778689819A819F
S2140024C00196F301848F958FE680F7806285738589
S2140024D00B851C8529853A85A10189899A890E94E0
S2140024E05801F301E680F780648575850B851C85A9
S2140024F029853A85A10189899A890E945801F301A4
S214002500E680F780668577850B851C8529853A8564
S214002510A10189899A890E945801F301E680F78013
S214002520608971890B851C8529853A85A101898971
S2140025309A890E945801F401E680F78060897189C3
S2140025400B851C8529853A85A10189899A890E946F
S2140025505801F201868197818088918881149104C0
S21400256009F425C10196F401268137818217930765
S21400257014F486839783E989FA89F681F983E989D1
S214002580FA89F781FA83E989FA89F085FB83E98974
S214002590FA89F185FC83E989FA89F285FD83E98960
S2140025A0FA89F385FE83E989FA89F485FF83E98948
S2140025B0FA89F585F887F401358D248D932F990FC8
S2140025C0990B492F592F692F792F892FA980BA8007
S2140025D0CB80DC80ED80FE800F8118850E945F85B1
S2140025E011F008F0E4C0808191812816390691F434
S2140025F08281938129853A852817390759F4848181
S21400260095814B855C854817590721F4E989FA8935
S2140026108686978689819A810196F401848F958FA4
S214002620E680F780628573850B851C8529853A854B
S214002630A10189899A890E945801F401E680F780F1
S214002640648575850B851C8529853A85A101898950
S2140026509A890E945801F40186819781668477845E
S2140026606114710409F495C00196F301268137813F
S2140026708217930714F486839783E989FA89F6818B
S214002680F983E989FA89F781FA83E989FA89F08575
S214002690FB83E989FA89F185FC83E989FA89F28561
S2140026A0FD83E989FA89F385FE83E989FA89F48549
S2140026B0FF83E989FA89F585F887F301358D248D3E
S2140026C0932F990F990B492F592F692F792F892FFF
S2140026D0A980BA80CB80DC80ED80FE800F811885D3
S2140026E00E945F8511F008F054C080819181281601
S2140026F0390691F48281938129853A85281739070E
S21400270059F4848195814B855C854817590721F4D7
S214002710E989FA896686778689819A810196F30126
S214002720848F958FE680F780628573850B851C8580
S21400273029853A85A10189899A890E945801F30161
S214002740E680F780648575850B851C8529853A8526
S214002750A10189899A890E945801F301E680F780D1
S214002760668577850B851C8529853A85A10189892B
S2140027709A890E945801F301E680F7806089718982
S2140027800B851C8529853A85A10189899A890E942D
S2140027905801F401E680F780608971890B851C85F5
S2140027A029853A85A10189899A890E945801ED8573
S2140027B0FE8586819781468457844114510411F41E
S2140027C00C94081E0196F201268137818217930722
S2140027D014F486839783E989FA89F681F983E9896F
S2140027E0FA89F781FA83E989FA89F085FB83E98912
S2140027F0FA89F185FC83E989FA89F285FD83E989FE
S214002800FA89F385FE83E989FA89F485FF83E989E5
S214002810FA89F585F887F201358D248D932F990F67
S214002820990B492F592F692F792F892FA980BA80A4
S214002830CB80DC80ED80FE800F8118850E945F854E
S21400284019F010F00C94081E808191812816390624
S21400285091F48281938129853A852817390759F49E
S214002860848195814B855C854817590721F4E98951
S214002870FA894686578689819A810196F201848F65
S214002880958F86819781828493848114910409F4BC
S214002890B5C10196F401268137818217930714F497
S2140028A086839783E989FA89F681F983E989FA8923
S2140028B0F781FA83E989FA89F085FB83E989FA8941
S2140028C0F185FC83E989FA89F285FD83E989FA892D
S2140028D0F385FE83E989FA89F485FF83E989FA8915
S2140028E0F585F887F401358D248D932F990F990B74
S2140028F0492F592F692F792F892FA980BA80CB802D
S214002900DC80ED80FE800F8118850E945F8511F0C7
S21400291008F074C1808191812816390691F482816D
S214002920938129853A852817390759F4848195813A
S2140029304B855C854817590721F4E989FA8986860C
S214002940978689819A810196F401848F958FE68017
S214002950F780628573850B851C8529853A85A101DC
S21400296089899A890E945801F401E680F780648577
S21400297075850B851C8529853A85A10189899A89E3
S2140029800E945801F40186819781668477846114D9
S214002990710409F495C00196F301268137818217E8
S2140029A0930714F486839783E989FA89F681F98375
S2140029B0E989FA89F781FA83E989FA89F085FB8340
S2140029C0E989FA89F185FC83E989FA89F285FD832C
S2140029D0E989FA89F385FE83E989FA89F485FF8314
S2140029E0E989FA89F585F887F301358D248D932FCB
S2140029F0990F990B492F592F692F792F892FA98065
S214002A00BA80CB80DC80ED80FE800F8118850E9426
S214002A105F8511F008F054C0808191812816390630
S214002A2091F48281938129853A852817390759F4CC
S214002A30848195814B855C854817590721F4E9897F
S214002A40FA896686778689819A810196F301848F52
S214002A50958FE680F780628573850B851C852985B2
S214002A603A85A10189899A890E945801F301E68076
S214002A70F780648575850B851C8529853A85A101B7
S214002A8089899A890E945801F301E680F780668555
S214002A9077850B851C8529853A85A10189899A89C0
S214002AA00E945801F301E680F780608971890B85E2
S214002AB01C8529853A85A10189899A890E94580131
S214002AC0F40186819781808891888114910409F4A5
S214002AD095C00196F401268137818217930714F476
S214002AE086839783E989FA89F681F983E989FA89E1
S214002AF0F781FA83E989FA89F085FB83E989FA89FF
S214002B00F185FC83E989FA89F285FD83E989FA89EA
S214002B10F385FE83E989FA89F485FF83E989FA89D2
S214002B20F585F887F401358D248D932F990F990B31
S214002B30492F592F692F792F892FA980BA80CB80EA
S214002B40DC80ED80FE800F8118850E945F8511F085
S214002B5008F054C0808191812816390691F482814C
S214002B60938129853A852817390759F484819581F8
S214002B704B855C854817590721F4E989FA898686CA
S214002B80978689819A810196F401848F958FE680D5
S214002B90F780628573850B851C8529853A85A1019A
S214002BA089899A890E945801F401E680F780648535
S214002BB075850B851C8529853A85A10189899A89A1
S214002BC00E945801F401E680F780668577850B85BC
S214002BD01C8529853A85A10189899A890E94580110
S214002BE0F401E680F780608971890B851C8529854C
S214002BF03A85A10189899A890E945801F201868145
S214002C009781848495848114910409F445C20196C1
S214002C10F401268137818217930714F486839783FD
S214002C20E989FA89F681F983E989FA89F781FA83CD
S214002C30E989FA89F085FB83E989FA89F185FC83BD
S214002C40E989FA89F285FD83E989FA89F385FE83A5
S214002C50E989FA89F485FF83E989FA89F585F88791
S214002C60F401358D248D932F990F990B492F592FE9
S214002C70692F792F892FA980BA80CB80DC80ED80E0
S214002C80FE800F8118850E945F8511F008F004C24F
S214002C90808191812816390691F482819381298555
S214002CA03A852817390759F4848195814B855C85C8
S214002CB04817590721F4E989FA8986869786898113
S214002CC09A810196F401848F958F8681978162841C
S214002CD073846114710409F495C00196F30126818A
S214002CE037818217930714F486839783E989FA89D4
S214002CF0F681F983E989FA89F781FA83E989FA89FD
S214002D00F085FB83E989FA89F185FC83E989FA89EC
S214002D10F285FD83E989FA89F385FE83E989FA89D4
S214002D20F485FF83E989FA89F585F887F301358DFF
S214002D30248D932F990F990B492F592F692F792F8F
S214002D40892FA980BA80CB80DC80ED80FE800F8141
S214002D5018850E945F8511F008F054C0808191812B
S214002D602816390691F48281938129853A85281799
S214002D70390759F4848195814B855C854817590736
S214002D8021F4E989FA896686778689819A8101968F
S214002D90F301848F958FE680F780628573850B85B7
S214002DA01C8529853A85A10189899A890E9458013E
S214002DB0F301E680F780648575850B851C8529857B
S214002DC03A85A10189899A890E945801F301E68013
S214002DD0F780668577850B851C8529853A85A10150
S214002DE089899A890E945801F301E680F7806089F4
S214002DF071890B851C8529853A85A10189899A895F
S214002E000E945801F4018681978164847584611458
S214002E10710409F495C00196F30126813781821763
S214002E20930714F486839783E989FA89F681F983F0
S214002E30E989FA89F781FA83E989FA89F085FB83BB
S214002E40E989FA89F185FC83E989FA89F285FD83A7
S214002E50E989FA89F385FE83E989FA89F485FF838F
S214002E60E989FA89F585F887F301358D248D932F46
S214002E70990F990B492F592F692F792F892FA980E0
S214002E80BA80CB80DC80ED80FE800F8118850E94A2
S214002E905F8511F008F054C08081918128163906AC
S214002EA091F48281938129853A852817390759F448
S214002EB0848195814B855C854817590721F4E989FB
S214002EC0FA896686778689819A810196F301848FCE
S214002ED0958FE680F780628573850B851C8529852E
S214002EE03A85A10189899A890E945801F301E680F2
S214002EF0F780648575850B851C8529853A85A10133
S214002F0089899A890E945801F301E680F7806685D0
S214002F1077850B851C8529853A85A10189899A893B
S214002F200E945801F301E680F780608971890B855D
S214002F301C8529853A85A10189899A890E945801AC
S214002F40F40186819781668477846114710409F49C
S214002F5095C00196F301268137818217930714F4F2
S214002F6086839783E989FA89F681F983E989FA895C
S214002F70F781FA83E989FA89F085FB83E989FA897A
S214002F80F185FC83E989FA89F285FD83E989FA8966
S214002F90F385FE83E989FA89F485FF83E989FA894E
S214002FA0F585F887F301358D248D932F990F990BAE
S214002FB0492F592F692F792F892FA980BA80CB8066
S214002FC0DC80ED80FE800F8118850E945F8511F001
S214002FD008F054C0808191812816390691F48281C8
S214002FE0938129853A852817390759F48481958174
S214002FF04B855C854817590721F4E989FA89668666
S214003000778689819A810196F301848F958FE68071
S214003010F780628573850B851C8529853A85A10115
S21400302089899A890E945801F301E680F7806485B1
S21400303075850B851C8529853A85A10189899A891C
S2140030400E945801F301E680F780668577850B8538
S2140030501C8529853A85A10189899A890E9458018B
S214003060F301E680F780608971890B851C852985C8
S2140030703A85A10189899A890E945801F401E6805F
S214003080F780608971890B851C8529853A85A101A1
S21400309089899A890E945801F201868197818684DF
S2140030A097848114910409F4D5C20196F40126810F
S2140030B037818217930714F486839783E989FA8900
S2140030C0F681F983E989FA89F781FA83E989FA8929
S2140030D0F085FB83E989FA89F185FC83E989FA8919
S2140030E0F285FD83E989FA89F385FE83E989FA8901
S2140030F0F485FF83E989FA89F585F887F401358D2B
S214003100248D932F990F990B492F592F692F792FBB
S214003110892FA980BA80CB80DC80ED80FE800F816D
S21400312018850E945F8511F008F094C28081918115
S2140031302816390691F48281938129853A852817C5
S214003140390759F4848195814B855C854817590762
S21400315021F4E989FA898686978689819A8101967B
S214003160F401848F958F86819781628473846114BD
S214003170710409F495C00196F30126813781821700
S214003180930714F486839783E989FA89F681F9838D
S214003190E989FA89F781FA83E989FA89F085FB8358
S2140031A0E989FA89F185FC83E989FA89F285FD8344
S2140031B0E989FA89F385FE83E989FA89F485FF832C
S2140031C0E989FA89F585F887F301358D248D932FE3
S2140031D0990F990B492F592F692F792F892FA9807D
S2140031E0BA80CB80DC80ED80FE800F8118850E943F
S2140031F05F8511F008F054C0808191812816390649
S21400320091F48281938129853A852817390759F4E4
S214003210848195814B855C854817590721F4E98997
S214003220FA896686778689819A810196F301848F6A
S214003230958FE680F780628573850B851C852985CA
S2140032403A85A10189899A890E945801F301E6808E
S214003250F780648575850B851C8529853A85A101CF
S21400326089899A890E945801F301E680F78066856D
S21400327077850B851C8529853A85A10189899A89D8
S2140032800E945801F301E680F780608971890B85FA
S2140032901C8529853A85A10189899A890E94580149
S2140032A0F40186819781648475846114710409F43D
S2140032B095C00196F301268137818217930714F48F
S2140032C086839783E989FA89F681F983E989FA89F9
S2140032D0F781FA83E989FA89F085FB83E989FA8917
S2140032E0F185FC83E989FA89F285FD83E989FA8903
S2140032F0F385FE83E989FA89F485FF83E989FA89EB
S214003300F585F887F301358D248D932F990F990B4A
S214003310492F592F692F792F892FA980BA80CB8002
S214003320DC80ED80FE800F8118850E945F8511F09D
S21400333008F054C0808191812816390691F4828164
S214003340938129853A852817390759F48481958110
S2140033504B855C854817590721F4E989FA89668602
S214003360778689819A810196F301848F958FE6800E
S214003370F780628573850B851C8529853A85A101B2
S21400338089899A890E945801F301E680F78064854E
S21400339075850B851C8529853A85A10189899A89B9
S2140033A00E945801F301E680F780668577850B85D5
S2140033B01C8529853A85A10189899A890E94580128
S2140033C0F301E680F780608971890B851C85298565
S2140033D03A85A10189899A890E945801F40186815B
S2140033E09781668477846114710409F495C0019608
S2140033F0F301268137818217930714F48683978317
S214003400E989FA89F681F983E989FA89F781FA83E5
S214003410E989FA89F085FB83E989FA89F185FC83D5
S214003420E989FA89F285FD83E989FA89F385FE83BD
S214003430E989FA89F485FF83E989FA89F585F887A9
S214003440F301358D248D932F990F990B492F592F02
S214003450692F792F892FA980BA80CB80DC80ED80F8
S214003460FE800F8118850E945F8511F008F054C019
S214003470808191812816390691F48281938129856D
S2140034803A852817390759F4848195814B855C85E0
S2140034904817590721F4E989FA896686778689816B
S2140034A09A810196F301848F958FE680F780628576
S2140034B073850B851C8529853A85A10189899A899A
S2140034C00E945801F301E680F780648575850B85B8
S2140034D01C8529853A85A10189899A890E94580107
S2140034E0F301E680F780668577850B851C85298540
S2140034F03A85A10189899A890E945801F301E680DC
S214003500F780608971890B851C8529853A85A1011C
S21400351089899A890E945801F4018681978180885A
S21400352091888114910409F495C00196F4012681CE
S21400353037818217930714F486839783E989FA897B
S214003540F681F983E989FA89F781FA83E989FA89A4
S214003550F085FB83E989FA89F185FC83E989FA8994
S214003560F285FD83E989FA89F385FE83E989FA897C
S214003570F485FF83E989FA89F585F887F401358DA6
S214003580248D932F990F990B492F592F692F792F37
S214003590892FA980BA80CB80DC80ED80FE800F81E9
S2140035A018850E945F8511F008F054C080819181D3
S2140035B02816390691F48281938129853A85281741
S2140035C0390759F4848195814B855C8548175907DE
S2140035D021F4E989FA898686978689819A810196F7
S2140035E0F401848F958FE680F780628573850B855E
S2140035F01C8529853A85A10189899A890E945801E6
S214003600F401E680F780648575850B851C85298521
S2140036103A85A10189899A890E945801F401E680B9
S214003620F780668577850B851C8529853A85A101F7
S21400363089899A890E945801F401E680F78060899A
S21400364071890B851C8529853A85A10189899A8906
S2140036500E945801F20186819781808891888114A2
S214003660910409F4D5C20196F401268137818217A8
S214003670930714F486839783E989FA89F681F98398
S214003680E989FA89F781FA83E989FA89F085FB8363
S214003690E989FA89F185FC83E989FA89F285FD834F
S2140036A0E989FA89F385FE83E989FA89F485FF8337
S2140036B0E989FA89F585F887F401358D248D932FED
S2140036C0990F990B492F592F692F792F892FA98088
S2140036D0BA80CB80DC80ED80FE800F8118850E944A
S2140036E05F8511F008F094C2808191812816390612
S2140036F091F48281938129853A852817390759F4F0
S214003700848195814B855C854817590721F4E989A2
S214003710FA898686978689819A810196F401848F34
S214003720958F86819781628473846114710409F48D
S21400373095C00196F301268137818217930714F40A
S21400374086839783E989FA89F681F983E989FA8974
S214003750F781FA83E989FA89F085FB83E989FA8992
S214003760F185FC83E989FA89F285FD83E989FA897E
S214003770F385FE83E989FA89F485FF83E989FA8966
S214003780F585F887F301358D248D932F990F990BC6
S214003790492F592F692F792F892FA980BA80CB807E
S2140037A0DC80ED80FE800F8118850E945F8511F019
S2140037B008F054C0808191812816390691F48281E0
S2140037C0938129853A852817390759F4848195818C
S2140037D04B855C854817590721F4E989FA8966867E
S2140037E0778689819A810196F301848F958FE6808A
S2140037F0F780628573850B851C8529853A85A1012E
S21400380089899A890E945801F301E680F7806485C9
S21400381075850B851C8529853A85A10189899A8934
S2140038200E945801F301E680F780668577850B8550
S2140038301C8529853A85A10189899A890E945801A3
S214003840F301E680F780608971890B851C852985E0
S2140038503A85A10189899A890E945801F4018681D6
S2140038609781648475846114710409F495C0019687
S214003870F301268137818217930714F48683978392
S214003880E989FA89F681F983E989FA89F781FA8361
S214003890E989FA89F085FB83E989FA89F185FC8351
S2140038A0E989FA89F285FD83E989FA89F385FE8339
S2140038B0E989FA89F485FF83E989FA89F585F88725
S2140038C0F301358D248D932F990F990B492F592F7E
S2140038D0692F792F892FA980BA80CB80DC80ED8074
S2140038E0FE800F8118850E945F8511F008F054C095
S2140038F0808191812816390691F4828193812985E9
S2140039003A852817390759F4848195814B855C855B
S2140039104817590721F4E989FA89668677868981E6
S2140039209A810196F301848F958FE680F7806285F1
S21400393073850B851C8529853A85A10189899A8915
S2140039400E945801F301E680F780648575850B8533
S2140039501C8529853A85A10189899A890E94580182
S214003960F301E680F780668577850B851C852985BB
S2140039703A85A10189899A890E945801F301E68057
S214003980F780608971890B851C8529853A85A10198
S21400399089899A890E945801F401868197816684F4
S2140039A077846114710409F495C00196F3012681A9
S2140039B037818217930714F486839783E989FA89F7
S2140039C0F681F983E989FA89F781FA83E989FA8920
S2140039D0F085FB83E989FA89F185FC83E989FA8910
S2140039E0F285FD83E989FA89F385FE83E989FA89F8
S2140039F0F485FF83E989FA89F585F887F301358D23
S214003A00248D932F990F990B492F592F692F792FB2
S214003A10892FA980BA80CB80DC80ED80FE800F8164
S214003A2018850E945F8511F008F054C0808191814E
S214003A302816390691F48281938129853A852817BC
S214003A40390759F4848195814B855C854817590759
S214003A5021F4E989FA896686778689819A810196B2
S214003A60F301848F958FE680F780628573850B85DA
S214003A701C8529853A85A10189899A890E94580161
S214003A80F301E680F780648575850B851C8529859E
S214003A903A85A10189899A890E945801F301E68036
S214003AA0F780668577850B851C8529853A85A10173
S214003AB089899A890E945801F301E680F780608917
S214003AC071890B851C8529853A85A10189899A8982
S214003AD00E945801F401868197818088918881141C
S214003AE0910409F495C00196F40126813781821766
S214003AF0930714F486839783E989FA89F681F98314
S214003B00E989FA89F781FA83E989FA89F085FB83DE
S214003B10E989FA89F185FC83E989FA89F285FD83CA
S214003B20E989FA89F385FE83E989FA89F485FF83B2
S214003B30E989FA89F585F887F401358D248D932F68
S214003B40990F990B492F592F692F792F892FA98003
S214003B50BA80CB80DC80ED80FE800F8118850E94C5
S214003B605F8511F008F054C08081918128163906CF
S214003B7091F48281938129853A852817390759F46B
S214003B80848195814B855C854817590721F4E9891E
S214003B90FA898686978689819A810196F401848FB0
S214003BA0958FE680F780628573850B851C85298551
S214003BB03A85A10189899A890E945801F401E68014
S214003BC0F780648575850B851C8529853A85A10156
S214003BD089899A890E945801F401E680F7806685F3
S214003BE077850B851C8529853A85A10189899A895F
S214003BF00E945801F401E680F780608971890B8580
S214003C001C8529853A85A10189899A890E945801CF
S214003C10ED85FE8586819781808891888114910440
S214003C2009F4C5C60196F4012681378182179307E9
S214003C3014F486839783E989FA89F681F983E989FA
S214003C40FA89F781FA83E989FA89F085FB83E9899D
S214003C50FA89F185FC83E989FA89F285FD83E98989
S214003C60FA89F385FE83E989FA89F485FF83E98971
S214003C70FA89F585F887F401358D248D932F990FF1
S214003C80990B492F592F692F792F892FA980BA8030
S214003C90CB80DC80ED80FE800F8118850E945F85DA
S214003CA011F008F084C6808191812816390691F4B7
S214003CB08281938129853A852817390759F48481AA
S214003CC095814B855C854817590721F4E989FA895F
S214003CD08686978689819A810196F401848F958FCE
S214003CE086819781428453844114510409F4D5C2D5
S214003CF00196F201268137818217930714F4868392
S214003D009783E989FA89F681F983E989FA89F7813F
S214003D10FA83E989FA89F085FB83E989FA89F185CE
S214003D20FC83E989FA89F285FD83E989FA89F385B6
S214003D30FE83E989FA89F485FF83E989FA89F5859E
S214003D40F887F201358D248D932F990F990B492F03
S214003D50592F692F792F892FA980BA80CB80DC80D4
S214003D60ED80FE800F8118850E945F8511F008F0B7
S214003D7094C2808191812816390691F482819381BC
S214003D8029853A852817390759F4848195814B850A
S214003D905C854817590721F4E989FA8946865786CB
S214003DA089819A810196F201848F958F8681978109
S214003DB0628473846114710409F495C00196F3015A
S214003DC0268137818217930714F486839783E989BF
S214003DD0FA89F681F983E989FA89F781FA83E9890C
S214003DE0FA89F085FB83E989FA89F185FC83E989FC
S214003DF0FA89F285FD83E989FA89F385FE83E989E4
S214003E00FA89F485FF83E989FA89F585F887F3014D
S214003E10358D248D932F990F990B492F592F692F84
S214003E20792F892FA980BA80CB80DC80ED80FE8038
S214003E300F8118850E945F8511F008F054C08081BC
S214003E4091812816390691F48281938129853A85D5
S214003E502817390759F4848195814B855C85481766
S214003E60590721F4E989FA896686778689819A81D5
S214003E700196F301848F958FE680F78062857385BF
S214003E800B851C8529853A85A10189899A890E9416
S214003E905801F301E680F780648575850B851C85DF
S214003EA029853A85A10189899A890E945801F301DA
S214003EB0E680F780668577850B851C8529853A859B
S214003EC0A10189899A890E945801F301E680F7804A
S214003ED0608971890B851C8529853A85A1018989A8
S214003EE09A890E945801F2018681978164847584BC
S214003EF06114710409F495C00196F3012681378197
S214003F008217930714F486839783E989FA89F681E2
S214003F10F983E989FA89F781FA83E989FA89F085CC
S214003F20FB83E989FA89F185FC83E989FA89F285B8
S214003F30FD83E989FA89F385FE83E989FA89F485A0
S214003F40FF83E989FA89F585F887F301358D248D95
S214003F50932F990F990B492F592F692F792F892F56
S214003F60A980BA80CB80DC80ED80FE800F8118852A
S214003F700E945F8511F008F054C080819181281658
S214003F80390691F48281938129853A852817390765
S214003F9059F4848195814B855C854817590721F42F
S214003FA0E989FA896686778689819A810196F3017E
S214003FB0848F958FE680F780628573850B851C85D8
S214003FC029853A85A10189899A890E945801F301B9
S214003FD0E680F780648575850B851C8529853A857E
S214003FE0A10189899A890E945801F301E680F78029
S214003FF0668577850B851C8529853A85A101898983
S2140040009A890E945801F301E680F78060897189D9
S2140040100B851C8529853A85A10189899A890E9484
S2140040205801F20186819781668477846114710451
S21400403009F495C00196F30126813781821793070C
S21400404014F486839783E989FA89F681F983E989E6
S214004050FA89F781FA83E989FA89F085FB83E98989
S214004060FA89F185FC83E989FA89F285FD83E98975
S214004070FA89F385FE83E989FA89F485FF83E9895D
S214004080FA89F585F887F301358D248D932F990FDE
S214004090990B492F592F692F792F892FA980BA801C
S2140040A0CB80DC80ED80FE800F8118850E945F85C6
S2140040B011F008F054C0808191812816390691F4D9
S2140040C08281938129853A852817390759F4848196
S2140040D095814B855C854817590721F4E989FA894B
S2140040E06686778689819A810196F301848F958FFB
S2140040F0E680F780628573850B851C8529853A8561
S214004100A10189899A890E945801F301E680F78007
S214004110648575850B851C8529853A85A101898965
S2140041209A890E945801F301E680F78066857785B4
S2140041300B851C8529853A85A10189899A890E9463
S2140041405801F301E680F780608971890B851C852C
S21400415029853A85A10189899A890E945801F20128
S21400416086819781608871886114710409F495C00E
S2140041700196F301268137818217930714F486830C
S2140041809783E989FA89F681F983E989FA89F781BB
S214004190FA83E989FA89F085FB83E989FA89F1854A
S2140041A0FC83E989FA89F285FD83E989FA89F38532
S2140041B0FE83E989FA89F485FF83E989FA89F5851A
S2140041C0F887F301358D248D932F990F990B492F7E
S2140041D0592F692F792F892FA980BA80CB80DC8050
S2140041E0ED80FE800F8118850E945F8511F008F033
S2140041F054C0808191812816390691F4828193817A
S21400420029853A852817390759F4848195814B8585
S2140042105C854817590721F4E989FA896686778606
S21400422089819A810196F301848F958FE680F780C5
S214004230628573850B851C8529853A85A101898948
S2140042409A890E945801F301E680F7806485758597
S2140042500B851C8529853A85A10189899A890E9442
S2140042605801F301E680F780668577850B851C8507
S21400427029853A85A10189899A890E945801F30106
S214004280E680F780608971890B851C8529853A85CB
S214004290A10189899A890E945801F4018681978133
S2140042A0648475846114710409F495C00196F30161
S2140042B0268137818217930714F486839783E989CA
S2140042C0FA89F681F983E989FA89F781FA83E98917
S2140042D0FA89F085FB83E989FA89F185FC83E98907
S2140042E0FA89F285FD83E989FA89F385FE83E989EF
S2140042F0FA89F485FF83E989FA89F585F887F30159
S214004300358D248D932F990F990B492F592F692F8F
S214004310792F892FA980BA80CB80DC80ED80FE8043
S2140043200F8118850E945F8511F008F054C08081C7
S21400433091812816390691F48281938129853A85E0
S2140043402817390759F4848195814B855C85481771
S214004350590721F4E989FA896686778689819A81E0
S2140043600196F301848F958FE680F78062857385CA
S2140043700B851C8529853A85A10189899A890E9421
S2140043805801F301E680F780648575850B851C85EA
S21400439029853A85A10189899A890E945801F301E5
S2140043A0E680F780668577850B851C8529853A85A6
S2140043B0A10189899A890E945801F301E680F78055
S2140043C0608971890B851C8529853A85A1018989B3
S2140043D09A890E945801F4018681978166847784C1
S2140043E06114710409F495C00196F30126813781A2
S2140043F08217930714F486839783E989FA89F681EE
S214004400F983E989FA89F781FA83E989FA89F085D7
S214004410FB83E989FA89F185FC83E989FA89F285C3
S214004420FD83E989FA89F385FE83E989FA89F485AB
S214004430FF83E989FA89F585F887F301358D248DA0
S214004440932F990F990B492F592F692F792F892F61
S214004450A980BA80CB80DC80ED80FE800F81188535
S2140044600E945F8511F008F054C080819181281663
S214004470390691F48281938129853A852817390770
S21400448059F4848195814B855C854817590721F43A
S214004490E989FA896686778689819A810196F30189
S2140044A0848F958FE680F780628573850B851C85E3
S2140044B029853A85A10189899A890E945801F301C4
S2140044C0E680F780648575850B851C8529853A8589
S2140044D0A10189899A890E945801F301E680F78034
S2140044E0668577850B851C8529853A85A10189898E
S2140044F09A890E945801F301E680F78060897189E5
S2140045000B851C8529853A85A10189899A890E948F
S2140045105801F401868197818088918881149104DE
S21400452009F445C20196F401268137818217930764
S21400453014F486839783E989FA89F681F983E989F1
S214004540FA89F781FA83E989FA89F085FB83E98994
S214004550FA89F185FC83E989FA89F285FD83E98980
S214004560FA89F385FE83E989FA89F485FF83E98968
S214004570FA89F585F887F401358D248D932F990FE8
S214004580990B492F592F692F792F892FA980BA8027
S214004590CB80DC80ED80FE800F8118850E945F85D1
S2140045A011F008F004C2808191812816390691F432
S2140045B08281938129853A852817390759F48481A1
S2140045C095814B855C854817590721F4E989FA8956
S2140045D08686978689819A810196F401848F958FC5
S2140045E0E680F780628573850B851C8529853A856C
S2140045F0A10189899A890E945801F40186819781D0
S214004600648475846114710409F495C00196F301FD
S214004610268137818217930714F486839783E98966
S214004620FA89F681F983E989FA89F781FA83E989B3
S214004630FA89F085FB83E989FA89F185FC83E989A3
S214004640FA89F285FD83E989FA89F385FE83E9898B
S214004650FA89F485FF83E989FA89F585F887F301F5
S214004660358D248D932F990F990B492F592F692F2C
S214004670792F892FA980BA80CB80DC80ED80FE80E0
S2140046800F8118850E945F8511F008F054C0808164
S21400469091812816390691F48281938129853A857D
S2140046A02817390759F4848195814B855C8548170E
S2140046B0590721F4E989FA896686778689819A817D
S2140046C00196F301848F958FE680F7806285738567
S2140046D00B851C8529853A85A10189899A890E94BE
S2140046E05801F301E680F780648575850B851C8587
S2140046F029853A85A10189899A890E945801F30182
S214004700E680F780668577850B851C8529853A8542
S214004710A10189899A890E945801F301E680F780F1
S214004720608971890B851C8529853A85A10189894F
S2140047309A890E945801F40186819781668477845D
S2140047406114710409F495C00196F301268137813E
S2140047508217930714F486839783E989FA89F6818A
S214004760F983E989FA89F781FA83E989FA89F08574
S214004770FB83E989FA89F185FC83E989FA89F28560
S214004780FD83E989FA89F385FE83E989FA89F48548
S214004790FF83E989FA89F585F887F301358D248D3D
S2140047A0932F990F990B492F592F692F792F892FFE
S2140047B0A980BA80CB80DC80ED80FE800F811885D2
S2140047C00E945F8511F008F054C080819181281600
S2140047D0390691F48281938129853A85281739070D
S2140047E059F4848195814B855C854817590721F4D7
S2140047F0E989FA896686778689819A810196F30126
S214004800848F958FE680F780628573850B851C857F
S21400481029853A85A10189899A890E945801F30160
S214004820E680F780648575850B851C8529853A8525
S214004830A10189899A890E945801F301E680F780D0
S214004840668577850B851C8529853A85A10189892A
S2140048509A890E945801F301E680F7806089718981
S2140048600B851C8529853A85A10189899A890E942C
S2140048705801F4018681978180889188811491047B
S21400488009F495C00196F4012681378182179307B3
S21400489014F486839783E989FA89F681F983E9898E
S2140048A0FA89F781FA83E989FA89F085FB83E98931
S2140048B0FA89F185FC83E989FA89F285FD83E9891D
S2140048C0FA89F385FE83E989FA89F485FF83E98905
S2140048D0FA89F585F887F401358D248D932F990F85
S2140048E0990B492F592F692F792F892FA980BA80C4
S2140048F0CB80DC80ED80FE800F8118850E945F856E
S21400490011F008F054C0808191812816390691F480
S2140049108281938129853A852817390759F484813D
S21400492095814B855C854817590721F4E989FA89F2
S2140049308686978689819A810196F401848F958F61
S214004940E680F780628573850B851C8529853A8508
S214004950A10189899A890E945801F401E680F780AE
S214004960648575850B851C8529853A85A10189890D
S2140049709A890E945801F401E680F780668577855B
S2140049800B851C8529853A85A10189899A890E940B
S2140049905801F401E680F780608971890B851C85D3
S2140049A029853A85A10189899A890E945801E98951
S2140049B0FA8926813781408551856285738584858D
S2140049C09585A1E00E9453852683378340875187CB
S2140049D06287738784879587868497848114910479
S2140049E009F05AC0E6E3F0E22481358180819181A6
S2140049F001972817390784F42F5F3F4F20933A20FA
S214004A0030933B204EE1429FC001439F900D1124FE
S214004A109C01245C3F4D4901F401208231822985A6
S214004A203A85228333834B855C8544835583EF85A3
S214004A30F88982859385892BA9F084859585892BAD
S214004A4059F086859785892B51F080899189892B25
S214004A50A1F4E3E0F0E008C0E1E0F0E005C0E2E049
S214004A60F0E002C0E0E0F0E03596EE0FFF1F2F8585
S214004A703889E20FF31F80829182EF85F88986815C
S214004A8097810196F401868397832F853889228B38
S214004A90338B2287338772C3EF85F88982859385A7
S214004AA08815990509F465C32485358528153905C3
S214004AB009F45FC3268537852815390509F459C3D7
S214004AC0208931892815390509F453C3892BA1F0AB
S214004AD084859585892B51F086859785892B49F0A5
S214004AE0C901892BA9F483E090E008C081E090E03A
S214004AF005C082E090E002C080E090E0FC013596C0
S214004B00EE0FFF1F2F853889E20FF31F80829182F8
S214004B10F401828593852F8538892817390799F1FE
S214004B20248535854F8558894217530761F12685B8
S214004B3037854217530739F12089318942175307C1
S214004B4011F1892BA1F084859585892B51F08685F6
S214004B509785892B49F0C901892BA9F483E090E059
S214004B6008C081E090E005C082E090E002C080E0EE
S214004B7090E0FC013596EE0FFF1FE80DF91D8F85BE
S214004B80988980839183E989FA89168617864280F8
S214004B905380F201868197814114510409F4D4C2EE
S214004BA09C012F5F3F4F2817390714F4268337835D
S214004BB0E989FA89F681F983E989FA89F781FA831E
S214004BC0E989FA89F085FB83E989FA89F185FC830E
S214004BD0E989FA89F285FD83E989FA89F385FE83F6
S214004BE0E989FA89F485FF83E989FA89F585F887E2
S214004BF0F201358D248D932F990F990B492F592F3C
S214004C00692F792F892FA980BA80CB80DC80ED8030
S214004C10FE800F8118850E945F8511F008F094C20F
S214004C20808191812816390691F4828193812985A5
S214004C303A852817390759F4848195814B855C8518
S214004C404817590721F4E989FA89468657868981E3
S214004C509A810196F201848F958F8681978162846E
S214004C6073846114710409F495C00196F3012681DA
S214004C7037818217930714F486839783E989FA8924
S214004C80F681F983E989FA89F781FA83E989FA894D
S214004C90F085FB83E989FA89F185FC83E989FA893D
S214004CA0F285FD83E989FA89F385FE83E989FA8925
S214004CB0F485FF83E989FA89F585F887F301358D50
S214004CC0248D932F990F990B492F592F692F792FE0
S214004CD0892FA980BA80CB80DC80ED80FE800F8192
S214004CE018850E945F8511F008F054C0808191817C
S214004CF02816390691F48281938129853A852817EA
S214004D00390759F4848195814B855C854817590786
S214004D1021F4E989FA896686778689819A810196DF
S214004D20F301848F958FE680F780628573850B8507
S214004D301C8529853A85A10189899A890E9458018E
S214004D40F301E680F780648575850B851C852985CB
S214004D503A85A10189899A890E945801F301E68063
S214004D60F780668577850B851C8529853A85A101A0
S214004D7089899A890E945801F301E680F780608944
S214004D8071890B851C8529853A85A10189899A89AF
S214004D900E945801F20186819781648475846114AB
S214004DA0710409F495C00196F301268137818217B4
S214004DB0930714F486839783E989FA89F681F98341
S214004DC0E989FA89F781FA83E989FA89F085FB830C
S214004DD0E989FA89F185FC83E989FA89F285FD83F8
S214004DE0E989FA89F385FE83E989FA89F485FF83E0
S214004DF0E989FA89F585F887F301358D248D932F97
S214004E00990F990B492F592F692F792F892FA98030
S214004E10BA80CB80DC80ED80FE800F8118850E94F2
S214004E205F8511F008F054C08081918128163906FC
S214004E3091F48281938129853A852817390759F498
S214004E40848195814B855C854817590721F4E9894B
S214004E50FA896686778689819A810196F301848F1E
S214004E60958FE680F780628573850B851C8529857E
S214004E703A85A10189899A890E945801F301E68042
S214004E80F780648575850B851C8529853A85A10183
S214004E9089899A890E945801F301E680F780668521
S214004EA077850B851C8529853A85A10189899A898C
S214004EB00E945801F301E680F780608971890B85AE
S214004EC01C8529853A85A10189899A890E945801FD
S214004ED0F20186819781668477846114710409F4EF
S214004EE095C00196F301268137818217930714F443
S214004EF086839783E989FA89F681F983E989FA89AD
S214004F00F781FA83E989FA89F085FB83E989FA89CA
S214004F10F185FC83E989FA89F285FD83E989FA89B6
S214004F20F385FE83E989FA89F485FF83E989FA899E
S214004F30F585F887F301358D248D932F990F990BFE
S214004F40492F592F692F792F892FA980BA80CB80B6
S214004F50DC80ED80FE800F8118850E945F8511F051
S214004F6008F054C0808191812816390691F4828118
S214004F70938129853A852817390759F484819581C4
S214004F804B855C854817590721F4E989FA896686B6
S214004F90778689819A810196F301848F958FE680C2
S214004FA0F780628573850B851C8529853A85A10166
S214004FB089899A890E945801F301E680F780648502
S214004FC075850B851C8529853A85A10189899A896D
S214004FD00E945801F301E680F780668577850B8589
S214004FE01C8529853A85A10189899A890E945801DC
S214004FF0F301E680F780608971890B851C85298519
S2140050003A85A10189899A890E945801F201868110
S2140050109781608871886114710409F495C00196BF
S214005020F301268137818217930714F486839783CA
S214005030E989FA89F681F983E989FA89F781FA8399
S214005040E989FA89F085FB83E989FA89F185FC8389
S214005050E989FA89F285FD83E989FA89F385FE8371
S214005060E989FA89F485FF83E989FA89F585F8875D
S214005070F301358D248D932F990F990B492F592FB6
S214005080692F792F892FA980BA80CB80DC80ED80AC
S214005090FE800F8118850E945F8511F008F054C0CD
S2140050A0808191812816390691F482819381298521
S2140050B03A852817390759F4848195814B855C8594
S2140050C04817590721F4E989FA896686778689811F
S2140050D09A810196F301848F958FE680F78062852A
S2140050E073850B851C8529853A85A10189899A894E
S2140050F00E945801F301E680F780648575850B856C
S2140051001C8529853A85A10189899A890E945801BA
S214005110F301E680F780668577850B851C852985F3
S2140051203A85A10189899A890E945801F301E6808F
S214005130F780608971890B851C8529853A85A101D0
S21400514089899A890E945801E989FA8926813781D6
S214005150408551856285738584859585A1E00E948A
S2140051605385268337834087518762877387848772
S21400517095872F853889F401228B338B6296CDBFB5
S214005180DEBFDF91CF911F910F91FF90EF90DF90E0
S214005190CF90BF90AF909F908F907F906F905F90D2
S2140051A04F903F902F9008952F923F924F925F928C
S2140051B06F927F928F929F92AF92BF92CF92DF9222
S2140051C0EF92FF920F931F93CF93DF93CDB7DEB787
S2140051D06097CDBFDEBF8F87988BDC01ED91FC9189
S2140051E01197208031802281338129873A878481F4
S2140051F095818B879C8714968D919C91159781300D
S214005200910571F01CF4892B39F01AC08230910593
S21400521069F0039779F014C091E0291A310810C09C
S214005220A985BA851196A987BA870AC0BFEF2B1A37
S2140052303B0A06C029853A852150310929873A87D5
S2140052400B851C8529853A85A101BF018F85988924
S2140052500E945C07AF85B8891E961D921C921F9708
S2140052601296ED91FC911397ED87FE8786819781C4
S214005270309711F40C943B4F9C012F5F3F4F28173B
S214005280390714F426833783AF85B8891696BC9100
S214005290B983EF85F889F781FA83AF85B8891896C0
S2140052A0BC91BB83EF85F889F185FC83AF85B8890F
S2140052B01A96BC91BD83EF85F889F385FE83AF858A
S2140052C0B8891C96BC91BF83EF85F889F585F88769
S2140052D0AD85BE855D963C915D975C962C915C97FE
S2140052E0932F990F990B492F592F692F792F892FB3
S2140052F0A980BA80CB80DC80ED80FE800F811F2FD6
S2140053000E945F8519F010F00C943B4F8D919C9194
S214005310119728163906B1F412968D919C91139721
S214005320E985FA85E817F90769F414968D919C913A
S21400533015972B853C852817390721F4EF85F889C2
S214005340A687B78789819A810196AD85BE855C96CA
S2140053508D939C935D9716968D919C9117971A96B0
S2140053608D909C901B978114910409F419C701969F
S214005370F401268137818217930714F48683978376
S214005380AF85B8891696BC91B983EF85F889F78101
S214005390FA83AF85B8891896BC91BB83EF85F889E8
S2140053A0F185FC83AF85B8891A96BC91BD83EF85DD
S2140053B0F889F385FE83AF85B8891C96BC91BF83B8
S2140053C0EF85F889F585F887D4015D963C915D9761
S2140053D05C962C915C97932F990F990B492F592F18
S2140053E0692F792F892FA980BA80CB80DC80ED8049
S2140053F0FE800F811F2F0E945F8511F008F0D0C637
S2140054008D919C91119728163906C1F412968D91AC
S2140054109C911397E985FA85E817F90779F41496AD
S2140054208D919C9115972B853C852817390731F46B
S214005430AF85B8891E968D929C921F9789819A8116
S2140054400196F401848F958F8681978142845384D8
S2140054504114510409F439C30196D20116962D91D0
S2140054603C9117978217930724F416968D939C9376
S2140054701797EF85F889F681F983AF85B88917966F
S214005480BC91BA83EF85F889F085FB83AF85B88930
S2140054901996BC91BC83EF85F889F285FD83AF85AC
S2140054A0B8891B96BC91BE83EF85F889F485FF8387
S2140054B0AF85B8891D96BC91B887F201358D248DCD
S2140054C0932F990F990B492F592F692F792F892FD1
S2140054D0A980BA80CB80DC80ED80FE800F811B2FF8
S2140054E00E945F8511F008F0F0C280819181281635
S2140054F0390691F48281938129853A8528173907E0
S21400550059F484819581AB85BC85A817B90721F429
S214005510EF85F8894686578689819A810196D20159
S2140055205C968D939C935D9716968D919C9117979C
S2140055301A966D907C901B976114710409F4ACC0A8
S2140055400196F301268137818217930714F4868328
S2140055509783AF85B8891696BC91B983EF85F8898D
S214005560F781FA83AF85B8891896BC91BB83EF851F
S214005570F889F185FC83AF85B8891A96BC91BD83FE
S214005580EF85F889F385FE83AF85B8891C96BC91B4
S214005590BF83EF85F889F585F887D3015D963C9142
S2140055A05D975C962C915C97932F990F990B492FDA
S2140055B0592F692F792F892FA980BA80CB80DC805C
S2140055C0ED80FE800F811F2F0E945F8511F008F08E
S2140055D063C08D919C91119728163906C1F41296D6
S2140055E08D919C911397E985FA85E817F90779F468
S2140055F014968D919C9115972B853C852817390715
S21400560031F4AF85B8891E966D927C921F9789817A
S2140056109A810196F301848F958FE680F7806285E4
S21400562073850B851C8529853A85A1018F85988908
S2140056300E945801D3011696ED90FC9017971C9681
S2140056406D917C911D970B851C8529853A85A10156
S2140056508F8598890E945801F301E680F780668559
S21400566077850B851C8529853A85A1018F859889C4
S2140056700E945801D3011696ED90FC90179750960D
S2140056806D917C9151970B851C8529853A85A101E2
S2140056908F8598890E945801F201868197816484DB
S2140056A075846114710409F4A7C00196D301169697
S2140056B02D913C9117978217930724F416968D9395
S2140056C09C931797EF85F889F681F983AF85B8899B
S2140056D01796BC91BA83EF85F889F085FB83AF8572
S2140056E0B8891996BC91BC83EF85F889F285FD834D
S2140056F0AF85B8891B96BC91BE83EF85F889F48583
S214005700FF83AF85B8891D96BC91B887F301358DA8
S214005710248D932F990F990B492F592F692F792F85
S214005720892FA980BA80CB80DC80ED80FE800F8137
S2140057301B2F0E945F8511F008F05EC0808191816A
S2140057402816390691F48281938129853A8528178F
S214005750390759F484819581AB85BC85A817B907AC
S21400576021F4EF85F8896686778689819A81019685
S214005770D3015C968D939C935D971696ED90FC9066
S21400578017971A966D917C911B970B851C8529851A
S2140057903A85A1018F8598890E945801F301E68019
S2140057A0F780648575850B851C8529853A85A1015A
S2140057B08F8598890E945801D3011696ED90FC902B
S2140057C017971E966D917C911F970B851C852985D2
S2140057D03A85A1018F8598890E945801F301E680D9
S2140057E0F780608971890B851C8529853A85A1011A
S2140057F08F8598890E945801D20116968D919C91AA
S21400580017971E966D907C901F976114710409F48B
S214005810ACC00196F301268137818217930714F4F2
S21400582086839783AF85B8891696BC91B983EF8532
S214005830F889F781FA83AF85B8891896BC91BB833F
S214005840EF85F889F185FC83AF85B8891A96BC91F7
S214005850BD83EF85F889F385FE83AF85B8891C96EE
S214005860BC91BF83EF85F889F585F887D3015D96EF
S2140058703C915D975C962C915C97932F990F990BB2
S214005880492F592F692F792F892FA980BA80CB806D
S214005890DC80ED80FE800F811F2F0E945F8511F057
S2140058A008F063C08D919C91119728163906C1F4B3
S2140058B012968D919C911397E985FA85E817F9075A
S2140058C079F414968D919C9115972B853C85281715
